:0E0A0F00C0F9A4B0999282F8809080A0C0E057
:10074700C102C103C100C101C105C10402590001B1
:10075700084E0000000000000000103200000000FA
:100767000000000000000000000000001022000050
:10077700000000000000000000000000000001561B
:100787000001430001420002440000024800FA024F
:0F079700460000024C001402570000024A0014F2
:1000030030040D754EC6754FFF7550FF7551FF22B5
:10001300E55A45596009754EC7754FFF7550FF2264
:1009CD00438E0475D72075D6D143AF04D2AF438E75
:0209DD001022E6
:10095F0053A2CFE4F5D8F5E9F5F9F5EAF5FA75D92B
:07096F000175DA10D2AF227E
:10097600759850438E40538EFE53890F758B8F7535
:070986008DFDC2ABD28E22F1
:080A4D007F027E27DEFEDFFCC4
:010A5500227E
:06005C0000007F21DFFE21
:01006200227B
:1009F000120003C290D29112095F1209CD0209764A
:060A56001202D602086D39
:0D0A1D003002031205493003031204512278
:1002D6001206138F092004030203B1E509640C60BA
:1002E600030203B1C204F559755A01754EC7754F1D
:1002F600FF7550FFE54745467012900A1893FFF5C3
:1003060051F552F553547FF5548F5522AC46AD47FF
:10031600E41201717B7B7A14792E783E1200661204
:1003260001AA8E4C8F4D7C277D1012023D740F2F33
:10033600F582740A3EF583E493F551AE4CAF4D7CDD
:10034600037DE812023D7C007D0A12023D740F2DEA
:10035600F582740A3CF583E493F552AE4CAF4D7CBE
:10036600007D6412023D7C007D0A12023D740F2D51
:10037600F582740A3CF583E493F553AE4CAF4D7C9D
:10038600007D0A12023D7C007D0A12023D740F2D8B
:10039600F582740A3CF583E493547FF554AE4CAF72
:1003A6004D7C007D0A12023D020442E55A45597011
:1003B60003020450E509640C6003020450F559F584
:1003C6005AD204754EC6754FFF7550FF7551FFAE74
:1003D6004AAF4B7C037DE81202927C007D0A120232
:1003E60092740F2DF582740A3CF583E493F552AEB0
:1003F6004AAF4B7C007D641202927C007D0A120299
:1004060092740F2DF582740A3CF583E493547FF5BC
:1004160053AE4AAF4B7C007D0A1202927C007D0AE5
:10042600120292740F2DF582740A3CF583E493F55B
:1004360054AE4AAF4B7C007D0A120292740F2DF522
:0A04460082740A3CF583E493F55537
:010450002289
:100549001209015005120A5680F67FCC12003E7F2F
:100559004412003E1209015005120A5680F67FCC5A
:1005690012003E7FBE12003E1209458F081209454E
:10057900EFFEE508FFFDAC06EC120171E4FBFA7928
:10058900C878401200661201AA8E4A8F4B30047750
:100599007C037DE81202927C007D0A120292740F9C
:1005A9002DF582740A3CF583E493F552AE4AAF4BBC
:1005B9007C007D641202927C007D0A120292740F03
:1005C9002DF582740A3CF583E493547FF553AE4AC2
:1005D900AF4B7C007D0A1202927C007D0A120292C6
:1005E900740F2DF582740A3CF583E493F554AE4AF1
:1005F900AF4B7C007D0A120292740F2DF582740AAA
:090609003CF583E493F555C202AF
:0106120022C5
:100451007E08AF061EEF600CD29012005CC29012B3
:10046100005C80EED2DEC2D843DA013001083000F0
:1004710005120A5680F5E55A4559700302054230C6
:100481000015900A18E493FFF551F552F553547F86
:10049100F5548F55020542AC46AD47E41201717B1C
:1004A1007B7A14792E783E1200661201AA8E4C8F47
:1004B1004D7C277D1012023D740F2FF582740A3E88
:1004C100F583E493F551AE4CAF4D7C037DE8120208
:1004D1003D7C007D0A12023D740F2DF582740A3CA9
:1004E100F583E493F552AE4CAF4D7C007D6412026E
:1004F1003D7C007D0A12023D740F2DF582740A3C89
:10050100F583E493F553AE4CAF4D7C007D0A1202A6
:100511003D7C007D0A12023D740F2DF582740A3C68
:10052100F583E493547FF554AE4CAF4D7C007D0AC6
:1005310012023D740F2DF582740A3CF583E493F5A4
:0705410055C200C201C20314
:010548002290
:1006130075B0FF53B0F320B5047F0180027F002043
:10062300B4047E0180027E00EE4F6066120A4D2004
:10063300B5047F0180027F0020B4047E0180027E26
:1006430000EE4F604DE5B05430FEE5584557703F1E
:10065300F55775580175B0FF53B0CF12005CE5B084
:10066300540C4206AF06EF24E8601224F46014240D
:10067300FC60162414701875560C7F002275560DF5
:100683007F00227556107F00227556117F00227F4E
:100693000022E5584557601DC3E55894E8E5579493
:1006A30003E45007F557F558AF5622F557F558E5CB
:0706B30056240AFF227F001C
:0106BA00221D
:10086D00E4FD53A01F7401A805088002C333D8FC12
:10087D00F580900A1BE49342A00053A01F744E2DE7
:10088D00F8E6F580A3E49342A0120A4D7580FF0DA2
:03089D00BD08CFC4
:0108A0002235
:0B0A42001209F0120A56120A1D80F87B
:030023000207F4DD
:1007F400C0E0C0D075D010309819C2987422254238
:10080400F8A69974222542F8E6B40A0575420080D8
:10081400020542309919C29974322543F8E6600DF5
:10082400AF43054374322FF8E6F5998002C205D030
:04083400D0D0E0320E
:03003B0002083880
:10083800C0E0C0D075D01830DF04C2DFD20030D895
:100848001FC2D8D201AFFAEFADEAF546EDF547532E
:10085800DAFEC2DE75E90075F90075EA0075FA007E
:05086800D0D0D0E03209
:030063000207A7EA
:1007A700C0E0E5454544600AE5451545700C15442C
:1007B70080087544017545F4D202E5494548600A49
:1007C700E5491549700C154880087548037549E8CF
:1007D700D203E558455760120558E558700205578A
:0D07E700455770067557037558E8D0E0328D
:1009BA00E4FEC297EF1392A3EFC313FFD2970EBEC2
:0209CA0008F033
:0109CC002208
:10002600C29300C29700D293001209BAAF05120913
:04003600BAC2932295
:1008A100E4FDC29300C29700D293001209BAE4FF9B
:1008B100C297EDC313FD30A303430580D2970FBF49
:1008C10008EEC29300C29700D29700C2A300D2A340
:0308D10000AF0570
:0108D4002201
:040A2A00D2A07F05D2
:080A2E0000AE071FEE70F92273
:0F0A0000D2A1120A2AC2A17F05120A2EC2A02279
:0C0A3600C2A1120A2AD2A17F05020A2EDA
:10098D00C2A0A20692A17F05120A2E120A2AC2A0A7
:07099D00D2A17F05020A2E22
:1009DF00120A2AA2A19207C2A07F05120A2EA2070D
:0109EF0022E5
:0208D500AD076D
:1008D700E4FCC2A07F05120A2EED30E704D2A18006
:1008E70002C2A17F05120A2ED2A0ED25E0FD7F05E9
:0908F700120A2E0CBC08DBC2A0A1
:0109000022D4
:10092800E4FC120A2AED25E0FD30A103430501C2CB
:0C093800A07F05120A2E0CBC08E8AF05D9
:010944002290
:0409A4007F057E004D
:1009A8007C007D0C12022BEF1FAC0670011E4C70F0
:0209B800F62225
:02003E00AB070E
:10004000E4FAC294EB1392941209A4D294EBC31372
:0C005000FB0ABA08ED7F057E000209A83B
:10094500E4FAC294EBC313FBD294309403430380BF
:090955001209A40ABA08EBAF0371
:01095E002276
:10090100C208D2947F0C7E001209A8C2947F507E47
:10091100001209A8D2941209A4A29492087F0A7E17
:06092100001209A8A20863
:0109270022AD
:10006600EC4D6011E8497017ED33EC3304600DE494
:10007600FCFFFEFD22E933E8330470F80202161293
:1000860001E158046009E4CC248150062850090295
:10009600022028400302021DC0E0EB4A7044B980EA
:1000A60006D0E0FB02020CEF4E701CBD8008EBFF91
:1000B600EAFEE9FD80EBE98DF0A4FEE5F002014FD2
:1000C600E9CDF9EAFEEBFFEF89F0A4FCE5F0CE8975
:1000D600F0A42EFFE435F0CD89F0A42DFEE435F032
:1000E6008067EF4E7005BD80D780C3EF8BF0A4AC60
:1000F600F0EE8BF0A42CFCE435F0F8EF8AF0A42C9B
:10010600E5F038FCE433CB8DF0A42CFCE5F03BF8AD
:10011600EE8AF0A42CFCE5F038F8E433CF89F0A49D
:100126002CFCE5F038CF3400CE89F0A42FFFE5F0A3
:100136003EFEE433C98DF0A42EFEE5F039CD8AF0FB
:10014600A42FFFE5F03EFEE43DFD33D0E0FB500773
:100156000BBB000F020220EC2CFCEF33FFEE33FE4C
:06016600ED33FD0201F87B
:10016C0075F020800E75F010800575F0087D007E0E
:10017C00007F003392D530D5031202C8EC33401007
:10018C00EF33FFEE33FEED33FDEC33FCD5F0ED2217
:0E019C00E5F0247EA2D513CC92E7CDCEFF2253
:1001AA00EDD2E7CD33EC3392D524814006E4FFFE4D
:1001BA00FDFC22FCE4CFCECDCC24E0501174FF80AC
:1001CA00EDC3CC13CCCD13CDCE13CECF13CF047049
:0701DA00F030D5DE0202C87F
:1001E100E9D2E7C933E833F892D5EDD2E7CD33EC64
:0701F10033FC5002B2D522DD
:1001F800EC30E7100FBF000C0EBE00080DBD000468
:100208000BEB6014A2D5EB13FCED92E7FD2274FF13
:10021800FCFDFEFF22E480F8A2D574FF13FC7D806C
:03022800E480EF80
:030000000206BB3A
:0C06BB00787FE4F6D8FD75815A02070232
:10022B00EF8DF0A4A8F0CF8CF0A428CE8DF0A42EE7
:02023B00FE22A1
:10023D00BC000BBE0029EF8DF084FFADF022E4CCA5
:10024D00F875F008EF2FFFEE33FEEC33FCEE9DEC6E
:10025D00984005FCEE9DFE0FD5F0E9E4CEFD22EDB4
:10026D00F8F5F0EE8420D21CFEADF075F008EF2FFE
:10027D00FFED33FD4007985006D5F0F222C398FDEF
:05028D000FD5F0EA228C
:10029200C2D5EC30E709B2D5E4C39DFDE49CFCEE87
:1002A20030E715B2D5E4C39FFFE49EFE12023DC3C0
:1002B200E49DFDE49CFC800312023D30D507C3E4BB
:0602C2009FFFE49EFE22F6
:0E02C800C3E49FFFE49EFEE49DFDE49CFC2247
:1006C700020A42E493A3F8E493A34003F68001F2FD
:1006D70008DFF48029E493A3F85407240CC8C33334
:1006E700C4540F4420C8834004F456800146F6DF03
:1006F700E4800B0102040810204080900747E47E45
:10070700019360BCA3FF543F30E509541FFEE493F7
:10071700A360010ECF54C025E060A840B8E493A3BE
:10072700FAE493A3F8E493A3C8C582C8CAC583CAE9
:10073700F0A3C8C582C8CAC583CADFE9DEE780BEA1
:0107A6000052
:00000001FF
