:101EE50074656D700D0A0074656D703A252E326645
:101EF50027430D0A006C656E0D0A006C656E3A2568
:101F05002E3166636D0D0A00766F6C0D0A00766FD3
:101F15006C3A252E3266560D0A006272696768743E
:101F25000D0A006272696768743A252E3266560D8D
:101F35000A0074696D650D0A0074696D653A252E90
:101F450030663A252E30663A252E30660D0A006435
:101F55006174650D0A00646174653A252E30662D3D
:101F6500252E30662D252E30660D0A00C0F9A4B049
:101F7500999282F8809080828486888A8C8E81836B
:0A1F85008587898B8D8F80A0C0E056
:101E2700012000012100C115C113C116C110C11144
:101E3700C112C118C117C114088F00001201010394
:101E47002000106F696E69745F77656C6C0D0A000E
:101E570000000000105F000000000000000000000C
:101E670000000000000001A90001A70001A4000173
:101E7700A80001890001880001A300018C0001A2CC
:101E87000001830001970002AA0000025D032002FF
:101E9700A50000028A00FA0298007D028D00000268
:101EA700AC0177025B0000028101F4028401380271
:101EB7007F0000028600BB025100010255000102AB
:101EC70057000002430000024FF83002530014028B
:0D1ED7005900FA024100FA044B000003E834
:0608F400855551855652A6
:1008FA00E5516003020E33E552147003020AE11453
:10090A007003020BD4147003020C5B24FE70030202
:10091A000CE224056003020E33789A76C60876FF45
:10092A000876FF0876FFC3E54F94805003020A1049
:10093A00E49550FBE4954FFA7C277D10AF03FE1235
:10094A0005DF7C007D0A1205DF74712DF582741FA4
:10095A003CF583E493789DF67C037DE8AF03AE0211
:10096A001205DF7C007D0A1205DF74712DF5827491
:10097A001F3CF583E493789EF6C3E49550FBE49517
:10098A004FFA7C007D64AF03FE1205DF7C007D0A0E
:10099A001205DF74712DF582741F3CF583E49354BC
:1009AA007F789FF67C007D0AAF03AE021205DF7CDA
:1009BA00007D0A1205DF74712DF582741F3CF583E0
:1009CA00E49378A0F6C3E49550FFE4954FFE7C00CB
:1009DA007D0A1205DF74712DF582741F3CF583E4DC
:1009EA009378A1F6752503749A2525F8901F71E46A
:1009FA0093FFE6B5070676FF052580EB7499252552
:100A0A00F876BF020AC8AE4FAF507C277D10120598
:100A1A00DF7C007D0A1205DF74712DF582741F3C9C
:100A2A00F583E493789DF6AE4FAF507C037DE812D0
:100A3A0005DF7C007D0A1205DF74712DF582741FB3
:100A4A003CF583E493789EF6AE4FAF507C007D640C
:100A5A001205DF7C007D0A1205DF74712DF58274A0
:100A6A001F3CF583E493547F789FF6AE4FAF507CDA
:100A7A00007D0A1205DF7C007D0A1205DF74712DE4
:100A8A00F582741F3CF583E49378A0F6AE4FAF501D
:100A9A007C007D0A1205DF74712DF582741F3CF506
:100AAA0083E49378A1F6752503749A2525F8901F97
:100ABA0071E493FFE6B5070676FF052580EB788C8F
:100ACA00E66003020E3378A2E66003020E33F548AD
:100ADA00754900754A4F22789A76C70876FF0876D4
:100AEA00FFE54445437019901F7A93FF08F608A65C
:100AFA000708A607EF547F08F6E49308F6020BBB33
:100B0A00AE53AF547C277D101205DF74712FF58226
:100B1A00741F3EF583E493789DF6AE53AF547C037D
:100B2A007DE81205DF7C007D0A1205DF74712DF560
:100B3A0082741F3CF583E493789EF6AE53AF547CDF
:100B4A00007D641205DF7C007D0A1205DF74712DB9
:100B5A00F582741F3CF583E493789FF6AE53AF5445
:100B6A007C007D0A1205DF7C007D0A1205DF7471A4
:100B7A002DF582741F3CF583E493547F78A0F6AE7A
:100B8A0053AF547C007D0A1205DF74712DF582740F
:100B9A001F3CF583E49378A1F6752503749A2525FD
:100BAA00F8901F71E493FFE6B5070676FF052580E6
:100BBA00EB788CE66003020E3378A2E66003020E3D
:100BCA0033F548754900754A5322789A76C10876F2
:100BDA00FF0876FF0876FF0876FFAE59AF5A7C0009
:100BEA007D641205DF7C007D0A1205DF74712DF524
:100BFA0082741F3CF583E493547F789FF6AE59AF15
:100C0A005A7C007D0A1205DF7C007D0A1205DF741A
:100C1A00712DF582741F3CF583E49378A0F6AE59E2
:100C2A00AF5A7C007D0A1205DF74712DF582741F9C
:100C3A003CF583E49378A1F6788CE66003020E33E0
:100C4A0078A2E66003020E33F548754900754A59E1
:100C5A0022789A76830876FF0876FF0876FF087668
:100C6A00FFAE41AF427C007D641205DF7C007D0A45
:100C7A001205DF74712DF582741F3CF583E49354D9
:100C8A007F789FF6AE41AF427C007D0A1205DF7C79
:100C9A00007D0A1205DF74712DF582741F3CF583FD
:100CAA00E49378A0F6AE41AF427C007D0A1205DFDC
:100CBA0074712DF582741F3CF583E49378A1F6785C
:100CCA008CE66003020E3378A2E66003020E33F567
:100CDA0048754900754A4122789A768E7B407A4255
:100CEA00790F7800AF4EAE4DAD4CAC4B120670E4A6
:100CFA007B0AFAF9F812067074712BF582741F3A9E
:100D0A00F583E493789BF67BA07A8679017800AF25
:100D1A004EAE4DAD4CAC4B120670E47B0AFAF9F8B4
:100D2A0012067074712BF582741F3AF583E4937876
:100D3A009CF6E47B107A27F9F8AF4EAE4DAD4CAC79
:100D4A004B120670E47B0AFAF9F812067074712BDA
:100D5A00F582741F3AF583E493789DF6E47BE87A8A
:100D6A0003F9F8AF4EAE4DAD4CAC4B120670E47BB6
:100D7A000AFAF9F812067074712BF582741F3AF5A3
:100D8A0083E493789EF6E47B64FAF9F8AF4EAE4DAD
:100D9A00AD4CAC4B120670E47B0AFAF9F8120670F5
:100DAA0074712BF582741F3AF583E493789FF6E405
:100DBA007B0AFAF9F8AF4EAE4DAD4CAC4B12067049
:100DCA00E47B0AFAF9F812067074712BF582741F23
:100DDA003AF583E49378A0F6E47B0AFAF9F8AF4E81
:100DEA00AE4DAD4CAC4B12067074712BF582741F6C
:100DFA003AF583E49378A1F6752501749A2525F8C6
:100E0A00901F71E493FFE6B5070DE525C3940850DA
:100E1A000676FF052580E4788CE6700D78A2E670E8
:090E2A0008F548754900754A4BB2
:010E3300229C
:1023C300438E0475D72075D6D143AF04D2AF438E65
:0223D3001022D6
:10238A0053A2CFE4F5D8F5E9F5F975D90175DA1153
:03239A00D2AF229D
:1022EF00759850438E40538EFE53890F758B8F75A3
:0D22FF008DFDC2ABD2ACD2AFD28E02240650
:10000E00538E7F438907E4F58AF58CC28DD2A9D22F
:04001E00AFD28C22AF
:1022B300752508AF251525EF6013E525901F7B9342
:0D22C300FF748F2525F8E6FD12002680E649
:0122D00022EB
:082454007F027E27DEFEDFFCA3
:01245C00225D
:0600030000007F21DFFE7A
:0100090022D4
:102374001208FAC290D29112238A1223C312000EB9
:062384001222EF0222B359
:0F23F700121AEA121D6512217A12239D0223D5B4
:10213300301503121574301603121BC3301003122B
:102143001C9430130312223C201203301103121982
:10215300EA78A2E660031220847897E660031220EF
:10216300DD30140312003EE558455760031217573C
:072173003017031212A32232
:101D65007883E66003021DF778A8E6B40409755187
:101D750000755201021E0B78A8E6B40508E4F5517A
:101D8500F552021E0B78A8E6B40808755100755285
:101D950002807378A8E6B40908755100755203806E
:101DA5006578A8E6B40D17854845854946854A47AF
:101DB500855155855256788C760AD205805C78A86F
:101DC500E6B40C08755100755205804E78A8E66496
:101DD50017704A788CE6704578A2E670401208F4D0
:101DE500755100755204D206788376097897760A7C
:101DF500802B78A8E6B40D107883E6167897F678E8
:101E050083E67002760A801278A8E6B4170FC20638
:101E1500855551855652E47883F61208FAE478A878
:021E2500F622A3
:101574001222657FCC1222D17F441222D11222651D
:101584007FCC1222D17FBE1222D11223438F251287
:101594002343EFFEE525FFFDAC06EC120309E4FB53
:1015A400FA79C8784012015E1203428E4F8F50E5DB
:1015B4005245516003021754C3E54F94805003020F
:1015C400169CE49550FBE4954FFA7C277D10AF03FD
:1015D400FE1205DF7C007D0A1205DF74712DF58291
:1015E400741F3CF583E493789DF67C037DE8AF0398
:1015F400AE021205DF7C007D0A1205DF74712DF541
:1016040082741F3CF583E493789EF6C3E49550FB03
:10161400E4954FFA7C007D64AF03FE1205DF7C0085
:101624007D0A1205DF74712DF582741F3CF583E485
:1016340093547F789FF67C007D0AAF03AE021205B7
:10164400DF7C007D0A1205DF74712DF582741F3C66
:10165400F583E49378A0F6C3E49550FFE4954FFE38
:101664007C007D0A1205DF74712DF582741F3CF530
:1016740083E49378A1F6752603749A2526F8901FBF
:1016840071E493FFE6B5070676FF052680EB7499AF
:101694002526F876BF021754AE4FAF507C277D1035
:1016A4001205DF7C007D0A1205DF74712DF582744A
:1016B4001F3CF583E493789DF6AE4FAF507C037DD9
:1016C400E81205DF7C007D0A1205DF74712DF582B6
:1016D400741F3CF583E493789EF6AE4FAF507C00C4
:1016E4007D641205DF7C007D0A1205DF74712DF51F
:1016F40082741F3CF583E493547F789FF6AE4FAF1A
:10170400507C007D0A1205DF7C007D0A1205DF741F
:10171400712DF582741F3CF583E49378A0F6AE4FE7
:10172400AF507C007D0A1205DF74712DF582741FA1
:101734003CF583E49378A1F6752603749A2526F87C
:10174400901F71E493FFE6B5070676FF052680EB4C
:02175400C215BC
:011756002270
:10223C007E08C211C212C213AF061EEF600CD29000
:10224C00120003C29012000380EEE4F5E9F5F9C226
:08225C00D8C2DFD2DE43DA0133
:012264002257
:1019EA00201203021ABDAC43AD44E41203097B7C06
:1019FA007A14792E783E12015E1203428E538F5466
:101A0A00E552640145516003021AE57C277D1012F4
:101A1A0005DF74712FF582741F3EF583E493789D78
:101A2A00F6AE53AF547C037DE81205DF7C007D0AD5
:101A3A001205DF74712DF582741F3CF583E49378E7
:101A4A009EF6AE53AF547C007D641205DF7C007DA8
:101A5A000A1205DF74712DF582741F3CF583E49335
:101A6A00789FF6AE53AF547C007D0A1205DF7C00E6
:101A7A007D0A1205DF74712DF582741F3CF583E42B
:101A8A0093547F78A0F6AE53AF547C007D0A1205BA
:101A9A00DF74712DF582741F3CF583E49378A1F607
:101AAA007F03749A2FF8901F71E49366702D76FF66
:101ABA000F80EF30112575532775540FE5526401D5
:101ACA0045517017901F7A93FF789DF608A607086C
:0F1ADA00A607EF547F08F6E49308F6C211C21274
:011AE90022DA
:101BC300D202C2161224157F901222101223E67F2E
:101BD300031222101223E61224157F9112221012EF
:101BE30023E612230CC21912235D12230C7559002C
:101BF3008F5AAC59AD5AE4120309E4FBFA79FA7827
:101C03004312015EE4FBFA797F7843120267120301
:101C1300428E598F5A12243DE55264024551705D3C
:101C2300AE59AF5AFC7D641205DF7C007D0A1205B4
:101C3300DF74712DF582741F3CF583E493547F7830
:101C43009FF6AE59AF5A7C007D0A1205DF7C007DFA
:101C53000A1205DF74712DF582741F3CF583E4933A
:101C630078A0F6AE59AF5A7C007D0A1205DF747175
:101C73002DF582741F3CF583E49378A1F6D3E55ADE
:101C8300942CE55994014004D20E8002C20EC20284
:011C9300222E
:101C9400D203C2101224157F901222101223E67F61
:101CA400011222101223E61224157F91122210121F
:101CB40023E612230CC21912235D12230C75410072
:101CC4008F42AC41AD42E4120309E4FBFA79FA789D
:101CD4004312015EE4FBFA797F7843120267120330
:101CE400428E418F4212243DE55264034551705D9A
:101CF400AE41AF42FC7D641205DF7C007D0A120513
:101D0400DF74712DF582741F3CF583E493547F785E
:101D14009FF6AE41AF427C007D0A1205DF7C007D58
:101D24000A1205DF74712DF582741F3CF583E49368
:101D340078A0F6AE41AF427C007D0A1205DF7471D3
:101D44002DF582741F3CF583E49378A1F6D3E54224
:101D5400942CE54194014004D20C8002C20CC203CD
:011D6400225C
:0F240600D218E47889F6E606246FF8E6F59922F5
:102084001224157FA01222101223E678A2E614254A
:10209400E0FF1222101223E6AB48AA49A94A12050E
:1020A40065FF1222101223E6AB48AA49A94A900000
:1020B4000112057EFF1222101223E612243DE47859
:1020C400A2F6788CE67011C205E55665527004E5F7
:0920D40055655160031208FA225F
:1020DD001224157FA01222101223E67897E61425FC
:1020ED00E0FF1222101223E61224157FA1122210F6
:1020FD001223E612230CAB45AA46A947EF1205ABF6
:10210D00C21912235D12230CAB45AA46A9479000B4
:10211D0001EF1205BD12243D1208F47551007552E0
:06212D0004E47897F6229D
:10003E00752507AF251525EF6013E525901F8393D2
:0F004E00FF1221AE748F2525F8A60780E6C21495
:01005D002280
:10175700AE57AF58E4FCFD78031207108F4E8E4D3D
:101767008D4C8C4BE5526405455160030218A47BF0
:10177700407A42790FF8120670E47B0AFAF9F812F8
:10178700067074712BF582741F3AF583E493789B86
:10179700F67BA07A8679017800AF4EAE4DAD4CACA2
:1017A7004B120670E47B0AFAF9F812067074712B73
:1017B700F582741F3AF583E493789CF6E47B107AFC
:1017C70027F9F8AF4EAE4DAD4CAC4B120670E47B2B
:1017D7000AFAF9F812067074712BF582741F3AF53C
:1017E70083E493789DF6E47BE87A03F9F8AF4EAE8D
:1017F7004DAD4CAC4B120670E47B0AFAF9F81206B1
:101807007074712BF582741F3AF583E493789EF612
:10181700E47B64FAF9F8AF4EAE4DAD4CAC4B120613
:1018270070E47B0AFAF9F812067074712BF582746A
:101837001F3AF583E493789FF6E47B0AFAF9F8AF49
:101847004EAE4DAD4CAC4B120670E47B0AFAF9F87C
:1018570012067074712BF582741F3AF583E493783E
:10186700A0F6E47B0AFAF9F8AF4EAE4DAD4CAC4B9F
:1018770012067074712BF582741F3AF583E493781E
:10188700A1F67F01749A2FF8901F71E493FEE6B5D5
:10189700060BEFC39408500576FF0F80E7E4F55772
:0518A700F55878A7F6DA
:0118AC002219
:1012A300D204C217785F7C007D007BFF7A1E79E54C
:1012B3001208D7EF70173018051223F780F8752836
:1012C300FF75291E752AECAC4FAD50805B785F7CAF
:1012D300007D007BFF7A1E79FA1208D7EF70223067
:1012E30018051223F780F87528FF75291F752A0042
:1012F300AC53AD54E4120309E4FBFA79207841803E
:1013030066785F7C007D007BFF7A1F790D1208D71A
:10131300EF70223018051223F780F87528FF75291E
:101323001F752A13AC59AD5AE4120309E4FBFA7989
:10133300C878428032785F7C007D007BFF7A1F791A
:101343001F1208D7EF702E3018051223F780F87597
:1013530028FF75291F752A28AC41AD42E412030901
:10136300E4FBFA79C878421202678F2E8E2D8D2CFA
:101373008C2B021565785F7C007D007BFF7A1F79DB
:10138300371208D7EF60030214703018051223F7E1
:1013930080F87528FF75291F752A3E7891E6547FDA
:1013A300FFC4540FFCE412030EE4FBFA79207841E6
:1013B30012015EC004C005C006C0077891E6540F51
:1013C300FCE412030EA804A905AA06AB07D007D0B4
:1013D30006D005D00412006D8F2E8E2D8D2C8C2BF4
:1013E3007890E6547FFFC4540FFCE412030EE4FB31
:1013F300FA7920784112015EC004C005C006C00717
:101403007890E6540FFCE412030EA804A905AA067B
:10141300AB07D007D006D005D00412006D8F328EF3
:10142300318D308C2F788FE6547FFFC4540FFCE44A
:1014330012030EE4FBFA7920784112015EC004C066
:1014430005C006C007788FE6540FFCE412030EA80C
:1014530004A905AA06AB07D007D006D005D004120D
:10146300006D8F368E358D348C33021565785F7C35
:10147300007D007BFF7A1F79541208D7EF600302C7
:1014830015713018051223F780F87528FF75291F89
:10149300752A5B7895E6547FFFC4540FFCE412036E
:1014A3000EE4FBFA7920784112015EC004C005C046
:1014B30006C0077895E6540FFCE412030EA804A9AE
:1014C30005AA06AB07D007D006D005D00412006DDD
:1014D3008F2E8E2D8D2C8C2B7893E6547FFFC45446
:1014E3000FFCE412030EE4FBFA7920784112015E4B
:1014F300C004C005C006C0077893E6540FFCE4128D
:10150300030EA804A905AA06AB07D007D006D00589
:10151300D00412006D8F328E318D308C2F7892E68D
:10152300547FFFC4540FFCE412030EE4FBFA79204A
:10153300784112015EC004C005C006C0077892E678
:10154300540FFCE412030EA804A905AA06AB07D0A6
:1015530007D006D005D00412006D8F368E358D343A
:101563008C337B007A00796F120E90122406C2042A
:011573002255
:101AEA0075C0FF75B0FF53B0F320C2047F018002B6
:101AFA007F0020B5047E0180027E00EE4FFF20C4E5
:101B0A00047E0180027E00EE4F607778A6E61846D2
:101B1A006003021BC2F6087601A2C233C4333354EF
:101B2A00C0FFA2B5E433C43354E04FFFA2C4E43388
:101B3A00C433333354804FFE75B0FFC2B5E4F5C0E9
:101B4A00120003E5B0540C4206AF06EF2498601960
:101B5A0024C4601A24FC601B24E4601C24FC601D5D
:101B6A002464705478A476042278A476052278A492
:101B7A0076082278A476092278A4760C2278A476AC
:101B8A000D2278A5E6FE08E6FFD394E8EE9403401A
:101B9A000EE418F608F678A4E6240A79A8F722D300
:101BAA00EF9402EE9400E478A5400AF608F678A4C9
:081BBA00E678A8F622F608F611
:011BC2002200
:10217A00E4FD53A01F7401A805088002C333D8FCEC
:10218A00F580901F8DE49342A00053A01F749A2DEE
:10219A00F8E6F580A3E49342A01224547580FF0D5B
:0321AA00BD08CF9E
:0121AD00220F
:10239D0053A01FE520F4F580901F8BE49342A053CA
:0323AD00A01F224C
:1023D50053A01F852180901F8CE49342A053A01F1A
:0123E50022D5
:0B2449001223741223F712213380F8D5
:03000B00022424A8
:0D242400C0D075D00878A906C28DD0D03286
:0300230002201B9D
:10201B00C0E0C0D075D010309836C2987888E6FFF3
:10202B00245FF8A699745F2FF8E6FFB43F02800F88
:10203B00EFB40A11788806E6245FF87600D2177899
:10204B00887600800B788806E6C3940F40027600F2
:10205B00309921C2997889E6246FF8E6FF600FF575
:10206B0099788906E6C3940F400A76008006788932
:09207B007600C218D0D0D0E0328A
:03003B000221E2BD
:1021E200C0E0C0D075D01830D813C2D8AFFAEFAD66
:1021F200EAF543EDF544D212C2DE53DAFE30DF09CE
:0E220200C2DFD211C2DE53DAFED0D0D0E032FD
:030063000218ADD3
:1018AD00C0E0C0D075D018785CE61846600708E631
:1018BD001618700116788BE61846600908E616189A
:1018CD00700C168009788A76010876F4D215788E18
:1018DD00E61846600908E61618700C168009788D12
:1018ED0076030876E8D2137899E61846600908E67B
:1018FD001618700C168009789876010876F4D216B1
:10190D0078ADE61846600908E61618700C168009C1
:10191D0078AC76010876F4D2107882E61846600924
:10192D0008E616187014168011788176030876E88B
:10193D00788CE66005E61678A2F67885E61846609E
:10194D000908E6161870191680167884760308763D
:10195D00E8787F760008767D758C00758A00D28CCC
:10196D007880E61846600908E6161870151680127C
:10197D00C28C858A57858C5878A9E678A7F678A900
:10198D0076007887E61846600908E61618700C167A
:10199D008009788676010876F4D21478ABE618467D
:1019AD00600908E616187016168013785DE6FE08B5
:1019BD00E6FF4E600978AAA61E08A61FB20078A6FB
:1019CD00E6184660130806E618700106861E4E706E
:0D19DD000778A576030876E9D0D0D0E03277
:1023B000E4FEC297EF1392A3EFC313FFD2970EBEB2
:0223C00008F023
:0123C20022F8
:10002600C29300C29700D293001223B0AF051223E9
:04003600B0C293229F
:1021AE00E4FDC29300C29700D293001223B0E4FF65
:1021BE00C297EDC313FD30A303430580D2970FBF23
:1021CE0008EEC29300C29700D29700C2A300D2A31A
:0321DE0000AF054A
:0121E10022DB
:04243100D2A07F05B1
:0824350000AE071FEE70F92252
:0F241500D2A1122431C2A17F05122435C2A02208
:0C243D00C2A1122431D2A17F0502243577
:10235D00C2A0A21992A17F05122435122431C2A068
:07236D00D2A17F0502243517
:1023E600122431A2A19219C2A07F05122435A21986
:0123F60022C4
:02221000AD0718
:10221200E4FCC2A07F05122435ED30E704D2A18090
:1022220002C2A17F05122435D2A0ED25E0FD7F0573
:092232001224350CBC08DBC2A02B
:01223B002280
:10230C00E4FC122431ED25E0FD30A103430501C2AC
:0C231C00A07F051224350CBC08E8AF05BA
:012328002292
:042329007F057E00AE
:10232D00EF7803C333CE33CED8F9FFEF1FAC067071
:06233D00011E4C70F622A7
:0222D100AD0757
:1022D300E4FBC294ED139294122329D294EDC31319
:0C22E300FD0BBB08ED7F057E0002232DE3
:10234300E4FBC294EDC313FDD294309403430580A0
:092353001223290BBB08EBAF05B6
:01235C00225E
:10226500C219D2947F0C7E0012232DC2947F507E1A
:102275000012232DD2947F0A7E0012232DA2949260
:0622850019122329A21921
:01228B002230
:100066000203AEE86480F8E933E83360110460F017
:10007600ED33EC337009E8FCE9FDEAFEEBFF220400
:1000860060DED3EB9FEA9EE99DE8C2E78CF0C2F7FB
:1000960095F0400CE8CCF8E9CDF9EACEFAEBCFFBC7
:1000A60012037985D0F05804700320D5B3E80470A4
:1000B600075002B2D50203B892D5EC0460F7E4CC3F
:1000C600C0E0C398F8603B94186008400DD0E0FB90
:1000D600020390E4FBFAC9FC8028E830E406E4C990
:1000E600FBE4CAFCE830E305E4C9CACBFCE85407E4
:1000F6006010F8C3E913F9EA13FAEB13FBEC13FCEF
:10010600D8F130F52FC3E49CFCEF9BFFEE9AFEED91
:1001160099FDD0E0FBEF4E4D4C701222DB0302033B
:10012600B5EC2CFCEF33FFEE33FEED33FDED30E79F
:10013600EB020390EF2BFFEE3AFEED39FDD0E0FB2C
:1001460050130BBB00030203B8ED13FDEE13FEEFD5
:0801560013FFEC13FC020390FF
:10015E00EC4D6011E8497017ED33EC3304600DE49B
:10016E00FCFFFEFD22E933E8330470F80203AE1201
:10017E00037958046009E4CC248150062850090202
:10018E0003B82840030203B5C0E0EB4A7044B980BF
:10019E0006D0E0FB0203A4EF4E701CBD8008EBFFFF
:1001AE00EAFEE9FD80EBE98DF0A4FEE5F0020247E0
:1001BE00E9CDF9EAFEEBFFEF89F0A4FCE5F0CE897C
:1001CE00F0A42EFFE435F0CD89F0A42DFEE435F039
:1001DE008067EF4E7005BD80D780C3EF8BF0A4AC67
:1001EE00F0EE8BF0A42CFCE435F0F8EF8AF0A42CA2
:1001FE00E5F038FCE433CB8DF0A42CFCE5F03BF8B5
:10020E00EE8AF0A42CFCE5F038F8E433CF89F0A4A4
:10021E002CFCE5F038CF3400CE89F0A42FFFE5F0AA
:10022E003EFEE433C98DF0A42EFEE5F039CD8AF002
:10023E00A42FFFE5F03EFEE43DFD33D0E0FB50077A
:10024E000BBB000F0203B8EC2CFCEF33FFEE33FEBA
:06025E00ED33FD020390E8
:100264000203B8EC5D046005E8590470030203AEB0
:10027400120379580460F6EC4860F2EC7004FDFE59
:10028400FF22C860DB2481C85009C398600250066D
:100294000203B59850CAF582E9294B4A7005AB822E
:1002A4000203A475F0007C1A7880C3EF9BEE9AEDEC
:1002B40099400DC3EF9BFFEE9AFEED99FDE842F0E5
:1002C400DC23ACF0D0E0FFD0E0FED0E0FDAB822038
:1002D400E7101BEB60BAEC2CFCEF33FFEE33FEEDC2
:1002E40033FD020390E803F830E705C0F075F00031
:1002F400EF2FFFEE33FEED33FD40B830E7C280AAA6
:1003040075F020800E75F010800575F0087D007E74
:10031400007F003392D530D503120702EC3340102E
:10032400EF33FFEE33FEED33FDEC33FCD5F0ED227D
:0E033400E5F0247EA2D513CC92E7CDCEFF22B9
:10034200EDD2E7CD33EC3392D524814006E4FFFEB3
:10035200FDFC22FCE4CFCECDCC24E0501174FF8012
:10036200EDC3CC13CCCD13CDCE13CECF13CF0470AF
:07037200F030D5DE020702A6
:100E3400E53C2428F8E6053C227825302002782871
:100E4400E475F0011207230205652019EB7F2ED209
:100E5400198018EF540F2490D43440D4FF301D0B64
:100E6400EF24BFB41A0050032461FFE53D6002156E
:100E74003D0540E5407002053F30200D7825E475BE
:100E8400F001120723EF0205AB02228C7403D22077
:100E94008003E4C220F53C8B258A268927E4F53DAE
:100EA400F53FF540E53D60077F20120E6F80F57534
:100EB4003EFFC21AC219C21BC21CC21EC21FC221DB
:100EC400120E3DFF700D3020057F00120E80AF40E2
:100ED400AE3F22B4255FC2D5C21D120E3DFF24D001
:100EE400B40A00501A75F00A783D30D50508B6FFEB
:100EF4000106C6A426F620D5047002D21C80D9248B
:100F0400CFB41A00EF5004C2E5D21D02116DD21AFB
:100F140080C6D21980C0D21B80BCD2D580BAD21E62
:100F240080B47F20120E6F201B077401B53D004072
:100F3400F1120E34FF120E6F020EA8D221D21F80BE
:100F440095120E34FB120E34FA120E34F94A4B7019
:100F54000679647A127BFF201B2EE53D602A7E0011
:100F64008E8275830012057E60060EEE653E70F07B
:100F7400C2D5EBC0E0EAC0E0E9C0E0EE1211CDD08A
:100F8400E0F9D0E0FAD0E0FB120565FF60AAEBC0FF
:100F9400E0EAC0E0E9C0E0120E6FD0E02401F9D02D
:100FA400E03400FAD0E0FBE53E0460DCD53ED980B5
:100FB40087D21B80A21211B060F7E53E70010412C3
:100FC40003C3A93E600DE53E600914F53E121257B5
:100FD400EF60F3EA30E702F404C3995077EAF425AA
:100FE4003E0430E701E404F53E800D1211B060C107
:100FF400EA053E253E1203C3EA783BF630E701E4F6
:10100400253E04D53E04201E01141211CDE4C0E097
:10101400121257783BE6601320E70714F6120E57B6
:10102400802204F6D0E014C0E07F00120E57E53EA3
:101034006007120E4E153E800B301E03120E4ED06A
:10104400E0020EA8D0E00480C51211B060A0E53E15
:10105400041203C3783BEAF6E53E201E0260010455
:0510640024041211CD6F
:1010690074FF04C0E0121257120E57E53E201E020B
:101079006003120E4ED0E0B53EE87F45120E61784E
:101089003BE67F2B30E7047F2DF404C0E0120E6F9E
:10109900D0E075F00A84C0F0120E58D0E0120E5854
:1010A900020EA8791080027908C21FC2218008D2D5
:1010B900D5790A8004790AC2D5E53E047002F53E65
:1010C900E4FAFDFEFF120E34FC7B08201A13120EFF
:1010D90034FD7B1030190A120E34FE120E34FF7BD8
:1010E90020EC3382D592D55013C3E43019069FFF03
:1010F900E49EFEE4201A039DFDE49CFCE4CBF8C2C7
:101109001AEC700CCFCECDCCE824F8F870F3801728
:10111900C3EF33FFEE33FEED33FDEC33FCEB33FB72
:10112900994002FB0FD8E9EB301A05F8D0E0C44822
:10113900B21AC0E00AEC4D4E4F78207B0070C2EA2B
:10114900B53E0040BCC0E01211CFD0F0D0E0201A6B
:1011590004C4C0E0C4B21AC0F0120E58D0F0D5F0E1
:10116900EB020EA81207330F455310AC580F164C5B
:101179000F124210B04F10B84410B8490F2B43104A
:10118900BE550FEF46104D450FB9471284500F1A3F
:101199002D0F1E2E0F412B0F22230F3F20126D2AD8
:1011A9000EDA4800000F39E53EB4FF03753E06121A
:1011B9000E34FC120E34FD120E34FE120E34FF787A
:1011C900340203F2790AA2D5201C14301E09B91081
:1011D900020404B9080104A2D5201F025001042009
:1011E9001B68921BB53D005034C0E07F20301C19AC
:1011F9007F30A21B721F721E500F121226C21BC211
:101209001FC21EC2217F30800F301E03E9C0E012C9
:101219000E6F301E03D0E0F9D0E0B53DCC301E177B
:101229007F30B9100C120E6F7F58301D077F788000
:1012390003B90803120E6F301B057F2D020E6F7F55
:10124900202021F87F2B201FF322921B80CF7F00C3
:10125900B4070050052434F8E6FF22286E756C6C3B
:101269002900D21A120E34301AF8C21A783D30D534
:101279000108F6020EDA2D50434958120E342403A0
:10128900B405004001E490127F93120E60743A1283
:0A1299000E60D21C753D040210AC7B
:10037900E9D2E7C933E833F892D5EDD2E7CD33ECCA
:0703890033FC5002B2D52243
:10039000EC30E7100FBF000C0EBE00080DBD0004CE
:1003A0000BEB6014A2D5EB13FCED92E7FD2274FF7A
:1003B000FCFDFEFF22E480F8A2D574FF13FC7D80D3
:0303C000E480EFE7
:1003C300F920E72824F950037907E4F42402FB1801
:1003D300DBFDE624FB5014E9600DE4F618E604F6B1
:0F03E300B40A08E4F6D9F57401F60A22C2D5224D
:1003F200ED33EC3392D5FA602AB4FF33EDC2E77BDA
:10040200FF60067A047917E4227A04792020D50461
:100412007A04791B224E614E002B494E46002D492B
:100422004E4600E47A08F608DAFC7B00740722E8FC
:10043200C0E0ECC0E0EDC0E0EEC0E0EFC0E0EA7585
:10044200F010A4CAABF075F04DA42BFBE435F0FC20
:10045200EA2410FAEB34C5FBEC34D9FCEDC2E7FF19
:1004620075F056A4F42411C5F0F434C58FF0A42A13
:10047200E5F03BE43CF620E714120525D0E0FFD07E
:10048200E0FED0E0FDD0E0FC1202678014F404121A
:100492000525D0E0FFD0E0FED0E0FDD0E0FC120167
:1004A2005ED0E0F8E6FAEDD2E7CD33EC332482FBFE
:1004B200E4C3CF33CFCE33CECD33CD33DBF37B07A3
:1004C20075F00A846004F6081B0AE5F0F6088FF05E
:1004D200740AA4FFACF08EF0740AA42CFEACF050A7
:1004E200010C8DF0740AA42CFDE435F0F608DBDE75
:0304F2007407226A
:1004F5003F8000004120000042C80000447A00000F
:10050500461C400047C35000497424004B18968090
:100515004CBEBC205A0E1BCA6753C21C749DC5AE87
:10052500FB60065407601C2323120553EB54386007
:100535000912053F12054E12015EECF8EDF9EEFACF
:10054500EFCB22EB12054E80F1543803241C9004A6
:10055500F5FE93FC0EEE93FD0EEE930ECE93FF2269
:03000000021F8F4D
:0C1F8F00787FE4F6D8FD7581AD021FD606
:10056500BB010689828A83E0225002E722BBFE0294
:09057500E32289828A83E49322C7
:10057E00BB010CE58229F582E5833AF583E0225032
:10058E0006E92582F8E622BBFE06E92582F8E2227C
:0D059E00E58229F582E5833AF583E4932296
:1005AB00BB010689828A83F0225002F722BBFE012F
:0205BB00F32229
:1005BD00F8BB010DE58229F582E5833AF583E8F074
:1005CD00225006E92582C8F622BBFE05E92582C820
:0205DD00F22208
:1005DF00BC000BBE0029EF8DF084FFADF022E4CC00
:1005EF00F875F008EF2FFFEE33FEEC33FCEE9DECC9
:1005FF00984005FCEE9DFE0FD5F0E9E4CEFD22ED0F
:10060F00F8F5F0EE8420D21CFEADF075F008EF2F58
:10061F00FFED33FD4007985006D5F0F222C398FD49
:05062F000FD5F0EA22E6
:1006340075F008758200EF2FFFEE33FECD33CDCC7D
:1006440033CCC58233C5829BED9AEC99E582984000
:100654000CF582EE9BFEED9AFDEC99FC0FD5F0D6DD
:10066400E4CEFBE4CDFAE4CCF9A88222B800C1B907
:100674000059BA002DEC8BF084CFCECDFCE5F0CB45
:10068400F97818EF2FFFEE33FEED33FDEC33FCEB7E
:1006940033FB10D703994004EB99FB0FD8E5E4F939
:1006A400FA227818EF2FFFEE33FEED33FDEC33FC26
:1006B400C933C910D7059BE99A4007EC9BFCE99A1A
:1006C400F90FD8E0E4C9FAE4CCFB2275F010EF2F5F
:1006D400FFEE33FEED33FDCC33CCC833C810D7075F
:1006E4009BEC9AE899400AED9BFDEC9AFCE899F89A
:0E06F4000FD5F0DAE4CDFBE4CCFAE4C8F9222D
:0E070200C3E49FFFE49EFEE49DFDE49CFC2208
:10071000E8600FEFC333FFEE33FEED33FDEC33FC47
:03072000D8F122EB
:10072300FAE6FB0808E6F925F0F618E6CA3AF622D7
:10073300D083D082F8E4937012740193700DA3A355
:1007430093F8740193F5828883E473740293686069
:06075300EFA3A3A380DF69
:10228C00EFB40A07740D122297740A309811A899AA
:10229C00B8130CC2983098FDA899C298B811F630B2
:0722AC0099FDC299F599228A
:10075900E3F5F009E208B5F06D606B80F3E3F5F0BD
:1007690009E608B5F060605E80F387F009E608B530
:10077900F054605280F487F009E208B5F048604609
:1007890080F488828C8387F009E0A3B5F03860365D
:1007990080F488828C8387F009E493A3B5F02760FD
:1007A9002580F388828C83E3F5F009E0A3B5F01680
:1007B900601480F388828C83E3F5F009E493A3B590
:1007C900F004600280F2020884808580E7808E80D0
:1007D900D2803C8015806C807E809B80B5808B8028
:1007E900A1804F8070803A02089089828A83ECFA4E
:1007F900E493F5F0A3C8C582C8CCC583CCE493A320
:10080900C8C582C8CCC583CCB5F070606E80E1895B
:10081900828A83E493F5F0A3E208B5F05E605C8018
:10082900F289828A83E0F5F0A3E608B5F04D604BC2
:1008390080F389828A83E0F5F0A3E208B5F03C6091
:100849003A80F389828A83E493F5F0A3E608B5F048
:100859002A602880F2805389828A83ECFAE493F52E
:10086900F0A3C8C582C8CCC583CCE0A3C8C582C8DB
:10087900CCC583CCB5F004600280E27FFFB5F002FD
:100889000F2240027F012289828A83ECFAE0F5F087
:10089900A3C8C582C8CCC583CCE0A3C8C582C8CCCF
:1008A900C583CCB5F0D560D380E389828A83ECFA1D
:1008B900E0F5F0A3C8C582C8CCC583CCE493A3C82E
:1008C900C582C8CCC583CCB5F0B160AF80E288F0F1
:1008D900ED2402B4040050A3F582EB2402B4040011
:0B08E900509923234582239007D2730F
:101F9B00022449E493A3F8E493A34003F68001F2EF
:101FAB0008DFF48029E493A3F85407240CC8C33347
:101FBB00C4540F4420C8834004F456800146F6DF16
:101FCB00E4800B0102040810204080901E27E47E61
:101FDB00019360BCA3FF543F30E509541FFEE4930B
:101FEB00A360010ECF54C025E060A840B8E493A3D2
:101FFB00FAE493A3F8E493A3C8C582C8CAC583CAFD
:10200B00F0A3C8C582C8CAC583CADFE9DEE780BEB4
:011EE40000FD
:00000001FF
