:1013470074656D700D0A0074656D703A252E3266EE
:101357000D0A006C656E0D0A006C656E3A252E311C
:10136700660D0A00C0F9A4B0999282F8809080A017
:02137700C0E0D4
:10119400C10BC10CC109C10AC10FC10EC10D025B53
:1011A4000001084F000000000000000010330000A0
:1011B40000000000000000000000000000001023F8
:1011C400000000000000000000000000000000001B
:1011D400015700015A000144000143000245000088
:1011E400024900FA02470000024D001402580000B0
:0411F400024B001496
:10000300300D0D754FC67550FF7551FF7552FF22A8
:10001300E55C455B6009754FC77550FF7551FF225D
:1014AF00438E0475D72075D6D143AF04D2AF438E88
:0214BF001022F9
:1014450053A2CFE4F5D8F5E9F5F9F5EAF5FA75D93A
:071455000175DA10D2AF228D
:10141000759850438E40538EFE53890F758B8F7590
:0B1420008DFDC2ABD2ACD2AFD28E2249
:081530007F027E27DEFEDFFCD6
:011538002290
:06005C0000007F21DFFE21
:01006200227B
:1014E300120003C290D2911214451214AF021410C9
:0B151A00120FE08F5A120CA80212DF23
:10148900300B03120F16300C03120E1E300E03120E
:0314990011142209
:100CA800200D03020D7EE55A640C6003020D7EC21E
:100CB8000DF55B755C01754FC77550FF7551FFE504
:100CC800484547701290137493FFF552F553F55445
:100CD800547FF5558F5622AC47AD48E41202117B7C
:100CE8007B7A14792E783E12006612024A8E4D8F56
:100CF8004E7C277D101205CF746B2FF58274133E3E
:100D0800F583E493F552AE4DAF4E7C037DE81205B2
:100D1800CF7C007D0A1205CF746B2DF58274133CCD
:100D2800F583E493F553AE4DAF4E7C007D64120518
:100D3800CF7C007D0A1205CF746B2DF58274133CAD
:100D4800F583E493F554AE4DAF4E7C007D0A120551
:100D5800CF7C007D0A1205CF746B2DF58274133C8D
:100D6800F583E493547FF555AE4DAF4E7C007D0A74
:100D78001205CF020E0FE55C455B7003020E1DE500
:100D88005A640C6003020E1DF55BF55CD20D754FBD
:100D9800C67550FF7551FF7552FFAE4BAF4C7C03C3
:100DA8007DE81206247C007D0A120624746B2DF55A
:100DB8008274133CF583E493F553AE4BAF4C7C003F
:100DC8007D641206247C007D0A120624746B2DF5BE
:100DD8008274133CF583E493547FF554AE4BAF4CC7
:100DE8007C007D0A1206247C007D0A120624746B9E
:100DF8002DF58274133CF583E493F555AE4BAF4C57
:100E08007C007D0A120624746B2DF58274133CF560
:060E180083E493F556226D
:100F16001213A5500512151A80F67FCC12003E7FDB
:100F26004412003E1213A5500512151A80F67FCC06
:100F360012003E7FBE12003E12142B8F5D12142B40
:100F4600EFFEE55DFFFDAC06EC120211E4FBFA795B
:100F5600C8784012006612024A8E4B8F4C300D77CD
:100F66007C037DE81206247C007D0A120624746B3D
:100F76002DF58274133CF583E493F553AE4BAF4CD9
:100F86007C007D641206247C007D0A120624746BA4
:100F96002DF58274133CF583E493547FF554AE4BE0
:100FA600AF4C7C007D0A1206247C007D0A120624C2
:100FB600746B2DF58274133CF583E493F555AE4BB3
:100FC600AF4C7C007D0A120624746B2DF5827413D7
:090FD6003CF583E493F556C20BCF
:010FDF0022EF
:100E1E007E08AF061EEF600CD29012005CC29012DC
:100E2E00005C80EED2DEC2D843DA01300A08300907
:100E3E000512151A80F5E55C455B7003020F0F3045
:100E4E000915901374E493FFF552F553F554547F3E
:100E5E00F5558F56020F0FAC47AD48E41202117BC9
:100E6E007B7A14792E783E12006612024A8E4D8FCE
:100E7E004E7C277D101205CF746B2FF58274133EB6
:100E8E00F583E493F552AE4DAF4E7C037DE812052B
:100E9E00CF7C007D0A1205CF746B2DF58274133C46
:100EAE00F583E493F553AE4DAF4E7C007D64120591
:100EBE00CF7C007D0A1205CF746B2DF58274133C26
:100ECE00F583E493F554AE4DAF4E7C007D0A1205CA
:100EDE00CF7C007D0A1205CF746B2DF58274133C06
:100EEE00F583E493547FF555AE4DAF4E7C007D0AED
:100EFE001205CF746B2DF58274133CF583E493F5D4
:070F0E0056C209C20AC20C21
:010F150022B9
:1014C100D20FE4F544AF44054474332FF8E6F5999F
:0114D10022F8
:10111400C20E78237C007D007BFF7A137947120886
:101124001CEF7022300F0512151A80F87560FF75D8
:10113400611375624EAC4BAD4CEC120211E4FBFA38
:1011440079C87842803278237C007D007BFF7A1353
:10115400795A12081CEF7037300F0512151A80F8EF
:101164007560FF756113756260AC4DAD4EE412029B
:1011740011E4FBFA7920784112016F8F668E658D38
:10118400648C637B007A0079331208951214C122AF
:100FE00075B0FF53B0F320B5047F0180027F00206D
:100FF000B4047E0180027E00EE4F60661215302040
:10100000B5047F0180027F0020B4047E0180027E4F
:1010100000EE4F604DE5B05430FEE5594558703F45
:10102000F55875590175B0FF53B0CF12005CE5B0AB
:10103000540C4206AF06EF24E8601224F460142436
:10104000FC60162414701875570C7F002275570D1C
:101050007F00227557107F00227557117F00227F75
:101060000022E5594558601DC3E55994E8E55894B8
:1010700003E45007F558F559AF5722F558F559E5EF
:0710800057240AFF227F0044
:011087002246
:1012DF00E4FD53A01F7401A805088002C333D8FC96
:1012EF00F580901377E49342A00053A01F744F2D05
:1012FF00F8E6F580A3E49342A01215307580FF0D38
:03130F00BD08CF47
:0113120022B8
:0B1525001214E312151A12148980F84A
:030023000211F9CE
:1011F900C0E0C0D075D010309832C298742325430E
:10120900F8A69974232543F8E6FFB43F02801AEF44
:10121900B40A0D054374232543F87600D20E8009DC
:101229000543E543C3940F4003754300309920C239
:101239009974332544F8E6FF6010F5990544E544AF
:10124900C3940F400A7544008005754400C20FD04D
:04125900D0D0E032DF
:03003B000212AA04
:1012AA00C0E0C0D075D01830DF04C2DFD20930D810
:1012BA001FC2D8D20AAFFAEFADEAF547EDF54853A7
:1012CA00DAFEC2DE75E90075F90075EA0075FA0002
:0512DA00D0D0D0E0328D
:0300630002125D29
:10125D00C0E0E5464545600AE5461546700C154566
:10126D0080087545017546F4D20BE54A4549600A7B
:10127D00E54A154A700C15498008754903754AE809
:10128D00D20CE559455860120559E55970020558BB
:0D129D00455870067558037559E8D0E032C9
:10149C00E4FEC297EF1392A3EFC313FFD2970EBED5
:0214AC0008F046
:0114AE00221B
:10002600C29300C29700D2930012149CAF0512141B
:040036009CC29322B3
:10131300E4FDC29300C29700D2930012149CE4FF31
:10132300C297EDC313FD30A303430580D2970FBFCC
:1013330008EEC29300C29700D29700C2A300D2A3C3
:0313430000AF05F3
:011346002284
:04150200D2A07F05EF
:0815060000AE071FEE70F92290
:0F14F300D2A1121502C2A17F05121506C2A022B6
:0C150E00C2A1121502D2A17F0502150631
:10145C00C2A0A21092A17F05121506121502C2A0FD
:07146C00D2A17F0502150665
:1014D200121502A2A19211C2A07F05121506A21135
:0114E20022E7
:02137900AD07BE
:10137B00E4FCC2A07F05121506ED30E704D2A18074
:10138B0002C2A17F05121506D2A0ED25E0FD7F0557
:09139B001215060CBC08DBC2A00F
:0113A4002226
:1013F300E4FC121502ED25E0FD30A103430501C213
:0C140300A07F051215060CBC08E8AF0520
:01140F0022BA
:041473007F057E0073
:101477007C007D0C1205BDEF1FAC0670011E4C7081
:02148700F6224B
:02003E00AB070E
:10004000E4FAC294EB139294121473D294EBC31398
:0C005000FB0ABA08ED7F057E0002147761
:10142B00E4FAC294EBC313FBD294309403430380CE
:09143B001214730ABA08EBAF03A6
:011444002285
:1013A500C200D2947F0C7E00121477C2947F507EC7
:1013B50000121477D294121473A29492007F0A7EBD
:0613C50000121477A200E3
:0113CB0022FF
:10006600EC4D6011E8497017ED33EC3304600DE494
:10007600FCFFFEFD22E933E8330470F80202B612F3
:10008600028158046009E4CC2481500628500902F4
:1000960002C02840030202BDC0E0EB4A7044B980AA
:1000A60006D0E0FB0202ACEF4E701CBD8008EBFFF1
:1000B600EAFEE9FD80EBE98DF0A4FEE5F002014FD2
:1000C600E9CDF9EAFEEBFFEF89F0A4FCE5F0CE8975
:1000D600F0A42EFFE435F0CD89F0A42DFEE435F032
:1000E6008067EF4E7005BD80D780C3EF8BF0A4AC60
:1000F600F0EE8BF0A42CFCE435F0F8EF8AF0A42C9B
:10010600E5F038FCE433CB8DF0A42CFCE5F03BF8AD
:10011600EE8AF0A42CFCE5F038F8E433CF89F0A49D
:100126002CFCE5F038CF3400CE89F0A42FFFE5F0A3
:100136003EFEE433C98DF0A42EFEE5F039CD8AF0FB
:10014600A42FFFE5F03EFEE43DFD33D0E0FB500773
:100156000BBB000F0202C0EC2CFCEF33FFEE33FEAC
:06016600ED33FD020298DA
:10016C000202C0EC5D046005E8590470030202B69B
:10017C00120281580460F6EC4860F2EC7004FDFE4B
:10018C00FF22C860DB2481C85009C3986002500666
:10019C000202BD9850CAF582E9294B4A7005AB8220
:1001AC000202AC75F0007C1A7880C3EF9BEE9AEDDE
:1001BC0099400DC3EF9BFFEE9AFEED99FDE842F0DE
:1001CC00DC23ACF0D0E0FFD0E0FED0E0FDAB822031
:1001DC00E7101BEB60BAEC2CFCEF33FFEE33FEEDBB
:1001EC0033FD020298E803F830E705C0F075F00023
:1001FC00EF2FFFEE33FEED33FD40B830E7C280AA9F
:10020C0075F020800E75F010800575F0087D007E6D
:10021C00007F003392D530D50312065AEC334010D0
:10022C00EF33FFEE33FEED33FDEC33FCD5F0ED2276
:0E023C00E5F0247EA2D513CC92E7CDCEFF22B2
:10024A00EDD2E7CD33EC3392D524814006E4FFFEAC
:10025A00FDFC22FCE4CFCECDCC24E0501174FF800B
:10026A00EDC3CC13CCCD13CDCE13CECF13CF0470A8
:07027A00F030D5DE02065A48
:10083900E5742460F8E6057422785D300702786073
:10084900E475F0011206680205652000EB7F2ED2DF
:10085900008018EF540F2490D43440D4FF30040B97
:10086900EF24BFB41A0050032461FFE57560021537
:10087900750578E5787002057730070D785DE475C0
:10088900F001120668EF0205AB0213CC7403D2071C
:100899008003E4C207F5748B5D8A5E895FE4F575B0
:1008A900F577F578E57560077F2012087480F5758E
:1008B90076FFC201C200C202C203C205C206C20853
:1008C900120842FF700D3007057F00120885AF78C6
:1008D900AE7722B4255FC2D5C204120842FF24D0E4
:1008E900B40A00501A75F00A787530D50508B6FFB4
:1008F9000106C6A426F620D5047002D20380D924A5
:10090900CFB41A00EF5004C2E5D204020B72D2012F
:1009190080C6D20080C0D20280BCD2D580BAD205AE
:1009290080B47F201208742002077401B575004055
:10093900F1120839FF1208740208ADD208D20680F4
:1009490095120839FB120839FA120839F94A4B701D
:100959000679697A0C7BFF20022EE575602A7E00F4
:100969008E8275830012057E60060EEE657670F044
:10097900C2D5EBC0E0EAC0E0E9C0E0EE120BD2D08C
:10098900E0F9D0E0FAD0E0FB120565FF60AAEBC000
:10099900E0EAC0E0E9C0E0120874D0E02401F9D02F
:1009A900E03400FAD0E0FBE5760460DCD576D98046
:1009B90087D20280A2120BB560F7E57670010412A6
:1009C90002CBA976600DE576600914F576120C5C08
:1009D900EF60F3EA30E702F404C3995077EAF425AB
:1009E900760430E701E404F576800D120BB560C199
:1009F900EA057625761202CBEA7873F630E701E448
:100A0900257604D5760420050114120BD2E4C0E042
:100A1900120C5C7873E6601320E70714F612085C81
:100A2900802204F6D0E014C0E07F0012085CE5766D
:100A390060071208531576800B300503120853D04E
:100A4900E00208ADD0E00480C5120BB560A0E576E0
:100A5900041202CB7873EAF6E576200502600104F8
:050A69002404120BD271
:100A6E0074FF04C0E0120C5C12085CE576200502EF
:100A7E006003120853D0E0B576E87F451208667819
:100A8E0073E67F2B30E7047F2DF404C0E012087468
:100A9E00D0E075F00A84C0F012085DD0E012085D57
:100AAE000208AD791080027908C206C2088008D209
:100ABE00D5790A8004790AC2D5E576047002F576F6
:100ACE00E4FAFDFEFF120839FC7B08200113120820
:100ADE0039FD7B1030000A120839FE120839FF7BEF
:100AEE0020EC3382D592D55013C3E43000069FFF1D
:100AFE00E49EFEE42001039DFDE49CFCE4CBF8C2E1
:100B0E0001EC700CCFCECDCCE824F8F870F3801742
:100B1E00C3EF33FFEE33FEED33FDEC33FCEB33FB73
:100B2E00994002FB0FD8E9EB300105F8D0E0C4483C
:100B3E00B201C0E00AEC4D4E4F78207B0070C2EA45
:100B4E00B5760040BCC0E0120BD4D0F0D0E020014E
:100B5E0004C4C0E0C4B201C0F012085DD0F0D5F0FC
:100B6E00EB0208AD120678094A530AB158091B4C1C
:100B7E000917420AB54F0ABD440ABD490930430A56
:100B8E00C35509F4460A524509BE470C8950091F40
:100B9E002D09232E09462B0927230944200C722ADE
:100BAE0008DF480000093EE576B4FF0375760612AD
:100BBE000839FC120839FD120839FE120839FF787F
:100BCE006C0202FA790AA2D5200314300509B91075
:100BDE00020404B9080104A2D52006025001042023
:100BEE0002689202B575005034C0E07F20300319C0
:100BFE007F30A20272067205500F120C2BC202C277
:100C0E0006C205C2087F30800F300503E9C0E0122E
:100C1E000874300503D0E0F9D0E0B575CC30051777
:100C2E007F30B9100C1208747F583004077F78801B
:100C3E0003B908031208743002057F2D0208747F71
:100C4E00202008F87F2B2006F322920280CF7F000F
:100C5E00B407005005246CF8E6FF22286E756C6C04
:100C6E002900D2011208393001F8C201787530D549
:100C7E000108F60208DF2D504349581208392403A3
:100C8E00B405004001E4900C8493120865743A1286
:0A0C9E000865D203757504020AB15F
:10028100E9D2E7C933E833F892D5EDD2E7CD33ECC3
:0702910033FC5002B2D5223C
:10029800EC30E7100FBF000C0EBE00080DBD0004C7
:1002A8000BEB6014A2D5EB13FCED92E7FD2274FF73
:1002B800FCFDFEFF22E480F8A2D574FF13FC7D80CC
:0302C800E480EFE0
:1002CB00F920E72824F950037907E4F42402FB18FA
:1002DB00DBFDE624FB5014E9600DE4F618E604F6AA
:0F02EB00B40A08E4F6D9F57401F60A22C2D52246
:1002FA00ED33EC3392D5FA602AB4FF33EDC2E77BD3
:10030A00FF60067A03791FE4227A03792820D5044C
:10031A007A037923224E614E002B494E46002D491D
:10032A004E4600E47A08F608DAFC7B00740722E8F5
:10033A00C0E0ECC0E0EDC0E0EEC0E0EFC0E0EA757E
:10034A00F010A4CAABF075F04DA42BFBE435F0FC19
:10035A00EA2410FAEB34C5FBEC34D9FCEDC2E7FF12
:10036A0075F056A4F42411C5F0F434C58FF0A42A0C
:10037A00E5F03BE43CF620E714120525D0E0FFD077
:10038A00E0FED0E0FDD0E0FC12016F8014F404120C
:10039A000525D0E0FFD0E0FED0E0FDD0E0FC120061
:1003AA0066D0E0F8E6FAEDD2E7CD33EC332482FBEF
:1003BA00E4C3CF33CFCE33CECD33CD33DBF37B079C
:1003CA0075F00A846004F6081B0AE5F0F6088FF057
:1003DA00740AA4FFACF08EF0740AA42CFEACF050A0
:1003EA00010C8DF0740AA42CFDE435F0F608DBDE6E
:0303FA0074072263
:1003FD000202B6E86480F8E933E83360110460F076
:10040D00ED33EC337009E8FCE9FDEAFEEBFF220465
:10041D0060DED3EB9FEA9EE99DE8C2E78CF0C2F760
:10042D0095F0400CE8CCF8E9CDF9EACEFAEBCFFB2C
:10043D0012028185D0F05804700320D5B3E8047002
:10044D00075002B2D50202C092D5EC0460F7E4CC9D
:10045D00C0E0C398F8603B94186008400DD0E0FBF5
:10046D00020298E4FBFAC9FC8028E830E406E4C9EE
:10047D00FBE4CAFCE830E305E4C9CACBFCE8540749
:10048D006010F8C3E913F9EA13FAEB13FBEC13FC54
:10049D00D8F130F52FC3E49CFCEF9BFFEE9AFEEDF7
:1004AD0099FDD0E0FBEF4E4D4C701222DB030202A2
:1004BD00BDEC2CFCEF33FFEE33FEED33FDED30E7FD
:1004CD00EB020298EF2BFFEE3AFEED39FDD0E0FB8B
:1004DD0050130BBB00030202C0ED13FDEE13FEEF34
:0804ED0013FFEC13FC0202985E
:1004F5003F8000004120000042C80000447A00000F
:10050500461C400047C35000497424004B18968090
:100515004CBEBC205A0E1BCA6753C21C749DC5AE87
:10052500FB60065407601C2323120553EB54386007
:100535000912053F12054E120066ECF8EDF9EEFAC8
:10054500EFCB22EB12054E80F1543803241C9004A6
:10055500F5FE93FC0EEE93FD0EEE930ECE93FF2269
:0300000002108863
:0C108800787FE4F6D8FD7581780210CF67
:10056500BB010689828A83E0225002E722BBFE0294
:09057500E32289828A83E49322C7
:10057E00BB010CE58229F582E5833AF583E0225032
:10058E0006E92582F8E622BBFE06E92582F8E2227C
:0D059E00E58229F582E5833AF583E4932296
:1005AB00BB010689828A83F0225002F722BBFE012F
:0205BB00F32229
:1005BD00EF8DF0A4A8F0CF8CF0A428CE8DF0A42E52
:0205CD00FE220C
:1005CF00BC000BBE0029EF8DF084FFADF022E4CC10
:1005DF00F875F008EF2FFFEE33FEEC33FCEE9DECD9
:1005EF00984005FCEE9DFE0FD5F0E9E4CEFD22ED1F
:1005FF00F8F5F0EE8420D21CFEADF075F008EF2F69
:10060F00FFED33FD4007985006D5F0F222C398FD59
:05061F000FD5F0EA22F6
:10062400C2D5EC30E709B2D5E4C39DFDE49CFCEEF1
:1006340030E715B2D5E4C39FFFE49EFE1205CFC395
:10064400E49DFDE49CFC80031205CF30D507C3E490
:060654009FFFE49EFE2260
:0E065A00C3E49FFFE49EFEE49DFDE49CFC22B1
:10066800FAE6FB0808E6F925F0F618E6CA3AF62293
:10067800D083D082F8E4937012740193700DA3A311
:1006880093F8740193F5828883E473740293686025
:06069800EFA3A3A380DF25
:1013CC00EFB40A07740D1213D7740A309811A89948
:1013DC00B8130CC2983098FDA899C298B811F63081
:0713EC0099FDC299F5992259
:10069E00E3F5F009E208B5F06D606B80F3E3F5F079
:1006AE0009E608B5F060605E80F387F009E608B5EC
:1006BE00F054605280F487F009E208B5F0486046C5
:1006CE0080F488828C8387F009E0A3B5F038603619
:1006DE0080F488828C8387F009E493A3B5F02760B9
:1006EE002580F388828C83E3F5F009E0A3B5F0163C
:1006FE00601480F388828C83E3F5F009E493A3B54C
:10070E00F004600280F20207C9808580E7808E8047
:10071E00D2803C8015806C807E809B80B5808B80E3
:10072E00A1804F8070803A0207D589828A83ECFAC5
:10073E00E493F5F0A3C8C582C8CCC583CCE493A3DB
:10074E00C8C582C8CCC583CCB5F070606E80E18917
:10075E00828A83E493F5F0A3E208B5F05E605C80D4
:10076E00F289828A83E0F5F0A3E608B5F04D604B7E
:10077E0080F389828A83E0F5F0A3E208B5F03C604D
:10078E003A80F389828A83E493F5F0A3E608B5F004
:10079E002A602880F2805389828A83ECFAE493F5EA
:1007AE00F0A3C8C582C8CCC583CCE0A3C8C582C897
:1007BE00CCC583CCB5F004600280E27FFFB5F002B9
:1007CE000F2240027F012289828A83ECFAE0F5F043
:1007DE00A3C8C582C8CCC583CCE0A3C8C582C8CC8B
:1007EE00C583CCB5F0D560D380E389828A83ECFAD9
:1007FE00E0F5F0A3C8C582C8CCC583CCE493A3C8EA
:10080E00C582C8CCC583CCB5F0B160AF80E288F0AC
:10081E00ED2402B4040050A3F582EB2402B40400CC
:0B082E00509923234582239007177385
:10109400021525E493A3F8E493A34003F68001F238
:1010A40008DFF48029E493A3F85407240CC8C3335D
:1010B400C4540F4420C8834004F456800146F6DF2C
:1010C400E4800B0102040810204080901194E47E17
:1010D400019360BCA3FF543F30E509541FFEE49321
:1010E400A360010ECF54C025E060A840B8E493A3E8
:1010F400FAE493A3F8E493A3C8C582C8CAC583CA13
:10110400F0A3C8C582C8CAC583CADFE9DEE780BECA
:0111F80000F6
:00000001FF
