:10184B0074656D700D0A0074656D703A252E3266E5
:10185B0027430D0A006C656E0D0A006C656E3A2508
:10186B002E3166636D0D0A00766F6C0D0A00766F74
:10187B006C3A252E3266560D0A00C0F9A4B0999227
:08188B0082F8809080A0C0E00B
:1017C200C10BC10CC10DC109C10AC110C10FC10EAB
:1017D20042013E0001420140000042012400004853
:1017E20001300000000000000000500110696E6925
:1017F200745F77656C6C0D0A3E3E3E00005001003E
:1018020000000000000000000000000000000000D6
:101812004101380041013D00410121004101200008
:10182200420122000042012C007D42012800FA42BE
:101832000126000042012E001442013900FA420141
:081842003B000042012A0014E2
:1018D500300E0B90013074C6F0A374FF802A90017E
:1018E5003EE07002A3E0600B90013074C7F0A37472
:1018F500FF8017900140E07002A3E0601090013076
:0E19050074C1F0A374FFF0A3F0A3F0A3F022CE
:101AC200438E0475D72075D6D143AF04D2AF438E6F
:021AD2001022E0
:101A6A0053A2CFE4F5D8F5E9F5F9F5EAF5FA75D90F
:071A7A000175DA10D2AF2262
:101A0000759850438E40538EFE53890F758B8F759A
:0D1A10008DFDC2ABD2ACD2AFD28E021A5106
:081B35007F027E27DEFEDFFCCB
:011B3D002285
:06005C0000007F21DFFE21
:01006200227B
:101AE5001218D5C290D291121A6A121AC2021A009D
:0E1B040012116B90013DEFF0120CFE0219134E
:101A3800300B031212AB300D03121399300C031242
:091A48000FE3300F0312152F22E9
:100CFE0090013DE064046003020E4BC20E90014071
:100D0E00F0A3F090013EF0A304F090013074C7F010
:100D1E00A374FFF0A3F0900126E07002A3E070161A
:100D2E0090188E93900133F0A3F0A3F0547FA3F0AC
:100D3E0090188E020FDC900126E0FCA3E0FDE41279
:100D4E0002117B7B7A14792E783E12006612024ACB
:100D5E0090012EEEF0A3EFF090012EE0FAA3E0FB4F
:100D6E007C277D10FFAE021205DF74852FF582748D
:100D7E00183EF583E493900133F07C037DE8AF03D6
:100D8E00AE021205DF7C007D0A1205DF74852DF59B
:100D9E008274183CF583E493900134F090012EA3F5
:100DAE00E07C007D64FFAE021205DF7C007D0A123E
:100DBE0005DF74852DF58274183CF583E49390015C
:100DCE0035F07C007D0AAF03AE021205DF7C007D9C
:100DDE000A1205DF74852DF58274183CF583E493B1
:100DEE00547F900136F090012EE0FEA3E0FF7C00D0
:100DFE007D0A1205DF74852DF58274183CF583E4A7
:100E0E0093900137F09001437403F0900143E0FF9B
:100E1E002430F582E43401F583E0FE901885E493E6
:100E2E00FDEE6D6003020FE274302FF582E43401A3
:100E3E00F58374FFF0900143E004F080CE90013D05
:100E4E00E064056003020F50A3F0A3F0A3F0A3F03B
:100E5E00D20E90013074C6F0A374FFF0A3F0A3F08D
:100E6E0090012AE0FAA3E0FB7C037DE8FFAE0212BC
:100E7E0006347C007D0A12063474852DF5827418B2
:100E8E003CF583E493900134F07C007D64AF03AEB7
:100E9E00021206347C007D0A12063474852DF5820A
:100EAE0074183CF583E493547F900135F090012A39
:100EBE00A3E07C007D0AFFAE021206347C007D0AA0
:100ECE0012063474852DF58274183CF583E49390E4
:100EDE000136F07C007D0AAF03AE02120634748533
:100EEE002DF58274183CF583E493900137F0900150
:100EFE00437403F0900143E0FF2430F582E43401A3
:100F0E00F583E0FE901885E493FDEEB5051574307B
:100F1E002FF582E43401F58374FFF0900143E00471
:100F2E00F080D1C390012AE0648094804003020FC8
:100F3E00E2900143E0242EF582E43401F58374BF80
:100F4E00F02290013DE064086003020FE2A3F0A3DB
:100F5E00F0C20EA3F0A304F090013074C1F0A3749C
:100F6E00FFF0A3F0A3F0A3F0900139E0FAA3E0FBA9
:100F7E007C007D64FFAE021205DF7C007D0A120547
:100F8E00DF74852DF58274183CF583E493547F90BD
:100F9E000135F07C007D0AAF03AE021205DF7C0046
:100FAE007D0A1205DF74852DF58274183CF583E4F5
:100FBE0093900136F0900139E0FEA3E0FF7C007DB6
:100FCE000A1205DF74852DF58274183CF583E493BF
:040FDE00900137F057
:010FE20022EC
:1012AB001219B25005121B0480F67FCC1200037F7B
:1012BB00441200031219B25005121B0480F67FCCA6
:1012CB001200037FBE120003121A1D900142EFF0B1
:1012DB00121A1DEFFE900142E0FDEDFFAC06EC1281
:1012EB000211E4FBFA79C8784012006612024A90A8
:1012FB00012AEEF0A3EFF0200E0302139690012AC1
:10130B00E0FAA3E0FB7C037DE8FFAE021206347C1F
:10131B00007D0A12063474852DF58274183CF58312
:10132B00E493900134F07C007D64AF03AE021206AF
:10133B00347C007D0A12063474852DF58274183CBA
:10134B00F583E493547F900135F090012AA3E07C60
:10135B00007D0AFFAE021206347C007D0A120634B1
:10136B0074852DF58274183CF583E493900136F067
:10137B007C007D0AAF03AE0212063474852DF58214
:0D138B0074183CF583E493900137F0C20B19
:011398002232
:100FE3009001427408F0900142E0FF14F0EF600CAE
:100FF300D29012005CC29012005C80EAD2DEC2D8AA
:1010030043DA01300A08300905121B0480F5900108
:101013003EE07002A3E0700302114230091D9018F4
:101023008EE493900133F0A3F0A3F0547FA3F090E8
:10103300188EE493900137F0021164900126E0FCCE
:10104300A3E0FDE41202117B7B7A14792E783E1221
:10105300006612024A90012EEEF0A3EFF090012EEB
:10106300E0FAA3E0FB7C277D10FFAE021205DF74DC
:10107300852FF58274183EF583E493900133F07C59
:10108300037DE8AF03AE021205DF7C007D0A120583
:10109300DF74852DF58274183CF583E49390013455
:1010A300F090012EA3E07C007D64FFAE021205DF09
:1010B3007C007D0A1205DF74852DF58274183CF5DA
:1010C30083E493900135F07C007D0AAF03AE0212F6
:1010D30005DF7C007D0A1205DF74852DF582741807
:1010E3003CF583E493547F900136F090012EE0FEAB
:1010F300A3E0FF7C007D0A1205DF74852DF5827461
:10110300183CF583E493900137F09001427403F0A7
:10111300900142E0FF2430F582E43401F583E0FEE0
:10112300901885E493FDEEB5053774302FF582E40E
:101133003401F58374FFF0900142E004F080D19014
:101143000126E0FCA3E0FDE41202117B7B7A147913
:101153002E783E12006612024A90012EEEF0A3EFA3
:07116300F0C209C20AC20C30
:01116A002262
:10139900121AF57F90121985121AD47F0312198532
:1013A900121AD4121AF57F91121985121AD4120041
:1013B9003E7E00900139EEF0A3EFF0FD7C00E412CF
:1013C9000211E4FBFA79FA7843120066E4FBFA7930
:1013D9007F784312016F12024A900139EEF0A3EFB0
:1013E900F0121B1E900140E07002A3E0606C9001B6
:1013F90039E0FAA3E0FB7C007D64FFAE021205DF51
:101409007C007D0A1205DF74852DF58274183CF580
:1014190083E493547F900135F07C007D0AAF03AEDD
:10142900021205DF7C007D0A1205DF74852DF58225
:1014390074183CF583E493900136F0900139E0FE8D
:10144900A3E0FF7C007D0A1205DF74852DF5827407
:0B145900183CF583E493900137F0226B
:10146400121AF57F90121985121AD47F0112198568
:10147400121AD4121AF57F91121985121AD4120075
:101484003E7E00900139EEF0A3EFF0FD7C00E41203
:101494000211E4FBFA79FA7843120066E4FBFA7964
:1014A4007F784312016F12024A900139EEF0A3EFE4
:1014B400F0121B1E900124E07002A3E0606C900106
:1014C40039E0FAA3E0FB7C007D64FFAE021205DF85
:1014D4007C007D0A1205DF74852DF58274183CF5B5
:1014E40083E493547F900135F07C007D0AAF03AE12
:1014F400021205DF7C007D0A1205DF74852DF5825A
:1015040074183CF583E493900136F0900139E0FEC1
:10151400A3E0FF7C007D0A1205DF74852DF582743B
:0B152400183CF583E493900137F0229F
:101A5100D210E4900121F0E0FF04F074102FF58220
:091A6100E43401F583E0F599225B
:10152F00C20F78007C017D017BFF7A18794B12087E
:10153F005EEF7021301005121B0480F89001457486
:10154F00FFF0A37418F0A37452F090012AE0FCA3EB
:10155F00E0FDEC806E78007C017D017BFF7A1879CD
:10156F006012085EEF702B301005121B0480F8908C
:10157F00014574FFF0A37418F0A37466F090012E68
:10158F00E0FCA3E0FDE4120211E4FBFA79207841BC
:10159F00803B78007C017D017BFF7A1879731208FC
:1015AF005EEF703E301005121B0480F890014574F9
:1015BF00FFF0A37418F0A37479F0900139E0FCA345
:1015CF00E0FDE4120211E4FBFA79C8784212016FD0
:1015DF0090014812068E7B017A0179101208E012F1
:0315EF001A51226C
:10116B0075C0FF75B0FF53B0F320B5047F0180024B
:10117B007F0020B4047E0180027E00EE4FFF20C270
:10118B00047E0180027E00EE4FFF20C4047E0180AE
:10119B00027E00EE4F700302127C121B3520B50449
:1011AB007F0180027F0020B4047E0180027E00EE6E
:1011BB004FFF20C2047E0180027E00EE4FFF20C451
:1011CB00047E0180027E00EE4F700302127C9001C0
:1011DB003BE07002A3E0600302127990013BF0A3A5
:1011EB0004F0E5B05430FEA2C2E433C4333354C030
:1011FB004EFEA2C4E433FFC433333354804EFE752A
:10120B00B0FF53B0CFE4F5C012005CE5B0540C4E08
:10121B002488602424C4602824FC602C24E46030DF
:10122B0024FC603424F4603824FC603C2474703E4D
:10123B009001387404F080369001387405F0802EDC
:10124B009001387408F080269001387409F0801EE4
:10125B00900138740CF08016900138740DF0800EEC
:10126B009001387410F080069001387411F07F00F3
:10127B002290013BE0FEA3E0FF4E6021C3EF94E818
:10128B00EE9403E490013B5009F0A3F0900138E099
:0F129B00FF22F0A3F0900138E0240AFF227F0029
:0112AA002221
:10191300E4FD53A01F7401A805088002C333D8FC5B
:10192300F580901891E49342A00053A01F74302DCA
:10193300F582E43401F583E0F580901892E4934254
:0C194300A0121B357580FF0DEDB408C626
:01194F002275
:0B1B2A00121AE5121B04121A3880F892
:0300230002169E24
:10169E00C0E0C083C082C0D075D010309853C298BD
:1016AE00900120E0FF2400F582E43401F583E599F2
:1016BE00F074002FF582E43401F583E0FFB43F07A8
:1016CE00900120E4F0802AEFB40A19900120E00482
:1016DE00F02400F582E43401F583E4F0D20F90019A
:1016EE0020F0800D900120E004F0C3940F4002E43E
:1016FE00F030992BC299900121E02410F582E43448
:10170E0001F583E0FF6011F599900121E004F0C32B
:10171E00940F400BE4F08007900121E4F0C210D04A
:08172E00D0D082D083D0E0325C
:03003B0002189315
:10189300C0E0C083C082C0D075D01830DF04C2DF7F
:1018A300D20930D824C2D8D20AAFFAEFFFADEAED9D
:1018B300900126CFF0A3EFF053DAFEC2DE75E90004
:1018C30075F90075EA0075FA00D0D0D082D083D0C4
:0218D300E03201
:030063000215F291
:1015F200C0E0C0F0C083C082C0D075D01890012274
:10160200E07002A3E06010900123E024FFF090015B
:1016120022E034FFF0800C9001227401F0A374F4F4
:10162200F0D20B900128E07002A3E0601090012933
:10163200E024FFF0900128E034FFF0800C900128B4
:101642007403F0A374E8F0D20C90012CE07002A3B2
:10165200E0601090012DE024FFF090012CE034FFB7
:10166200F0800C90012C7401F0A374F4F0D20D9070
:10167200013BE07002A3E0601890013BE475F001C9
:1016820012066A45F0700A90013B7403F0A374E8F5
:0C169200F0D0D0D082D083D0F0D0E03275
:10002600E4FEC297EF1392A3EFC313FFD2970EEE2F
:03003600B408EF1C
:0100390022A4
:101AAE00C29300C29700D29300120026AF05120017
:041ABE0026C2932287
:10195000E4FDC29300C29700D29300120026E4FF78
:10196000C297EDC313FD30A3034480FDD2970FEF60
:10197000B408EDC29300C29700D29700C2A300D270
:04198000A300AF050C
:011984002240
:041B1200D2A07F05D9
:081B160000AE071FEE70F9227A
:0F1AF500D2A1121B12C2A17F05121B16C2A02282
:0C1B1E00C2A1121B12D2A17F05021B16EF
:101A8100C2A0A21192A17F05121B16121B12C2A0A5
:071A9100D2A17F05021B1624
:101AD400121B12A2A19200C2A07F05121B16A20023
:011AE40022DF
:02198500AD07AC
:10198700E4FCC2A07F05121B16ED30E704D2A1804C
:1019970002C2A17F05121B16D2A0ED25E0FD7F052F
:0A19A700121B160CECB408DAC2A003
:0119B1002213
:10003E00E4FC121B12ED25E0FD30A1034401FDC2CC
:0D004E00A07F05121B160CECB408E7AF05EF
:01005B002282
:041A98007F057E0048
:101A9C007C007D0C1205CDEF1FAC0670011E4C7046
:021AAC00F62220
:02000300AB0749
:10000500E4FAC294EB139294121A98D294EBC313A8
:0D001500FB0AEAB408EC7F057E00021A9C8D
:101A1D00E4FAC294EBC313FBD2943094034480FBDD
:0A1A2D00121A980AEAB408EAAF039F
:011A3700228C
:1019B200C200D2947F0C7E00121A9CC2947F507E89
:1019C20000121A9CD294121A98A29492007F0A7E54
:0619D20000121A9CA200A5
:0119D80022EC
:10006600EC4D6011E8497017ED33EC3304600DE494
:10007600FCFFFEFD22E933E8330470F80202B612F3
:10008600028158046009E4CC2481500628500902F4
:1000960002C02840030202BDC0E0EB4A7044B980AA
:1000A60006D0E0FB0202ACEF4E701CBD8008EBFFF1
:1000B600EAFEE9FD80EBE98DF0A4FEE5F002014FD2
:1000C600E9CDF9EAFEEBFFEF89F0A4FCE5F0CE8975
:1000D600F0A42EFFE435F0CD89F0A42DFEE435F032
:1000E6008067EF4E7005BD80D780C3EF8BF0A4AC60
:1000F600F0EE8BF0A42CFCE435F0F8EF8AF0A42C9B
:10010600E5F038FCE433CB8DF0A42CFCE5F03BF8AD
:10011600EE8AF0A42CFCE5F038F8E433CF89F0A49D
:100126002CFCE5F038CF3400CE89F0A42FFFE5F0A3
:100136003EFEE433C98DF0A42EFEE5F039CD8AF0FB
:10014600A42FFFE5F03EFEE43DFD33D0E0FB500773
:100156000BBB000F0202C0EC2CFCEF33FFEE33FEAC
:06016600ED33FD020298DA
:10016C000202C0EC5D046005E8590470030202B69B
:10017C00120281580460F6EC4860F2EC7004FDFE4B
:10018C00FF22C860DB2481C85009C3986002500666
:10019C000202BD9850CAF582E9294B4A7005AB8220
:1001AC000202AC75F0007C1A7880C3EF9BEE9AEDDE
:1001BC0099400DC3EF9BFFEE9AFEED99FDE842F0DE
:1001CC00DC23ACF0D0E0FFD0E0FED0E0FDAB822031
:1001DC00E7101BEB60BAEC2CFCEF33FFEE33FEEDBB
:1001EC0033FD020298E803F830E705C0F075F00023
:1001FC00EF2FFFEE33FEED33FD40B830E7C280AA9F
:10020C0075F020800E75F010800575F0087D007E6D
:10021C00007F003392D530D503120680EC334010AA
:10022C00EF33FFEE33FEED33FDEC33FCD5F0ED2276
:0E023C00E5F0247EA2D513CC92E7CDCEFF22B2
:10024A00EDD2E7CD33EC3392D524814006E4FFFEAC
:10025A00FDFC22FCE4CFCECDCC24E0501174FF800B
:10026A00EDC3CC13CCCD13CDCE13CECF13CF0470A8
:07027A00F030D5DE02068022
:10087B00E5082445F582E43401F583E00508229070
:10088B000142300703900145E475F00112069A020C
:10089B0005752000E97F2ED2008018EF540F2490AD
:1008AB00D43440D4FF30040BEF24BFB41A005003F0
:1008BB002461FFE50960021509050CE50C700205C2
:1008CB000B30070E900142E475F00112069AEF020D
:1008DB0005BB0219D97403D2078003E4C207F508DC
:1008EB009001421206B1E4F509F50BF50CE5096030
:1008FB00077F201208BE80F5750AFFC201C200C235
:10090B0002C203C205C206C20812088AFF700D306C
:10091B0007057F001208CFAF0CAE0B22B4255FC2C8
:10092B00D5C20412088AFF24D0B40A00501A75F0FD
:10093B000A780930D50508B6FF0106C6A426F620AD
:10094B00D5047002D20380D924CFB41A00EF50041F
:10095B00C2E5D204020BC1D20180C6D20080C0D244
:10096B000280BCD2D580BAD20580B47F201208BEDB
:10097B002002077401B5090040F112087BFF120831
:10098B00BE0208F8D208D206809512087BFB12082B
:10099B007BFA12087BF94A4B700679BF7A0C7BFF06
:1009AB0020022EE509602A7E008E827583001205D7
:1009BB008E60060EEE650A70F0C2D5EBC0E0EAC0A1
:1009CB00E0E9C0E0EE120C22D0E0F9D0E0FAD0E082
:1009DB00FB120575FF60AAEBC0E0EAC0E0E9C0E0DE
:1009EB001208BED0E02401F9D0E03400FAD0E0FBCD
:1009FB00E50A0460DCD50AD98087D20280A2120CEA
:100A0B000460F7E50A7001041202CBA90A600DE538
:100A1B000A600914F50A120CACEF60F3EA30E70236
:100A2B00F404C3995079EAF4250A0430E701E4048D
:100A3B00F50A800D120C0460C1EA050A250A1202A0
:100A4B00CBEA900171F030E701E4250A04D50A04E2
:100A5B0020050114120C22E4C0E0120CAC900171C1
:100A6B00E0601320E70714F01208A6802204F0D0F0
:100A7B00E014C0E07F001208A6E50A600712089D8B
:100A8B00150A800B30050312089DD0E00208F8D040
:100A9B00E00480C4120C04609EE50A041202CB90A1
:100AAB000171EAF0E50A2005026001042404120C2E
:010ABB002218
:100ABC0074FF04C0E0120CAC1208A6E50A20050273
:100ACC00600312089DD0E0B50AE87F451208B0908B
:100ADC000171E07F2B30E7047F2DF404C0E0120895
:100AEC00BED0E075F00A84C0F01208A7D0E012085E
:100AFC00A70208F8791080027908C206C20880089B
:100B0C00D2D5790A8004790AC2D5E50A047002F5B7
:100B1C000AE4FAFDFEFF12087BFC7B08200113128D
:100B2C00087BFD7B1030000A12087BFE12087BFF4D
:100B3C007B20EC3382D592D55013C3E43000069F52
:100B4C00FFE49EFEE42001039DFDE49CFCE4CBF855
:100B5C00C201EC700CCFCECDCCE824F8F870F38049
:100B6C0017C3EF33FFEE33FEED33FDEC33FCEB3309
:100B7C00FB994002FB0FD8E9EB300105F8D0E0C43B
:100B8C0048B201C0E00AEC4D4E4F78207B0070C299
:100B9C00EAB50A0040BCC0E0120C24D0F0D0E02032
:100BAC000104C4C0E0C4B201C0F01208A7D0F0D553
:100BBC00F0EB0208F81206BA0995530B00580966B7
:100BCC004C0962420B044F0B0C440B0C49097B4340
:100BDC000B12550A3F460A9F450A09470CDF50097C
:100BEC006A2D096E2E09912B097223098F200CC8CE
:100BFC002A092A4800000989E50AB4FF03750A0688
:100C0C0012087BFC12087BFD12087BFE12087BFF8E
:100C1C0090016A020308790AA2D520031430050951
:100C2C00B910020404B9080104A2D520060250012F
:100C3C00042002689202B509005034C0E07F2030D5
:100C4C0003197F30A20272067205500F120C7BC280
:100C5C0002C206C205C2087F30800F300503E9C00E
:100C6C00E01208BE300503D0E0F9D0E0B509CC3075
:100C7C0005177F30B9100C1208BE7F583004077F5F
:100C8C00788003B908031208BE3002057F2D0208D4
:100C9C00BE7F202008F87F2B2006F322920280CF03
:100CAC007F00B40700500B246AF582E43401F5830D
:100CBC00E0FF22286E756C6C2900D20112087B3083
:100CCC0001F8C201780930D50108F602092A2D5025
:100CDC0043495812087B2403B405004001E4900CEE
:100CEC00DA931208AF743A1208AFD20375090402F2
:020CFC000B00EB
:10028100E9D2E7C933E833F892D5EDD2E7CD33ECC3
:0702910033FC5002B2D5223C
:10029800EC30E7100FBF000C0EBE00080DBD0004C7
:1002A8000BEB6014A2D5EB13FCED92E7FD2274FF73
:1002B800FCFDFEFF22E480F8A2D574FF13FC7D80CC
:0302C800E480EFE0
:1002CB00F920E73624F950037907E4F42402FBE51F
:1002DB0082158270021583DBF6E024FB501BE9606C
:1002EB0014E4F0E582158270021583E004F0B40A81
:0D02FB0008E4F0D9EE7401F00A22C2D52209
:10030800ED33EC3392D5FA602AB4FF33EDC2E77BC4
:10031800FF60067A03792DE4227A03793620D50422
:100328007A037931224E614E002B494E46002D4901
:100338004E4600E47A08F0A3DAFC7B00740722C07A
:1003480083C082ECC0E0EDC0E0EEC0E0EFC0E0EAC0
:1003580075F010A4CAABF075F04DA42BFBE435F092
:10036800FCEA2410FAEB34C5FBEC34D9FCEDC2E707
:10037800FF75F056A4F42411C5F0F434C58FF0A429
:100388002AE5F03BE43CF020E714120535D0E0FF05
:10039800D0E0FED0E0FDD0E0FC12016F8014F40440
:1003A800120535D0E0FFD0E0FED0E0FDD0E0FC1231
:1003B8000066D082D083E0FAEDD2E7CD33EC332467
:1003C80082FBE4C3CF33CFCE33CECD33CD33DBF393
:1003D8007B0775F00A846004F0A31B0AE5F0F0A31C
:1003E8008FF0740AA4FFACF08EF0740AA42CFEAC53
:1003F800F050010C8DF0740AA42CFDE435F0F0A344
:05040800DBDE74072299
:10040D000202B6E86480F8E933E83360110460F065
:10041D00ED33EC337009E8FCE9FDEAFEEBFF220455
:10042D0060DED3EB9FEA9EE99DE8C2E78CF0C2F750
:10043D0095F0400CE8CCF8E9CDF9EACEFAEBCFFB1C
:10044D0012028185D0F05804700320D5B3E80470F2
:10045D00075002B2D50202C092D5EC0460F7E4CC8D
:10046D00C0E0C398F8603B94186008400DD0E0FBE5
:10047D00020298E4FBFAC9FC8028E830E406E4C9DE
:10048D00FBE4CAFCE830E305E4C9CACBFCE8540739
:10049D006010F8C3E913F9EA13FAEB13FBEC13FC44
:1004AD00D8F130F52FC3E49CFCEF9BFFEE9AFEEDE7
:1004BD0099FDD0E0FBEF4E4D4C701222DB03020292
:1004CD00BDEC2CFCEF33FFEE33FEED33FDED30E7ED
:1004DD00EB020298EF2BFFEE3AFEED39FDD0E0FB7B
:1004ED0050130BBB00030202C0ED13FDEE13FEEF24
:0804FD0013FFEC13FC0202984E
:100505003F8000004120000042C80000447A0000FE
:10051500461C400047C35000497424004B18968080
:100525004CBEBC205A0E1BCA6753C21C749DC5AE77
:10053500FB60065407601C2323120563EB543860E7
:100545000912054F12055E120066ECF8EDF9EEFA98
:10055500EFCB22EB12055E80F1543803241C900585
:1005650005FE93FC0EEE93FD0EEE930ECE93FF2249
:03000000021736AE
:0C173600787FE4F6D8FD75812202177D53
:10057500BB010689828A83E0225002E722BBFE0284
:09058500E32289828A83E49322B7
:10058E00BB010CE58229F582E5833AF583E0225022
:10059E0006E92582F8E622BBFE06E92582F8E2226C
:0D05AE00E58229F582E5833AF583E4932286
:1005BB00BB010689828A83F0225002F722BBFE011F
:0205CB00F32219
:1005CD00EF8DF0A4A8F0CF8CF0A428CE8DF0A42E42
:0205DD00FE22FC
:1005DF00BC000BBE0029EF8DF084FFADF022E4CC00
:1005EF00F875F008EF2FFFEE33FEEC33FCEE9DECC9
:1005FF00984005FCEE9DFE0FD5F0E9E4CEFD22ED0F
:10060F00F8F5F0EE8420D21CFEADF075F008EF2F58
:10061F00FFED33FD4007985006D5F0F222C398FD49
:05062F000FD5F0EA22E6
:10063400C2D5EC30E709B2D5E4C39DFDE49CFCEEE1
:1006440030E715B2D5E4C39FFFE49EFE1205DFC375
:10065400E49DFDE49CFC80031205DF30D507C3E470
:060664009FFFE49EFE2250
:10066A00C5F0F8A3E028F0C5F0F8E582158270021B
:06067A001583E038F022B8
:0E068000C3E49FFFE49EFEE49DFDE49CFC228B
:0C068E00ECF0A3EDF0A3EEF0A3EFF022DF
:10069A00F8E0FBA3A3E0F925F0F0E58215827002E9
:0706AA001583E0FA38F0228D
:0906B100EBF0A3EAF0A3E9F0224A
:1006BA00D083D082F8E4937012740193700DA3A3CF
:1006CA0093F8740193F5828883E4737402936860E3
:0606DA00EFA3A3A380DFE3
:1019D900EFB40A07740D1219E4740A309811A89922
:1019E900B8130CC2983098FDA899C298B811F6306E
:0719F90099FDC299F5992246
:1006E000E3F5F009E208B5F06D606B80F3E3F5F037
:1006F00009E608B5F060605E80F387F009E608B5AA
:10070000F054605280F487F009E208B5F048604682
:1007100080F488828C8387F009E0A3B5F0386036D6
:1007200080F488828C8387F009E493A3B5F0276076
:100730002580F388828C83E3F5F009E0A3B5F016F9
:10074000601480F388828C83E3F5F009E493A3B509
:10075000F004600280F202080B808580E7808E80C2
:10076000D2803C8015806C807E809B80B5808B80A1
:10077000A1804F8070803A02081789828A83ECFA40
:10078000E493F5F0A3C8C582C8CCC583CCE493A399
:10079000C8C582C8CCC583CCB5F070606E80E189D5
:1007A000828A83E493F5F0A3E208B5F05E605C8092
:1007B000F289828A83E0F5F0A3E608B5F04D604B3C
:1007C00080F389828A83E0F5F0A3E208B5F03C600B
:1007D0003A80F389828A83E493F5F0A3E608B5F0C2
:1007E0002A602880F2805389828A83ECFAE493F5A8
:1007F000F0A3C8C582C8CCC583CCE0A3C8C582C855
:10080000CCC583CCB5F004600280E27FFFB5F00276
:100810000F2240027F012289828A83ECFAE0F5F000
:10082000A3C8C582C8CCC583CCE0A3C8C582C8CC48
:10083000C583CCB5F0D560D380E389828A83ECFA96
:10084000E0F5F0A3C8C582C8CCC583CCE493A3C8A7
:10085000C582C8CCC583CCB5F0B160AF80E288F06A
:10086000ED2402B4040050A3F582EB2402B404008A
:0B087000509923234582239007597301
:10174200021B2AE493A3F8E493A34003F68001F278
:1017520008DFF48029E493A3F85407240CC8C333A8
:10176200C4540F4420C8834004F456800146F6DF77
:10177200E4800B01020408102040809017C2E47E2E
:10178200019360BCA3FF543F30E509541FFEE4936C
:10179200A360010ECF54C025E060A840B8E493A333
:1017A200FAE493A3F8E493A3C8C582C8CAC583CA5E
:1017B200F0A3C8C582C8CAC583CADFE9DEE780BE16
:01184A00009D
:00000001FF
