:1021420074656D700D0A0074656D703A252E3266E5
:1021520027430D0A006C656E0D0A006C656E3A2508
:102162002E3166636D0D0A00766F6C0D0A00766F74
:102172006C3A252E3266560D0A00627269676874DF
:102182000D0A006272696768743A252E3266560D2E
:102192000A0074696D650D0A0074696D653A252E31
:1021A20030663A252E30663A252E30660D0A0064D6
:1021B2006174650D0A00646174653A252E30662DDE
:1021C200252E30662D252E30660D0A00C0F9A4B0EA
:1021D200999282F8809080828486888A8C8E81830C
:0A21E2008587898B8D8F80A0C0E0F7
:10208300012000012100C115C113C116C110C111E6
:10209300C112C118C117C114085C00001201010369
:1020A3002000103C696E69745F77656C6C0D0A00E3
:1020B30000000000102C00000000000000000000E1
:1020C30000000000000001760001740001710001AE
:1020D3007500015600015500017000015900016FA0
:1020E3000001500001640002720000025700FA026E
:1020F30065007D025A000002770177022A00000280
:102103004E01F402510138024C0000025300BB425D
:102113000140000142014400014201460000420126
:1021230032000042013EF8304201420014420148AD
:0E21330000FA42013000FA44013A000003E8CD
:0F093200900144E0FFA3E0900140CFF0A3EFF06D
:10094100900140E0FEA3E0FFEE6003020F41EF14CF
:100951007003020B6A147003020C82147003020DFF
:100961001924FE7003020DB024056003020F4178C3
:100971006776C60876FF0876FF0876FF90013EE0AD
:10098100FEA3E0FFC3EE94805003020A79E49FFBCB
:10099100E49EFA7C277D10AF03FE1206017C007DE8
:1009A1000A12060174CE2DF58274213CF583E4937D
:1009B100786AF67C037DE8AF03AE021206017C0083
:1009C1007D0A12060174CE2DF58274213CF583E473
:1009D10093786BF690013EE0FEA3E0FFC3E49FFB3A
:1009E100E49EFA7C007D64AF03FE1206017C007D6B
:1009F1000A12060174CE2DF58274213CF583E4932D
:100A0100547F786CF67C007D0AAF03AE02120601BA
:100A11007C007D0A12060174CE2DF58274213CF50D
:100A210083E493786DF690013EE0FEA3E0FFC3E41A
:100A31009FFFE49EFE7C007D0A12060174CE2DF517
:100A41008274213CF583E493786EF690010274037D
:100A5100F0900102E02467F89021CEE493FFE6B51F
:100A6100070A76FF900102E004F080E5900102E0C0
:100A71002466F876BF020B4C90013EE0FAA3E0FB3E
:100A81007C277D10FFAE021206017C007D0A120652
:100A91000174CE2DF58274213CF583E493786AF6D6
:100AA1007C037DE8AF03AE021206017C007D0A12D1
:100AB100060174CE2DF58274213CF583E493786BA5
:100AC100F690013EE0FAA3E0FB7C007D64FFAE02FC
:100AD1001206017C007D0A12060174CE2DF5827486
:100AE100213CF583E493547F786CF67C007D0AAF5A
:100AF10003AE021206017C007D0A12060174CE2D9E
:100B0100F58274213CF583E493786DF690013EE023
:100B1100FEA3E0FF7C007D0A12060174CE2DF58252
:100B210074213CF583E493786EF69001027403F02E
:100B3100900102E02467F89021CEE493FFE6B50727
:100B41000A76FF900102E004F080E57859E660033F
:100B5100020F41786FE66003020F4190013704F004
:100B6100A37401F0A3743EF022786776C70876FF7C
:100B71000876FF900132E07002A3E0701A9021D74D
:100B810093FF786AF608A60708A607EF547F08F6D0
:100B9100E49308F6020C64900142E0FAA3E0FB7CC6
:100BA100277D10FFAE0212060174CE2FF58274214B
:100BB1003EF583E493786AF67C037DE8AF03AE02E9
:100BC1001206017C007D0A12060174CE2DF5827495
:100BD100213CF583E493786BF6900142E0FAA3E0BF
:100BE100FB7C007D64FFAE021206017C007D0A12CF
:100BF100060174CE2DF58274213CF583E493786C63
:100C0100F67C007D0AAF03AE021206017C007D0A6C
:100C110012060174CE2DF58274213CF583E49354C0
:100C21007F786DF6900142E0FEA3E0FF7C007D0A33
:100C310012060174CE2DF58274213CF583E493787C
:100C41006EF69001027403F0900102E02467F890BF
:100C510021CEE493FFE6B5070A76FF900102E00496
:100C6100F080E57859E66003020F41786FE6600392
:100C7100020F4190013704F0A37401F0A37442F014
:100C810022786776C10876FF0876FF0876FF087636
:100C9100FF900148E0FAA3E0FB7C007D64FFAE0217
:100CA1001206017C007D0A12060174CE2DF58274B4
:100CB100213CF583E493547F786CF67C007D0AAF88
:100CC10003AE021206017C007D0A12060174CE2DCC
:100CD100F58274213CF583E493786DF6900148E048
:100CE100FEA3E0FF7C007D0A12060174CE2DF58281
:100CF10074213CF583E493786EF67859E66003023B
:100D01000F41786FE66003020F4190013704F0A3B1
:100D11007401F0A37448F022786776830876FF089F
:100D210076FF0876FF0876FF900130E0FAA3E0FB3A
:100D31007C007D64FFAE021206017C007D0A120672
:100D41000174CE2DF58274213CF583E493547F78B0
:100D51006CF67C007D0AAF03AE021206017C007DB9
:100D61000A12060174CE2DF58274213CF583E493B9
:100D7100786DF6900130E0FEA3E0FF7C007D0A1261
:100D8100060174CE2DF58274213CF583E493786ECF
:100D9100F67859E66003020F41786FE66003020FAF
:100DA1004190013704F0A37401F0A37430F022786C
:100DB10067768E7B407A42790F780090013AE0FCA9
:100DC100A3E0FDA3E0FEA3E0FF120692E47B0AFA92
:100DD100F9F812069274CE2BF58274213AF583E468
:100DE100937868F67BA07A867901780090013AE0E1
:100DF100FCA3E0FDA3E0FEA3E0FF120692E47B0A60
:100E0100FAF9F812069274CE2BF58274213AF58321
:100E1100E4937869F6E47B107A27F9F890013AE0D7
:100E2100FCA3E0FDA3E0FEA3E0FF120692E47B0A2F
:100E3100FAF9F812069274CE2BF58274213AF583F1
:100E4100E493786AF6E47BE87A03F9F890013AE0F2
:100E5100FCA3E0FDA3E0FEA3E0FF120692E47B0AFF
:100E6100FAF9F812069274CE2BF58274213AF583C1
:100E7100E493786BF6E47B64FAF9F890013AE0FCCC
:100E8100A3E0FDA3E0FEA3E0FF120692E47B0AFAD1
:100E9100F9F812069274CE2BF58274213AF583E4A7
:100EA10093786CF6E47B0AFAF9F890013AE0FCA336
:100EB100E0FDA3E0FEA3E0FF120692E47B0AFAF94B
:100EC100F812069274CE2BF58274213AF583E493DD
:100ED100786DF6E47B0AFAF9F890013AE0FCA3E0B8
:100EE100FDA3E0FEA3E0FF12069274CE2BF58274FF
:100EF100213AF583E493786EF69001027401F09043
:100F01000102E0FF2467F89021CEE493FEE6B506E6
:100F110018C3EF940874809480500E900102E0246D
:100F210067F876FFE004F080D67859E67012786FA2
:100F3100E6700D90013704F0A37401F0A3743AF048
:010F4100228D
:10269B00438E0475D72075D6D143AF04D2AF438E8A
:0226AB001022FB
:1026750053A2CFE4F5D8F5E9F5F975D90175DA1165
:03268500D2AF22AF
:1025F900759850438E40538EFE53890F758B8F7596
:0D2609008DFDC2ABD2ACD2AFD28E0226DE68
:10000E00538E7F438907E4F58AF58CC28DD2A9D22F
:04001E00AFD28C22AF
:10003E009001007408F0900100E0FF14F0EF6012E0
:10004E00E0FE9021D893FF745C2EF8E6FD12002698
:02005E0080E43C
:01006000227D
:08272C007F027E27DEFEDFFCC8
:012734002282
:0600030000007F21DFFE7A
:0100090022D4
:10264900120941C290D29112267512269B12000ED0
:062659001225F902003E0B
:0F26CF00121FAD121EC01224011226880226AD62
:1023B6003015031216C4301603121CE03010031237
:1023C6001DD03013031224EB201203301103121A0E
:1023D60094786FE660031222E87864E660031223BD
:1023E60053301403122514900146E07002A3E060F6
:0B23F600031218FC3017031213C5225D
:101EC0007850E66003021F727875E664047008902B
:101ED0000140F0A304806F7875E6640570079001F7
:101EE00040F0A380617875E664087009900140F0C5
:101EF000A3740280517875E664097009900140F07E
:101F0000A3740380417875E6640D702C900137E06E
:101F1000F9A3E0FAA3E0900134C9F0A3EAF0A3E941
:101F2000F0900140E0FFA3E0900144CFF0A3EFF078
:101F30007859760AD205806D7875E6640C700A903F
:101F40000140F0A37405F0805C7875E66417705862
:101F50007859E67053786FE6704E1209329001405E
:101F6000E4F0A37404F0D206785076097864760A17
:101F700080367875E6640D70107850E6167864F651
:101F80007850E67002760A801C7875E6641770183F
:101F9000C206900144E0FFA3E0900140CFF0A3EF20
:0D1FA000F0E47850F6120941E47875F6225D
:1016C400D20012256250051226CF80F67FCC122557
:1016D4003B7F4412253B12256250051226CF80F62B
:1016E4007FCC12253B7FBE12253B1225D6900100EC
:1016F400EFF01225D6EFFE900100E0FDEDFFAC0601
:10170400EC120309E4FBFA79C8784012015E120373
:101714004290013EEEF0A3EFF0A3E07002A3E0607C
:10172400030218F790013EE0FEA3E0FFC3EE9480AD
:101734005003021824E49FFBE49EFA7C277D10AF3B
:1017440003FE1206017C007D0A12060174CE2DF5FB
:101754008274213CF583E493786AF67C037DE8AFD8
:1017640003AE021206017C007D0A12060174CE2D1E
:10177400F58274213CF583E493786BF690013EE0A6
:10178400FEA3E0FFC3E49FFBE49EFA7C007D64AF0C
:1017940003FE1206017C007D0A12060174CE2DF5AB
:1017A4008274213CF583E493547F786CF67C007D4D
:1017B4000AAF03AE021206017C007D0A1206017410
:1017C400CE2DF58274213CF583E493786DF6900177
:1017D4003EE0FEA3E0FFC3E49FFFE49EFE7C007DA9
:1017E4000A12060174CE2DF58274213CF583E4932C
:1017F400786EF69001017403F0900101E02467F81B
:101804009021CEE493FFE6B5070A76FF900101E04C
:1018140004F080E5900101E02466F876BF0218F731
:1018240090013EE0FAA3E0FB7C277D10FFAE02129C
:1018340006017C007D0A12060174CE2DF582742106
:101844003CF583E493786AF67C037DE8AF03AE024B
:101854001206017C007D0A12060174CE2DF58274F5
:10186400213CF583E493786BF690013EE0FAA3E023
:10187400FB7C007D64FFAE021206017C007D0A122F
:10188400060174CE2DF58274213CF583E493547FD4
:10189400786CF67C007D0AAF03AE021206017C0070
:1018A4007D0A12060174CE2DF58274213CF583E481
:1018B40093786DF690013EE0FEA3E0FF7C007D0A84
:1018C40012060174CE2DF58274213CF583E49378DD
:1018D4006EF69001017403F0900101E02467F89022
:1018E40021CEE493FFE6B5070A76FF900101E004F8
:0718F400F080E5C215C200FF
:0118FB0022CA
:1024EB007E08C211C212C213AF061EEF600CD2904F
:1024FB00120003C29012000380EEE4F5E9F5F9C275
:08250B00D8C2DFD2DE43DA0181
:0125130022A5
:101A9400201203021B89900132E0FCA3E0FDE41252
:101AA40003097B7B7A14792E783E12015E1203427D
:101AB400900142EEF0A3EFF0900140E07004A3E047
:101AC40064016003021BB9900142E0FAA3E0FB7CCD
:101AD400277D10FFAE0212060174CE2FF582742109
:101AE4003EF583E493786AF67C037DE8AF03AE02A7
:101AF4001206017C007D0A12060174CE2DF5827453
:101B0400213CF583E493786BF6900142E0FAA3E07C
:101B1400FB7C007D64FFAE021206017C007D0A128C
:101B2400060174CE2DF58274213CF583E493786C20
:101B3400F67C007D0AAF03AE021206017C007D0A2A
:101B440012060174CE2DF58274213CF583E493547E
:101B54007F786DF6900142E0FEA3E0FF7C007D0AF1
:101B640012060174CE2DF58274213CF583E493783A
:101B74006EF67F0374672FF89021CEE49366703578
:101B840076FF0F80EF30112D9001427427F0A3747B
:101B94000FF0900140E07004A3E0640170179021FD
:101BA400D793FF786AF608A60708A607EF547F08BC
:051BB400F6E49308F6C1
:011BB9002209
:101CE000D202C2161226ED7F901224B61226BE7FB3
:101CF000031224B61226BE1226ED7F911224B612CC
:101D000026BE1225B0C2191226321225B090014803
:101D1000E4F0A3EFF0900148E0FCA3E0FDE412033F
:101D200009E4FBFA79FA784312015EE4FBFA797F61
:101D30007843120267120342900148EEF0A3EFF0DD
:101D4000122715900140E07004A3E06402706990CE
:101D50000148E0FAA3E0FB7C007D64FFAE021206BE
:101D6000017C007D0A12060174CE2DF58274213C9F
:101D7000F583E493547F786CF67C007D0AAF03AE64
:101D8000021206017C007D0A12060174CE2DF58236
:101D900074213CF583E493786DF6900148E0FEA34E
:101DA000E0FF7C007D0A12060174CE2DF5827421BD
:101DB0003CF583E493786EF6D3900149E0942C903F
:101DC0000148E094014004D20E8002C20EC20222F9
:101DD000D203C2101226ED7F901224B61226BE7FC7
:101DE000011224B61226BE1226ED7F911224B612DD
:101DF00026BE1225B0C2191226321225B09001302B
:101E0000E4F0A3EFF0900130E0FCA3E0FDE4120366
:101E100009E4FBFA79FA784312015EE4FBFA797F70
:101E20007843120267120342900130EEF0A3EFF004
:101E3000122715900140E07004A3E06403706990DC
:101E40000130E0FAA3E0FB7C007D64FFAE021206E5
:101E5000017C007D0A12060174CE2DF58274213CAE
:101E6000F583E493547F786CF67C007D0AAF03AE73
:101E7000021206017C007D0A12060174CE2DF58245
:101E800074213CF583E493786DF6900130E0FEA375
:101E9000E0FF7C007D0A12060174CE2DF5827421CC
:101EA0003CF583E493786EF6D3900131E0942C9066
:101EB0000130E094014004D20C8002C20CC2032223
:0F26DE00D218E47856F6E606243CF8E6F5992281
:1022E8001226ED7FA01224B61226BE786FE61425BA
:1022F800E0FF1224B61226BE900137E0FBA3E0FAF5
:10230800A3E0F9120575FF1224B61226BE90013714
:10231800E0FBA3E0FAA3E0F990000112058EFF129A
:1023280024B61226BE122715E4786FF67859E6709F
:1023380019C205900140E0FEA3E0FF900144E06E61
:0B2348007003A3E06F60031209412244
:102353001226ED7FA01224B61226BE7864E6142559
:10236300E0FF1224B61226BE1226ED7FA11224B678
:102373001226BE1225B0900134E0FBA3E0FAA3E0DD
:10238300F9EF1205BBC2191226321225B09001349F
:10239300E0FBA3E0FAA3E0F9900001EF1205CD12F0
:1023A3002715120932900140E4F0A37404F0E47895
:0323B30064F622AB
:102514009001007407F0900100E0FF14F0EF6014E4
:10252400E09021E093FF12243E900100E0245CF847
:06253400A60780E2C214BC
:01253A00227E
:1018FC00900146E0FEA3E0FFE4FCFD780312073202
:10190C0090013A120745900140E07004A3E0640591
:10191C006003021A897B407A42790FF890013AE011
:10192C00FCA3E0FDA3E0FEA3E0FF120692E47B0A19
:10193C00FAF9F812069274CE2BF58274213AF583DB
:10194C00E4937868F67BA07A867901780090013A66
:10195C00E0FCA3E0FDA3E0FEA3E0FF120692E47B13
:10196C000AFAF9F812069274CE2BF58274213AF524
:10197C0083E4937869F6E47B107A27F9F890013ABE
:10198C00E0FCA3E0FDA3E0FEA3E0FF120692E47BE3
:10199C000AFAF9F812069274CE2BF58274213AF5F4
:1019AC0083E493786AF6E47BE87A03F9F890013AD9
:1019BC00E0FCA3E0FDA3E0FEA3E0FF120692E47BB3
:1019CC000AFAF9F812069274CE2BF58274213AF5C4
:1019DC0083E493786BF6E47B64FAF9F890013AE0CF
:1019EC00FCA3E0FDA3E0FEA3E0FF120692E47B0A59
:1019FC00FAF9F812069274CE2BF58274213AF5831B
:101A0C00E493786CF6E47B0AFAF9F890013AE0FC7E
:101A1C00A3E0FDA3E0FEA3E0FF120692E47B0AFA2A
:101A2C00F9F812069274CE2BF58274213AF583E400
:101A3C0093786DF6E47B0AFAF9F890013AE0FCA38E
:101A4C00E0FDA3E0FEA3E0FF12069274CE2BF5821C
:101A5C0074213AF583E493786EF67F0174672FF85E
:101A6C009021CEE493FEE6B50613EFC39408748080
:101A7C009480500974672FF876FF0F80DFE4900193
:071A8C0046F0A3F07874F6A8
:011A93002230
:1013C500D204C217782C7C007D007BFF7A217942FC
:1013D500120915EF3395E04F701B3018051226CF13
:1013E50080F890010374FFF0A37421F0A37449F011
:1013F50090013E8071782C7C007D007BFF7A2179FD
:1014050057120915EF3395E04F702C301805122649
:10141500CF80F890010374FFF0A37421F0A3745DED
:10142500F0900142E0FCA3E0FDE4120309E4FBFABD
:10143500792078410214BC782C7C007D007BFF7AF2
:1014450021796A120915EF3395E04F702B30180595
:101455001226CF80F890010374FFF0A37421F0A346
:101465007470F0900148E0FCA3E0FDE4120309E488
:10147500FBFA79C87842803F782C7C007D007BFFA1
:101485007A21797C120915EF3395E04F70323018C7
:10149500051226CF80F890010374FFF0A37421F0A4
:1014A500A37485F0900130E0FCA3E0FDE41203098C
:1014B500E4FBFA79C878421202679001060216B277
:1014C500782C7C007D007BFF7A217994120915EF39
:1014D5003395E04F60030215BD3018051226CF8005
:1014E500F890010374FFF0A37421F0A3749BF078C6
:1014F5005EE6547FFFC4540FFCE412030EE4FBFACE
:101505007920784112015EC004C005C006C0077885
:101515005EE6540FFCE412030EA804A905AA06AB67
:1015250007D007D006D005D00412006D9001061231
:101535000745785DE6547FFFC4540FFCE412030EA3
:10154500E4FBFA7920784112015EC004C005C006AB
:10155500C007785DE6540FFCE412030EA804A90544
:10156500AA06AB07D007D006D005D00412006D90AF
:10157500010A120745785CE6547FFFC4540FFCE46A
:1015850012030EE4FBFA7920784112015EC004C013
:1015950005C006C007785CE6540FFCE412030EA8EC
:1015A50004A905AA06AB07D007D006D005D00412BA
:1015B500006D90010E0216B2782C7C007D007BFF39
:1015C5007A2179B1120915EF3395E04F60030216C0
:1015D500C13018051226CF80F890010374FFF0A3DF
:1015E5007421F0A374B8F07862E6547FFFC4540FF9
:1015F500FCE412030EE4FBFA7920784112015EC087
:1016050004C005C006C0077862E6540FFCE4120367
:101615000EA804A905AA06AB07D007D006D005D0A9
:101625000412006D9001061207457860E6547FFFAD
:10163500C4540FFCE412030EE4FBFA79207841123E
:10164500015EC004C005C006C0077860E6540FFC03
:10165500E412030EA804A905AA06AB07D007D00615
:10166500D005D00412006D90010A120745785FE697
:10167500547FFFC4540FFCE412030EE4FBFA7920F7
:10168500784112015EC004C005C006C007785FE658
:10169500540FFCE412030EA804A905AA06AB07D053
:1016A50007D006D005D00412006D90010E12074533
:0F16B5007B007A00793C120FA71226DEC20422B6
:101FAD0075C0FF75B0FF53B0F320C2047F018002EE
:101FBD007F0020B5047E0180027E00EE4FFF20C41D
:101FCD00047E0180027E00EE4F60747873E6184641
:101FDD006003022082F6087601A2B533C43354E0C3
:101FED00FEA2C2E433C4333354C04EFEA2C4E43364
:101FFD00FFC433333354804EFE75B0FFC2B5E4F5E4
:10200D00C0120003E5B0540C4E2498601924C4602E
:10201D001A24FC601B24E4601C24FC601D246470E5
:10202D0054787176042278717605227871760822BB
:10203D0078717609227871760C227871760D227876
:10204D0072E6FE08E6FFD394E8EE9403400EE41822
:10205D00F608F67871E6240A7975F722D3EF940223
:10206D00EE9400E47872400AF608F67871E6787519
:05207D00F622F608F652
:01208200223B
:10240100E4FDEDC3940874809480503053A01FA85C
:10241100057401088002C333D8FCF5809021EAE4F9
:102421009342A00053A01F74672DF8E6F580A3E442
:0C2431009342A012272C7580FF0D80C67E
:01243D00227C
:1026880053A01FE520F4F5809021E8E49342A0537D
:03269800A01F225E
:1026AD0053A01F8521809021E9E49342A053A01FE0
:0126BD0022FA
:0B2721001226491226CF1223B680F8C2
:03000B000226FCCE
:0D26FC00C0D075D008787606C28DD0D032DF
:030023000222783E
:10227800C0E0C0D075D01030983AC2987855E6FFC3
:10228800242CF8A699742C2FF8E6FFB43F02800F8F
:10229800EFB40A11785506E6242CF87600D21778A0
:1022A800557600800F785506E6C3940F74809480A5
:1022B80040027600309924C2997856E6243CF8E624
:1022C8006013F599785606E6C3940F74809480409D
:1022D8000A7600800678567600C218D0D0D0E03250
:03003B0002247B21
:10247B00C0E0C083C082C0D075D01830D818C2D885
:10248B00AFFAEFFFADEAED900132CFF0A3EFF0D250
:10249B0012C2DE53DAFE30DF09C2DFD211C2DE53C5
:0B24AB00DAFED0D0D082D083D0E03227
:03006300021BBAC3
:101BBA00C0E0C083C082C0D075D018782BE6184622
:101BCA00600708E616187001167858E61846600984
:101BDA0008E61618700C168009785776010876F40C
:101BEA00D215785BE61846600908E61618700C16D6
:101BFA008009785A76030876E8D2137866E618469A
:101C0A00600908E61618700C1680097865760108CE
:101C1A0076F4D2167878E61846600908E61618703F
:101C2A000C168009787776010876F4D210784FE698
:101C3A001846600908E616187014168011784E7650
:101C4A00030876E87859E66005E616786FF6785262
:101C5A00E61846600908E6161870191680167851B3
:101C6A0076030876E8784C760008767D758C0075E0
:101C7A008A00D28C784DE61846600908E616187074
:101C8A0019168016C28C900146E58AF0A3E58CF0FD
:101C9A007876E67874F6787676007854E6184660B0
:101CAA000908E61618700C1680097853760108762A
:101CBA00F4D2147873E6184660130806E618700121
:101CCA0006861E4E7007787276030876E9D0D0D061
:061CDA0082D083D0E0324D
:10261600E4FEEEC3940874809480500FC297EF13C3
:0B26260092A3EFC313FFD2970E80E7D2
:012631002286
:10002600C29300C29700D29300122616AF0512267D
:0400360016C2932239
:10243E00E4FDC29300C29700D29300122616E4FF69
:10244E00EFC39408748094805011C297EDC313FDAE
:10245E0030A3034480FDD2970F80E5C29300C2974C
:0C246E0000D29700C2A300D2A300AF056B
:01247A00223F
:04270900D2A07F05D6
:08270D0000AE071FEE70F92277
:0F26ED00D2A1122709C2A17F0512270DC2A02278
:0C271500C2A1122709D2A17F0502270DE6
:10263200C2A0A21992A17F0512270D122709C2A0DA
:07264200D2A17F0502270D64
:1026BE00122709A2A19219C2A07F0512270DA219F5
:0126CE0022E9
:0224B600AD0770
:1024B800E4FCECC39408748094805024C2A07F0587
:1024C80012270DED30E704D2A18002C2A17F0512C8
:1024D800270DD2A0ED25E0FD7F0512270D0C80D237
:0224E800C2A090
:0124EA0022CF
:1025B000E4FCECC39408748094805017122709ED52
:1025C00025E0FD30A1034401FDC2A07F0512270DC7
:0525D0000C80DFAF05E7
:0125D50022E3
:04265F007F057E0075
:102663007C007D0C1205EFEF1FAC0670011E4C7051
:02267300F6224D
:02253B00AB07EC
:10253D00E4FAEAC39408748094805012C294EB13A9
:10254D00929412265FD294EBC313FB0A80E47F05AD
:05255D007E0002266370
:1025D600E4FAEAC39408748094805014C294EBC35E
:1025E60013FBD2943094034480FB12265F0A80E2E8
:0225F600AF0331
:0125F80022C0
:10256200C219D2947F0C7E00122663C2947F507EE1
:1025720000122663D29412265FA29492197F0A7ED9
:0625820000122663A219FD
:012588002230
:100066000203AEE86480F8E933E83360110460F017
:10007600ED33EC337009E8FCE9FDEAFEEBFF220400
:1000860060DED3EB9FEA9EE99DE8C2E78CF0C2F7FB
:1000960095F0400CE8CCF8E9CDF9EACEFAEBCFFBC7
:1000A60012037985D0F05804700320D5B3E80470A4
:1000B600075002B2D50203B892D5EC0460F7E4CC3F
:1000C600C0E0C398F8603B94186008400DD0E0FB90
:1000D600020390E4FBFAC9FC8028E830E406E4C990
:1000E600FBE4CAFCE830E305E4C9CACBFCE85407E4
:1000F6006010F8C3E913F9EA13FAEB13FBEC13FCEF
:10010600D8F130F52FC3E49CFCEF9BFFEE9AFEED91
:1001160099FDD0E0FBEF4E4D4C701222DB0302033B
:10012600B5EC2CFCEF33FFEE33FEED33FDED30E79F
:10013600EB020390EF2BFFEE3AFEED39FDD0E0FB2C
:1001460050130BBB00030203B8ED13FDEE13FEEFD5
:0801560013FFEC13FC020390FF
:10015E00EC4D6011E8497017ED33EC3304600DE49B
:10016E00FCFFFEFD22E933E8330470F80203AE1201
:10017E00037958046009E4CC248150062850090202
:10018E0003B82840030203B5C0E0EB4A7044B980BF
:10019E0006D0E0FB0203A4EF4E701CBD8008EBFFFF
:1001AE00EAFEE9FD80EBE98DF0A4FEE5F0020247E0
:1001BE00E9CDF9EAFEEBFFEF89F0A4FCE5F0CE897C
:1001CE00F0A42EFFE435F0CD89F0A42DFEE435F039
:1001DE008067EF4E7005BD80D780C3EF8BF0A4AC67
:1001EE00F0EE8BF0A42CFCE435F0F8EF8AF0A42CA2
:1001FE00E5F038FCE433CB8DF0A42CFCE5F03BF8B5
:10020E00EE8AF0A42CFCE5F038F8E433CF89F0A4A4
:10021E002CFCE5F038CF3400CE89F0A42FFFE5F0AA
:10022E003EFEE433C98DF0A42EFEE5F039CD8AF002
:10023E00A42FFFE5F03EFEE43DFD33D0E0FB50077A
:10024E000BBB000F0203B8EC2CFCEF33FFEE33FEBA
:06025E00ED33FD020390E8
:100264000203B8EC5D046005E8590470030203AEB0
:10027400120379580460F6EC4860F2EC7004FDFE59
:10028400FF22C860DB2481C85009C398600250066D
:100294000203B59850CAF582E9294B4A7005AB822E
:1002A4000203A475F0007C1A7880C3EF9BEE9AEDEC
:1002B40099400DC3EF9BFFEE9AFEED99FDE842F0E5
:1002C400DC23ACF0D0E0FFD0E0FED0E0FDAB822038
:1002D400E7101BEB60BAEC2CFCEF33FFEE33FEEDC2
:1002E40033FD020390E803F830E705C0F075F00031
:1002F400EF2FFFEE33FEED33FD40B830E7C280AAA6
:1003040075F020800E75F010800575F0087D007E74
:10031400007F003392D530D503120724EC3340100C
:10032400EF33FFEE33FEED33FDEC33FCD5F0ED227D
:0E033400E5F0247EA2D513CC92E7CDCEFF22B9
:10034200EDD2E7CD33EC3392D524814006E4FFFEB3
:10035200FDFC22FCE4CFCECDCC24E0501174FF8012
:10036200EDC3CC13CCCD13CDCE13CECF13CF0470AF
:07037200F030D5DE02072484
:100F4200E5252403F582E43401F583E005252290AA
:100F52000100302003900103E475F00112075102F1
:100F620005752019E97F2ED2198018EF540F2490AD
:100F7200D43440D4FF301D0BEF24BFB41A00500309
:100F82002461FFE526600215260529E52970020580
:100F92002830200E900100E475F001120751EF0293
:100FA20005BB0225897403D2208003E4C220F52503
:100FB200900100120768E4F526F528F529E5266078
:100FC200077F20120F8580F57527FFC21AC219C24A
:100FD2001BC21CC21EC21FC221120F51FF700D3054
:100FE20020057F00120F96AF29AE2822B4255FC2DA
:100FF200D5C21D120F51FF24D0B40A00501A75F049
:101002000A782630D50508B6FF0106C6A426F620C2
:10101200D5047002D21C80D924CFB41A00EF500438
:10102200C2E5D21D021288D21A80C6D21980C0D25D
:101032001B80BCD2D580BAD21E80B47F20120F850D
:10104200201B077401B5260040F1120F42FF120F58
:1010520085020FBFD221D21F8095120F42FB120FC1
:1010620042FA120F42F94A4B700679867A137BFFD5
:10107200201B2EE526602A7E008E827583001205D3
:101082008E60060EEE652770F0C2D5EBC0E0EAC0B6
:10109200E0E9C0E0EE1212E9D0E0F9D0E0FAD0E0E7
:1010A200FB120575FF60AAEBC0E0EAC0E0E9C0E010
:1010B200120F85D0E02401F9D0E03400FAD0E0FB31
:1010C200E5270460DCD527D98087D21B80A21212C3
:1010D200CB60F7E5277001041203C3A927600DE571
:1010E20027600914F527121373EF60F3EA30E70261
:1010F200F404C3995079EAF425270430E701E404A3
:10110200F527800D1212CB60C1EA052725271203AD
:10111200C3EA90012FF030E701E4252704D5270424
:10112200201E01141212E9E4C0E012137390012F81
:10113200E0601320E70714F0120F6D802204F0D054
:10114200E014C0E07F00120F6DE5276007120F6404
:101152001527800B301E03120F64D0E0020FBFD0A0
:10116200E00480C41212CB609EE527041203C390F0
:10117200012FEAF0E527201E026001042404121266
:01118200E983
:1011830074FF04C0E0121373120F6DE527201E02D3
:101193006003120F64D0E0B527E87F45120F779004
:1011A300012FE07F2B30E7047F2DF404C0E0120F02
:1011B30085D0E075F00A84C0F0120F6ED0E0120FF4
:1011C3006E020FBF791080027908C21FC221800806
:1011D300D2D5790A8004790AC2D5E527047002F5CD
:1011E30027E4FAFDFEFF120F42FC7B08201A1312BC
:1011F3000F42FD7B1030190A120F42FE120F42FFFD
:101203007B20EC3382D592D55013C3E43019069F6B
:10121300FFE49EFEE4201A039DFDE49CFCE4CBF86E
:10122300C21AEC700CCFCECDCCE824F8F870F38062
:1012330017C3EF33FFEE33FEED33FDEC33FCEB333B
:10124300FB994002FB0FD8E9EB301A05F8D0E0C454
:1012530048B21AC0E00AEC4D4E4F78207B0070C2B2
:10126300EAB5270040BCC0E01212EBD0F0D0E0207A
:101273001A04C4C0E0C4B21AC0F0120F6ED0F0D585
:10128300F0EB020FBF120771105C5311C758102DFA
:101293004C10294211CB4F11D34411D3491042436F
:1012A30011D95511064611664510D04713A65010A3
:1012B300312D10352E10582B103923105620138F33
:1012C3002A0FF14800001050E527B4FF03752706E5
:1012D300120F42FC120F42FD120F42FE120F42FF89
:1012E300900128020400790AA2D5201C14301E099B
:1012F300B910020404B9080104A2D5201F02500149
:1013030004201B68921BB526005034C0E07F2030B8
:101313001C197F30A21B721F721E500F121342C280
:101323001BC21FC21EC2217F30800F301E03E9C0C3
:10133300E0120F85301E03D0E0F9D0E0B526CC30A3
:101343001E177F30B9100C120F857F58301D077F91
:10135300788003B90803120F85301B057F2D020F18
:10136300857F202021F87F2B201FF322921B80CF23
:101373007F00B40700500B2428F582E43401F58381
:10138300E0FF22286E756C6C2900D21A120F4230CE
:101393001AF8C21A782630D50108F6020FF12D503B
:1013A300434958120F422403B405004001E490134B
:1013B300A193120F76743A120F76D21C752604028B
:0213C30011C750
:10037900E9D2E7C933E833F892D5EDD2E7CD33ECCA
:0703890033FC5002B2D52243
:10039000EC30E7100FBF000C0EBE00080DBD0004CE
:1003A0000BEB6014A2D5EB13FCED92E7FD2274FF7A
:1003B000FCFDFEFF22E480F8A2D574FF13FC7D80D3
:0303C000E480EFE7
:1003C300F920E73624F950037907E4F42402FBE526
:1003D30082158270021583DBF6E024FB501BE96073
:1003E30014E4F0E582158270021583E004F0B40A88
:0D03F30008E4F0D9EE7401F00A22C2D52210
:10040000ED33EC3392D5FA602AB4FF33EDC2E77BCB
:10041000FF60067A047925E4227A04792E20D50437
:100420007A047929224E614E002B494E46002D490F
:100430004E4600E47A08F0A3DAFC7B00740722C081
:1004400083C082ECC0E0EDC0E0EEC0E0EFC0E0EAC7
:1004500075F010A4CAABF075F04DA42BFBE435F099
:10046000FCEA2410FAEB34C5FBEC34D9FCEDC2E70E
:10047000FF75F056A4F42411C5F0F434C58FF0A430
:100480002AE5F03BE43CF020E714120535D0E0FF0C
:10049000D0E0FED0E0FDD0E0FC1202678014F4044E
:1004A000120535D0E0FFD0E0FED0E0FDD0E0FC1238
:1004B000015ED082D083E0FAEDD2E7CD33EC332475
:1004C00082FBE4C3CF33CFCE33CECD33CD33DBF39A
:1004D0007B0775F00A846004F0A31B0AE5F0F0A323
:1004E0008FF0740AA4FFACF08EF0740AA42CFEAC5A
:1004F000F050010C8DF0740AA42CFDE435F0F0A34B
:05050000DBDE740722A0
:100505003F8000004120000042C80000447A0000FE
:10051500461C400047C35000497424004B18968080
:100525004CBEBC205A0E1BCA6753C21C749DC5AE77
:10053500FB60065407601C2323120563EB543860E7
:100545000912054F12055E12015EECF8EDF9EEFA9F
:10055500EFCB22EB12055E80F1543803241C900585
:1005650005FE93FC0EEE93FD0EEE930ECE93FF2249
:030000000221ECEE
:0C21EC00787FE4F6D8FD7581780222337C
:10057500BB010689828A83E0225002E722BBFE0284
:09058500E32289828A83E49322B7
:10058E00BB010CE58229F582E5833AF583E0225022
:10059E0006E92582F8E622BBFE06E92582F8E2226C
:0D05AE00E58229F582E5833AF583E4932286
:1005BB00BB010689828A83F0225002F722BBFE011F
:0205CB00F32219
:1005CD00F8BB010DE58229F582E5833AF583E8F064
:1005DD00225006E92582C8F622BBFE05E92582C810
:0205ED00F222F8
:1005EF00EF8DF0A4A8F0CF8CF0A428CE8DF0A42E20
:0205FF00FE22DA
:10060100BC000BBE0029EF8DF084FFADF022E4CCDD
:10061100F875F008EF2FFFEE33FEEC33FCEE9DECA6
:10062100984005FCEE9DFE0FD5F0E9E4CEFD22EDEC
:10063100F8F5F0EE8420D21CFEADF075F008EF2F36
:10064100FFED33FD4007985006D5F0F222C398FD27
:050651000FD5F0EA22C4
:1006560075F008758200EF2FFFEE33FECD33CDCC5B
:1006660033CCC58233C5829BED9AEC99E5829840DE
:100676000CF582EE9BFEED9AFDEC99FC0FD5F0D6BB
:10068600E4CEFBE4CDFAE4CCF9A88222B800C1B9E5
:100696000059BA002DEC8BF084CFCECDFCE5F0CB23
:1006A600F97818EF2FFFEE33FEED33FDEC33FCEB5C
:1006B60033FB10D703994004EB99FB0FD8E5E4F917
:1006C600FA227818EF2FFFEE33FEED33FDEC33FC04
:1006D600C933C910D7059BE99A4007EC9BFCE99AF8
:1006E600F90FD8E0E4C9FAE4CCFB2275F010EF2F3D
:1006F600FFEE33FEED33FDCC33CCC833C810D7073D
:100706009BEC9AE899400AED9BFDEC9AFCE899F877
:0E0716000FD5F0DAE4CDFBE4CCFAE4C8F9220A
:0E072400C3E49FFFE49EFEE49DFDE49CFC22E6
:10073200E8600FEFC333FFEE33FEED33FDEC33FC25
:03074200D8F122C9
:0C074500ECF0A3EDF0A3EEF0A3EFF02227
:10075100F8E0FBA3A3E0F925F0F0E5821582700231
:070761001583E0FA38F022D5
:09076800EBF0A3EAF0A3E9F02292
:10077100D083D082F8E4937012740193700DA3A317
:1007810093F8740193F5828883E47374029368602B
:06079100EFA3A3A380DF2B
:10258900EFB40A07740D122594740A309811A899AA
:10259900B8130CC2983098FDA899C298B811F630B2
:0725A90099FDC299F599228A
:10079700E3F5F009E208B5F06D606B80F3E3F5F07F
:1007A70009E608B5F060605E80F387F009E608B5F2
:1007B700F054605280F487F009E208B5F0486046CB
:1007C70080F488828C8387F009E0A3B5F03860361F
:1007D70080F488828C8387F009E493A3B5F02760BF
:1007E7002580F388828C83E3F5F009E0A3B5F01642
:1007F700601480F388828C83E3F5F009E493A3B552
:10080700F004600280F20208C2808580E7808E8053
:10081700D2803C8015806C807E809B80B5808B80E9
:10082700A1804F8070803A0208CE89828A83ECFAD1
:10083700E493F5F0A3C8C582C8CCC583CCE493A3E1
:10084700C8C582C8CCC583CCB5F070606E80E1891D
:10085700828A83E493F5F0A3E208B5F05E605C80DA
:10086700F289828A83E0F5F0A3E608B5F04D604B84
:1008770080F389828A83E0F5F0A3E208B5F03C6053
:100887003A80F389828A83E493F5F0A3E608B5F00A
:100897002A602880F2805389828A83ECFAE493F5F0
:1008A700F0A3C8C582C8CCC583CCE0A3C8C582C89D
:1008B700CCC583CCB5F004600280E27FFFB5F002BF
:1008C7000F2240027F012289828A83ECFAE0F5F049
:1008D700A3C8C582C8CCC583CCE0A3C8C582C8CC91
:1008E700C583CCB5F0D560D380E389828A83ECFADF
:1008F700E0F5F0A3C8C582C8CCC583CCE493A3C8F0
:10090700C582C8CCC583CCB5F0B160AF80E288F0B2
:10091700ED2402B4040050A3F582EB2402B40400D2
:0B092700509923234582239008107391
:1021F800022721E493A3F8E493A34003F68001F2B5
:1022080008DFF48029E493A3F85407240CC8C333E7
:10221800C4540F4420C8834004F456800146F6DFB6
:10222800E4800B0102040810204080902083E47EA3
:10223800019360BCA3FF543F30E509541FFEE493AB
:10224800A360010ECF54C025E060A840B8E493A372
:10225800FAE493A3F8E493A3C8C582C8CAC583CA9D
:10226800F0A3C8C582C8CAC583CADFE9DEE780BE55
:01214100009D
:00000001FF
