:1019020074656D700D0A0074656D703A252E32662D
:1019120027430D0A006C656E0D0A006C656E3A2550
:101922002E3166636D0D0A00766F6C0D0A00766FBC
:101932006C3A252E3266560D0A00C0F9A4B099926F
:0819420082F8809080A0C0E053
:1017E900C10CC10DC10EC109C10AC10BC110C10F84
:1017F90041012E01480133000000000000000050A3
:101809000114696E69745F77656C6C0D0A3E3E3E22
:10181900000050010400000000000000000000006A
:10182900000000000041013B004101400041012549
:10183900004101240042012600FA42012F007D42A5
:10184900012A0000420141017742010000004201E2
:10185900280000420131001442013C00FA42010211
:0C18690000FA42013E000042012C001475
:10194A0090012EE014601514601D146029240370A0
:10195A003590013374C6F0A374FF80169001337476
:10196A00C7F0A374FF801C90013374C1F0A374FF05
:10197A00F0A3F0A3800D9001337483F0A374FFF0F9
:07198A00A3F0A3F0A3F0227B
:101B8700438E0475D72075D6D143AF04D2AF438EA9
:021B970010221A
:101B2F0053A2CFE4F5D8F5E9F5F9F5EAF5FA75D949
:071B3F000175DA10D2AF229C
:101ADE00759850438E40538EFE53890F758B8F75BC
:0D1AEE008DFDC2ABD2ACD2AFD28E021B1662
:081BFA007F027E27DEFEDFFC06
:011C020022BF
:061C030000007F21DFFE5E
:011C090022B8
:101BAA0012194AC290D291121B2F121B87021ADEF7
:0E1BC9001211D3900140EFF0120CFE0219D35E
:10000300300C03121313300E031214EC30090312D5
:0F00130015BD300D0312105B300F0312168E2235
:100CFE00900140E064046003020E4190012E04F066
:100D0E0090013374C7F0A374FFF0A3F0900128E0B4
:100D1E007002A3E0701690194593900136F0A3F07F
:100D2E00A3F0547FA3F0901945021054900128E0CF
:100D3E00FCA3E0FDE41202117B7B7A14792E783E3F
:100D4E0012006612024A900131EEF0A3EFF090010C
:100D5E0031E0FAA3E0FB7C277D10FFAE021205DF27
:100D6E00743C2FF58274193EF583E493900136F0AE
:100D7E007C037DE8AF03AE021205DF7C007D0A1214
:100D8E0005DF743C2DF58274193CF583E4939001D4
:100D9E0037F0900131A3E07C007D64FFAE021205B6
:100DAE00DF7C007D0A1205DF743C2DF58274193C40
:100DBE00F583E493900138F07C007D0AAF03AE0218
:100DCE001205DF7C007D0A1205DF743C2DF582745E
:100DDE00193CF583E493547F900139F0900131E092
:100DEE00FEA3E0FF7C007D0A1205DF743C2DF58228
:100DFE0074193CF583E49390013AF0900144740326
:100E0E00F0900144E0FF2433F582E43401F583E0F1
:100E1E00FE90193CE493FDEE6D600302105A74339C
:100E2E002FF582E43401F58374FFF0900144E00461
:100E3E00F080CE900140E064056003020F40900107
:100E4E002EF090013374C6F0A374FFF0A3F0A3F05C
:100E5E0090012CE0FAA3E0FB7C037DE8FFAE0212CA
:100E6E0006347C007D0A120634743C2DF58274190A
:100E7E003CF583E493900137F07C007D64AF03AEC4
:100E8E00021206347C007D0A120634743C2DF58263
:100E9E0074193CF583E493547F900138F090012C43
:100EAE00A3E07C007D0AFFAE021206347C007D0AB0
:100EBE00120634743C2DF58274193CF583E493903C
:100ECE000139F07C007D0AAF03AE02120634743C89
:100EDE002DF58274193CF583E49390013AF090015C
:100EEE00447403F0900144E0FF2433F582E43401AE
:100EFE00F583E0FE90193CE493FDEEB505157433D1
:100F0E002FF582E43401F58374FFF0900144E00480
:100F1E00F080D1C390012CE06480948040030210D5
:100F2E005A900144E02431F582E43401F58374BF14
:100F3E00F022900140E064086003020FCD90012E74
:100F4E007402F090013374C1F0A374FFF0A3F0A308
:100F5E00F0A3F090013CE0FAA3E0FB7C007D64FF7F
:100F6E00AE021205DF7C007D0A1205DF743C2DF502
:100F7E008274193CF583E493547F900138F07C0021
:100F8E007D0AAF03AE021205DF7C007D0A1205DF7B
:100F9E00743C2DF58274193CF583E493900139F07D
:100FAE0090013CE0FEA3E0FF7C007D0A1205DF7499
:100FBE003C2DF58274193CF583E49390013AF09040
:100FCE000140E06409600302105A90012E7403F090
:100FDE009001337483F0A374FFF0A3F0A3F0A3F099
:100FEE00900102E0FAA3E0FB7C007D64FFAE0212EA
:100FFE0005DF7C007D0A1205DF743C2DF582741925
:10100E003CF583E493547F900138F07C007D0AAF69
:10101E0003AE021205DF7C007D0A1205DF743C2D43
:10102E00F58274193CF583E493900139F090010236
:10103E00E0FEA3E0FF7C007D0A1205DF743C2DF577
:0C104E008274193CF583E49390013AF0A1
:01105A002273
:10131300121A725005121BC980F67FCC12003E7F51
:101323004412003E121A725005121BC980F67FCC7C
:1013330012003E7FBE12003E121AFB900143EFF0F3
:10134300121AFBEFFE900143E0FDEDFFAC06EC1239
:101353000211E4FBFA79C8784012006612024A903F
:10136300012CEEF0A3EFF0A3E060030213FF900162
:101373002CE0FAA3E0FB7C037DE8FFAE0212063407
:101383007C007D0A120634743C2DF58274193CF5F9
:1013930083E493900137F07C007D64AF03AE0212C7
:1013A30006347C007D0A120634743C2DF5827419D0
:1013B3003CF583E493547F900138F090012CA3E033
:1013C3007C007D0AFFAE021206347C007D0A120601
:1013D30034743C2DF58274193CF583E49390013900
:1013E300F07C007D0AAF03AE02120634743C2DF587
:0E13F3008274193CF583E49390013AF0C20C29
:0114010022C8
:10105B009001437408F0900143E0FF14F0EF600C33
:10106B00D290121C03C290121C0380EAD2DEC2D8AB
:10107B0043DA01300B08300A05121BC980F5300A20
:10108B00319001317403F0A374E7F090012EE0640A
:10109B000160030211CC90194593900136F0A3F037
:1010AB00A3F0547FA3F0901945E49390013AF0021A
:1010BB0011CC900128E0FCA3E0FDE41202117B7B34
:1010CB007A14792E783E12006612024A900131EEA4
:1010DB00F0A3EFF090012EE0640160030211CC90BD
:1010EB000131E0FAA3E0FB7C277D10FFAE02120575
:1010FB00DF743C2FF58274193EF583E4939001362F
:10110B00F07C037DE8AF03AE021205DF7C007D0AA5
:10111B001205DF743C2DF58274193CF583E4939032
:10112B000137F0900131A3E07C007D64FFAE021229
:10113B0005DF7C007D0A1205DF743C2DF5827419E6
:10114B003CF583E493900138F07C007D0AAF03AE4D
:10115B00021205DF7C007D0A1205DF743C2DF5823F
:10116B0074193CF583E493547F900139F09001316D
:10117B00E0FEA3E0FF7C007D0A1205DF743C2DF539
:10118B008274193CF583E49390013AF09001437417
:10119B0003F0900143E0FF2433F582E43401F5833F
:1011AB00E0FE90193CE493FDEEB5051574332FF575
:1011BB0082E43401F58374FFF0900143E004F08086
:0711CB00D1C20AC20BC20DE4
:0111D20022FA
:1014EC00121BBA7F90121A45121B997F03121A45D0
:1014FC00121B99121BBA7F91121A45121B99121AC0
:10150C00C0C200121B46121AC07E0090013CEEF0C5
:10151C00A3EFF0FD7C00E4120211E4FBFA79FA78F7
:10152C0043120066E4FBFA797F784312016F1202D2
:10153C004A90013CEEF0A3EFF0121BE390012EE079
:10154C006402706C90013CE0FAA3E0FB7C007D64CB
:10155C00FFAE021205DF7C007D0A1205DF743C2D04
:10156C00F58274193CF583E493547F900138F07C38
:10157C00007D0AAF03AE021205DF7C007D0A120566
:10158C00DF743C2DF58274193CF583E4939001399A
:10159C00F090013CE0FEA3E0FF7C007D0A1205DF29
:1015AC00743C2DF58274193CF583E49390013AF068
:0115BC00220C
:1015BD00121BBA7F90121A45121B997F01121A4500
:1015CD00121B99121BBA7F91121A45121B99121AEE
:1015DD00C0C200121B46121AC07E00900102EEF02E
:1015ED00A3EFF0FD7C00E4120211E4FBFA79FA7826
:1015FD0043120066E4FBFA797F784312016F120201
:10160D004A900102EEF0A3EFF0121BE390012EE0E1
:10161D006403706C900102E0FAA3E0FB7C007D6432
:10162D00FFAE021205DF7C007D0A1205DF743C2D32
:10163D00F58274193CF583E493547F900138F07C66
:10164D00007D0AAF03AE021205DF7C007D0A120594
:10165D00DF743C2DF58274193CF583E493900139C8
:10166D00F0900102E0FEA3E0FF7C007D0A1205DF91
:10167D00743C2DF58274193CF583E49390013AF096
:01168D00223A
:101B1600D210E4900125F0E0FF04F074142FF58252
:091B2600E43401F583E0F5992295
:10168E00C20F78047C017D017BFF7A197902120862
:10169E005EEF7021301005121BC980F89001467460
:1016AE00FFF0A37419F0A37409F090012CE0FCA3D1
:1016BE00E0FDEC806E78047C017D017BFF7A197968
:1016CE001712085EEF702B301005121BC980F890B0
:1016DE00014674FFF0A37419F0A3741DF09001314C
:1016EE00E0FCA3E0FDE4120211E4FBFA792078415C
:1016FE00803B78047C017D017BFF7A19792A1208E0
:10170E005EEF703E301005121BC980F890014674D2
:10171E00FFF0A37419F0A37430F090013CE0FCA329
:10172E00E0FDE4120211E4FBFA79C8784212016F6F
:10173E0090014912068E7B017A0179141208E0128B
:03174E001B162245
:1011D30075C0FF75B0FF53B0F320B5047F018002E3
:1011E3007F0020B4047E0180027E00EE4FFF20C208
:1011F300047E0180027E00EE4FFF20C4047E018046
:10120300027E00EE4F70030212E4121BFA20B504B3
:101213007F0180027F0020B4047E0180027E00EE05
:101223004FFF20C2047E0180027E00EE4FFF20C4E8
:10123300047E0180027E00EE4F70030212E49001EF
:101243003EE07002A3E060030212E190013EF0A3CE
:1012530004F0E5B05430FEA2C2E433C4333354C0C7
:101263004EFEA2C4E433FFC433333354804EFE75C1
:10127300B0FF53B0CFE4F5C0121C03E5B0540C4EDD
:101283002488602424C4602824FC602C24E4603077
:1012930024FC603424F4603824FC603C2474703EE5
:1012A30090013B7404F0803690013B7405F0802E6E
:1012B30090013B7408F0802690013B7409F0801E76
:1012C30090013B740CF0801690013B740DF0800E7E
:1012D30090013B7410F0800690013B7411F07F0085
:1012E3002290013EE0FEA3E0FF4E6021C3EF94E8AD
:1012F300EE9403E490013E5009F0A3F090013BE02B
:0F130300FF22F0A3F090013BE0240AFF227F00BD
:0113120022B8
:1019D300E4FD53A01F7401A805088002C333D8FC9B
:1019E300F580901948E49342A00053A01F74332D4F
:1019F300F582E43401F583E0F580901949E49342DC
:0C1A0300A0121BFA7580FF0DEDB408C6A0
:011A0F0022B4
:0B1BEF00121BAA121BC912000380F891
:0300230002175170
:10175100C0E0C083C082C0D075D010309853C29809
:10176100900124E0FF2404F582E43401F583E59936
:10177100F074042FF582E43401F583E0FFB43F07F0
:10178100900124E4F0802AEFB40A19900124E004C6
:10179100F02404F582E43401F583E4F0D20F9001E2
:1017A10024F0800D900124E004F0C3940F4002E482
:1017B100F030992BC299900125E02414F582E4348C
:1017C10001F583E0FF6011F599900125E004F0C374
:1017D100940F400BE4F08007900125E4F0C210D093
:0817E100D0D082D083D0E032A9
:03003B0002199116
:10199100C0E0C083C082C0D075D01830DF04C2DF80
:1019A100D20A30D824C2D8D20BAFFAEFFFADEAED9C
:1019B100900128CFF0A3EFF053DAFEC2DE75E90003
:1019C10075F90075EA0075FA00D0D0D082D083D0C5
:0219D100E03202
:0300630002140282
:10140200C0E0C0F0C083C082C0D075D01890010087
:10141200E07002A3E0600E900101E024FFF0900171
:1014220000E034FFF0900126E07002A3E06010902B
:101432000127E024FFF0900126E034FFF0800C90B9
:1014420001267401F0A374F4F0D20C90012AE0702A
:1014520002A3E0601090012BE024FFF090012AE04B
:1014620034FFF0800C90012A7403F0A374E8F0D2E8
:101472000D90012FE07002A3E06010900130E02493
:10148200FFF090012FE034FFF0800C90012F7401E7
:10149200F0A374F4F0D20E900141E07002A3E06078
:1014A20010900142E024FFF0900141E034FFF0800F
:1014B2000C9001417401F0A374F4F0D20990013E42
:1014C200E07002A3E0601890013EE475F00112069C
:1014D2006A45F0700A90013E7403F0A374E8F0D0FC
:0A14E200D0D082D083D0F0D0E032E9
:10002600E4FEC297EF1392A3EFC313FFD2970EEE2F
:03003600B408EF1C
:0100390022A4
:101B7300C29300C29700D29300120026AF05120051
:041B830026C29322C1
:101A1000E4FDC29300C29700D29300120026E4FFB7
:101A2000C297EDC313FD30A3034480FDD2970FEF9F
:101A3000B408EDC29300C29700D29700C2A300D2AF
:041A4000A300AF054B
:011A4400227F
:041BD700D2A07F0514
:081BDB0000AE071FEE70F922B5
:0F1BBA00D2A1121BD7C2A17F05121BDBC2A02232
:0C1BE300C2A1121BD7D2A17F05021BDBA0
:101B4600C2A0A20092A17F05121BDB121BD7C2A066
:071B5600D2A17F05021BDB99
:101B9900121BD7A2A19200C2A07F05121BDBA200D3
:011BA9002219
:021A4500AD07EB
:101A4700E4FCC2A07F05121BDBED30E704D2A180C6
:101A570002C2A17F05121BDBD2A0ED25E0FD7F05A9
:0A1A6700121BDB0CECB408DAC2A07D
:011A71002252
:101AC000E4FC121BD7ED25E0FD30A1034401FDC26B
:0D1AD000A07F05121BDB0CECB408E7AF058E
:011ADD0022E6
:041B5D007F057E0082
:101B61007C007D0C1205CDEF1FAC0670011E4C7080
:021B7100F6225A
:02003E00AB070E
:10004000E4FAC294EB139294121B5DD294EBC313A7
:0D005000FB0AEAB408EC7F057E00021B618C
:101AFB00E4FAC294EBC313FBD2943094034480FBFF
:0A1B0B00121B5D0AEAB408EAAF03FA
:011B150022AD
:101A7200C200D2947F0C7E00121B61C2947F507E02
:101A820000121B61D294121B5DA29492007F0A7E07
:061A920000121B61A2001E
:011A9800222B
:10006600EC4D6011E8497017ED33EC3304600DE494
:10007600FCFFFEFD22E933E8330470F80202B612F3
:10008600028158046009E4CC2481500628500902F4
:1000960002C02840030202BDC0E0EB4A7044B980AA
:1000A60006D0E0FB0202ACEF4E701CBD8008EBFFF1
:1000B600EAFEE9FD80EBE98DF0A4FEE5F002014FD2
:1000C600E9CDF9EAFEEBFFEF89F0A4FCE5F0CE8975
:1000D600F0A42EFFE435F0CD89F0A42DFEE435F032
:1000E6008067EF4E7005BD80D780C3EF8BF0A4AC60
:1000F600F0EE8BF0A42CFCE435F0F8EF8AF0A42C9B
:10010600E5F038FCE433CB8DF0A42CFCE5F03BF8AD
:10011600EE8AF0A42CFCE5F038F8E433CF89F0A49D
:100126002CFCE5F038CF3400CE89F0A42FFFE5F0A3
:100136003EFEE433C98DF0A42EFEE5F039CD8AF0FB
:10014600A42FFFE5F03EFEE43DFD33D0E0FB500773
:100156000BBB000F0202C0EC2CFCEF33FFEE33FEAC
:06016600ED33FD020298DA
:10016C000202C0EC5D046005E8590470030202B69B
:10017C00120281580460F6EC4860F2EC7004FDFE4B
:10018C00FF22C860DB2481C85009C3986002500666
:10019C000202BD9850CAF582E9294B4A7005AB8220
:1001AC000202AC75F0007C1A7880C3EF9BEE9AEDDE
:1001BC0099400DC3EF9BFFEE9AFEED99FDE842F0DE
:1001CC00DC23ACF0D0E0FFD0E0FED0E0FDAB822031
:1001DC00E7101BEB60BAEC2CFCEF33FFEE33FEEDBB
:1001EC0033FD020298E803F830E705C0F075F00023
:1001FC00EF2FFFEE33FEED33FD40B830E7C280AA9F
:10020C0075F020800E75F010800575F0087D007E6D
:10021C00007F003392D530D503120680EC334010AA
:10022C00EF33FFEE33FEED33FDEC33FCD5F0ED2276
:0E023C00E5F0247EA2D513CC92E7CDCEFF22B2
:10024A00EDD2E7CD33EC3392D524814006E4FFFEAC
:10025A00FDFC22FCE4CFCECDCC24E0501174FF800B
:10026A00EDC3CC13CCCD13CDCE13CECF13CF0470A8
:07027A00F030D5DE02068022
:10087B00E5082446F582E43401F583E0050822906F
:10088B000143300703900146E475F00112069A020A
:10089B0005752000E97F2ED2008018EF540F2490AD
:1008AB00D43440D4FF30040BEF24BFB41A005003F0
:1008BB002461FFE50960021509050CE50C700205C2
:1008CB000B30070E900143E475F00112069AEF020C
:1008DB0005BB021A997403D2078003E4C207F5081B
:1008EB009001431206B1E4F509F50BF50CE509602F
:1008FB00077F201208BE80F5750AFFC201C200C235
:10090B0002C203C205C206C20812088AFF700D306C
:10091B0007057F001208CFAF0CAE0B22B4255FC2C8
:10092B00D5C20412088AFF24D0B40A00501A75F0FD
:10093B000A780930D50508B6FF0106C6A426F620AD
:10094B00D5047002D20380D924CFB41A00EF50041F
:10095B00C2E5D204020BC1D20180C6D20080C0D244
:10096B000280BCD2D580BAD20580B47F201208BEDB
:10097B002002077401B5090040F112087BFF120831
:10098B00BE0208F8D208D206809512087BFB12082B
:10099B007BFA12087BF94A4B700679BF7A0C7BFF06
:1009AB0020022EE509602A7E008E827583001205D7
:1009BB008E60060EEE650A70F0C2D5EBC0E0EAC0A1
:1009CB00E0E9C0E0EE120C22D0E0F9D0E0FAD0E082
:1009DB00FB120575FF60AAEBC0E0EAC0E0E9C0E0DE
:1009EB001208BED0E02401F9D0E03400FAD0E0FBCD
:1009FB00E50A0460DCD50AD98087D20280A2120CEA
:100A0B000460F7E50A7001041202CBA90A600DE538
:100A1B000A600914F50A120CACEF60F3EA30E70236
:100A2B00F404C3995079EAF4250A0430E701E4048D
:100A3B00F50A800D120C0460C1EA050A250A1202A0
:100A4B00CBEA900172F030E701E4250A04D50A04E1
:100A5B0020050114120C22E4C0E0120CAC900172C0
:100A6B00E0601320E70714F01208A6802204F0D0F0
:100A7B00E014C0E07F001208A6E50A600712089D8B
:100A8B00150A800B30050312089DD0E00208F8D040
:100A9B00E00480C4120C04609EE50A041202CB90A1
:100AAB000172EAF0E50A2005026001042404120C2D
:010ABB002218
:100ABC0074FF04C0E0120CAC1208A6E50A20050273
:100ACC00600312089DD0E0B50AE87F451208B0908B
:100ADC000172E07F2B30E7047F2DF404C0E0120894
:100AEC00BED0E075F00A84C0F01208A7D0E012085E
:100AFC00A70208F8791080027908C206C20880089B
:100B0C00D2D5790A8004790AC2D5E50A047002F5B7
:100B1C000AE4FAFDFEFF12087BFC7B08200113128D
:100B2C00087BFD7B1030000A12087BFE12087BFF4D
:100B3C007B20EC3382D592D55013C3E43000069F52
:100B4C00FFE49EFEE42001039DFDE49CFCE4CBF855
:100B5C00C201EC700CCFCECDCCE824F8F870F38049
:100B6C0017C3EF33FFEE33FEED33FDEC33FCEB3309
:100B7C00FB994002FB0FD8E9EB300105F8D0E0C43B
:100B8C0048B201C0E00AEC4D4E4F78207B0070C299
:100B9C00EAB50A0040BCC0E0120C24D0F0D0E02032
:100BAC000104C4C0E0C4B201C0F01208A7D0F0D553
:100BBC00F0EB0208F81206BA0995530B00580966B7
:100BCC004C0962420B044F0B0C440B0C49097B4340
:100BDC000B12550A3F460A9F450A09470CDF50097C
:100BEC006A2D096E2E09912B097223098F200CC8CE
:100BFC002A092A4800000989E50AB4FF03750A0688
:100C0C0012087BFC12087BFD12087BFE12087BFF8E
:100C1C0090016B020308790AA2D520031430050950
:100C2C00B910020404B9080104A2D520060250012F
:100C3C00042002689202B509005034C0E07F2030D5
:100C4C0003197F30A20272067205500F120C7BC280
:100C5C0002C206C205C2087F30800F300503E9C00E
:100C6C00E01208BE300503D0E0F9D0E0B509CC3075
:100C7C0005177F30B9100C1208BE7F583004077F5F
:100C8C00788003B908031208BE3002057F2D0208D4
:100C9C00BE7F202008F87F2B2006F322920280CF03
:100CAC007F00B40700500B246BF582E43401F5830C
:100CBC00E0FF22286E756C6C2900D20112087B3083
:100CCC0001F8C201780930D50108F602092A2D5025
:100CDC0043495812087B2403B405004001E4900CEE
:100CEC00DA931208AF743A1208AFD20375090402F2
:020CFC000B00EB
:10028100E9D2E7C933E833F892D5EDD2E7CD33ECC3
:0702910033FC5002B2D5223C
:10029800EC30E7100FBF000C0EBE00080DBD0004C7
:1002A8000BEB6014A2D5EB13FCED92E7FD2274FF73
:1002B800FCFDFEFF22E480F8A2D574FF13FC7D80CC
:0302C800E480EFE0
:1002CB00F920E73624F950037907E4F42402FBE51F
:1002DB0082158270021583DBF6E024FB501BE9606C
:1002EB0014E4F0E582158270021583E004F0B40A81
:0D02FB0008E4F0D9EE7401F00A22C2D52209
:10030800ED33EC3392D5FA602AB4FF33EDC2E77BC4
:10031800FF60067A03792DE4227A03793620D50422
:100328007A037931224E614E002B494E46002D4901
:100338004E4600E47A08F0A3DAFC7B00740722C07A
:1003480083C082ECC0E0EDC0E0EEC0E0EFC0E0EAC0
:1003580075F010A4CAABF075F04DA42BFBE435F092
:10036800FCEA2410FAEB34C5FBEC34D9FCEDC2E707
:10037800FF75F056A4F42411C5F0F434C58FF0A429
:100388002AE5F03BE43CF020E714120535D0E0FF05
:10039800D0E0FED0E0FDD0E0FC12016F8014F40440
:1003A800120535D0E0FFD0E0FED0E0FDD0E0FC1231
:1003B8000066D082D083E0FAEDD2E7CD33EC332467
:1003C80082FBE4C3CF33CFCE33CECD33CD33DBF393
:1003D8007B0775F00A846004F0A31B0AE5F0F0A31C
:1003E8008FF0740AA4FFACF08EF0740AA42CFEAC53
:1003F800F050010C8DF0740AA42CFDE435F0F0A344
:05040800DBDE74072299
:10040D000202B6E86480F8E933E83360110460F065
:10041D00ED33EC337009E8FCE9FDEAFEEBFF220455
:10042D0060DED3EB9FEA9EE99DE8C2E78CF0C2F750
:10043D0095F0400CE8CCF8E9CDF9EACEFAEBCFFB1C
:10044D0012028185D0F05804700320D5B3E80470F2
:10045D00075002B2D50202C092D5EC0460F7E4CC8D
:10046D00C0E0C398F8603B94186008400DD0E0FBE5
:10047D00020298E4FBFAC9FC8028E830E406E4C9DE
:10048D00FBE4CAFCE830E305E4C9CACBFCE8540739
:10049D006010F8C3E913F9EA13FAEB13FBEC13FC44
:1004AD00D8F130F52FC3E49CFCEF9BFFEE9AFEEDE7
:1004BD0099FDD0E0FBEF4E4D4C701222DB03020292
:1004CD00BDEC2CFCEF33FFEE33FEED33FDED30E7ED
:1004DD00EB020298EF2BFFEE3AFEED39FDD0E0FB7B
:1004ED0050130BBB00030202C0ED13FDEE13FEEF24
:0804FD0013FFEC13FC0202984E
:100505003F8000004120000042C80000447A0000FE
:10051500461C400047C35000497424004B18968080
:100525004CBEBC205A0E1BCA6753C21C749DC5AE77
:10053500FB60065407601C2323120563EB543860E7
:100545000912054F12055E120066ECF8EDF9EEFA98
:10055500EFCB22EB12055E80F1543803241C900585
:1005650005FE93FC0EEE93FD0EEE930ECE93FF2249
:030000000218766D
:0C187600787FE4F6D8FD7581220218BDD1
:10057500BB010689828A83E0225002E722BBFE0284
:09058500E32289828A83E49322B7
:10058E00BB010CE58229F582E5833AF583E0225022
:10059E0006E92582F8E622BBFE06E92582F8E2226C
:0D05AE00E58229F582E5833AF583E4932286
:1005BB00BB010689828A83F0225002F722BBFE011F
:0205CB00F32219
:1005CD00EF8DF0A4A8F0CF8CF0A428CE8DF0A42E42
:0205DD00FE22FC
:1005DF00BC000BBE0029EF8DF084FFADF022E4CC00
:1005EF00F875F008EF2FFFEE33FEEC33FCEE9DECC9
:1005FF00984005FCEE9DFE0FD5F0E9E4CEFD22ED0F
:10060F00F8F5F0EE8420D21CFEADF075F008EF2F58
:10061F00FFED33FD4007985006D5F0F222C398FD49
:05062F000FD5F0EA22E6
:10063400C2D5EC30E709B2D5E4C39DFDE49CFCEEE1
:1006440030E715B2D5E4C39FFFE49EFE1205DFC375
:10065400E49DFDE49CFC80031205DF30D507C3E470
:060664009FFFE49EFE2250
:10066A00C5F0F8A3E028F0C5F0F8E582158270021B
:06067A001583E038F022B8
:0E068000C3E49FFFE49EFEE49DFDE49CFC228B
:0C068E00ECF0A3EDF0A3EEF0A3EFF022DF
:10069A00F8E0FBA3A3E0F925F0F0E58215827002E9
:0706AA001583E0FA38F0228D
:0906B100EBF0A3EAF0A3E9F0224A
:1006BA00D083D082F8E4937012740193700DA3A3CF
:1006CA0093F8740193F5828883E4737402936860E3
:0606DA00EFA3A3A380DFE3
:101A9900EFB40A07740D121AA4740A309811A899A0
:101AA900B8130CC2983098FDA899C298B811F630AD
:071AB90099FDC299F5992285
:1006E000E3F5F009E208B5F06D606B80F3E3F5F037
:1006F00009E608B5F060605E80F387F009E608B5AA
:10070000F054605280F487F009E208B5F048604682
:1007100080F488828C8387F009E0A3B5F0386036D6
:1007200080F488828C8387F009E493A3B5F0276076
:100730002580F388828C83E3F5F009E0A3B5F016F9
:10074000601480F388828C83E3F5F009E493A3B509
:10075000F004600280F202080B808580E7808E80C2
:10076000D2803C8015806C807E809B80B5808B80A1
:10077000A1804F8070803A02081789828A83ECFA40
:10078000E493F5F0A3C8C582C8CCC583CCE493A399
:10079000C8C582C8CCC583CCB5F070606E80E189D5
:1007A000828A83E493F5F0A3E208B5F05E605C8092
:1007B000F289828A83E0F5F0A3E608B5F04D604B3C
:1007C00080F389828A83E0F5F0A3E208B5F03C600B
:1007D0003A80F389828A83E493F5F0A3E608B5F0C2
:1007E0002A602880F2805389828A83ECFAE493F5A8
:1007F000F0A3C8C582C8CCC583CCE0A3C8C582C855
:10080000CCC583CCB5F004600280E27FFFB5F00276
:100810000F2240027F012289828A83ECFAE0F5F000
:10082000A3C8C582C8CCC583CCE0A3C8C582C8CC48
:10083000C583CCB5F0D560D380E389828A83ECFA96
:10084000E0F5F0A3C8C582C8CCC583CCE493A3C8A7
:10085000C582C8CCC583CCB5F0B160AF80E288F06A
:10086000ED2402B4040050A3F582EB2402B404008A
:0B087000509923234582239007597301
:10188200021BEFE493A3F8E493A34003F68001F272
:1018920008DFF48029E493A3F85407240CC8C33367
:1018A200C4540F4420C8834004F456800146F6DF36
:1018B200E4800B01020408102040809017E9E47EC6
:1018C200019360BCA3FF543F30E509541FFEE4932B
:1018D200A360010ECF54C025E060A840B8E493A3F2
:1018E200FAE493A3F8E493A3C8C582C8CAC583CA1D
:1018F200F0A3C8C582C8CAC583CADFE9DEE780BED5
:011875000072
:00000001FF
