:1018A80074656D700D0A0074656D703A252E326688
:1018B80027430D0A006C656E0D0A006C656E3A25AB
:1018C8002E3166636D0D0A00766F6C0D0A00766F17
:1018D8006C3A252E3266560D0A0062726967687482
:1018E8000D0A006272696768743A252E3266560DD1
:1018F8000A00C0F9A4B0999282F8809080A0C0E054
:1017B200012000012100C11CC11DC11EC119C11A95
:1017C200C11BC120C11F014D0108500000000000D3
:1017D2000000001037696E69745F77656C6C0D0AE2
:1017E20000000000001027000000000000000000C0
:1017F20000000000000000015800015900014800EB
:10180200014700024900FA024E007D024B0000022D
:101812005A017702250000420132000042013600DF
:101822001442013800FA42013000FA42013A000043
:05183200420134001426
:1019C400784DE614601014601314601C240370280E
:1019D400785076C6800D785076C78016785076C1D8
:1019E4000876FF0876FF800A785076830876FF0829
:0919F40076FF0876FF0876FF2259
:101B7000438E0475D72075D6D143AF04D2AF438EC0
:021B8000102231
:101B060053A2CFE4F5D8F5E9F5F9F5EAF5FA75D972
:071B16000175DA10D2AF22C5
:101ACD00759850438E40538EFE53890F758B8F75CD
:0D1ADD008DFDC2ABD2ACD2AFD28E021BB4D5
:081BF5007F027E27DEFEDFFC0B
:011BFD0022C5
:061BFE0000007F21DFFE64
:011C040022BD
:101BA4001219C4C290D291121B06121B70021ACDD4
:101B4A001211787859A607120CFE12194A121B5D57
:031B5A00021B82E9
:10000300301C031213BB301E031214AE301903123B
:0F0013001594301D03121016301F031212A6226F
:100CFE007859E664046003020E27784D7601785029
:100D0E0076C70876FF0876FF900132E07002A3E006
:100D1E00701890190393FF7853F608A60708A607D4
:100D2E00EF547F08F6E49308F622900132E0FCA31C
:100D3E00E0FDE41202117B7B7A14792E783E1200CC
:100D4E006612024A900136EEF0A3EFF0900136E003
:100D5E00FAA3E0FB7C277D10FFAE021205DF74FACA
:100D6E002FF58274183EF583E4937853F67C037D59
:100D7E00E8AF03AE021205DF7C007D0A1205DF74B8
:100D8E00FA2DF58274183CF583E4937854F69001AD
:100D9E0036E0FAA3E0FB7C007D64FFAE021205DFB5
:100DAE007C007D0A1205DF74FA2DF58274183CF56D
:100DBE0083E4937855F67C007D0AAF03AE021205EC
:100DCE00DF7C007D0A1205DF74FA2DF58274183C63
:100DDE00F583E493547F7856F6900136E0FEA3E057
:100DEE00FF7C007D0A1205DF74FA2DF58274183C23
:100DFE00F583E4937857F69001017403F0900101A6
:100E0E00E02450F89018FAE4936660030210157609
:100E1E00FF900101E004F080E47859E66405600378
:100E2E00020F07784DF6785076C60876FF0876FFE3
:100E3E000876FF900134E0FAA3E0FB7C037DE8FF27
:100E4E00AE021206347C007D0A12063474FA2DF5B9
:100E5E008274183CF583E4937854F67C007D64AF7D
:100E6E0003AE021206347C007D0A12063474FA2D8B
:100E7E00F58274183CF583E493547F7855F690010F
:100E8E0034E0FAA3E0FB7C007D0AFFAE02120634CA
:100E9E007C007D0A12063474FA2DF58274183CF526
:100EAE0083E4937856F67C007D0AAF03AE021206F9
:100EBE003474FA2DF58274183CF583E4937857F662
:100ECE009001017403F0900101E02450F89018FA9B
:100EDE00E493FFE6B5070A76FF900101E004F08087
:100EEE00E5C3900134E064809480400302101590B5
:100EFE000101E0244EF876BF227859E664086003BB
:100F0E00020F8E784D7602785076C10876FF0876FD
:100F1E00FF0876FF0876FF900138E0FAA3E0FB7C2D
:100F2E00007D64FFAE021205DF7C007D0A1205DF34
:100F3E0074FA2DF58274183CF583E493547F78553A
:100F4E00F67C007D0AAF03AE021205DF7C007D0A3F
:100F5E001205DF74FA2DF58274183CF583E493784C
:100F6E0056F6900138E0FEA3E0FF7C007D0A1205E4
:100F7E00DF74FA2DF58274183CF583E4937857F6F6
:100F8E007859E664096003021015784D760378509F
:100F9E0076830876FF0876FF0876FF0876FF9001C5
:100FAE0030E0FAA3E0FB7C007D64FFAE021205DFA9
:100FBE007C007D0A1205DF74FA2DF58274183CF55B
:100FCE0083E493547F7855F67C007D0AAF03AE021E
:100FDE001205DF7C007D0A1205DF74FA2DF582748E
:100FEE00183CF583E4937856F6900130E0FEA3E0CA
:100FFE00FF7C007D0A1205DF74FA2DF58274183C11
:07100E00F583E4937857F627
:0110150022B8
:1013BB00D200121A595005121B4A80F67FCC121A12
:1013CB00327F44121A32121A595005121B4A80F6F8
:1013DB007FCC121A327FBE121A3212003E900100DD
:1013EB00EFF012003EEFFE900100E0FDEDFFAC06CA
:1013FB00EC120211E4FBFA79C87840120066120273
:10140B004A900134EEF0A3EFF0784DE6600302143E
:10141B00A9900134E0FAA3E0FB7C037DE8FFAE0268
:10142B001206347C007D0A12063474FA2DF5827490
:10143B00183CF583E4937854F67C007D64AF03AEDF
:10144B00021206347C007D0A12063474FA2DF582E2
:10145B0074183CF583E493547F7855F6900134E08F
:10146B00FAA3E0FB7C007D0AFFAE021206347C007F
:10147B007D0A12063474FA2DF58274183CF583E458
:10148B00937856F67C007D0AAF03AE0212063474D5
:10149B00FA2DF58274183CF583E4937857F6C21C49
:0214AB00C2007D
:0114AD00221C
:101016009001007408F0D201900100E0FF14F0EF97
:10102600600CD290121BFEC290121BFE80EAD2DE2A
:10103600C2D843DA01301B08301A05121B4A80F564
:10104600301A2E9001367403F0A374E7F0784DE65B
:101056006401600302116F90190393FF7853F60839
:10106600A60708A607EF547F08F6E49308F60211D0
:101076006F900132E0FCA3E0FDE41202117B7B7A63
:1010860014792E783E12006612024A900136EEF06E
:10109600A3EFF0784DE66401600302116F9001360C
:1010A600E0FAA3E0FB7C277D10FFAE021205DF7499
:1010B600FA2FF58274183EF583E4937853F67C0391
:1010C6007DE8AF03AE021205DF7C007D0A1205DF64
:1010D60074FA2DF58274183CF583E4937854F690EF
:1010E6000136E0FAA3E0FB7C007D64FFAE02120548
:1010F600DF7C007D0A1205DF74FA2DF58274183C38
:10110600F583E4937855F67C007D0AAF03AE0212B0
:1011160005DF7C007D0A1205DF74FA2DF58274184E
:101126003CF583E493547F7856F6900136E0FEA3AF
:10113600E0FF7C007D0A1205DF74FA2DF582741833
:101146003CF583E4937857F69001007403F0900120
:1011560000E02450F89018FAE493FFE6B5070A7603
:10116600FF900100E004F080E5C21AC21BC21DC256
:011176000177
:011177002255
:1014AE00D202121BC37F901219FD121B937F0312DF
:1014BE0019FD121B93121BC37F911219FD121B9360
:1014CE00121AA7C210121B1D121AA77E0090013805
:1014DE00EEF0A3EFF0FD7C00E4120211E4FBFA79CA
:1014EE00FA7843120066E4FBFA797F784312016FB3
:1014FE0012024A900138EEF0A3EFF0121BDE784D87
:10150E00E664027069900138E0FAA3E0FB7C007D8E
:10151E0064FFAE021205DF7C007D0A1205DF74FA4D
:10152E002DF58274183CF583E493547F7855F67C40
:10153E00007D0AAF03AE021205DF7C007D0A1205A4
:10154E00DF74FA2DF58274183CF583E4937856F621
:10155E00900138E0FEA3E0FF7C007D0A1205DF74E7
:10156E00FA2DF58274183CF583E4937857F6D390F0
:10157E000139E0942C900138E094014004D20E80A1
:06158E0002C20EC202229F
:10159400D203121BC37F901219FD121B937F0112F9
:1015A40019FD121B93121BC37F911219FD121B9379
:1015B400121AA7C210121B1D121AA77E0090013026
:1015C400EEF0A3EFF0FD7C00E4120211E4FBFA79E3
:1015D400FA7843120066E4FBFA797F784312016FCC
:1015E40012024A900130EEF0A3EFF0121BDE784DA8
:1015F400E664037069900130E0FAA3E0FB7C007DAF
:1016040064FFAE021205DF7C007D0A1205DF74FA66
:101614002DF58274183CF583E493547F7855F67C59
:10162400007D0AAF03AE021205DF7C007D0A1205BD
:10163400DF74FA2DF58274183CF583E4937856F63A
:10164400900130E0FEA3E0FF7C007D0A1205DF7408
:10165400FA2DF58274183CF583E4937857F6D39009
:101664000131E0942C900130E094014004D20C80CC
:0616740002C20CC20322B9
:0F1BB400D220E47848F6E6062437F8E6F59922C1
:1012A600D204C21F78277C007D007BFF7A1879A8BC
:1012B60012085EEF3395E04F7021302005121B4A6D
:1012C60080F890010374FFF0A37418F0A374AFF0D4
:1012D600900134E0FCA3E0FDEC807778277C007D6C
:1012E600007BFF7A1879BD12085EEF3395E04F70E8
:1012F6002C302005121B4A80F890010374FFF0A3DE
:101306007418F0A374C3F0900136E0FCA3E0FDE48A
:10131600120211E4FBFA792078410213A378277CA4
:10132600007D007BFF7A1879D012085EEF3395E0D6
:101336004F702B302005121B4A80F890010374FF72
:10134600F0A37418F0A374D6F0900138E0FCA3E083
:10135600FDE4120211E4FBFA79C87842803F78274F
:101366007C007D007BFF7A1879E212085EEF3395E8
:10137600E04F703E302005121B4A80F8900103743E
:10138600FFF0A37418F0A374EBF0900130E0FCA317
:10139600E0FDE4120211E4FBFA79C8784212016F0B
:1013A60090010612068E7B007A0079371208E01249
:0513B6001BB4C204227B
:1011780075C0FF75B0FF53B0F320B5047F0180023E
:101188007F0020B4047E0180027E00EE4FFF20C263
:10119800047E0180027E00EE4FFF20C4047E0180A1
:1011A800027E00EE4F7003021279121BF520B5047F
:1011B8007F0180027F0020B4047E0180027E00EE61
:1011C8004FFF20C2047E0180027E00EE4FFF20C444
:1011D800047E0180027E00EE4F70030212799001B6
:1011E8003AE07002A3E0600302127690013AF0A39D
:1011F80004F0E5B05430FEA2C2E433C4333354C023
:101208004EFEA2C4E433FFC433333354804EFE751C
:10121800B0FF53B0CFE4F5C0121BFEE5B0540C4E3E
:101228002488602224C4602424FC602624E46028E6
:1012380024FC602A24F4602C24FC602E2474702E74
:101248007858760480287858760580227858760869
:10125800801C7858760980167858760C8010785853
:10126800760D800A785876108004785876117F00B9
:101278002290013AE0FEA3E0FF4E601FC3EF94E81E
:10128800EE9403E490013A5008F0A3F07858E6FF92
:0D12980022F0A3F07858E6240AFF227F0020
:0112A5002226
:10194A00E4FDEDC3940874809480503053A01FA81E
:10195A00057401088002C333D8FCF580901906E4A7
:10196A009342A00053A01F74502DF8E6F580A3E41B
:0C197A009342A0121BF57580FF0D80C683
:01198600223E
:101B5D0053A01FE520F4F580901904E49342A0539F
:031B6D00A01F2294
:101B820053A01F852180901905E49342A053A01F02
:011B92002230
:0B1BEA00121BA4121B4A12000380F81B
:0300230002183888
:10183800C0E0C0D075D01030983AC2987847E6FF1B
:101848002427F8A69974272FF8E6FFB43F02800FE3
:10185800EFB40A11784706E62427F87600D21F78F5
:10186800477600800F784706E6C3940F748094800B
:1018780040027600309924C2997848E62437F8E681
:101888006013F599784806E6C3940F7480948040F5
:101898000A7600800678487600C220D0D0D0E032A0
:03003B000219089F
:10190800C0E0C083C082C0D075D01830DF04C2DF09
:10191800D21A30D824C2D8D21BAFFAEFFFADEAED05
:10192800900132CFF0A3EFF053DAFEC2DE75E90082
:1019380075F90075EA0075FA00D0D0D082D083D04E
:02194800E0328B
:0300630002167A08
:10167A00C0E0C0F0C083C082C0D075D0187826E61A
:10168A001846600708E61618700116784AE61846E2
:10169A00600908E61618700C168009784976010860
:1016AA0076F4D21C784CE61846600908E6161870DB
:1016BA000C168009784B76030876E8D21D784FE637
:1016CA001846600908E61618700C168009784E76D6
:1016DA00010876F4D21E785BE61846600908E61619
:1016EA0018700C168009785A76010876F4D2199087
:1016FA00013AE07002A3E0601890013AE475F00143
:10170A0012066A45F0700A90013A7403F0A374E86D
:0C171A00F0D0D0D082D083D0F0D0E032EC
:101AEA00E4FEEEC3940874809480500FC297EF13FB
:0B1AFA0092A3EFC313FFD2970E80E70A
:011B050022BD
:10002600C29300C29700D29300121AEAAF05121AC1
:04003600EAC2932265
:10198700E4FDC29300C29700D29300121AEAE4FF63
:10199700EFC39408748094805011C297EDC313FD70
:1019A70030A3034480FDD2970F80E5C29300C2970E
:0C19B70000D29700C2A300D2A300AF052D
:0119C3002201
:041BD200D2A07F0519
:081BD60000AE071FEE70F922BA
:0F1BC300D2A1121BD2C2A17F05121BD6C2A02233
:0C1BDE00C2A1121BD2D2A17F05021BD6AF
:101B1D00C2A0A21092A17F05121BD6121BD2C2A089
:071B2D00D2A17F05021BD6C7
:101B9300121BD2A2A19210C2A07F05121BD6A210C3
:011BA300221F
:0219FD00AD0734
:1019FF00E4FCECC39408748094805024C2A07F054B
:101A0F00121BD6ED30E704D2A18002C2A17F0512CE
:101A1F001BD6D2A0ED25E0FD7F05121BD60C80D280
:021A2F00C2A053
:011A31002292
:101AA700E4FCECC39408748094805017121BD2EDA9
:101AB70025E0FD30A1034401FDC2A07F05121BD61E
:051AC7000C80DFAF05FB
:011ACC0022F7
:041B34007F057E00AB
:101B38007C007D0C1205CDEF1FAC0670011E4C70A9
:021B4800F62283
:021A3200AB0700
:101A3400E4FAEAC39408748094805012C294EB13BD
:101A44009294121B34D294EBC313FB0A80E47F05F7
:051A54007E00021B38BA
:10003E00E4FAEAC39408748094805014C294EBC31B
:10004E0013FBD2943094034480FB121B340A80E2DB
:02005E00AF03EE
:01006000227D
:101A5900C210D2947F0C7E00121B38C2947F507E34
:101A690000121B38D294121B34A29492107F0A7E62
:061A790000121B38A21050
:011A7F002244
:10006600EC4D6011E8497017ED33EC3304600DE494
:10007600FCFFFEFD22E933E8330470F80202B612F3
:10008600028158046009E4CC2481500628500902F4
:1000960002C02840030202BDC0E0EB4A7044B980AA
:1000A60006D0E0FB0202ACEF4E701CBD8008EBFFF1
:1000B600EAFEE9FD80EBE98DF0A4FEE5F002014FD2
:1000C600E9CDF9EAFEEBFFEF89F0A4FCE5F0CE8975
:1000D600F0A42EFFE435F0CD89F0A42DFEE435F032
:1000E6008067EF4E7005BD80D780C3EF8BF0A4AC60
:1000F600F0EE8BF0A42CFCE435F0F8EF8AF0A42C9B
:10010600E5F038FCE433CB8DF0A42CFCE5F03BF8AD
:10011600EE8AF0A42CFCE5F038F8E433CF89F0A49D
:100126002CFCE5F038CF3400CE89F0A42FFFE5F0A3
:100136003EFEE433C98DF0A42EFEE5F039CD8AF0FB
:10014600A42FFFE5F03EFEE43DFD33D0E0FB500773
:100156000BBB000F0202C0EC2CFCEF33FFEE33FEAC
:06016600ED33FD020298DA
:10016C000202C0EC5D046005E8590470030202B69B
:10017C00120281580460F6EC4860F2EC7004FDFE4B
:10018C00FF22C860DB2481C85009C3986002500666
:10019C000202BD9850CAF582E9294B4A7005AB8220
:1001AC000202AC75F0007C1A7880C3EF9BEE9AEDDE
:1001BC0099400DC3EF9BFFEE9AFEED99FDE842F0DE
:1001CC00DC23ACF0D0E0FFD0E0FED0E0FDAB822031
:1001DC00E7101BEB60BAEC2CFCEF33FFEE33FEEDBB
:1001EC0033FD020298E803F830E705C0F075F00023
:1001FC00EF2FFFEE33FEED33FD40B830E7C280AA9F
:10020C0075F020800E75F010800575F0087D007E6D
:10021C00007F003392D530D503120680EC334010AA
:10022C00EF33FFEE33FEED33FDEC33FCD5F0ED2276
:0E023C00E5F0247EA2D513CC92E7CDCEFF22B2
:10024A00EDD2E7CD33EC3392D524814006E4FFFEAC
:10025A00FDFC22FCE4CFCECDCC24E0501174FF800B
:10026A00EDC3CC13CCCD13CDCE13CECF13CF0470A8
:07027A00F030D5DE02068022
:10087B00E5082403F582E43401F583E005082290B2
:10088B000100301703900103E475F00112069A0280
:10089B0005752010E97F2ED2108018EF540F24908D
:1008AB00D43440D4FF30140BEF24BFB41A005003E0
:1008BB002461FFE50960021509050CE50C700205C2
:1008CB000B30170E900100E475F00112069AEF023F
:1008DB0005BB021A807403D2178003E4C217F50814
:1008EB009001001206B1E4F509F50BF50CE5096072
:1008FB00077F201208BE80F5750AFFC211C210C215
:10090B0012C213C215C216C21812088AFF700D301C
:10091B0017057F001208CFAF0CAE0B22B4255FC2B8
:10092B00D5C21412088AFF24D0B40A00501A75F0ED
:10093B000A780930D50508B6FF0106C6A426F620AD
:10094B00D5047002D21380D924CFB41A00EF50040F
:10095B00C2E5D214020BC1D21180C6D21080C0D214
:10096B001280BCD2D580BAD21580B47F201208BEBB
:10097B002012077401B5090040F112087BFF120821
:10098B00BE0208F8D218D216809512087BFB12080B
:10099B007BFA12087BF94A4B700679BF7A0C7BFF06
:1009AB0020122EE509602A7E008E827583001205C7
:1009BB008E60060EEE650A70F0C2D5EBC0E0EAC0A1
:1009CB00E0E9C0E0EE120C22D0E0F9D0E0FAD0E082
:1009DB00FB120575FF60AAEBC0E0EAC0E0E9C0E0DE
:1009EB001208BED0E02401F9D0E03400FAD0E0FBCD
:1009FB00E50A0460DCD50AD98087D21280A2120CDA
:100A0B000460F7E50A7001041202CBA90A600DE538
:100A1B000A600914F50A120CACEF60F3EA30E70236
:100A2B00F404C3995079EAF4250A0430E701E4048D
:100A3B00F50A800D120C0460C1EA050A250A1202A0
:100A4B00CBEA90012FF030E701E4250A04D50A0424
:100A5B0020150114120C22E4C0E0120CAC90012FF3
:100A6B00E0601320E70714F01208A6802204F0D0F0
:100A7B00E014C0E07F001208A6E50A600712089D8B
:100A8B00150A800B30150312089DD0E00208F8D030
:100A9B00E00480C4120C04609EE50A041202CB90A1
:100AAB00012FEAF0E50A2015026001042404120C60
:010ABB002218
:100ABC0074FF04C0E0120CAC1208A6E50A20150263
:100ACC00600312089DD0E0B50AE87F451208B0908B
:100ADC00012FE07F2B30E7047F2DF404C0E01208D7
:100AEC00BED0E075F00A84C0F01208A7D0E012085E
:100AFC00A70208F8791080027908C216C21880087B
:100B0C00D2D5790A8004790AC2D5E50A047002F5B7
:100B1C000AE4FAFDFEFF12087BFC7B08201113127D
:100B2C00087BFD7B1030100A12087BFE12087BFF3D
:100B3C007B20EC3382D592D55013C3E43010069F42
:100B4C00FFE49EFEE42011039DFDE49CFCE4CBF845
:100B5C00C211EC700CCFCECDCCE824F8F870F38039
:100B6C0017C3EF33FFEE33FEED33FDEC33FCEB3309
:100B7C00FB994002FB0FD8E9EB301105F8D0E0C42B
:100B8C0048B211C0E00AEC4D4E4F78207B0070C289
:100B9C00EAB50A0040BCC0E0120C24D0F0D0E02032
:100BAC001104C4C0E0C4B211C0F01208A7D0F0D533
:100BBC00F0EB0208F81206BA0995530B00580966B7
:100BCC004C0962420B044F0B0C440B0C49097B4340
:100BDC000B12550A3F460A9F450A09470CDF50097C
:100BEC006A2D096E2E09912B097223098F200CC8CE
:100BFC002A092A4800000989E50AB4FF03750A0688
:100C0C0012087BFC12087BFD12087BFE12087BFF8E
:100C1C00900128020308790AA2D520131430150973
:100C2C00B910020404B9080104A2D520160250011F
:100C3C00042012689212B509005034C0E07F2030B5
:100C4C0013197F30A21272167215500F120C7BC240
:100C5C0012C216C215C2187F30800F301503E9C0BE
:100C6C00E01208BE301503D0E0F9D0E0B509CC3065
:100C7C0015177F30B9100C1208BE7F583014077F3F
:100C8C00788003B908031208BE3012057F2D0208C4
:100C9C00BE7F202018F87F2B2016F322921280CFD3
:100CAC007F00B40700500B2428F582E43401F5834F
:100CBC00E0FF22286E756C6C2900D21112087B3073
:100CCC0011F8C211780930D50108F602092A2D5005
:100CDC0043495812087B2403B405004001E4900CEE
:100CEC00DA931208AF743A1208AFD21375090402E2
:020CFC000B00EB
:10028100E9D2E7C933E833F892D5EDD2E7CD33ECC3
:0702910033FC5002B2D5223C
:10029800EC30E7100FBF000C0EBE00080DBD0004C7
:1002A8000BEB6014A2D5EB13FCED92E7FD2274FF73
:1002B800FCFDFEFF22E480F8A2D574FF13FC7D80CC
:0302C800E480EFE0
:1002CB00F920E73624F950037907E4F42402FBE51F
:1002DB0082158270021583DBF6E024FB501BE9606C
:1002EB0014E4F0E582158270021583E004F0B40A81
:0D02FB0008E4F0D9EE7401F00A22C2D52209
:10030800ED33EC3392D5FA602AB4FF33EDC2E77BC4
:10031800FF60067A03792DE4227A03793620D50422
:100328007A037931224E614E002B494E46002D4901
:100338004E4600E47A08F0A3DAFC7B00740722C07A
:1003480083C082ECC0E0EDC0E0EEC0E0EFC0E0EAC0
:1003580075F010A4CAABF075F04DA42BFBE435F092
:10036800FCEA2410FAEB34C5FBEC34D9FCEDC2E707
:10037800FF75F056A4F42411C5F0F434C58FF0A429
:100388002AE5F03BE43CF020E714120535D0E0FF05
:10039800D0E0FED0E0FDD0E0FC12016F8014F40440
:1003A800120535D0E0FFD0E0FED0E0FDD0E0FC1231
:1003B8000066D082D083E0FAEDD2E7CD33EC332467
:1003C80082FBE4C3CF33CFCE33CECD33CD33DBF393
:1003D8007B0775F00A846004F0A31B0AE5F0F0A31C
:1003E8008FF0740AA4FFACF08EF0740AA42CFEAC53
:1003F800F050010C8DF0740AA42CFDE435F0F0A344
:05040800DBDE74072299
:10040D000202B6E86480F8E933E83360110460F065
:10041D00ED33EC337009E8FCE9FDEAFEEBFF220455
:10042D0060DED3EB9FEA9EE99DE8C2E78CF0C2F750
:10043D0095F0400CE8CCF8E9CDF9EACEFAEBCFFB1C
:10044D0012028185D0F05804700320D5B3E80470F2
:10045D00075002B2D50202C092D5EC0460F7E4CC8D
:10046D00C0E0C398F8603B94186008400DD0E0FBE5
:10047D00020298E4FBFAC9FC8028E830E406E4C9DE
:10048D00FBE4CAFCE830E305E4C9CACBFCE8540739
:10049D006010F8C3E913F9EA13FAEB13FBEC13FC44
:1004AD00D8F130F52FC3E49CFCEF9BFFEE9AFEEDE7
:1004BD0099FDD0E0FBEF4E4D4C701222DB03020292
:1004CD00BDEC2CFCEF33FFEE33FEED33FDED30E7ED
:1004DD00EB020298EF2BFFEE3AFEED39FDD0E0FB7B
:1004ED0050130BBB00030202C0ED13FDEE13FEEF24
:0804FD0013FFEC13FC0202984E
:100505003F8000004120000042C80000447A0000FE
:10051500461C400047C35000497424004B18968080
:100525004CBEBC205A0E1BCA6753C21C749DC5AE77
:10053500FB60065407601C2323120563EB543860E7
:100545000912054F12055E120066ECF8EDF9EEFA98
:10055500EFCB22EB12055E80F1543803241C900585
:1005650005FE93FC0EEE93FD0EEE930ECE93FF2249
:03000000021726BE
:0C172600787FE4F6D8FD75815B02176D3A
:10057500BB010689828A83E0225002E722BBFE0284
:09058500E32289828A83E49322B7
:10058E00BB010CE58229F582E5833AF583E0225022
:10059E0006E92582F8E622BBFE06E92582F8E2226C
:0D05AE00E58229F582E5833AF583E4932286
:1005BB00BB010689828A83F0225002F722BBFE011F
:0205CB00F32219
:1005CD00EF8DF0A4A8F0CF8CF0A428CE8DF0A42E42
:0205DD00FE22FC
:1005DF00BC000BBE0029EF8DF084FFADF022E4CC00
:1005EF00F875F008EF2FFFEE33FEEC33FCEE9DECC9
:1005FF00984005FCEE9DFE0FD5F0E9E4CEFD22ED0F
:10060F00F8F5F0EE8420D21CFEADF075F008EF2F58
:10061F00FFED33FD4007985006D5F0F222C398FD49
:05062F000FD5F0EA22E6
:10063400C2D5EC30E709B2D5E4C39DFDE49CFCEEE1
:1006440030E715B2D5E4C39FFFE49EFE1205DFC375
:10065400E49DFDE49CFC80031205DF30D507C3E470
:060664009FFFE49EFE2250
:10066A00C5F0F8A3E028F0C5F0F8E582158270021B
:06067A001583E038F022B8
:0E068000C3E49FFFE49EFEE49DFDE49CFC228B
:0C068E00ECF0A3EDF0A3EEF0A3EFF022DF
:10069A00F8E0FBA3A3E0F925F0F0E58215827002E9
:0706AA001583E0FA38F0228D
:0906B100EBF0A3EAF0A3E9F0224A
:1006BA00D083D082F8E4937012740193700DA3A3CF
:1006CA0093F8740193F5828883E4737402936860E3
:0606DA00EFA3A3A380DFE3
:101A8000EFB40A07740D121A8B740A309811A899D2
:101A9000B8130CC2983098FDA899C298B811F630C6
:071AA00099FDC299F599229E
:1006E000E3F5F009E208B5F06D606B80F3E3F5F037
:1006F00009E608B5F060605E80F387F009E608B5AA
:10070000F054605280F487F009E208B5F048604682
:1007100080F488828C8387F009E0A3B5F0386036D6
:1007200080F488828C8387F009E493A3B5F0276076
:100730002580F388828C83E3F5F009E0A3B5F016F9
:10074000601480F388828C83E3F5F009E493A3B509
:10075000F004600280F202080B808580E7808E80C2
:10076000D2803C8015806C807E809B80B5808B80A1
:10077000A1804F8070803A02081789828A83ECFA40
:10078000E493F5F0A3C8C582C8CCC583CCE493A399
:10079000C8C582C8CCC583CCB5F070606E80E189D5
:1007A000828A83E493F5F0A3E208B5F05E605C8092
:1007B000F289828A83E0F5F0A3E608B5F04D604B3C
:1007C00080F389828A83E0F5F0A3E208B5F03C600B
:1007D0003A80F389828A83E493F5F0A3E608B5F0C2
:1007E0002A602880F2805389828A83ECFAE493F5A8
:1007F000F0A3C8C582C8CCC583CCE0A3C8C582C855
:10080000CCC583CCB5F004600280E27FFFB5F00276
:100810000F2240027F012289828A83ECFAE0F5F000
:10082000A3C8C582C8CCC583CCE0A3C8C582C8CC48
:10083000C583CCB5F0D560D380E389828A83ECFA96
:10084000E0F5F0A3C8C582C8CCC583CCE493A3C8A7
:10085000C582C8CCC583CCB5F0B160AF80E288F06A
:10086000ED2402B4040050A3F582EB2402B404008A
:0B087000509923234582239007597301
:10173200021BEAE493A3F8E493A34003F68001F2C8
:1017420008DFF48029E493A3F85407240CC8C333B8
:10175200C4540F4420C8834004F456800146F6DF87
:10176200E4800B01020408102040809017B2E47E4E
:10177200019360BCA3FF543F30E509541FFEE4937C
:10178200A360010ECF54C025E060A840B8E493A343
:10179200FAE493A3F8E493A3C8C582C8CAC583CA6E
:1017A200F0A3C8C582C8CAC583CADFE9DEE780BE26
:0118370000B0
:00000001FF
