:1021140074656D700D0A0074656D703A252E326613
:1021240027430D0A006C656E0D0A006C656E3A2536
:102134002E3166636D0D0A00766F6C0D0A00766FA2
:102144006C3A252E3266560D0A006272696768740D
:102154000D0A006272696768743A252E3266560D5C
:102164000A00C0F9A4B0999282F8809080A0C0E0DF
:101E9100012000012100C11DC11CC11EC119C11AAF
:101EA100C11BC120C11F085D00000000000000002F
:101EB100103C696E69745F77656C6C0D0A000000F7
:101EC1000000102C000000000000000000000000D5
:101ED10000000000016C00016A00016700016B0055
:101EE1000154000153000166000157000165000122
:101EF1005000015A0002680000025500FA025B001E
:101F01007D02580000026D0177022A0000024E0195
:101F1100F402510138024C0000420140000142012B
:101F21004400014201460000420132000042013EEC
:101F3100F830420142001442014800FA42013000E7
:081F4100FA44013A000003E834
:0F093200900144E0FFA3E0900140CFF0A3EFF06D
:10094100900140E0FEA3E0FFEE6003020F41EF14CF
:100951007003020B6A147003020C82147003020DFF
:100961001924FE7003020DB024056003020F4178C3
:100971005D76C60876FF0876FF0876FF90013EE0B7
:10098100FEA3E0FFC3EE94805003020A79E49FFBCB
:10099100E49EFA7C277D10AF03FE1206017C007DE8
:1009A1000A12060174662DF58274213CF583E493E5
:1009B1007860F67C037DE8AF03AE021206017C008D
:1009C1007D0A12060174662DF58274213CF583E4DB
:1009D100937861F690013EE0FEA3E0FFC3E49FFB44
:1009E100E49EFA7C007D64AF03FE1206017C007D6B
:1009F1000A12060174662DF58274213CF583E49395
:100A0100547F7862F67C007D0AAF03AE02120601C4
:100A11007C007D0A12060174662DF58274213CF575
:100A210083E4937863F690013EE0FEA3E0FFC3E424
:100A31009FFFE49EFE7C007D0A12060174662DF57F
:100A41008274213CF583E4937864F6900102740387
:100A5100F0900102E0245DF8902166E493FFE6B591
:100A6100070A76FF900102E004F080E5900102E0C0
:100A7100245CF876BF020B4C90013EE0FAA3E0FB48
:100A81007C277D10FFAE021206017C007D0A120652
:100A91000174662DF58274213CF583E4937860F648
:100AA1007C037DE8AF03AE021206017C007D0A12D1
:100AB100060174662DF58274213CF583E493786117
:100AC100F690013EE0FAA3E0FB7C007D64FFAE02FC
:100AD1001206017C007D0A12060174662DF58274EE
:100AE100213CF583E493547F7862F67C007D0AAF64
:100AF10003AE021206017C007D0A12060174662D06
:100B0100F58274213CF583E4937863F690013EE02D
:100B1100FEA3E0FF7C007D0A12060174662DF582BA
:100B210074213CF583E4937864F69001027403F038
:100B3100900102E0245DF8902166E493FFE6B50799
:100B41000A76FF900102E004F080E57857E6600341
:100B5100020F417865E66003020F4190013704F00E
:100B6100A37401F0A3743EF022785D76C70876FF86
:100B71000876FF900132E07002A3E0701A90216FB5
:100B810093FF7860F608A60708A607EF547F08F6DA
:100B9100E49308F6020C64900142E0FAA3E0FB7CC6
:100BA100277D10FFAE0212060174662FF5827421B3
:100BB1003EF583E4937860F67C037DE8AF03AE02F3
:100BC1001206017C007D0A12060174662DF58274FD
:100BD100213CF583E4937861F6900142E0FAA3E0C9
:100BE100FB7C007D64FFAE021206017C007D0A12CF
:100BF100060174662DF58274213CF583E4937862D5
:100C0100F67C007D0AAF03AE021206017C007D0A6C
:100C110012060174662DF58274213CF583E4935428
:100C21007F7863F6900142E0FEA3E0FF7C007D0A3D
:100C310012060174662DF58274213CF583E49378E4
:100C410064F69001027403F0900102E0245DF890D3
:100C51002166E493FFE6B5070A76FF900102E004FE
:100C6100F080E57857E66003020F417865E660039E
:100C7100020F4190013704F0A37401F0A37442F014
:100C810022785D76C10876FF0876FF0876FF087640
:100C9100FF900148E0FAA3E0FB7C007D64FFAE0217
:100CA1001206017C007D0A12060174662DF582741C
:100CB100213CF583E493547F7862F67C007D0AAF92
:100CC10003AE021206017C007D0A12060174662D34
:100CD100F58274213CF583E4937863F6900148E052
:100CE100FEA3E0FF7C007D0A12060174662DF582E9
:100CF10074213CF583E4937864F67857E660030247
:100D01000F417865E66003020F4190013704F0A3BB
:100D11007401F0A37448F022785D76830876FF08A9
:100D210076FF0876FF0876FF900130E0FAA3E0FB3A
:100D31007C007D64FFAE021206017C007D0A120672
:100D41000174662DF58274213CF583E493547F7818
:100D510062F67C007D0AAF03AE021206017C007DC3
:100D61000A12060174662DF58274213CF583E49321
:100D71007863F6900130E0FEA3E0FF7C007D0A126B
:100D8100060174662DF58274213CF583E493786441
:100D9100F67857E66003020F417865E66003020FBB
:100DA1004190013704F0A37401F0A37430F022786C
:100DB1005D768E7B407A42790F780090013AE0FCB3
:100DC100A3E0FDA3E0FEA3E0FF120692E47B0AFA92
:100DD100F9F812069274662BF58274213AF583E4D0
:100DE10093785EF67BA07A867901780090013AE0EB
:100DF100FCA3E0FDA3E0FEA3E0FF120692E47B0A60
:100E0100FAF9F812069274662BF58274213AF58389
:100E1100E493785FF6E47B107A27F9F890013AE0E1
:100E2100FCA3E0FDA3E0FEA3E0FF120692E47B0A2F
:100E3100FAF9F812069274662BF58274213AF58359
:100E4100E4937860F6E47BE87A03F9F890013AE0FC
:100E5100FCA3E0FDA3E0FEA3E0FF120692E47B0AFF
:100E6100FAF9F812069274662BF58274213AF58329
:100E7100E4937861F6E47B64FAF9F890013AE0FCD6
:100E8100A3E0FDA3E0FEA3E0FF120692E47B0AFAD1
:100E9100F9F812069274662BF58274213AF583E40F
:100EA100937862F6E47B0AFAF9F890013AE0FCA340
:100EB100E0FDA3E0FEA3E0FF120692E47B0AFAF94B
:100EC100F812069274662BF58274213AF583E49345
:100ED1007863F6E47B0AFAF9F890013AE0FCA3E0C2
:100EE100FDA3E0FEA3E0FF12069274662BF5827467
:100EF100213AF583E4937864F69001027401F0904D
:100F01000102E0FF245DF8902166E493FEE6B50658
:100F110018C3EF940874809480500E900102E0246D
:100F21005DF876FFE004F080D67857E670127865B8
:100F3100E6700D90013704F0A37401F0A3743AF048
:010F4100228D
:10240600438E0475D72075D6D143AF04D2AF438E21
:02241600102292
:1023CD0053A2CFE4F5D8F5E9F5F975D90175DA1110
:0323DD00D2AF225A
:10236700759850438E40538EFE53890F758B8F752A
:0D2377008DFDC2ABD2ACD2AFD28E02244994
:10000E00538E7F438907E4F58AF58CC28DD2A9D22F
:04001E00AFD28C22AF
:082499007F027E27DEFEDFFC5E
:0124A1002218
:0600030000007F21DFFE7A
:0100090022D4
:1023E000120941C290D2911223CD12240612000E7E
:0323F0000223675E
:0F243A00121DBB121CCE1221B91223F30224185B
:10217400301D031213C5301E03121AEE3019031258
:102184001BDE301C031222A3201B03301A03121778
:10219400AC7865E66003122046785AE660031220A4
:1021A400B1900146E07002A3E060031215FD301FF8
:0521B400031218D22205
:101CCE007850E66003021D80786BE664047008901D
:101CDE000140F0A304806F786BE6640570079001F5
:101CEE0040F0A38061786BE664087009900140F0C3
:101CFE00A374028051786BE664097009900140F07C
:101D0E00A374038041786BE6640D702C900137E06C
:101D1E00F9A3E0FAA3E0900134C9F0A3EAF0A3E935
:101D2E00F0900140E0FFA3E0900144CFF0A3EFF06C
:101D3E007857760AD205806D786BE6640C700A903F
:101D4E000140F0A37405F0805C786BE66417705860
:101D5E007857E670537865E6704E1209329001405E
:101D6E00E4F0A37404F0D20678507609785A760A15
:101D7E008036786BE6640D70107850E616785AF659
:101D8E007850E67002760A801C786BE6641770183D
:101D9E00C206900144E0FFA3E0900140CFF0A3EF14
:0D1DAE00F0E47850F6120941E4786BF6225B
:1013C500D2001222F3500512243A80F67FCC122265
:1013D500CC7F441222CC1222F3500512243A80F617
:1013E5007FCC1222CC7FBE1222CC12003E9001008F
:1013F500EFF012003EEFFE900100E0FDEDFFAC06C0
:10140500EC120211E4FBFA79C87840120066120268
:101415004A90013EEEF0A3EFF0A3E07002A3E06076
:10142500030215F890013EE0FEA3E0FFC3EE9480B1
:101435005003021525E49FFBE49EFA7C277D10AF3F
:1014450003FE1206017C007D0A12060174662DF565
:101455008274213CF583E4937860F67C037DE8AFE4
:1014650003AE021206017C007D0A12060174662D88
:10147500F58274213CF583E4937861F690013EE0B2
:10148500FEA3E0FFC3E49FFBE49EFA7C007D64AF0E
:1014950003FE1206017C007D0A12060174662DF515
:1014A5008274213CF583E493547F7862F67C007D59
:1014B5000AAF03AE021206017C007D0A1206017412
:1014C500662DF58274213CF583E4937863F69001EB
:1014D5003EE0FEA3E0FFC3E49FFFE49EFE7C007DAB
:1014E5000A12060174662DF58274213CF583E49396
:1014F5007864F69001017403F0900101E0245DF831
:10150500902166E493FFE6B5070A76FF900101E0B6
:1015150004F080E5900101E0245CF876BF0215F83F
:1015250090013EE0FAA3E0FB7C277D10FFAE02129E
:1015350006017C007D0A12060174662DF582742170
:101545003CF583E4937860F67C037DE8AF03AE0257
:101555001206017C007D0A12060174662DF582745F
:10156500213CF583E4937861F690013EE0FAA3E02F
:10157500FB7C007D64FFAE021206017C007D0A1231
:10158500060174662DF58274213CF583E493547F3E
:101595007862F67C007D0AAF03AE021206017C007C
:1015A5007D0A12060174662DF58274213CF583E4EB
:1015B500937863F690013EE0FEA3E0FF7C007D0A90
:1015C50012060174662DF58274213CF583E4937847
:1015D50064F69001017403F0900101E0245DF89038
:1015E5002166E493FFE6B5070A76FF900101E00462
:0715F500F080E5C21DC200F9
:0115FC0022CC
:1022A3007E08C21AC21BC21CAF061EEF600CD2907E
:1022B300120003C29012000380EEE4F5E9F5F9C2BF
:0822C300D8C2DFD2DE43DA01CC
:0122CB0022F0
:1017AC00201B030218A1900132E0FCA3E0FDE4121F
:1017BC0002117B7B7A14792E783E12006612024A53
:1017CC00900142EEF0A3EFF0900140E07004A3E032
:1017DC00640160030218D1900142E0FAA3E0FB7CA3
:1017EC00277D10FFAE0212060174662FF58274215C
:1017FC003EF583E4937860F67C037DE8AF03AE029C
:10180C001206017C007D0A12060174662DF58274A5
:10181C00213CF583E4937861F6900142E0FAA3E071
:10182C00FB7C007D64FFAE021206017C007D0A1277
:10183C00060174662DF58274213CF583E49378627D
:10184C00F67C007D0AAF03AE021206017C007D0A15
:10185C0012060174662DF58274213CF583E49354D1
:10186C007F7863F6900142E0FEA3E0FF7C007D0AE6
:10187C0012060174662DF58274213CF583E493788D
:10188C0064F67F03745D2FF8902166E493667035DF
:10189C0076FF0F80EF301A2D9001427427F0A3745D
:1018AC000FF0900140E07004A3E0640170179021E8
:1018BC006F93FF7860F608A60708A607EF547F0819
:0518CC00F6E49308F6AC
:0118D10022F4
:101AEE00D202C21E1224677F9012226E1224297F08
:101AFE000312226E1224291224677F9112226E1273
:101B0E002429122341C2101223A01223419001480E
:101B1E00E4F0A3EFF0900148E0FCA3E0FDE4120234
:101B2E0011E4FBFA79FA7843120066E4FBFA797F46
:101B3E00784312016F12024A900148EEF0A3EFF0C3
:101B4E00122482900140E07004A3E0640270699058
:101B5E000148E0FAA3E0FB7C007D64FFAE021206B2
:101B6E00017C007D0A12060174662DF58274213CFB
:101B7E00F583E493547F7862F67C007D0AAF03AE62
:101B8E00021206017C007D0A12060174662DF58292
:101B9E0074213CF583E4937863F6900148E0FEA34C
:101BAE00E0FF7C007D0A12060174662DF582742119
:101BBE003CF583E4937864F6D3900149E0942C903D
:101BCE000148E094014004D20E8002C20EC20222ED
:101BDE00D203C2191224677F9012226E1224297F1B
:101BEE000112226E1224291224677F9112226E1284
:101BFE002429122341C2101223A012234190013036
:101C0E00E4F0A3EFF0900130E0FCA3E0FDE412025B
:101C1E0011E4FBFA79FA7843120066E4FBFA797F55
:101C2E00784312016F12024A900130EEF0A3EFF0EA
:101C3E00122482900140E07004A3E0640370699066
:101C4E000130E0FAA3E0FB7C007D64FFAE021206D9
:101C5E00017C007D0A12060174662DF58274213C0A
:101C6E00F583E493547F7862F67C007D0AAF03AE71
:101C7E00021206017C007D0A12060174662DF582A1
:101C8E0074213CF583E4937863F6900130E0FEA373
:101C9E00E0FF7C007D0A12060174662DF582742128
:101CAE003CF583E4937864F6D3900131E0942C9064
:101CBE000130E094014004D20C8002C20CC2032217
:0F244900D220E47854F6E606243CF8E6F5992212
:102046001224677FA012226E1224297865E61425D1
:10205600E0FF12226E122429900137E0FBA3E0FA7A
:10206600A3E0F9120575FF12226E1224299001379A
:10207600E0FBA3E0FAA3E0F990000112058EFF123F
:10208600226E122429122482E47865F67857E670C7
:1020960019C205900140E0FEA3E0FF900144E06E06
:0B20A6007003A3E06F600312094122E9
:1020B1001224677FA012226E122429785AE6142571
:1020C100E0FF12226E1224291224677FA112226ED0
:1020D100122429122341900134E0FBA3E0FAA3E08A
:1020E100F9EF1205BBC2101223A012234190013453
:1020F100E0FBA3E0FAA3E0F9900001EF1205CD1295
:102101002482120932900140E4F0A37404F0E478CF
:032111005AF62259
:1015FD00786AE6FFE4FCFDFE7808120732A804A91C
:10160D0005AA06AB07900146E0FEA3E0FFEB4FFFF6
:10161D00EA4EFEE9FDE8FC90013A120745900140C3
:10162D00E07004A3E0640560030217A17B407A42D9
:10163D00790FF890013AE0FCA3E0FDA3E0FEA3E0F2
:10164D00FF120692E47B0AFAF9F812069274662BE1
:10165D00F58274213AF583E493785EF67BA07A8661
:10166D007901780090013AE0FCA3E0FDA3E0FEA330
:10167D00E0FF120692E47B0AFAF9F81206927466FC
:10168D002BF58274213AF583E493785FF6E47B10B1
:10169D007A27F9F890013AE0FCA3E0FDA3E0FEA360
:1016AD00E0FF120692E47B0AFAF9F81206927466CC
:1016BD002BF58274213AF583E4937860F6E47BE8A8
:1016CD007A03F9F890013AE0FCA3E0FDA3E0FEA354
:1016DD00E0FF120692E47B0AFAF9F812069274669C
:1016ED002BF58274213AF583E4937861F6E47B64FB
:1016FD00FAF9F890013AE0FCA3E0FDA3E0FEA3E0C7
:10170D00FF120692E47B0AFAF9F812069274662B20
:10171D00F58274213AF583E4937862F6E47B0AFA54
:10172D00F9F890013AE0FCA3E0FDA3E0FEA3E0FF91
:10173D00120692E47B0AFAF9F812069274662BF5FA
:10174D008274213AF583E4937863F6E47B0AFAF91F
:10175D00F890013AE0FCA3E0FDA3E0FEA3E0FF1248
:10176D00069274662BF58274213AF583E4937864BE
:10177D00F67F01745D2FF8902166E493FEE6B506C1
:10178D0013EFC39408748094805009745D2FF8761C
:0E179D00FF0F80DFE4900146F0A3F0786AF6BB
:0117AB00221B
:1018D200D204C21F782C7C007D007BFF7A21791410
:1018E200120915EF3395E04F701B30200512243A90
:1018F20080F890010374FFF0A37421F0A3741BF02D
:1019020090013E8071782C7C007D007BFF7A2179EA
:1019120029120915EF3395E04F702C30200512245F
:101922003A80F890010374FFF0A37421F0A3742F9E
:10193200F0900142E0FCA3E0FDE4120211E4FBFAA4
:10194200792078410219C9782C7C007D007BFF7ACE
:1019520021793C120915EF3395E04F702B302005A9
:1019620012243A80F890010374FFF0A37421F0A3CB
:101972007442F0900148E0FCA3E0FDE4120211E49D
:10198200FBFA79C87842803F782C7C007D007BFF8F
:101992007A21794E120915EF3395E04F703E3020CF
:1019A2000512243A80F890010374FFF0A37421F029
:1019B200A37457F0900130E0FCA3E0FDE4120211A1
:1019C200E4FBFA79C8784212016F900106120745CA
:0F19D2007B007A00793C120FA7122449C204222D
:101DBB0075C0FF75B0FF53B0F320C2047F018002E2
:101DCB007F0020B5047E0180027E00EE4FFF20C411
:101DDB00047E0180027E00EE4F60747869E618463F
:101DEB006003021E90F6087601A2B533C43354E0AB
:101DFB00FEA2C2E433C4333354C04EFEA2C4E43358
:101E0B00FFC433333354804EFE75B0FFC2B5E4F5D7
:101E1B00C0120003E5B0540C4E2498601924C46022
:101E2B001A24FC601B24E4601C24FC601D246470D9
:101E3B0054786776042278677605227867760822CD
:101E4B0078677609227867760C227867760D227888
:101E5B0068E6FE08E6FFD394E8EE9403400EE41820
:101E6B00F608F67867E6240A796BF722D3EF94022B
:101E7B00EE9400E47868400AF608F67867E6786B2B
:051E8B00F622F608F646
:011E9000222F
:1021B900E4FDEDC3940874809480503053A01FA8A7
:1021C900057401088002C333D8FCF580902172E4BC
:1021D9009342A00053A01F745D2DF8E6F580A3E497
:0C21E9009342A01224997580FF0D80C65F
:0121F50022C7
:1023F30053A01FE520F4F580902170E49342A0538D
:03240300A01F22F5
:1024180053A01F852180902171E49342A053A01FEF
:012428002291
:0B248E001223E012243A12217480F89F
:03000B0002245874
:0F245800C0D075D008786C06C28CC28DD0D0323F
:03002300021FD6E3
:101FD600C0E0C0D075D01030983AC2987853E6FF6A
:101FE600242CF8A699742C2FF8E6FFB43F02800F34
:101FF600EFB40A11785306E6242CF87600D21F783F
:10200600537600800F785306E6C3940F748094804D
:1020160040027600309924C2997854E6243CF8E6CA
:102026006013F599785406E6C3940F748094804043
:102036000A7600800678547600C220D0D0D0E032EE
:03003B000222336B
:10223300C0E0C083C082C0D075D01830D818C2D8CF
:10224300AFFAEFFFADEAED900132CFF0A3EFF0D29A
:102253001BC2DE53DAFE30DF09C2DFD21AC2DE53FD
:0B226300DAFED0D0D082D083D0E03271
:030063000219E19E
:1019E100C0E0C083C082C0D075D018782BE61846FD
:1019F100600708E616187001167856E61846600961
:101A010008E61618700C168009785576010876F4E8
:101A1100D21D7859E61846600908E61618700C16AA
:101A21008009785876030876E8D21C785CE6184677
:101A3100600908E61618700C168009785B760108B3
:101A410076F4D21E786EE61846600908E61618701C
:101A51000C168009786D76010876F4D219784FE674
:101A61001846600908E616187014168011784E762B
:101A7100030876E87857E66005E6167865F6785249
:101A8100E61846600908E61618701916801678518E
:101A91007613087688784C76030876E8758C00759D
:101AA1008A00D28C784DE61846600908E61618704F
:101AB10019168016C28C900146E58AF0A3E58CF0D8
:101AC100786CE6786AF6786C76007869E618466094
:101AD100130806E618700106861E4E7007786876B0
:0D1AE100030876E9D0D0D082D083D0E03267
:10238400E4FEEEC3940874809480500FC297EF1358
:0B23940092A3EFC313FFD2970E80E767
:01239F00221B
:10002600C29300C29700D29300122384AF05122315
:0400360084C29322CB
:1021F600E4FDC29300C29700D29300122384E4FF49
:10220600EFC39408748094805011C297EDC313FDF8
:1022160030A3034480FDD2970F80E5C29300C29796
:0C22260000D29700C2A300D2A300AF05B5
:012232002289
:04247600D2A07F056C
:08247A0000AE071FEE70F9220D
:0F246700D2A1122476C2A17F0512247AC2A0222C
:0C248200C2A1122476D2A17F0502247AA8
:1023A000C2A0A21092A17F0512247A122476C2A0A4
:0723B000D2A17F0502247A8F
:10242900122476A2A19210C2A07F0512247AA210CA
:012439002280
:02226E00AD07BA
:10227000E4FCECC39408748094805024C2A07F05D1
:1022800012247AED30E704D2A18002C2A17F0512A8
:10229000247AD2A0ED25E0FD7F0512247A0C80D2AD
:0222A000C2A0DA
:0122A2002219
:10234100E4FCECC39408748094805017122476ED59
:1023510025E0FD30A1034401FDC2A07F0512247ACE
:052361000C80DFAF0558
:012366002254
:0423B7007F057E0020
:1023BB007C007D0C1205EFEF1FAC0670011E4C70FC
:0223CB00F622F8
:0222CC00AB075E
:1022CE00E4FAEAC39408748094805012C294EB131B
:1022DE0092941223B7D294EBC313FB0A80E47F05CA
:0522EE007E000223BB8D
:10003E00E4FAEAC39408748094805014C294EBC31B
:10004E0013FBD2943094034480FB1223B70A80E250
:02005E00AF03EE
:01006000227D
:1022F300C210D2947F0C7E001223BBC2947F507E07
:10230300001223BBD2941223B7A29492107F0A7EA9
:06231300001223BBA21022
:0123190022A1
:10006600EC4D6011E8497017ED33EC3304600DE494
:10007600FCFFFEFD22E933E8330470F80202B612F3
:10008600028158046009E4CC2481500628500902F4
:1000960002C02840030202BDC0E0EB4A7044B980AA
:1000A60006D0E0FB0202ACEF4E701CBD8008EBFFF1
:1000B600EAFEE9FD80EBE98DF0A4FEE5F002014FD2
:1000C600E9CDF9EAFEEBFFEF89F0A4FCE5F0CE8975
:1000D600F0A42EFFE435F0CD89F0A42DFEE435F032
:1000E6008067EF4E7005BD80D780C3EF8BF0A4AC60
:1000F600F0EE8BF0A42CFCE435F0F8EF8AF0A42C9B
:10010600E5F038FCE433CB8DF0A42CFCE5F03BF8AD
:10011600EE8AF0A42CFCE5F038F8E433CF89F0A49D
:100126002CFCE5F038CF3400CE89F0A42FFFE5F0A3
:100136003EFEE433C98DF0A42EFEE5F039CD8AF0FB
:10014600A42FFFE5F03EFEE43DFD33D0E0FB500773
:100156000BBB000F0202C0EC2CFCEF33FFEE33FEAC
:06016600ED33FD020298DA
:10016C000202C0EC5D046005E8590470030202B69B
:10017C00120281580460F6EC4860F2EC7004FDFE4B
:10018C00FF22C860DB2481C85009C3986002500666
:10019C000202BD9850CAF582E9294B4A7005AB8220
:1001AC000202AC75F0007C1A7880C3EF9BEE9AEDDE
:1001BC0099400DC3EF9BFFEE9AFEED99FDE842F0DE
:1001CC00DC23ACF0D0E0FFD0E0FED0E0FDAB822031
:1001DC00E7101BEB60BAEC2CFCEF33FFEE33FEEDBB
:1001EC0033FD020298E803F830E705C0F075F00023
:1001FC00EF2FFFEE33FEED33FD40B830E7C280AA9F
:10020C0075F020800E75F010800575F0087D007E6D
:10021C00007F003392D530D503120724EC33401005
:10022C00EF33FFEE33FEED33FDEC33FCD5F0ED2276
:0E023C00E5F0247EA2D513CC92E7CDCEFF22B2
:10024A00EDD2E7CD33EC3392D524814006E4FFFEAC
:10025A00FDFC22FCE4CFCECDCC24E0501174FF800B
:10026A00EDC3CC13CCCD13CDCE13CECF13CF0470A8
:07027A00F030D5DE0207247D
:100F4200E5252403F582E43401F583E005252290AA
:100F52000100301703900103E475F00112075102FA
:100F620005752010E97F2ED2108018EF540F2490BF
:100F7200D43440D4FF30140BEF24BFB41A00500312
:100F82002461FFE526600215260529E52970020580
:100F92002830170E900100E475F001120751EF029C
:100FA20005BB02231A7403D2178003E4C217F52586
:100FB200900100120768E4F526F528F529E5266078
:100FC200077F20120F8580F57527FFC211C210C25C
:100FD20012C213C215C216C218120F51FF700D3081
:100FE20017057F00120F96AF29AE2822B4255FC2E3
:100FF200D5C214120F51FF24D0B40A00501A75F052
:101002000A782630D50508B6FF0106C6A426F620C2
:10101200D5047002D21380D924CFB41A00EF500441
:10102200C2E5D214021288D21180C6D21080C0D278
:101032001280BCD2D580BAD21580B47F20120F851F
:101042002012077401B5260040F1120F42FF120F61
:1010520085020FBFD218D2168095120F42FB120FD3
:1010620042FA120F42F94A4B700679867A137BFFD5
:1010720020122EE526602A7E008E827583001205DC
:101082008E60060EEE652770F0C2D5EBC0E0EAC0B6
:10109200E0E9C0E0EE1212E9D0E0F9D0E0FAD0E0E7
:1010A200FB120575FF60AAEBC0E0EAC0E0E9C0E010
:1010B200120F85D0E02401F9D0E03400FAD0E0FB31
:1010C200E5270460DCD527D98087D21280A21212CC
:1010D200CB60F7E5277001041202CBA927600DE56A
:1010E20027600914F527121373EF60F3EA30E70261
:1010F200F404C3995079EAF425270430E701E404A3
:10110200F527800D1212CB60C1EA052725271202AE
:10111200CBEA90012FF030E701E4252704D527041C
:10112200201501141212E9E4C0E012137390012F8A
:10113200E0601320E70714F0120F6D802204F0D054
:10114200E014C0E07F00120F6DE5276007120F6404
:101152001527800B301503120F64D0E0020FBFD0A9
:10116200E00480C41212CB609EE527041202CB90E9
:10117200012FEAF0E527201502600104240412126F
:01118200E983
:1011830074FF04C0E0121373120F6DE527201502DC
:101193006003120F64D0E0B527E87F45120F779004
:1011A300012FE07F2B30E7047F2DF404C0E0120F02
:1011B30085D0E075F00A84C0F0120F6ED0E0120FF4
:1011C3006E020FBF791080027908C216C218800818
:1011D300D2D5790A8004790AC2D5E527047002F5CD
:1011E30027E4FAFDFEFF120F42FC7B0820111312C5
:1011F3000F42FD7B1030100A120F42FE120F42FF06
:101203007B20EC3382D592D55013C3E43010069F74
:10121300FFE49EFEE42011039DFDE49CFCE4CBF877
:10122300C211EC700CCFCECDCCE824F8F870F3806B
:1012330017C3EF33FFEE33FEED33FDEC33FCEB333B
:10124300FB994002FB0FD8E9EB301105F8D0E0C45D
:1012530048B211C0E00AEC4D4E4F78207B0070C2BB
:10126300EAB5270040BCC0E01212EBD0F0D0E0207A
:101273001104C4C0E0C4B211C0F0120F6ED0F0D597
:10128300F0EB020FBF120771105C5311C758102DFA
:101293004C10294211CB4F11D34411D3491042436F
:1012A30011D95511064611664510D04713A65010A3
:1012B300312D10352E10582B103923105620138F33
:1012C3002A0FF14800001050E527B4FF03752706E5
:1012D300120F42FC120F42FD120F42FE120F42FF89
:1012E300900128020308790AA2D5201314301509A6
:1012F300B910020404B9080104A2D5201602500152
:10130300042012689212B526005034C0E07F2030CA
:1013130013197F30A21272167215500F121342C2A4
:1013230012C216C215C2187F30800F301503E9C0F0
:10133300E0120F85301503D0E0F9D0E0B526CC30AC
:1013430015177F30B9100C120F857F583014077FA3
:10135300788003B90803120F853012057F2D020F21
:10136300857F202018F87F2B2016F322921280CF3E
:101373007F00B40700500B2428F582E43401F58381
:10138300E0FF22286E756C6C2900D211120F4230D7
:1013930011F8C211782630D50108F6020FF12D504D
:1013A300434958120F422403B405004001E490134B
:1013B300A193120F76743A120F76D2137526040294
:0213C30011C750
:10028100E9D2E7C933E833F892D5EDD2E7CD33ECC3
:0702910033FC5002B2D5223C
:10029800EC30E7100FBF000C0EBE00080DBD0004C7
:1002A8000BEB6014A2D5EB13FCED92E7FD2274FF73
:1002B800FCFDFEFF22E480F8A2D574FF13FC7D80CC
:0302C800E480EFE0
:1002CB00F920E73624F950037907E4F42402FBE51F
:1002DB0082158270021583DBF6E024FB501BE9606C
:1002EB0014E4F0E582158270021583E004F0B40A81
:0D02FB0008E4F0D9EE7401F00A22C2D52209
:10030800ED33EC3392D5FA602AB4FF33EDC2E77BC4
:10031800FF60067A03792DE4227A03793620D50422
:100328007A037931224E614E002B494E46002D4901
:100338004E4600E47A08F0A3DAFC7B00740722C07A
:1003480083C082ECC0E0EDC0E0EEC0E0EFC0E0EAC0
:1003580075F010A4CAABF075F04DA42BFBE435F092
:10036800FCEA2410FAEB34C5FBEC34D9FCEDC2E707
:10037800FF75F056A4F42411C5F0F434C58FF0A429
:100388002AE5F03BE43CF020E714120535D0E0FF05
:10039800D0E0FED0E0FDD0E0FC12016F8014F40440
:1003A800120535D0E0FFD0E0FED0E0FDD0E0FC1231
:1003B8000066D082D083E0FAEDD2E7CD33EC332467
:1003C80082FBE4C3CF33CFCE33CECD33CD33DBF393
:1003D8007B0775F00A846004F0A31B0AE5F0F0A31C
:1003E8008FF0740AA4FFACF08EF0740AA42CFEAC53
:1003F800F050010C8DF0740AA42CFDE435F0F0A344
:05040800DBDE74072299
:10040D000202B6E86480F8E933E83360110460F065
:10041D00ED33EC337009E8FCE9FDEAFEEBFF220455
:10042D0060DED3EB9FEA9EE99DE8C2E78CF0C2F750
:10043D0095F0400CE8CCF8E9CDF9EACEFAEBCFFB1C
:10044D0012028185D0F05804700320D5B3E80470F2
:10045D00075002B2D50202C092D5EC0460F7E4CC8D
:10046D00C0E0C398F8603B94186008400DD0E0FBE5
:10047D00020298E4FBFAC9FC8028E830E406E4C9DE
:10048D00FBE4CAFCE830E305E4C9CACBFCE8540739
:10049D006010F8C3E913F9EA13FAEB13FBEC13FC44
:1004AD00D8F130F52FC3E49CFCEF9BFFEE9AFEEDE7
:1004BD0099FDD0E0FBEF4E4D4C701222DB03020292
:1004CD00BDEC2CFCEF33FFEE33FEED33FDED30E7ED
:1004DD00EB020298EF2BFFEE3AFEED39FDD0E0FB7B
:1004ED0050130BBB00030202C0ED13FDEE13FEEF24
:0804FD0013FFEC13FC0202984E
:100505003F8000004120000042C80000447A0000FE
:10051500461C400047C35000497424004B18968080
:100525004CBEBC205A0E1BCA6753C21C749DC5AE77
:10053500FB60065407601C2323120563EB543860E7
:100545000912054F12055E120066ECF8EDF9EEFA98
:10055500EFCB22EB12055E80F1543803241C900585
:1005650005FE93FC0EEE93FD0EEE930ECE93FF2249
:03000000021F4A92
:0C1F4A00787FE4F6D8FD75816E021F91CF
:10057500BB010689828A83E0225002E722BBFE0284
:09058500E32289828A83E49322B7
:10058E00BB010CE58229F582E5833AF583E0225022
:10059E0006E92582F8E622BBFE06E92582F8E2226C
:0D05AE00E58229F582E5833AF583E4932286
:1005BB00BB010689828A83F0225002F722BBFE011F
:0205CB00F32219
:1005CD00F8BB010DE58229F582E5833AF583E8F064
:1005DD00225006E92582C8F622BBFE05E92582C810
:0205ED00F222F8
:1005EF00EF8DF0A4A8F0CF8CF0A428CE8DF0A42E20
:0205FF00FE22DA
:10060100BC000BBE0029EF8DF084FFADF022E4CCDD
:10061100F875F008EF2FFFEE33FEEC33FCEE9DECA6
:10062100984005FCEE9DFE0FD5F0E9E4CEFD22EDEC
:10063100F8F5F0EE8420D21CFEADF075F008EF2F36
:10064100FFED33FD4007985006D5F0F222C398FD27
:050651000FD5F0EA22C4
:1006560075F008758200EF2FFFEE33FECD33CDCC5B
:1006660033CCC58233C5829BED9AEC99E5829840DE
:100676000CF582EE9BFEED9AFDEC99FC0FD5F0D6BB
:10068600E4CEFBE4CDFAE4CCF9A88222B800C1B9E5
:100696000059BA002DEC8BF084CFCECDFCE5F0CB23
:1006A600F97818EF2FFFEE33FEED33FDEC33FCEB5C
:1006B60033FB10D703994004EB99FB0FD8E5E4F917
:1006C600FA227818EF2FFFEE33FEED33FDEC33FC04
:1006D600C933C910D7059BE99A4007EC9BFCE99AF8
:1006E600F90FD8E0E4C9FAE4CCFB2275F010EF2F3D
:1006F600FFEE33FEED33FDCC33CCC833C810D7073D
:100706009BEC9AE899400AED9BFDEC9AFCE899F877
:0E0716000FD5F0DAE4CDFBE4CCFAE4C8F9220A
:0E072400C3E49FFFE49EFEE49DFDE49CFC22E6
:10073200E8600FEFC333FFEE33FEED33FDEC33FC25
:03074200D8F122C9
:0C074500ECF0A3EDF0A3EEF0A3EFF02227
:10075100F8E0FBA3A3E0F925F0F0E5821582700231
:070761001583E0FA38F022D5
:09076800EBF0A3EAF0A3E9F02292
:10077100D083D082F8E4937012740193700DA3A317
:1007810093F8740193F5828883E47374029368602B
:06079100EFA3A3A380DF2B
:10231A00EFB40A07740D122325740A309811A8998C
:10232A00B8130CC2983098FDA899C298B811F63023
:07233A0099FDC299F59922FB
:10079700E3F5F009E208B5F06D606B80F3E3F5F07F
:1007A70009E608B5F060605E80F387F009E608B5F2
:1007B700F054605280F487F009E208B5F0486046CB
:1007C70080F488828C8387F009E0A3B5F03860361F
:1007D70080F488828C8387F009E493A3B5F02760BF
:1007E7002580F388828C83E3F5F009E0A3B5F01642
:1007F700601480F388828C83E3F5F009E493A3B552
:10080700F004600280F20208C2808580E7808E8053
:10081700D2803C8015806C807E809B80B5808B80E9
:10082700A1804F8070803A0208CE89828A83ECFAD1
:10083700E493F5F0A3C8C582C8CCC583CCE493A3E1
:10084700C8C582C8CCC583CCB5F070606E80E1891D
:10085700828A83E493F5F0A3E208B5F05E605C80DA
:10086700F289828A83E0F5F0A3E608B5F04D604B84
:1008770080F389828A83E0F5F0A3E208B5F03C6053
:100887003A80F389828A83E493F5F0A3E608B5F00A
:100897002A602880F2805389828A83ECFAE493F5F0
:1008A700F0A3C8C582C8CCC583CCE0A3C8C582C89D
:1008B700CCC583CCB5F004600280E27FFFB5F002BF
:1008C7000F2240027F012289828A83ECFAE0F5F049
:1008D700A3C8C582C8CCC583CCE0A3C8C582C8CC91
:1008E700C583CCB5F0D560D380E389828A83ECFADF
:1008F700E0F5F0A3C8C582C8CCC583CCE493A3C8F0
:10090700C582C8CCC583CCB5F0B160AF80E288F0B2
:10091700ED2402B4040050A3F582EB2402B40400D2
:0B092700509923234582239008107391
:101F560002248EE493A3F8E493A34003F68001F2EF
:101F660008DFF48029E493A3F85407240CC8C3338C
:101F7600C4540F4420C8834004F456800146F6DF5B
:101F8600E4800B0102040810204080901E91E47E3C
:101F9600019360BCA3FF543F30E509541FFEE49350
:101FA600A360010ECF54C025E060A840B8E493A317
:101FB600FAE493A3F8E493A3C8C582C8CAC583CA42
:101FC600F0A3C8C582C8CAC583CADFE9DEE780BEFA
:011F49000097
:00000001FF
