:1017950074656D700D0A0074656D703A252E32669C
:1017A50027430D0A006C656E0D0A006C656E3A25BF
:1017B5002E3166636D0D0A00766F6C0D0A00766F2B
:1017C5006C3A252E3266560D0A0062726967687496
:1017D5000D0A006272696768743A252E3266560DE5
:1017E5000A00C0F9A4B0999282F8809080A0C0E068
:10169E00012000012100C11CC11DC11EC119C11AAA
:1016AE00C11BC120C11F014F0108520000000000E4
:1016BE000000001039696E69745F77656C6C0D0AF5
:1016CE0000000000001029000000000000000000D3
:1016DE0000000000000000015B00015E00014A00F6
:1016EE00014900015A0002270000025C0000024B73
:1016FE0000FA0250007D024D0000025F01770225C4
:10170E000000420134001442013600FA420130005A
:06171E00FA420132001442
:100CE800784FE6147003020DCA147003020EB6148E
:100CF8007003020F1724036003020F91785276C61F
:100D08000876FF0876FF0876FF900132E0FEA3E040
:100D1800FF7C037DE81206347C007D0A12063474D9
:100D2800E72DF58274173CF583E4937856F6900125
:100D380032E0FEA3E0FF7C007D641206347C007D77
:100D48000A12063474E72DF58274173CF583E49390
:100D5800547F7857F6900132E0FEA3E0FF7C007DD7
:100D68000A1206347C007D0A12063474E72DF582D7
:100D780074173CF583E4937858F6900132E0FEA3AB
:100D8800E0FF7C007D0A12063474E72DF5827417A3
:100D98003CF583E4937859F67B0374522BF890174B
:100DA800E7E493FFE6B5070576FF0B80EDC39001F6
:100DB80032E0648094804003020F9174502BF876DF
:100DC800BF22785276C70876FF0876FF7828E6189B
:100DD8004670189017F093FF7855F608A60708A6EE
:100DE80007EF547F08F6E49308F622900134E0FEFA
:100DF800A3E0FF7C277D101205DF74E72FF58274CE
:100E0800173EF583E4937855F6900134E0FEA3E0AD
:100E1800FF7C037DE81205DF7C007D0A1205DF7484
:100E2800E72DF58274173CF583E4937856F6900124
:100E380034E0FEA3E0FF7C007D641205DF7C007DCA
:100E48000A1205DF74E72DF58274173CF583E493E5
:100E58007857F6900134E0FEA3E0FF7C007D0A128B
:100E680005DF7C007D0A1205DF74E72DF582741713
:100E78003CF583E493547F7858F6900134E0FEA360
:100E8800E0FF7C007D0A1205DF74E72DF5827417F8
:100E98003CF583E4937859F67B0374522BF890174A
:100EA800E7E493666003020F9176FF0B80EC7852BB
:100EB80076C10876FF0876FF0876FF0876FF90016E
:100EC80036E0FEA3E0FF7C007D641205DF7C007D38
:100ED8000A1205DF74E72DF58274173CF583E49355
:100EE800547F7857F6900136E0FEA3E0FF7C007D42
:100EF8000A1205DF7C007D0A1205DF74E72DF582F2
:100F080074173CF583E4937858F6900136805F783F
:100F18005276830876FF0876FF0876FF0876FF90FA
:100F28000130E0FEA3E0FF7C007D641205DF7C0059
:100F38007D0A1205DF74E72DF58274173CF583E40A
:100F480093547F7857F6900130E0FEA3E0FF7C00D1
:100F58007D0A1205DF7C007D0A1205DF74E72DF596
:100F68008274173CF583E4937858F6900130E0FEDC
:100F7800A3E0FF7C007D0A1205DF74E72DF582747B
:090F8800173CF583E4937859F657
:010F9100223D
:101A6600438E0475D72075D6D143AF04D2AF438ECB
:021A760010223C
:101A400053A2CFE4F5D8F5E9F5F975D90175DA11A6
:031A5000D2AF22F0
:10000300759850438E40538EFE53890F758B8F75B1
:0D0013008DFDC2ABD2ACD2AFD28E021AB9B5
:081AFA007F027E27DEFEDFFC07
:011B020022C0
:061B030000007F21DFFE5F
:011B090022B9
:101A9A00120CE8C290D291121A40121A660200037E
:0F1AAA001211C212186F1217F5121A53021A787E
:10193400301C031212B7301E031213AA30190312FB
:101944001492301D0312190B201B03301A03120FBB
:0819540092301F031210AD22B6
:10186F00785EE6FF7E0064047006784F7601802173
:10187F00EF64054E7005784FF68016EF64084E70D2
:10188F0006784F7602800AEF64094E7004784F761F
:08189F0003E4785EF6020CE898
:1012B700D200C21C1219835005121AAA80F67FCCDD
:1012C70012195C7F4412195C1219835005121AAA6D
:1012D70080F67FCC12195C7FBE12195C12003E901B
:1012E7000100EFF012003EEFFE900100E0FDEDFF80
:1012F700AC06EC120211E4FBFA79C87840120066DA
:1013070012024A900132EEF0A3EFF0784FE6600345
:101317000213A7900132E0FAA3E0FB7C037DE8FF0C
:10132700AE021206347C007D0A12063474E72DF5EE
:101337008274173CF583E4937856F67C007D64AF9E
:1013470003AE021206347C007D0A12063474E72DC0
:10135700F58274173CF583E493547F7857F6900130
:1013670032E0FAA3E0FB7C007D0AFFAE02120634EE
:101377007C007D0A12063474E72DF58274173CF55C
:1013870083E4937858F67C007D0AAF03AE02120619
:101397003474E72DF58274173CF583E4937859F696
:0213A700C20082
:0113A9002221
:10190B007E08C21AC21BC21DAF061EEF600CD2901E
:10191B00121B03C290121B0380EEE4F5E9F5F9C22A
:08192B00D8C2DFD2DE43DA016D
:011933002291
:100F9200201B030210817827E6FC08E6FDE412021A
:100FA200117B7B7A14792E783E12006612024A90E7
:100FB2000134EEF0A3EFF0784FE664016003021013
:100FC200AC900134E0FAA3E0FB7C277D10FFAE0277
:100FD2001205DF74E72FF58274173EF583E49378E8
:100FE20055F67C037DE8AF03AE021205DF7C007D7F
:100FF2000A1205DF74E72DF58274173CF583E4933A
:101002007856F6900134E0FAA3E0FB7C007D64FFA1
:10101200AE021205DF7C007D0A1205DF74E72DF5B2
:101022008274173CF583E4937857F67C007D0AAF0F
:1010320003AE021205DF7C007D0A1205DF74E72D84
:10104200F58274173CF583E493547F7858F6900147
:1010520034E0FEA3E0FF7C007D0A1205DF74E72D79
:10106200F58274173CF583E4937859F67F03745242
:101072002FF89017E7E49366703076FF0F80EF3019
:101082001A289001347427F0A3740FF0784FE664A5
:101092000170179017F093FF7855F608A60708A677
:0A10A20007EF547F08F6E49308F608
:0110AC002221
:1013AA00D202C21E121AC87F901218A7121A897F77
:1013BA00031218A7121A89121AC87F911218A712B3
:1013CA001A891219D1C210121A131219D17E009059
:1013DA000136EEF0A3EFF0FD7C00E4120211E4FB0B
:1013EA00FA79FA7843120066E4FBFA797F784312B5
:1013FA00016F12024A900136EEF0A3EFF0121AE3DF
:10140A00784FE664027069900136E0FAA3E0FB7C4B
:10141A00007D64FFAE021205DF7C007D0A1205DF43
:10142A0074E72DF58274173CF583E493547F78575B
:10143A00F67C007D0AAF03AE021205DF7C007D0A4E
:10144A001205DF74E72DF58274173CF583E493786F
:10145A0058F6900136E0FEA3E0FF7C007D0A1205F3
:10146A00DF74E72DF58274173CF583E4937859F617
:10147A00D3900137E0942C900136E094014004D2D5
:08148A000E8002C20EC2022214
:10149200D203C219121AC87F901218A7121A897F92
:1014A200011218A7121A89121AC87F911218A712CC
:1014B2001A891219D1C210121A131219D17E009070
:1014C2000130EEF0A3EFF0FD7C00E4120211E4FB28
:1014D200FA79FA7843120066E4FBFA797F784312CC
:1014E200016F12024A900130EEF0A3EFF0121AE3FC
:1014F200784FE664037069900130E0FAA3E0FB7C68
:10150200007D64FFAE021205DF7C007D0A1205DF5A
:1015120074E72DF58274173CF583E493547F785772
:10152200F67C007D0AAF03AE021205DF7C007D0A65
:101532001205DF74E72DF58274173CF583E4937886
:1015420058F6900130E0FEA3E0FF7C007D0A120510
:10155200DF74E72DF58274173CF583E4937859F62E
:10156200D3900131E0942C900130E094014004D2F8
:081572000C8002C20CC203222E
:0F1AB900D220E4784AF6E6062439F8E6F59922B9
:1010AD00D204C21F78297C007D007BFF7A177995C9
:1010BD00120848EF3395E04F7021302005121AAA1F
:1010CD0080F890010374FFF0A37417F0A3749CF0E3
:1010DD00900132E0FCA3E0FDEC807778297C007D67
:1010ED00007BFF7A1779AA120848EF3395E04F700D
:1010FD002C302005121AAA80F890010374FFF0A37A
:10110D007417F0A374B0F0900134E0FCA3E0FDE49B
:10111D00120211E4FBFA792078410211AA78297C98
:10112D00007D007BFF7A1779BD120848EF3395E0FB
:10113D004F702B302005121AAA80F890010374FF0E
:10114D00F0A37417F0A374C3F0900136E0FCA3E094
:10115D00FDE4120211E4FBFA79C87842803F782948
:10116D007C007D007BFF7A1779CF120848EF33950D
:10117D00E04F703E302005121AAA80F890010374DA
:10118D00FFF0A37417F0A374D8F0900130E0FCA326
:10119D00E0FDE4120211E4FBFA79C8784212016F06
:1011AD009001061206787B007A0079391208CA126E
:0511BD001AB9C2042272
:1011C20075C0FF75B0FF53B0F320B5047F018002F4
:1011D2007F0020B4047E0180027E00EE4FFF20C219
:1011E200047E0180027E00EE4FFF20C4047E018057
:1011F200027E00EE4F7003021280785DE6184660B0
:10120200030212B6F6087601E5B05430FEA2C2E43B
:1012120033C4333354C04EFEA2C4E433FFC4333369
:101222003354804EFE75B0FF53B0CFE4F5C0121BAD
:1012320003E5B0540C4E2488602124C4602224FCAF
:10124200602324E4602424FC602524F4602624FC2A
:1012520060272474705E785B760422785B760522C0
:10126200785B760822785B760922785B760C2278A6
:101272005B760D22785B761022785B761122785CA1
:10128200E6FE08E6FFD394E8EE9403400EE418F677
:1012920008F6785BE6240A795EF722D3EF9402EE31
:1012A2009400E4785C400AF608F6785BE6785EF62D
:0412B20022F608F622
:0112B6002215
:1017F500E4FDEDC3940874809480503053A01FA875
:10180500057401088002C333D8FCF5809017F3E412
:101815009342A00053A01F74522DF8E6F580A3E46F
:0C1825009342A0121AFA7580FF0D80C6D5
:011831002294
:101A530053A01FE520F4F5809017F1E49342A053BF
:031A6300A01F229F
:101A780053A01F8521809017F2E49342A053A01F22
:011A8800223B
:0B1AEF00121A9A121AAA12193480F879
:030023000217259C
:10172500C0E0C0D075D01030983AC2987849E6FF2D
:101735002429F8A69974292FF8E6FFB43F02800FF3
:10174500EFB40A11784906E62429F87600D21F7805
:10175500497600800F784906E6C3940F748094801B
:1017650040027600309924C299784AE62439F8E691
:101775006013F599784A06E6C3940F748094804007
:101785000A76008006784A7600C220D0D0D0E032B2
:03003B000218DCCC
:1018DC00C0E0C0D075D01830D814C2D8AFFAEFAD74
:1018EC00EA7827F6ED08F6D21BC2DE53DAFE30DFBB
:0F18FC0009C2DFD21AC2DE53DAFED0D0D0E032FA
:0300630002157A09
:10157A00C0E0C0D075D0187826E61846600708E69D
:10158A001618700116784CE61846600908E616180F
:10159A00700C168009784B76010876F4D21C784EC6
:1015AA00E61846600908E61618700C168009784D88
:1015BA0076030876E8D21D7851E61846600908E6EF
:1015CA001618700C168009785076010876F4D21E27
:1015DA007860E61846600908E61618700C16800945
:1015EA00785F76010876F4D219785DE618466013BA
:1015FA000806E618700106861E4E7007785C7603A8
:08160A000876E9D0D0D0E032EF
:1019F700E4FEEEC3940874809480500FC297EF13EF
:0B1A070092A3EFC313FFD2970E80E7FD
:011A120022B1
:10002600C29300C29700D293001219F7AF051219B6
:04003600F7C2932258
:10183200E4FDC29300C29700D293001219F7E4FFAD
:10184200EFC39408748094805011C297EDC313FDC6
:1018520030A3034480FDD2970F80E5C29300C29764
:0C18620000D29700C2A300D2A300AF0583
:01186E002257
:041AD700D2A07F0515
:081ADB0000AE071FEE70F922B6
:0F1AC800D2A1121AD7C2A17F05121ADBC2A02227
:0C1AE300C2A1121AD7D2A17F05021ADBA3
:101A1300C2A0A21092A17F05121ADB121AD7C2A08C
:071A2300D2A17F05021ADBCE
:101A8900121AD7A2A19210C2A07F05121ADBA210C6
:011A9900222A
:0218A700AD078B
:1018A900E4FCECC39408748094805024C2A07F05A2
:1018B900121ADBED30E704D2A18002C2A17F051222
:1018C9001ADBD2A0ED25E0FD7F05121ADB0C80D2D0
:0218D900C2A0AB
:0118DB0022EA
:1019D100E4FCECC39408748094805017121AD7ED7C
:1019E10025E0FD30A1034401FDC2A07F05121ADBF1
:0519F1000C80DFAF05D2
:0119F60022CE
:041A2A007F057E00B6
:101A2E007C007D0C1205CDEF1FAC0670011E4C70B4
:021A3E00F6228E
:02195C00AB07D7
:10195E00E4FAEAC39408748094805012C294EB1394
:10196E009294121A2AD294EBC313FB0A80E47F05D9
:05197E007E00021A2E9C
:10003E00E4FAEAC39408748094805014C294EBC31B
:10004E0013FBD2943094034480FB121A2A0A80E2E6
:02005E00AF03EE
:01006000227D
:10198300C210D2947F0C7E00121A2EC2947F507E16
:1019930000121A2ED294121A2AA29492107F0A7E4F
:0619A30000121A2EA21032
:0119A900221B
:10006600EC4D6011E8497017ED33EC3304600DE494
:10007600FCFFFEFD22E933E8330470F80202B612F3
:10008600028158046009E4CC2481500628500902F4
:1000960002C02840030202BDC0E0EB4A7044B980AA
:1000A60006D0E0FB0202ACEF4E701CBD8008EBFFF1
:1000B600EAFEE9FD80EBE98DF0A4FEE5F002014FD2
:1000C600E9CDF9EAFEEBFFEF89F0A4FCE5F0CE8975
:1000D600F0A42EFFE435F0CD89F0A42DFEE435F032
:1000E6008067EF4E7005BD80D780C3EF8BF0A4AC60
:1000F600F0EE8BF0A42CFCE435F0F8EF8AF0A42C9B
:10010600E5F038FCE433CB8DF0A42CFCE5F03BF8AD
:10011600EE8AF0A42CFCE5F038F8E433CF89F0A49D
:100126002CFCE5F038CF3400CE89F0A42FFFE5F0A3
:100136003EFEE433C98DF0A42EFEE5F039CD8AF0FB
:10014600A42FFFE5F03EFEE43DFD33D0E0FB500773
:100156000BBB000F0202C0EC2CFCEF33FFEE33FEAC
:06016600ED33FD020298DA
:10016C000202C0EC5D046005E8590470030202B69B
:10017C00120281580460F6EC4860F2EC7004FDFE4B
:10018C00FF22C860DB2481C85009C3986002500666
:10019C000202BD9850CAF582E9294B4A7005AB8220
:1001AC000202AC75F0007C1A7880C3EF9BEE9AEDDE
:1001BC0099400DC3EF9BFFEE9AFEED99FDE842F0DE
:1001CC00DC23ACF0D0E0FFD0E0FED0E0FDAB822031
:1001DC00E7101BEB60BAEC2CFCEF33FFEE33FEEDBB
:1001EC0033FD020298E803F830E705C0F075F00023
:1001FC00EF2FFFEE33FEED33FD40B830E7C280AA9F
:10020C0075F020800E75F010800575F0087D007E6D
:10021C00007F003392D530D50312066AEC334010C0
:10022C00EF33FFEE33FEED33FDEC33FCD5F0ED2276
:0E023C00E5F0247EA2D513CC92E7CDCEFF22B2
:10024A00EDD2E7CD33EC3392D524814006E4FFFEAC
:10025A00FDFC22FCE4CFCECDCC24E0501174FF800B
:10026A00EDC3CC13CCCD13CDCE13CECF13CF0470A8
:07027A00F030D5DE02066A38
:10086500E5082403F582E43401F583E005082290C8
:100875000100301703900103E475F00112068402AC
:1008850005752010E97F2ED2108018EF540F2490A3
:10089500D43440D4FF30140BEF24BFB41A005003F6
:1008A5002461FFE50960021509050CE50C700205D8
:1008B5000B30170E900100E475F001120684EF026B
:1008C50005BB0219AA7403D2178003E4C217F50801
:1008D50090010012069BE4F509F50BF50CE509609E
:1008E500077F201208A880F5750AFFC211C210C241
:1008F50012C213C215C216C218120874FF700D3049
:1009050017057F001208B9AF0CAE0B22B4255FC2E4
:10091500D5C214120874FF24D0B40A00501A75F019
:100925000A780930D50508B6FF0106C6A426F620C3
:10093500D5047002D21380D924CFB41A00EF500425
:10094500C2E5D214020BABD21180C6D21080C0D240
:100955001280BCD2D580BAD21580B47F201208A8E7
:100965002012077401B5090040F1120865FF12084D
:10097500A80208E2D218D2168095120865FB120863
:1009850065FA120865F94A4B700679A97A0C7BFF5E
:1009950020122EE509602A7E008E827583001205DD
:1009A5008E60060EEE650A70F0C2D5EBC0E0EAC0B7
:1009B500E0E9C0E0EE120C0CD0E0F9D0E0FAD0E0AE
:1009C500FB120575FF60AAEBC0E0EAC0E0E9C0E0F4
:1009D5001208A8D0E02401F9D0E03400FAD0E0FBF9
:1009E500E50A0460DCD50AD98087D21280A2120BF1
:1009F500EE60F7E50A7001041202CBA90A600DE565
:100A05000A600914F50A120C96EF60F3EA30E70262
:100A1500F404C3995079EAF4250A0430E701E404A3
:100A2500F50A800D120BEE60C1EA050A250A1202CD
:100A3500CBEA90012FF030E701E4250A04D50A043A
:100A450020150114120C0CE4C0E0120C9690012F35
:100A5500E0601320E70714F0120890802204F0D01C
:100A6500E014C0E07F00120890E50A6007120887CD
:100A7500150A800B301503120887D0E00208E2D072
:100A8500E00480C4120BEE609EE50A041202CB90CE
:100A9500012FEAF0E50A2015026001042404120C76
:010AA5000C44
:100AA60074FF04C0E0120C96120890E50A201502A5
:100AB6006003120887D0E0B50AE87F4512089A90CD
:100AC600012FE07F2B30E7047F2DF404C0E01208ED
:100AD600A8D0E075F00A84C0F0120891D0E01208A0
:100AE600910208E2791080027908C216C2188008BD
:100AF600D2D5790A8004790AC2D5E50A047002F5CE
:100B06000AE4FAFDFEFF120865FC7B0820111312A9
:100B16000865FD7B1030100A120865FE120865FF95
:100B26007B20EC3382D592D55013C3E43010069F58
:100B3600FFE49EFEE42011039DFDE49CFCE4CBF85B
:100B4600C211EC700CCFCECDCCE824F8F870F3804F
:100B560017C3EF33FFEE33FEED33FDEC33FCEB331F
:100B6600FB994002FB0FD8E9EB301105F8D0E0C441
:100B760048B211C0E00AEC4D4E4F78207B0070C29F
:100B8600EAB50A0040BCC0E0120C0ED0F0D0E0205E
:100B96001104C4C0E0C4B211C0F0120891D0F0D55F
:100BA600F0EB0208E21206A4097F530AEA5809503C
:100BB6004C094C420AEE4F0AF6440AF649096543C7
:100BC6000AFC550A29460A894509F3470CC9500902
:100BD600542D09582E097B2B095C230979200CB268
:100BE6002A09144800000973E50AB4FF03750A06CA
:100BF600120865FC120865FD120865FE120865FFFD
:100C0600900128020308790AA2D520131430150989
:100C1600B910020404B9080104A2D5201602500135
:100C2600042012689212B509005034C0E07F2030CB
:100C360013197F30A21272167215500F120C65C26C
:100C460012C216C215C2187F30800F301503E9C0D4
:100C5600E01208A8301503D0E0F9D0E0B509CC3091
:100C660015177F30B9100C1208A87F583014077F6B
:100C7600788003B908031208A83012057F2D0208F0
:100C8600A87F202018F87F2B2016F322921280CFFF
:100C96007F00B40700500B2428F582E43401F58365
:100CA600E0FF22286E756C6C2900D211120865309F
:100CB60011F8C211780930D50108F60209142D5031
:100CC6004349581208652403B405004001E4900C1A
:100CD600C493120899743A120899D213750904023A
:020CE6000AEA18
:10028100E9D2E7C933E833F892D5EDD2E7CD33ECC3
:0702910033FC5002B2D5223C
:10029800EC30E7100FBF000C0EBE00080DBD0004C7
:1002A8000BEB6014A2D5EB13FCED92E7FD2274FF73
:1002B800FCFDFEFF22E480F8A2D574FF13FC7D80CC
:0302C800E480EFE0
:1002CB00F920E73624F950037907E4F42402FBE51F
:1002DB0082158270021583DBF6E024FB501BE9606C
:1002EB0014E4F0E582158270021583E004F0B40A81
:0D02FB0008E4F0D9EE7401F00A22C2D52209
:10030800ED33EC3392D5FA602AB4FF33EDC2E77BC4
:10031800FF60067A03792DE4227A03793620D50422
:100328007A037931224E614E002B494E46002D4901
:100338004E4600E47A08F0A3DAFC7B00740722C07A
:1003480083C082ECC0E0EDC0E0EEC0E0EFC0E0EAC0
:1003580075F010A4CAABF075F04DA42BFBE435F092
:10036800FCEA2410FAEB34C5FBEC34D9FCEDC2E707
:10037800FF75F056A4F42411C5F0F434C58FF0A429
:100388002AE5F03BE43CF020E714120535D0E0FF05
:10039800D0E0FED0E0FDD0E0FC12016F8014F40440
:1003A800120535D0E0FFD0E0FED0E0FDD0E0FC1231
:1003B8000066D082D083E0FAEDD2E7CD33EC332467
:1003C80082FBE4C3CF33CFCE33CECD33CD33DBF393
:1003D8007B0775F00A846004F0A31B0AE5F0F0A31C
:1003E8008FF0740AA4FFACF08EF0740AA42CFEAC53
:1003F800F050010C8DF0740AA42CFDE435F0F0A344
:05040800DBDE74072299
:10040D000202B6E86480F8E933E83360110460F065
:10041D00ED33EC337009E8FCE9FDEAFEEBFF220455
:10042D0060DED3EB9FEA9EE99DE8C2E78CF0C2F750
:10043D0095F0400CE8CCF8E9CDF9EACEFAEBCFFB1C
:10044D0012028185D0F05804700320D5B3E80470F2
:10045D00075002B2D50202C092D5EC0460F7E4CC8D
:10046D00C0E0C398F8603B94186008400DD0E0FBE5
:10047D00020298E4FBFAC9FC8028E830E406E4C9DE
:10048D00FBE4CAFCE830E305E4C9CACBFCE8540739
:10049D006010F8C3E913F9EA13FAEB13FBEC13FC44
:1004AD00D8F130F52FC3E49CFCEF9BFFEE9AFEEDE7
:1004BD0099FDD0E0FBEF4E4D4C701222DB03020292
:1004CD00BDEC2CFCEF33FFEE33FEED33FDED30E7ED
:1004DD00EB020298EF2BFFEE3AFEED39FDD0E0FB7B
:1004ED0050130BBB00030202C0ED13FDEE13FEEF24
:0804FD0013FFEC13FC0202984E
:100505003F8000004120000042C80000447A0000FE
:10051500461C400047C35000497424004B18968080
:100525004CBEBC205A0E1BCA6753C21C749DC5AE77
:10053500FB60065407601C2323120563EB543860E7
:100545000912054F12055E120066ECF8EDF9EEFA98
:10055500EFCB22EB12055E80F1543803241C900585
:1005650005FE93FC0EEE93FD0EEE930ECE93FF2249
:03000000021612D3
:0C161200787FE4F6D8FD7581600216595F
:10057500BB010689828A83E0225002E722BBFE0284
:09058500E32289828A83E49322B7
:10058E00BB010CE58229F582E5833AF583E0225022
:10059E0006E92582F8E622BBFE06E92582F8E2226C
:0D05AE00E58229F582E5833AF583E4932286
:1005BB00BB010689828A83F0225002F722BBFE011F
:0205CB00F32219
:1005CD00EF8DF0A4A8F0CF8CF0A428CE8DF0A42E42
:0205DD00FE22FC
:1005DF00BC000BBE0029EF8DF084FFADF022E4CC00
:1005EF00F875F008EF2FFFEE33FEEC33FCEE9DECC9
:1005FF00984005FCEE9DFE0FD5F0E9E4CEFD22ED0F
:10060F00F8F5F0EE8420D21CFEADF075F008EF2F58
:10061F00FFED33FD4007985006D5F0F222C398FD49
:05062F000FD5F0EA22E6
:10063400C2D5EC30E709B2D5E4C39DFDE49CFCEEE1
:1006440030E715B2D5E4C39FFFE49EFE1205DFC375
:10065400E49DFDE49CFC80031205DF30D507C3E470
:060664009FFFE49EFE2250
:0E066A00C3E49FFFE49EFEE49DFDE49CFC22A1
:0C067800ECF0A3EDF0A3EEF0A3EFF022F5
:10068400F8E0FBA3A3E0F925F0F0E58215827002FF
:070694001583E0FA38F022A3
:09069B00EBF0A3EAF0A3E9F02260
:1006A400D083D082F8E4937012740193700DA3A3E5
:1006B40093F8740193F5828883E4737402936860F9
:0606C400EFA3A3A380DFF9
:1019AA00EFB40A07740D1219B5740A309811A89980
:1019BA00B8130CC2983098FDA899C298B811F6309D
:0719CA0099FDC299F5992275
:1006CA00E3F5F009E208B5F06D606B80F3E3F5F04D
:1006DA0009E608B5F060605E80F387F009E608B5C0
:1006EA00F054605280F487F009E208B5F048604699
:1006FA0080F488828C8387F009E0A3B5F0386036ED
:10070A0080F488828C8387F009E493A3B5F027608C
:10071A002580F388828C83E3F5F009E0A3B5F0160F
:10072A00601480F388828C83E3F5F009E493A3B51F
:10073A00F004600280F20207F5808580E7808E80EF
:10074A00D2803C8015806C807E809B80B5808B80B7
:10075A00A1804F8070803A02080189828A83ECFA6C
:10076A00E493F5F0A3C8C582C8CCC583CCE493A3AF
:10077A00C8C582C8CCC583CCB5F070606E80E189EB
:10078A00828A83E493F5F0A3E208B5F05E605C80A8
:10079A00F289828A83E0F5F0A3E608B5F04D604B52
:1007AA0080F389828A83E0F5F0A3E208B5F03C6021
:1007BA003A80F389828A83E493F5F0A3E608B5F0D8
:1007CA002A602880F2805389828A83ECFAE493F5BE
:1007DA00F0A3C8C582C8CCC583CCE0A3C8C582C86B
:1007EA00CCC583CCB5F004600280E27FFFB5F0028D
:1007FA000F2240027F012289828A83ECFAE0F5F017
:10080A00A3C8C582C8CCC583CCE0A3C8C582C8CC5E
:10081A00C583CCB5F0D560D380E389828A83ECFAAC
:10082A00E0F5F0A3C8C582C8CCC583CCE493A3C8BD
:10083A00C582C8CCC583CCB5F0B160AF80E288F080
:10084A00ED2402B4040050A3F582EB2402B40400A0
:0B085A0050992323458223900743732D
:10161E00021AEFE493A3F8E493A34003F68001F2D9
:10162E0008DFF48029E493A3F85407240CC8C333CD
:10163E00C4540F4420C8834004F456800146F6DF9C
:10164E00E4800B010204081020408090169EE47E78
:10165E00019360BCA3FF543F30E509541FFEE49391
:10166E00A360010ECF54C025E060A840B8E493A358
:10167E00FAE493A3F8E493A3C8C582C8CAC583CA83
:10168E00F0A3C8C582C8CAC583CADFE9DEE780BE3B
:0117240000C4
:00000001FF
