:0E0A0D00C0F9A4B0999282F8809080A0C0E059
:10074200C102C103C100C101C105C104025A0001B5
:10075200084E0000000000000000103200000000FF
:100762000000000000000000000000001022000055
:100772000000000000000000000000000000015620
:1007820000015900014300014200024400000248F6
:1007920000FA02460000024C001402570000024A0E
:0207A200001441
:1000030030040D754EC6754FFF7550FF7551FF22B5
:10001300E55B455A6009754EC7754FFF7550FF2262
:1009CB00438E0475D72075D6D143AF04D2AF438E77
:0209DB001022E8
:10095D0053A2CFE4F5D8F5E9F5F9F5EAF5FA75D92D
:07096D000175DA10D2AF2280
:10097400759850438E40538EFE53890F758B8F7537
:070984008DFDC2ABD28E22F3
:080A56007F027E27DEFEDFFCBB
:010A5E002275
:06005C0000007F21DFFE21
:01006200227B
:1009EE00120003C290D29112095D1209CB02097452
:0B0A400012060E8F591202D602086B3E
:0D0A1B0030020312054430030312044C2284
:1002D6002004030203ACE559640C60030203ACC2BC
:1002E60004F55A755B01754EC7754FFF7550FFE5EE
:1002F6004745467012900A1693FFF551F552F5538D
:10030600547FF5548F5522AC46AD47E41201717BFC
:100316007B7A14792E783E1200661201AA8E4C8FD3
:100326004D7C277D1012023D740D2FF582740A3E16
:10033600F583E493F551AE4CAF4D7C037DE8120294
:100346003D7C007D0A12023D740D2DF582740A3C37
:10035600F583E493F552AE4CAF4D7C007D641202FA
:100366003D7C007D0A12023D740D2DF582740A3C17
:10037600F583E493F553AE4CAF4D7C007D0A120233
:100386003D7C007D0A12023D740D2DF582740A3CF7
:10039600F583E493547FF554AE4CAF4D7C007D0A53
:1003A60012023D02043DE55B455A700302044BE52B
:1003B60059640C600302044BF55AF55BD204754E82
:1003C600C6754FFF7550FF7551FFAE4AAF4B7C03A4
:1003D6007DE81202927C007D0A120292740D2DF5C0
:1003E60082740A3CF583E493F552AE4AAF4B7C0027
:1003F6007D641202927C007D0A120292740D2DF524
:1004060082740A3CF583E493547FF553AE4AAF4BAE
:100416007C007D0A1202927C007D0A120292740D03
:100426002DF582740A3CF583E493F554AE4AAF4B3E
:100436007C007D0A120292740D2DF582740A3CF539
:0604460083E493F555224A
:100544001208FF5005120A4080F67FCC12003E7F4D
:100554004412003E1208FF5005120A4080F67FCC78
:1005640012003E7FBE12003E1209438F0812094357
:10057400EFFEE508FFFDAC06EC120171E4FBFA792D
:10058400C878401200661201AA8E4A8F4B30047755
:100594007C037DE81202927C007D0A120292740DA3
:1005A4002DF582740A3CF583E493F552AE4AAF4BC1
:1005B4007C007D641202927C007D0A120292740D0A
:1005C4002DF582740A3CF583E493547FF553AE4AC7
:1005D400AF4B7C007D0A1202927C007D0A120292CB
:1005E400740D2DF582740A3CF583E493F554AE4AF8
:1005F400AF4B7C007D0A120292740D2DF582740AB1
:090604003CF583E493F555C202B4
:01060D0022CA
:10044C007E08AF061EEF600CD29012005CC29012B8
:10045C00005C80EED2DEC2D843DA013001083000F5
:10046C0005120A4080F5E55B455A700302053D30E4
:10047C000015900A16E493FFF551F552F553547F8D
:10048C00F5548F5502053DAC46AD47E41201717B26
:10049C007B7A14792E783E1200661201AA8E4C8F4C
:1004AC004D7C277D1012023D740D2FF582740A3E8F
:1004BC00F583E493F551AE4CAF4D7C037DE812020D
:1004CC003D7C007D0A12023D740D2DF582740A3CB0
:1004DC00F583E493F552AE4CAF4D7C007D64120273
:1004EC003D7C007D0A12023D740D2DF582740A3C90
:1004FC00F583E493F553AE4CAF4D7C007D0A1202AC
:10050C003D7C007D0A12023D740D2DF582740A3C6F
:10051C00F583E493547FF554AE4CAF4D7C007D0ACB
:10052C0012023D740D2DF582740A3CF583E493F5AB
:07053C0055C200C201C20319
:010543002295
:10060E0075B0FF53B0F320B5047F0180027F002048
:10061E00B4047E0180027E00EE4F6066120A562000
:10062E00B5047F0180027F0020B4047E0180027E2B
:10063E0000EE4F604DE5B05430FEE5584557703F23
:10064E00F55775580175B0FF53B0CF12005CE5B089
:10065E00540C4206AF06EF24E8601224F460142412
:10066E00FC60162414701875560C7F002275560DFA
:10067E007F00227556107F00227556117F00227F53
:10068E000022E5584557601DC3E55894E8E5579498
:10069E0003E45007F557F558AF5622F557F558E5D0
:0706AE0056240AFF227F0021
:0106B5002222
:10086B00E4FD53A01F7401A805088002C333D8FC14
:10087B00F580900A19E49342A00053A01F744E2DEB
:10088B00F8E6F580A3E49342A0120A567580FF0D9B
:03089B00BD08CFC6
:01089E002237
:0B0A4B001209EE120A40120A1B80F88C
:030023000207F2DF
:1007F200C0E0C0D075D010309819C298742225423A
:10080200F8A69974222542F8E6B40A0575420080DA
:10081200020542309919C29974322543F8E6600DF7
:10082200AF43054374322FF8E6F5998002C205D032
:04083200D0D0E03210
:03003B0002083682
:10083600C0E0C0D075D01830DF04C2DFD20030D897
:100846001FC2D8D201AFFAEFADEAF546EDF5475330
:10085600DAFEC2DE75E90075F90075EA0075FA0080
:05086600D0D0D0E0320B
:030063000207A5EC
:1007A500C0E0E5454544600AE5451545700C15442E
:1007B50080087544017545F4D202E5494548600A4B
:1007C500E5491549700C154880087548037549E8D1
:1007D500D203E558455760120558E558700205578C
:0D07E500455770067557037558E8D0E0328F
:1009B800E4FEC297EF1392A3EFC313FFD2970EBEC4
:0209C80008F035
:0109CA00220A
:10002600C29300C29700D293001209B8AF05120915
:04003600B8C2932297
:10089F00E4FDC29300C29700D293001209B8E4FF9F
:1008AF00C297EDC313FD30A303430580D2970FBF4B
:1008BF0008EEC29300C29700D29700C2A300D2A342
:0308CF0000AF0572
:0108D2002203
:040A2800D2A07F05D4
:080A2C0000AE071FEE70F92275
:0F09FE00D2A1120A28C2A17F05120A2CC2A02280
:0C0A3400C2A1120A28D2A17F05020A2CE0
:10098B00C2A0A20692A17F05120A2C120A28C2A0AD
:07099B00D2A17F05020A2C26
:1009DD00120A28A2A19207C2A07F05120A2CA20713
:0109ED0022E7
:0208D300AD076F
:1008D500E4FCC2A07F05120A2CED30E704D2A1800A
:1008E50002C2A17F05120A2CD2A0ED25E0FD7F05ED
:0908F500120A2C0CBC08DBC2A0A5
:0108FE0022D7
:10092600E4FC120A28ED25E0FD30A103430501C2CF
:0C093600A07F05120A2C0CBC08E8AF05DD
:010942002292
:0409A2007F057E004F
:1009A6007C007D0C12022BEF1FAC0670011E4C70F2
:0209B600F62227
:02003E00AB070E
:10004000E4FAC294EB1392941209A2D294EBC31374
:0C005000FB0ABA08ED7F057E000209A63D
:10094300E4FAC294EBC313FBD294309403430380C1
:090953001209A20ABA08EBAF0375
:01095C002278
:1008FF00C208D2947F0C7E001209A6C2947F507E4C
:10090F00001209A6D2941209A2A29492087F0A7E1D
:06091F00001209A6A20867
:0109250022AF
:10006600EC4D6011E8497017ED33EC3304600DE494
:10007600FCFFFEFD22E933E8330470F80202161293
:1000860001E158046009E4CC248150062850090295
:10009600022028400302021DC0E0EB4A7044B980EA
:1000A60006D0E0FB02020CEF4E701CBD8008EBFF91
:1000B600EAFEE9FD80EBE98DF0A4FEE5F002014FD2
:1000C600E9CDF9EAFEEBFFEF89F0A4FCE5F0CE8975
:1000D600F0A42EFFE435F0CD89F0A42DFEE435F032
:1000E6008067EF4E7005BD80D780C3EF8BF0A4AC60
:1000F600F0EE8BF0A42CFCE435F0F8EF8AF0A42C9B
:10010600E5F038FCE433CB8DF0A42CFCE5F03BF8AD
:10011600EE8AF0A42CFCE5F038F8E433CF89F0A49D
:100126002CFCE5F038CF3400CE89F0A42FFFE5F0A3
:100136003EFEE433C98DF0A42EFEE5F039CD8AF0FB
:10014600A42FFFE5F03EFEE43DFD33D0E0FB500773
:100156000BBB000F020220EC2CFCEF33FFEE33FE4C
:06016600ED33FD0201F87B
:10016C0075F020800E75F010800575F0087D007E0E
:10017C00007F003392D530D5031202C8EC33401007
:10018C00EF33FFEE33FEED33FDEC33FCD5F0ED2217
:0E019C00E5F0247EA2D513CC92E7CDCEFF2253
:1001AA00EDD2E7CD33EC3392D524814006E4FFFE4D
:1001BA00FDFC22FCE4CFCECDCC24E0501174FF80AC
:1001CA00EDC3CC13CCCD13CDCE13CECF13CF047049
:0701DA00F030D5DE0202C87F
:1001E100E9D2E7C933E833F892D5EDD2E7CD33EC64
:0701F10033FC5002B2D522DD
:1001F800EC30E7100FBF000C0EBE00080DBD000468
:100208000BEB6014A2D5EB13FCED92E7FD2274FF13
:10021800FCFDFEFF22E480F8A2D574FF13FC7D806C
:03022800E480EF80
:030000000206B63F
:0C06B600787FE4F6D8FD75815B0206FD3C
:10022B00EF8DF0A4A8F0CF8CF0A428CE8DF0A42EE7
:02023B00FE22A1
:10023D00BC000BBE0029EF8DF084FFADF022E4CCA5
:10024D00F875F008EF2FFFEE33FEEC33FCEE9DEC6E
:10025D00984005FCEE9DFE0FD5F0E9E4CEFD22EDB4
:10026D00F8F5F0EE8420D21CFEADF075F008EF2FFE
:10027D00FFED33FD4007985006D5F0F222C398FDEF
:05028D000FD5F0EA228C
:10029200C2D5EC30E709B2D5E4C39DFDE49CFCEE87
:1002A20030E715B2D5E4C39FFFE49EFE12023DC3C0
:1002B200E49DFDE49CFC800312023D30D507C3E4BB
:0602C2009FFFE49EFE22F6
:0E02C800C3E49FFFE49EFEE49DFDE49CFC2247
:1006C200020A4BE493A3F8E493A34003F68001F2F9
:1006D20008DFF48029E493A3F85407240CC8C33339
:1006E200C4540F4420C8834004F456800146F6DF08
:1006F200E4800B0102040810204080900742E47E4F
:10070200019360BCA3FF543F30E509541FFEE493FC
:10071200A360010ECF54C025E060A840B8E493A3C3
:10072200FAE493A3F8E493A3C8C582C8CAC583CAEE
:10073200F0A3C8C582C8CAC583CADFE9DEE780BEA6
:0107A4000054
:00000001FF
