:101EE70074656D700D0A0074656D703A252E326643
:101EF70027430D0A006C656E0D0A006C656E3A2566
:101F07002E3166636D0D0A00766F6C0D0A00766FD1
:101F17006C3A252E3266560D0A006272696768743C
:101F27000D0A006272696768743A252E3266560D8B
:101F37000A0074696D650D0A0074696D653A252E8E
:101F470030663A252E30663A252E30660D0A006433
:101F57006174650D0A00646174653A252E30662D3B
:101F6700252E30662D252E30660D0A00C0F9A4B047
:101F7700999282F8809080828486888A8C8E818369
:0A1F87008587898B8D8F80A0C0E054
:101D6100012000012100C117C115C113C116C11005
:101D7100C111C112C119C118C11408910000120189
:101D8100010320001071696E69745F77656C6C0DD9
:101D91000A000000000010610000000000000000C7
:101DA100000000000000000001AB0001A90001A635
:101DB1000001AA00018B00018A0001A500018E002B
:101DC10001A40001850001990002AC0000025F033B
:101DD1002002A70000028C0019029A000D028F0058
:101DE1000002AE0026025D0000028300320286007E
:101DF1001F02810000028800120235000102390031
:101E010001023B0000022700000233F830023700D4
:101E110014023F00FA022500FA023D00FA042F00E5
:031E210000271087
:06090600853935853A3603
:10090C00E5356003020E45E536147003020AF31454
:10091C007003020BE6147003020C6D24FE700302CC
:10092C000CF424056003020E45789C76C60876FF0D
:10093C000876FF0876FFC3E53394805003020A2241
:10094C00E49534FBE49533FA7C277D10AF03FE125B
:10095C0005F17C007D0A1205F174732DF582741F6C
:10096C003CF583E493789FF67C037DE8AF03AE02FD
:10097C001205F17C007D0A1205F174732DF5827459
:10098C001F3CF583E49378A0F6C3E49534FBE4951F
:10099C0033FA7C007D64AF03FE1205F17C007D0A06
:1009AC001205F174732DF582741F3CF583E4935496
:1009BC007F78A1F67C007D0AAF03AE021205F17CB4
:1009CC00007D0A1205F174732DF582741F3CF583BA
:1009DC00E49378A2F6C3E49534FFE49533FE7C00EF
:1009EC007D0A1205F174732DF582741F3CF583E4B6
:1009FC009378A3F6754103749C2541F8901F73E41A
:100A0C0093FFE6B5070676FF054180EB749B254105
:100A1C00F876BF020ADAAE33AF347C277D101205AC
:100A2C00F17C007D0A1205F174732DF582741F3C64
:100A3C00F583E493789FF6AE33AF347C037DE812F4
:100A4C0005F17C007D0A1205F174732DF582741F7B
:100A5C003CF583E49378A0F6AE33AF347C007D6430
:100A6C001205F17C007D0A1205F174732DF5827468
:100A7C001F3CF583E493547F78A1F6AE33AF347CFE
:100A8C00007D0A1205F17C007D0A1205F174732DAC
:100A9C00F582741F3CF583E49378A2F6AE33AF3441
:100AAC007C007D0A1205F174732DF582741F3CF5E0
:100ABC0083E49378A3F6754103749C2541F8901F49
:100ACC0073E493FFE6B5070676FF054180EB788E5D
:100ADC00E66003020E4578A4E66003020E45F52C91
:100AEC00752D00752E3322789C76C70876FF087614
:100AFC00FFE52845277019901F7C93FF08F608A680
:100B0C000708A607EF547F08F6E49308F6020BCD0E
:100B1C00AE37AF387C277D101205F174732FF58238
:100B2C00741F3EF583E493789FF6AE37AF387C03A1
:100B3C007DE81205F17C007D0A1205F174732DF528
:100B4C0082741F3CF583E49378A0F6AE37AF387C03
:100B5C00007D641205F17C007D0A1205F174732D81
:100B6C00F582741F3CF583E49378A1F6AE37AF3869
:100B7C007C007D0A1205F17C007D0A1205F174736C
:100B8C002DF582741F3CF583E493547F78A2F6AE66
:100B9C0037AF387C007D0A1205F174732DF5827421
:100BAC001F3CF583E49378A3F6754103749C2541AF
:100BBC00F8901F73E493FFE6B5070676FF054180B6
:100BCC00EB788EE66003020E4578A4E66003020E15
:100BDC0045F52C752D00752E3722789C76C108763C
:100BEC00FF0876FF0876FF0876FFAE3FAF407C002B
:100BFC007D641205F17C007D0A1205F174732DF5EC
:100C0C0082741F3CF583E493547F78A1F6AE3FAF1A
:100C1C00407C007D0A1205F17C007D0A1205F174FE
:100C2C00732DF582741F3CF583E49378A2F6AE3FE6
:100C3C00AF407C007D0A1205F174732DF582741F90
:100C4C003CF583E49378A3F6788EE66003020E45B8
:100C5C0078A4E66003020E45F52C752D00752E3F29
:100C6C0022789C76830876FF0876FF0876FF087654
:100C7C00FFAE25AF267C007D641205F17C007D0A59
:100C8C001205F174732DF582741F3CF583E49354B3
:100C9C007F78A1F6AE25AF267C007D0A1205F17C8B
:100CAC00007D0A1205F174732DF582741F3CF583D7
:100CBC00E49378A2F6AE25AF267C007D0A1205F1EE
:100CCC0074732DF582741F3CF583E49378A3F67846
:100CDC008EE66003020E4578A4E66003020E45F52D
:100CEC002C752D00752E2522789C768E7B407A42B1
:100CFC00790F7800AF32AE31AD30AC2F120682E4F2
:100D0C007B0AFAF9F812068274732BF582741F3A77
:100D1C00F583E493789DF67BA07A8679017800AF11
:100D2C0032AE31AD30AC2F120682E47B0AFAF9F800
:100D3C0012068274732BF582741F3AF583E4937850
:100D4C009EF6E47B107A27F9F8AF32AE31AD30ACB9
:100D5C002F120682E47B0AFAF9F812068274732BBE
:100D6C00F582741F3AF583E493789FF6E47BE87A76
:100D7C0003F9F8AF32AE31AD30AC2F120682E47B02
:100D8C000AFAF9F812068274732BF582741F3AF57D
:100D9C0083E49378A0F6E47B64FAF9F8AF32AE31D1
:100DAC00AD30AC2F120682E47B0AFAF9F8120682F7
:100DBC0074732BF582741F3AF583E49378A1F6E4EF
:100DCC007B0AFAF9F8AF32AE31AD30AC2F12068295
:100DDC00E47B0AFAF9F812068274732BF582741FFD
:100DEC003AF583E49378A2F6E47B0AFAF9F8AF3289
:100DFC00AE31AD30AC2F12068274732BF582741F9A
:100E0C003AF583E49378A3F6754101749C2541F877
:100E1C00901F73E493FFE6B5070DE541C3940850AA
:100E2C000676FF054180E4788EE6700D78A4E670B6
:090E3C0008F52C752D00752E2F10
:010E4500228A
:10240300438E0475D72075D6D143AF04D2AF438E24
:02241300102295
:1023CA0053A2CFE4F5D8F5E9F5F975D90175DA1113
:0323DA00D2AF225D
:10232F00759850438E40538EFE53890F758B8F7562
:0D233F008DFDC2ABD2ACD2AFD28E022446CF
:10000E00538E7F438904E4F58AF58CC28DD2A9D232
:04001E00AFD28C22AF
:1022F300754108AF411541EF6013E541901F7D9390
:0D230300FF74912541F8E6FD12002680E6EA
:0123100022AA
:082492007F027E27DEFEDFFC65
:01249A00221F
:0600030000007F21DFFE7A
:0100090022D4
:1023B40012090CC290D2911223CA12240312000EE5
:0623C40012232F0222F398
:0F243700121AFA121E251223DD12241502218219
:102135003017031221B83015031215863016031215
:102145001BCE301003121C9B30130312227C20126D
:10215500033011031219FA78A4E660031220867879
:1021650099E660031220DF30140312003EE53C457A
:0D2175003B60031217653018031212B522EB
:101E25007885E66003021EB778AAE6B4040975351D
:101E350000753601021ECB78AAE6B40508E4F5352F
:101E4500F536021ECB78AAE6B40808753500753656
:101E550002807378AAE6B4090875350075360380E3
:101E65006578AAE6B40D17852C29852D2A852E2B94
:101E750085353985363A788E760AD205805C78AA1A
:101E8500E6B40C08753500753605804E78AAE6640B
:101E950017704A788EE6704578A4E67040120906F8
:101EA500753500753604D206788576097899760AEF
:101EB500802B78AAE6B40D107885E6167899F67821
:101EC50085E67002760A801278AAE6B4170FC20674
:101ED500853935853A36E47885F612090CE478AA11
:021EE500F622E3
:101586001222A57FCC1223117F441223111222A509
:101596007FCC1223117FBE1223111223838F411297
:1015A6002383EFFEE5417802CEA2E713CE13D8F8E7
:1015B600FF7C007D191205DF8E338F34E536453505
:1015C6006003021762E53320E7030216AAC3E49517
:1015D60034FBE49533FA7C277D10AF03FE1205F148
:1015E6007C007D0A1205F174732DF582741F3CF59B
:1015F60083E493789FF67C037DE8AF03AE02120581
:10160600F17C007D0A1205F174732DF582741F3C7E
:10161600F583E49378A0F6C3E49534FBE49533FAB6
:101626007C007D64AF03FE1205F17C007D0A120585
:10163600F174732DF582741F3CF583E493547F781F
:10164600A1F67C007D0AAF03AE021205F17C007D97
:101656000A1205F174732DF582741F3CF583E49329
:1016660078A2F6C3E49534FFE49533FE7C007D0A48
:101676001205F174732DF582741F3CF583E493789B
:10168600A3F6754203749C2542F8901F73E493FFFA
:10169600E6B5070676FF054280EB749B2542F87691
:1016A600BF021762AE33AF347C277D101205F17C82
:1016B600007D0A1205F174732DF582741F3CF583C3
:1016C600E493789FF6AE33AF347C037DE81205F1E0
:1016D6007C007D0A1205F174732DF582741F3CF5AA
:1016E60083E49378A0F6AE33AF347C007D641205B4
:1016F600F17C007D0A1205F174732DF582741F3C8E
:10170600F583E493547F78A1F6AE33AF347C007D45
:101716000A1205F17C007D0A1205F174732DF5821B
:10172600741F3CF583E49378A2F6AE33AF347C00A5
:101736007D0A1205F174732DF582741F3CF583E45E
:101746009378A3F6754203749C2542F8901F73E4C0
:0E17560093FFE6B5070676FF054280EBC2154D
:011764002262
:10227C007E08C211C212C213AF061EEF600CD290C0
:10228C00120003C29012000380EEE4F5E9F5F9C2E6
:08229C00D8C2DFD2DE43DA01F3
:0122A4002217
:1019FA00201203021ACDAC27AD28E41203097B7C1E
:101A0A007A14792E783E12015E1203428E378F388D
:101A1A00E536640145356003021AF57C277D10120C
:101A2A0005F174732FF582741F3EF583E493789F52
:101A3A00F6AE37AF387C037DE81205F17C007D0AEB
:101A4A001205F174732DF582741F3CF583E49378C3
:101A5A00A0F6AE37AF387C007D641205F17C007DBC
:101A6A000A1205F174732DF582741F3CF583E49311
:101A7A0078A1F6AE37AF387C007D0A1205F17C00FA
:101A8A007D0A1205F174732DF582741F3CF583E407
:101A9A0093547F78A2F6AE37AF387C007D0A1205E0
:101AAA00F174732DF582741F3CF583E49378A3F6E1
:101ABA007F03749C2FF8901F73E49366702D76FF52
:101ACA000F80EF30112575372775380FE536640119
:101ADA0045357017901F7C93FF789FF608A6070874
:0F1AEA00A607EF547F08F6E49308F6C211C21264
:011AF90022CA
:101BCE00D202C2161224557F901222501224267F62
:101BDE00431222501224261224557F9112225012A3
:101BEE00242612234CC21A12239D12234C753F0039
:101BFE008F40AC3FAD40E41203097BFB7AFA79FAD1
:101C0E00783F12015E1203428E3F8F40D21A12238A
:101C1E009D122470E53664024535705DAE3FAF40CF
:101C2E00FC7D641205F17C007D0A1205F174732DA2
:101C3E00F582741F3CF583E493547F78A1F6AE3F92
:101C4E00AF407C007D0A1205F17C007D0A1205F181
:101C5E0074732DF582741F3CF583E49378A2F6AE6F
:101C6E003FAF407C007D0A1205F174732DF582742E
:101C7E001F3CF583E49378A3F6D3E540942CE53F1F
:0D1C8E0094014004D20E8002C20EC2022258
:10218200AC3DAD3EE41203097B6F7A127903783FCE
:1021920012015E1203428F411224557F9012225087
:1021A2001224267F40122250122426AF41122250BE
:0621B20012242602247035
:101C9B00D203C2101224557F901222501224267F99
:101CAB00411222501224261224557F9112225012D7
:101CBB00242612234CC21A12239D12234CAC07E488
:101CCB0012030E7BFB7AFA79FA783F12015E12034C
:101CDB00428E258F26D21A12239D122470E536646C
:101CEB00034535705DAE25AF26FC7D641205F17C96
:101CFB00007D0A1205F174732DF582741F3CF58378
:101D0B00E493547F78A1F6AE25AF267C007D0A12B2
:101D1B0005F17C007D0A1205F174732DF582741F99
:101D2B003CF583E49378A2F6AE25AF267C007D0AC2
:101D3B001205F174732DF582741F3CF583E49378CF
:101D4B00A3F6D3E526942CE52594014004D20C8010
:051D5B0002C20CC203EE
:011D60002260
:0F244600D219E4788BF6E6062471F8E6F59922B0
:102086001224557FA012225012242678A4E6142585
:10209600E0FF122250122426AB2CAA2DA92E1205DF
:1020A60065FF122250122426AB2CAA2DA92E9000D1
:1020B6000112057EFF122250122426122470E478A3
:1020C600A4F6788EE67011C205E53A65367004E529
:0920D600396535600312090C2282
:1020DF001224557FA01222501224267899E6142537
:1020EF00E0FF1222501224261224557FA1122250F3
:1020FF0012242612234CAB29AA2AA92BEF1205ABC7
:10210F00C21A12239D12234CAB29AA2AA92B900085
:10211F0001EF1205BD1224701209067535007536D0
:06212F0004E47899F62299
:10003E00754107AF411541EF6013E541901F859360
:0F004E00FF1221EE74912541F8A60780E6C21437
:01005D002280
:10176500AE3BAF3CE4FCFD78031207228F328E318D
:101775008D308C2FE5366405453560030218B27B44
:10178500407A42790FF8120682E47B0AFAF9F812D8
:10179500068274732BF582741F3AF583E493789D62
:1017A500F67BA07A8679017800AF32AE31AD30ACE8
:1017B5002F120682E47B0AFAF9F812068274732B5B
:1017C500F582741F3AF583E493789EF6E47B107AEC
:1017D50027F9F8AF32AE31AD30AC2F120682E47B7B
:1017E5000AFAF9F812068274732BF582741F3AF51A
:1017F50083E493789FF6E47BE87A03F9F8AF32AE99
:1018050031AD30AC2F120682E47B0AFAF9F81206E4
:101815008274732BF582741F3AF583E49378A0F6EE
:10182500E47B64FAF9F8AF32AE31AD30AC2F120675
:1018350082E47B0AFAF9F812068274732BF5827436
:101845001F3AF583E49378A1F6E47B0AFAF9F8AF39
:1018550032AE31AD30AC2F120682E47B0AFAF9F8CC
:1018650012068274732BF582741F3AF583E493781C
:10187500A2F6E47B0AFAF9F8AF32AE31AD30AC2FFF
:1018850012068274732BF582741F3AF583E49378FC
:10189500A3F67F01749C2FF8901F73E493FEE6B5C1
:1018A500060BEFC39408500576FF0F80E7E4F53B80
:0518B500F53C78A9F6E6
:0118BA00220B
:1012B500D204C21878617C007D007BFF7A1E79E735
:1012C5001208E9EF701730190512243780F87544B4
:1012D500FF75451E7546EEAC33AD34805B78617C99
:1012E500007D007BFF7A1E79FC1208E9EF70223041
:1012F500190512243780F87544FF75451F75460298
:10130500AC37AD38E4120309E4FBFA792078418063
:101315006678617C007D007BFF7A1F790F1208E9F2
:10132500EF702230190512243780F87544FF754592
:101335001F754615AC3FAD40E4120309E4FBFA798D
:10134500C87842803278617C007D007BFF7A1F7906
:10135500211208E9EF702E30190512243780F8752F
:1013650044FF75451F75462AAC25AD26E4120309D1
:10137500E4FBFA79C878421202678F4A8E498D4894
:101385008C4702157778617C007D007BFF7A1F7999
:10139500391208E9EF600302148230190512243767
:1013A50080F87544FF75451F7546407893E6547F70
:1013B500FFC4540FFCE412030EE4FBFA79207841D4
:1013C50012015EC004C005C006C0077893E6540F3D
:1013D500FCE412030EA804A905AA06AB07D007D0A2
:1013E50006D005D00412006D8F4A8E498D488C4772
:1013F5007892E6547FFFC4540FFCE412030EE4FB1D
:10140500FA7920784112015EC004C005C006C00704
:101415007892E6540FFCE412030EA804A905AA0667
:10142500AB07D007D006D005D00412006D8F4E8EC5
:101435004D8D4C8C4B7891E6547FFFC4540FFCE4E2
:1014450012030EE4FBFA7920784112015EC004C054
:1014550005C006C0077891E6540FFCE412030EA8F8
:1014650004A905AA06AB07D007D006D005D00412FB
:10147500006D8F528E518D508C4F02157778617C9F
:10148500007D007BFF7A1F79561208E9EF600302A1
:10149500158330190512243780F87544FF75451FEB
:1014A50075465D7897E6547FFFC4540FFCE412033C
:1014B5000EE4FBFA7920784112015EC004C005C034
:1014C50006C0077897E6540FFCE412030EA804A99A
:1014D50005AA06AB07D007D006D005D00412006DCB
:1014E5008F4A8E498D488C477895E6547FFFC454C2
:1014F5000FFCE412030EE4FBFA7920784112015E39
:10150500C004C005C006C0077895E6540FFCE41278
:10151500030EA804A905AA06AB07D007D006D00577
:10152500D00412006D8F4E8E4D8D4C8C4B7894E609
:10153500547FFFC4540FFCE412030EE4FBFA792038
:10154500784112015EC004C005C006C0077894E664
:10155500540FFCE412030EA804A905AA06AB07D094
:1015650007D006D005D00412006D8F528E518D50D4
:101575008C4F7B007A007971120EA2122446C204A8
:011585002243
:101AFA0075C0FF75B0FF53B0F320C2047F018002A6
:101B0A007F0020B5047E0180027E00EE4FFF20C4D4
:101B1A00047E0180027E00EE4F607278A8E61846C5
:101B2A006003021BCDF6087601A2C233C4333354D4
:101B3A00C0FFA2B5E433C43354E04FFFA2C4E43378
:101B4A00C433333354804FFF75B0FFC2B5E4F5C0D8
:101B5A00E5B0540C4207EF2498601924C4601A2493
:101B6A00FC601B24E4601C24FC601D24647054780F
:101B7A00A676042278A676052278A676082278A682
:101B8A0076092278A6760C2278A6760D2278A7E620
:101B9A00FE08E6FFD394E8EE9403400EE418F60834
:101BAA00F678A6E6240A79AAF722D3EF9402EE94ED
:101BBA0000E478A7400AF608F678A6E678AAF6229C
:031BCA00F608F624
:011BCD0022F5
:1021B800E4FD53A01F7401A805088002C333D8FCAE
:1021C800F580901F8FE49342A00053A01F749C2DAC
:1021D800F8E6F580A3E49342A01224927580FF0DDF
:0521E800BD08CFC21785
:0121ED0022CF
:1023DD0053A01FE520F4F580901F8DE49342A05388
:0323ED00A01F220C
:1024150053A01F852180901F8EE49342A053A01FD7
:012425002294
:0B247C001223B412243712213580F81F
:03000B0002248745
:0B248700C0D075D00878AB06D0D03272
:0300230002201D9B
:10201D00C0E0C0D075D010309836C298788AE6FFEF
:10202D002461F8A69974612FF8E6FFB43F02800F82
:10203D00EFB40A11788A06E62461F87600D2187892
:10204D008A7600800B788A06E6C3940F40027600EC
:10205D00309921C299788BE62471F8E6FF600FF56F
:10206D0099788B06E6C3940F400A76008006788B2C
:09207D007600C219D0D0D0E03287
:03003B000222227C
:10222200C0E0C0D075D01830D813C2D8AFFAEFAD25
:10223200EAF527EDF528D212C2DE53DAFE30DF09C5
:0E224200C2DFD211C2DE53DAFED0D0D0E032BD
:030063000218BBC5
:1018BB00C0E0C0D075D018785EE61846600708E621
:1018CB001618700116D217788DE61846600908E6CF
:1018DB001618700C168009788C7600087632D215A3
:1018EB007890E61846600908E61618700C16800901
:1018FB00788F7600087664D213789BE618466009D9
:10190B0008E61618700C168009789A76000876325D
:10191B00D21678AFE61846600908E61618700C1652
:10192B00800978AE7600087632D2107884E61846B5
:10193B00600908E616187014168011788376000873
:10194B007664788EE66005E61678A4F67887E61856
:10195B0046600908E6161870191680167886760107
:10196B000876F47881760008767D758C00758A0090
:10197B00D28C7882E61846600908E61618701516A0
:10198B008012C28C858C3B858A3C78ABE678A9F6B5
:10199B0078AB76007889E61846600908E616187069
:1019AB000C16800978887600087632D21478ADE66A
:1019BB001846600908E616187016168013785FE64D
:1019CB00FE08E6FF4E600978ACA61E08A61FB20003
:1019DB0078A8E6184660130806E618700106861EFE
:0F19EB004E700778A776030876E9D0D0D0E032A7
:1023F000E4FEC297EF1392A3EFC313FFD2970EBE72
:0224000008F0E2
:0124020022B7
:10002600C29300C29700D293001223F0AF051223A9
:04003600F0C293225F
:1021EE00E4FDC29300C29700D293001223F0E4FFE5
:1021FE00C297EDC313FD30A303430580D2970FBFE3
:10220E0008EEC29300C29700D29700C2A300D2A3D9
:03221E0000AF0509
:01222100229A
:04246400D2A07F057E
:0824680000AE071FEE70F9221F
:0F245500D2A1122464C2A17F05122468C2A02262
:0C247000C2A1122464D2A17F05022468DE
:10239D00C2A0A21A92A17F05122468122464C2A0C1
:0723AD00D2A17F05022468A4
:10242600122464A2A1921AC2A07F05122468A21ADD
:012436002283
:02225000AD07D8
:10225200E4FCC2A07F05122468ED30E704D2A1801D
:1022620002C2A17F05122468D2A0ED25E0FD7F0500
:092272001224680CBC08DBC2A0B8
:01227B002240
:10234C00E4FC122464ED25E0FD30A103430501C239
:0C235C00A07F051224680CBC08E8AF0547
:012368002252
:042369007F057E006E
:10236D00EF7803C333CE33CED8F9FFEF1FAC067031
:06237D00011E4C70F62267
:02231100AD0716
:10231300E4FBC294ED139294122369D294EDC31398
:0C232300FD0BBB08ED7F057E0002236D62
:10238300E4FBC294EDC313FDD29430940343058060
:092393001223690BBB08EBAF0536
:01239C00221E
:1022A500C21AD2947F0C7E0012236DC2947F507E99
:1022B5000012236DD2947F0A7E0012236DA29492A0
:0622C5001A122369A21A9F
:0122CB0022F0
:100066000203AEE86480F8E933E83360110460F017
:10007600ED33EC337009E8FCE9FDEAFEEBFF220400
:1000860060DED3EB9FEA9EE99DE8C2E78CF0C2F7FB
:1000960095F0400CE8CCF8E9CDF9EACEFAEBCFFBC7
:1000A60012037985D0F05804700320D5B3E80470A4
:1000B600075002B2D50203B892D5EC0460F7E4CC3F
:1000C600C0E0C398F8603B94186008400DD0E0FB90
:1000D600020390E4FBFAC9FC8028E830E406E4C990
:1000E600FBE4CAFCE830E305E4C9CACBFCE85407E4
:1000F6006010F8C3E913F9EA13FAEB13FBEC13FCEF
:10010600D8F130F52FC3E49CFCEF9BFFEE9AFEED91
:1001160099FDD0E0FBEF4E4D4C701222DB0302033B
:10012600B5EC2CFCEF33FFEE33FEED33FDED30E79F
:10013600EB020390EF2BFFEE3AFEED39FDD0E0FB2C
:1001460050130BBB00030203B8ED13FDEE13FEEFD5
:0801560013FFEC13FC020390FF
:10015E00EC4D6011E8497017ED33EC3304600DE49B
:10016E00FCFFFEFD22E933E8330470F80203AE1201
:10017E00037958046009E4CC248150062850090202
:10018E0003B82840030203B5C0E0EB4A7044B980BF
:10019E0006D0E0FB0203A4EF4E701CBD8008EBFFFF
:1001AE00EAFEE9FD80EBE98DF0A4FEE5F0020247E0
:1001BE00E9CDF9EAFEEBFFEF89F0A4FCE5F0CE897C
:1001CE00F0A42EFFE435F0CD89F0A42DFEE435F039
:1001DE008067EF4E7005BD80D780C3EF8BF0A4AC67
:1001EE00F0EE8BF0A42CFCE435F0F8EF8AF0A42CA2
:1001FE00E5F038FCE433CB8DF0A42CFCE5F03BF8B5
:10020E00EE8AF0A42CFCE5F038F8E433CF89F0A4A4
:10021E002CFCE5F038CF3400CE89F0A42FFFE5F0AA
:10022E003EFEE433C98DF0A42EFEE5F039CD8AF002
:10023E00A42FFFE5F03EFEE43DFD33D0E0FB50077A
:10024E000BBB000F0203B8EC2CFCEF33FFEE33FEBA
:06025E00ED33FD020390E8
:100264000203B8EC5D046005E8590470030203AEB0
:10027400120379580460F6EC4860F2EC7004FDFE59
:10028400FF22C860DB2481C85009C398600250066D
:100294000203B59850CAF582E9294B4A7005AB822E
:1002A4000203A475F0007C1A7880C3EF9BEE9AEDEC
:1002B40099400DC3EF9BFFEE9AFEED99FDE842F0E5
:1002C400DC23ACF0D0E0FFD0E0FED0E0FDAB822038
:1002D400E7101BEB60BAEC2CFCEF33FFEE33FEEDC2
:1002E40033FD020390E803F830E705C0F075F00031
:1002F400EF2FFFEE33FEED33FD40B830E7C280AAA6
:1003040075F020800E75F010800575F0087D007E74
:10031400007F003392D530D503120714EC3340101C
:10032400EF33FFEE33FEED33FDEC33FCD5F0ED227D
:0E033400E5F0247EA2D513CC92E7CDCEFF22B9
:10034200EDD2E7CD33EC3392D524814006E4FFFEB3
:10035200FDFC22FCE4CFCECDCC24E0501174FF8012
:10036200EDC3CC13CCCD13CDCE13CECF13CF0470AF
:07037200F030D5DE02071494
:100E4600E5582444F8E605582278413021027844D2
:100E5600E475F001120735020565201AEB7F2ED2E4
:100E66001A8018EF540F2490D43440D4FF301E0B50
:100E7600EF24BFB41A0050032461FFE55960021540
:100E860059055CE55C7002055B30210D7841E4751F
:100E9600F001120735EF0205AB0222CC7403D22112
:100EA6008003E4C221F5588B418A428943E4F5590F
:100EB600F55BF55CE55960077F20120E8180F575BC
:100EC6005AFFC21BC21AC21CC21DC21FC220C222A6
:100ED600120E4FFF700D3021057F00120E92AF5C8F
:100EE600AE5B22B4255FC2D5C21E120E4FFF24D0C0
:100EF600B40A00501A75F00A785930D50508B6FFBD
:100F06000106C6A426F620D5047002D21D80D92477
:100F1600CFB41A00EF5004C2E5D21E02117FD21BD5
:100F260080C6D21A80C0D21C80BCD2D580BAD21F4D
:100F360080B47F20120E81201C077401B559004031
:100F4600F1120E46FF120E81020EBAD222D2208074
:100F560095120E46FB120E46FA120E46F94A4B70D1
:100F66000679767A127BFF201C2EE559602A7E00D0
:100F76008E8275830012057E60060EEE655A70F04D
:100F8600C2D5EBC0E0EAC0E0E9C0E0EE1211DFD066
:100F9600E0F9D0E0FAD0E0FB120565FF60AAEBC0ED
:100FA600E0EAC0E0E9C0E0120E81D0E02401F9D009
:100FB600E03400FAD0E0FBE55A0460DCD55AD9806B
:100FC60087D21C80A21211C260F7E55A7001041282
:100FD60003C3A95A600DE55A600914F55A1212693D
:100FE600EF60F3EA30E702F404C3995077EAF42598
:100FF6005A0430E701E404F55A800D1211C260C1AB
:10100600EA055A255A1203C3EA7857F630E701E48F
:10101600255A04D55A04201F01141211DFE4C0E03A
:101026001212697857E6601320E70714F6120E6964
:10103600802204F6D0E014C0E07F00120E69E55A63
:101046006007120E60155A800B301F03120E60D017
:10105600E0020EBAD0E00480C51211C260A0E55AC3
:10106600041203C37857EAF6E55A201F026001040A
:0510760024041211DF4B
:10107B0074FF04C0E0121269120E69E55A201F02B8
:10108B006003120E60D0E0B55AE87F45120E7378FC
:10109B0057E67F2B30E7047F2DF404C0E0120E815E
:1010AB00D0E075F00A84C0F0120E6AD0E0120E6A1E
:1010BB00020EBA791080027908C220C2228008D2AF
:1010CB00D5790A8004790AC2D5E55A047002F55A1B
:1010DB00E4FAFDFEFF120E46FC7B08201B13120EDA
:1010EB0046FD7B10301A0A120E46FE120E46FF7B8F
:1010FB0020EC3382D592D55013C3E4301A069FFFF0
:10110B00E49EFEE4201B039DFDE49CFCE4CBF8C2B3
:10111B001BEC700CCFCECDCCE824F8F870F3801715
:10112B00C3EF33FFEE33FEED33FDEC33FCEB33FB60
:10113B00994002FB0FD8E9EB301B05F8D0E0C4480F
:10114B00B21BC0E00AEC4D4E4F78207B0070C2EA18
:10115B00B55A0040BCC0E01211E1D0F0D0E0201B2A
:10116B0004C4C0E0C4B21BC0F0120E6AD0F0D5F0BC
:10117B00EB020EBA1207450F575310BE580F284CEF
:10118B000F244210C24F10CA4410CA490F3D4310DE
:10119B00D055100146105F450FCB471296500F2CC0
:1011AB002D0F302E0F532B0F34230F5120127F2A6C
:1011BB000EEC4800000F4BE55AB4FF03755A0612AC
:1011CB000E46FC120E46FD120E46FE120E46FF7820
:1011DB00500203F2790AA2D5201D14301F09B91051
:1011EB00020404B9080104A2D520200250010420F6
:1011FB001C68921CB559005034C0E07F20301D197B
:10120B007F30A21C7220721F500F121238C21CC2E8
:10121B0020C21FC2227F30800F301F03E9C0E012B3
:10122B000E81301F03D0E0F9D0E0B559CC301F1739
:10123B007F30B9100C120E817F58301E077F7880DB
:10124B0003B90803120E81301C057F2D020E817F1E
:10125B00202022F87F2B2020F322921C80CF7F00AE
:10126B00B4070050052450F8E6FF22286E756C6C0D
:10127B002900D21B120E46301BF8C21B785930D5F1
:10128B000108F6020EEC2D50434958120E4624036A
:10129B00B405004001E490129193120E72743A124D
:0A12AB000E72D21D7559040210BE28
:10037900E9D2E7C933E833F892D5EDD2E7CD33ECCA
:0703890033FC5002B2D52243
:10039000EC30E7100FBF000C0EBE00080DBD0004CE
:1003A0000BEB6014A2D5EB13FCED92E7FD2274FF7A
:1003B000FCFDFEFF22E480F8A2D574FF13FC7D80D3
:0303C000E480EFE7
:1003C300F920E72824F950037907E4F42402FB1801
:1003D300DBFDE624FB5014E9600DE4F618E604F6B1
:0F03E300B40A08E4F6D9F57401F60A22C2D5224D
:1003F200ED33EC3392D5FA602AB4FF33EDC2E77BDA
:10040200FF60067A047917E4227A04792020D50461
:100412007A04791B224E614E002B494E46002D492B
:100422004E4600E47A08F608DAFC7B00740722E8FC
:10043200C0E0ECC0E0EDC0E0EEC0E0EFC0E0EA7585
:10044200F010A4CAABF075F04DA42BFBE435F0FC20
:10045200EA2410FAEB34C5FBEC34D9FCEDC2E7FF19
:1004620075F056A4F42411C5F0F434C58FF0A42A13
:10047200E5F03BE43CF620E714120525D0E0FFD07E
:10048200E0FED0E0FDD0E0FC1202678014F404121A
:100492000525D0E0FFD0E0FED0E0FDD0E0FC120167
:1004A2005ED0E0F8E6FAEDD2E7CD33EC332482FBFE
:1004B200E4C3CF33CFCE33CECD33CD33DBF37B07A3
:1004C20075F00A846004F6081B0AE5F0F6088FF05E
:1004D200740AA4FFACF08EF0740AA42CFEACF050A7
:1004E200010C8DF0740AA42CFDE435F0F608DBDE75
:0304F2007407226A
:1004F5003F8000004120000042C80000447A00000F
:10050500461C400047C35000497424004B18968090
:100515004CBEBC205A0E1BCA6753C21C749DC5AE87
:10052500FB60065407601C2323120553EB54386007
:100535000912053F12054E12015EECF8EDF9EEFACF
:10054500EFCB22EB12054E80F1543803241C9004A6
:10055500F5FE93FC0EEE93FD0EEE930ECE93FF2269
:03000000021F914B
:0C1F9100787FE4F6D8FD7581AF021FD800
:10056500BB010689828A83E0225002E722BBFE0294
:09057500E32289828A83E49322C7
:10057E00BB010CE58229F582E5833AF583E0225032
:10058E0006E92582F8E622BBFE06E92582F8E2227C
:0D059E00E58229F582E5833AF583E4932296
:1005AB00BB010689828A83F0225002F722BBFE012F
:0205BB00F32229
:1005BD00F8BB010DE58229F582E5833AF583E8F074
:1005CD00225006E92582C8F622BBFE05E92582C820
:0205DD00F22208
:1005DF00EF8DF0A4A8F0CF8CF0A428CE8DF0A42E30
:0205EF00FE22EA
:1005F100BC000BBE0029EF8DF084FFADF022E4CCEE
:10060100F875F008EF2FFFEE33FEEC33FCEE9DECB6
:10061100984005FCEE9DFE0FD5F0E9E4CEFD22EDFC
:10062100F8F5F0EE8420D21CFEADF075F008EF2F46
:10063100FFED33FD4007985006D5F0F222C398FD37
:050641000FD5F0EA22D4
:1006460075F008758200EF2FFFEE33FECD33CDCC6B
:1006560033CCC58233C5829BED9AEC99E5829840EE
:100666000CF582EE9BFEED9AFDEC99FC0FD5F0D6CB
:10067600E4CEFBE4CDFAE4CCF9A88222B800C1B9F5
:100686000059BA002DEC8BF084CFCECDFCE5F0CB33
:10069600F97818EF2FFFEE33FEED33FDEC33FCEB6C
:1006A60033FB10D703994004EB99FB0FD8E5E4F927
:1006B600FA227818EF2FFFEE33FEED33FDEC33FC14
:1006C600C933C910D7059BE99A4007EC9BFCE99A08
:1006D600F90FD8E0E4C9FAE4CCFB2275F010EF2F4D
:1006E600FFEE33FEED33FDCC33CCC833C810D7074D
:1006F6009BEC9AE899400AED9BFDEC9AFCE899F888
:0E0706000FD5F0DAE4CDFBE4CCFAE4C8F9221A
:0E071400C3E49FFFE49EFEE49DFDE49CFC22F6
:10072200E8600FEFC333FFEE33FEED33FDEC33FC35
:03073200D8F122D9
:10073500FAE6FB0808E6F925F0F618E6CA3AF622C5
:10074500D083D082F8E4937012740193700DA3A343
:1007550093F8740193F5828883E473740293686057
:06076500EFA3A3A380DF57
:1022CC00EFB40A07740D1222D7740A309811A8992A
:1022DC00B8130CC2983098FDA899C298B811F63072
:0722EC0099FDC299F599224A
:10076B00E3F5F009E208B5F06D606B80F3E3F5F0AB
:10077B0009E608B5F060605E80F387F009E608B51E
:10078B00F054605280F487F009E208B5F0486046F7
:10079B0080F488828C8387F009E0A3B5F03860364B
:1007AB0080F488828C8387F009E493A3B5F02760EB
:1007BB002580F388828C83E3F5F009E0A3B5F0166E
:1007CB00601480F388828C83E3F5F009E493A3B57E
:1007DB00F004600280F2020896808580E7808E80AC
:1007EB00D2803C8015806C807E809B80B5808B8016
:1007FB00A1804F8070803A0208A289828A83ECFA2A
:10080B00E493F5F0A3C8C582C8CCC583CCE493A30D
:10081B00C8C582C8CCC583CCB5F070606E80E18949
:10082B00828A83E493F5F0A3E208B5F05E605C8006
:10083B00F289828A83E0F5F0A3E608B5F04D604BB0
:10084B0080F389828A83E0F5F0A3E208B5F03C607F
:10085B003A80F389828A83E493F5F0A3E608B5F036
:10086B002A602880F2805389828A83ECFAE493F51C
:10087B00F0A3C8C582C8CCC583CCE0A3C8C582C8C9
:10088B00CCC583CCB5F004600280E27FFFB5F002EB
:10089B000F2240027F012289828A83ECFAE0F5F075
:1008AB00A3C8C582C8CCC583CCE0A3C8C582C8CCBD
:1008BB00C583CCB5F0D560D380E389828A83ECFA0B
:1008CB00E0F5F0A3C8C582C8CCC583CCE493A3C81C
:1008DB00C582C8CCC583CCB5F0B160AF80E288F0DF
:1008EB00ED2402B4040050A3F582EB2402B40400FF
:0B08FB00509923234582239007E473EB
:101F9D0002247CE493A3F8E493A34003F68001F2BA
:101FAD0008DFF48029E493A3F85407240CC8C33345
:101FBD00C4540F4420C8834004F456800146F6DF14
:101FCD00E4800B0102040810204080901D61E47E26
:101FDD00019360BCA3FF543F30E509541FFEE49309
:101FED00A360010ECF54C025E060A840B8E493A3D0
:101FFD00FAE493A3F8E493A3C8C582C8CAC583CAFB
:10200D00F0A3C8C582C8CAC583CADFE9DEE780BEB2
:011E240000BD
:00000001FF
