:1017CD0074656D700D0A0074656D703A252E326664
:1017DD0027430D0A006C656E0D0A006C656E3A2587
:1017ED002E3166636D0D0A00766F6C0D0A00766FF3
:1017FD006C3A252E3266560D0A006272696768745E
:10180D000D0A006272696768743A252E3266560DAC
:10181D000A00C0F9A4B0999282F8809080A0C0E02F
:1016D600012000012100C11CC11DC11EC119C11A72
:1016E600C11BC120C11F014F0108520000000000AC
:1016F6000000001039696E69745F77656C6C0D0ABD
:10170600000000000010290000000000000000009A
:1017160000000000000000015B00015E00014A00BD
:10172600014900015A0002270000025C0000024B3A
:1017360000FA0250007D024D0000025F017702258B
:101746000000420134001442013600FA4201300022
:06175600FA42013200140A
:1018A700784FE614601014601314601C240370282A
:1018B700785276C6800D785276C78016785276C1F0
:1018C7000876FF0876FF800A785276830876FF0845
:0918D70076FF0876FF0876FF2277
:101AB200438E0475D72075D6D143AF04D2AF438E7F
:021AC2001022F0
:101A790053A2CFE4F5D8F5E9F5F975D90175DA116D
:031A8900D2AF22B7
:10000300759850438E40538EFE53890F758B8F75B1
:0D0013008DFDC2ABD2ACD2AFD28E021AF678
:081B37007F027E27DEFEDFFCC9
:011B3F002283
:061B400000007F21DFFE22
:011B4600227C
:101AE6001218A7C290D291121A79121AB2020003E2
:101A8C001211F5785EA607120CE812182D121A9F87
:031A9C00021AC467
:10196D00301C031212F3301E031213E6301903124A
:10197D0014CC301D03121944201B03301A03120F0F
:08198D00C5301F031210E02217
:100CE800785EE6FA64046003020DE3784F760178D3
:100CF8005276C70876FF0876FF7828E618467018F7
:100D080090182893FF7855F608A60708A607EF5409
:100D18007F08F6E49308F622900134E0FEA3E0FF92
:100D28007C277D101205DF741F2FF58274183EF59D
:100D380083E4937855F6900134E0FEA3E0FF7C034A
:100D48007DE81205DF7C007D0A1205DF741F2DF592
:100D58008274183CF583E4937856F6900134E0FEEB
:100D6800A3E0FF7C007D641205DF7C007D0A12058C
:100D7800DF741F2DF58274183CF583E4937857F6D9
:100D8800900134E0FEA3E0FF7C007D0A1205DF7CC1
:100D9800007D0A1205DF741F2DF58274183CF58357
:100DA800E493547F7858F6900134E0FEA3E0FF7C8A
:100DB800007D0A1205DF741F2DF58274183CF58337
:100DC800E4937859F67B0374522BF890181FE49338
:100DD800666003020FC476FF0B80ECEA64056003CB
:100DE800020EB4784FF6785276C60876FF0876FF7A
:100DF8000876FF900132E0FEA3E0FF7C037DE81255
:100E080006347C007D0A120634741F2DF58274188E
:100E18003CF583E4937856F6900132E0FEA3E0FFB8
:100E28007C007D641206347C007D0A120634741F2F
:100E38002DF58274183CF583E493547F7857F69027
:100E48000132E0FEA3E0FF7C007D0A1206347C003C
:100E58007D0A120634741F2DF58274183CF583E45C
:100E6800937858F6900132E0FEA3E0FF7C007D0AFB
:100E7800120634741F2DF58274183CF583E49378B8
:100E880059F67B0374522BF890181FE493FFE6B5CC
:100E9800070576FF0B80EDC3900132E064809480F3
:100EA8004003020FC474502BF876BF22785EE664C4
:100EB800086003020F3C784F7602785276C10876B4
:100EC800FF0876FF0876FF0876FF900136E0FEA35C
:100ED800E0FF7C007D641205DF7C007D0A1205DFDF
:100EE800741F2DF58274183CF583E493547F78576A
:100EF800F6900136E0FEA3E0FF7C007D0A1205DFD4
:100F08007C007D0A1205DF741F2DF58274183CF5EC
:100F180083E4937858F6900136E0FEA3E0FF7C0066
:100F28007D0A1205DF741F2DF58274183CF583E4E1
:100F3800937859F6785EE664096003020FC4784F27
:100F48007603785276830876FF0876FF0876FF08DE
:100F580076FF900130E0FEA3E0FF7C007D6412057F
:100F6800DF7C007D0A1205DF741F2DF58274183CA2
:100F7800F583E493547F7857F6900130E0FEA3E0C0
:100F8800FF7C007D0A1205DF7C007D0A1205DF74F4
:100F98001F2DF58274183CF583E4937858F6900178
:100FA80030E0FEA3E0FF7C007D0A1205DF741F2DF0
:0C0FB800F58274183CF583E4937859F638
:010FC400220A
:1012F300D2001219BC5005121A8C80F67FCC121939
:10130300957F441219951219BC5005121A8C80F658
:101313007FCC1219957FBE12199512003E900100E1
:10132300EFF012003EEFFE900100E0FDEDFFAC0692
:10133300EC120211E4FBFA79C8784012006612023B
:101343004A900132EEF0A3EFF0784FE66003021308
:10135300E1900132E0FAA3E0FB7C037DE8FFAE02FB
:101363001206347C007D0A120634741F2DF5827434
:10137300183CF583E4937856F67C007D64AF03AEA6
:10138300021206347C007D0A120634741F2DF58286
:1013930074183CF583E493547F7857F6900132E058
:1013A300FAA3E0FB7C007D0AFFAE021206347C0048
:1013B3007D0A120634741F2DF58274183CF583E4FC
:1013C300937858F67C007D0AAF03AE02120634749C
:1013D3001F2DF58274183CF583E4937859F6C21CEB
:0213E300C20046
:0113E50022E5
:101944007E08C21AC21BC21DAF061EEF600CD290E5
:10195400121B40C290121B4080EEE4F5E9F5F9C277
:08196400D8C2DFD2DE43DA0134
:01196C002258
:100FC500201B030210B47827E6FC08E6FDE41202B4
:100FD500117B7B7A14792E783E12006612024A90B4
:100FE5000134EEF0A3EFF0784FE6640160030210E0
:100FF500DF900134E0FAA3E0FB7C277D10FFAE0211
:101005001205DF741F2FF58274183EF583E493787B
:1010150055F67C037DE8AF03AE021205DF7C007D4B
:101025000A1205DF741F2DF58274183CF583E493CD
:101035007856F6900134E0FAA3E0FB7C007D64FF6E
:10104500AE021205DF7C007D0A1205DF741F2DF547
:101055008274183CF583E4937857F67C007D0AAFDB
:1010650003AE021205DF7C007D0A1205DF741F2D19
:10107500F58274183CF583E493547F7858F6900113
:1010850034E0FEA3E0FF7C007D0A1205DF741F2D0E
:10109500F58274183CF583E4937859F67F0374520E
:1010A5002FF890181FE49366703076FF0F80EF30AD
:1010B5001A289001347427F0A3740FF0784FE66472
:1010C50001701790182893FF7855F608A60708A60B
:0A10D50007EF547F08F6E49308F6D5
:0110DF0022EE
:1013E600D202121B057F901218E0121AD57F031243
:1013F60018E0121AD5121B057F911218E0121AD5A1
:10140600121A0AC210121A4C121A0A7E00900136DB
:10141600EEF0A3EFF0FD7C00E4120211E4FBFA7992
:10142600FA7843120066E4FBFA797F784312016F7B
:1014360012024A900136EEF0A3EFF0121B20784F0D
:10144600E664027069900136E0FAA3E0FB7C007D59
:1014560064FFAE021205DF7C007D0A1205DF741FF1
:101466002DF58274183CF583E493547F7857F67C07
:10147600007D0AAF03AE021205DF7C007D0A12056D
:10148600DF741F2DF58274183CF583E4937858F6C3
:10149600900136E0FEA3E0FF7C007D0A1205DF74B2
:1014A6001F2DF58274183CF583E4937859F6D39092
:1014B6000137E0942C900136E094014004D20E806E
:0614C60002C20EC2022268
:1014CC00D203121B057F901218E0121AD57F01125D
:1014DC0018E0121AD5121B057F911218E0121AD5BA
:1014EC00121A0AC210121A4C121A0A7E00900130FB
:1014FC00EEF0A3EFF0FD7C00E4120211E4FBFA79AC
:10150C00FA7843120066E4FBFA797F784312016F94
:10151C0012024A900130EEF0A3EFF0121B20784F2C
:10152C00E664037069900130E0FAA3E0FB7C007D77
:10153C0064FFAE021205DF7C007D0A1205DF741F0A
:10154C002DF58274183CF583E493547F7857F67C20
:10155C00007D0AAF03AE021205DF7C007D0A120586
:10156C00DF741F2DF58274183CF583E4937858F6DC
:10157C00900130E0FEA3E0FF7C007D0A1205DF74D1
:10158C001F2DF58274183CF583E4937859F6D390AB
:10159C000131E0942C900130E094014004D20C8095
:0615AC0002C20CC2032282
:0F1AF600D220E4784AF6E6062439F8E6F599227C
:1010E000D204C21F78297C007D007BFF7A1779CD5E
:1010F000120848EF3395E04F7021302005121A8C0A
:1011000080F890010374FFF0A37417F0A374D4F077
:10111000900132E0FCA3E0FDEC807778297C007D33
:10112000007BFF7A1779E2120848EF3395E04F70A1
:101130002C302005121A8C80F890010374FFF0A364
:101140007417F0A374E8F0900134E0FCA3E0FDE430
:10115000120211E4FBFA792078410211DD78297C32
:10116000007D007BFF7A1779F5120848EF3395E090
:101170004F702B302005121A8C80F890010374FFF9
:10118000F0A37417F0A374FBF0900136E0FCA3E029
:10119000FDE4120211E4FBFA79C87842803F782915
:1011A0007C007D007BFF7A187907120848EF3395A1
:1011B000E04F703E302005121A8C80F890010374C5
:1011C000FFF0A37418F0A37410F0900130E0FCA3BA
:1011D000E0FDE4120211E4FBFA79C8784212016FD3
:1011E0009001061206787B007A0079391208CA123B
:0511F0001AF6C2042202
:1011F50075C0FF75B0FF53B0F320B5047F018002C1
:101205007F0020B4047E0180027E00EE4FFF20C2E5
:10121500047E0180027E00EE4FFF20C4047E018023
:10122500027E00EE4F70030212BC785DE618466040
:10123500030212B9F6087601E5B05430FEA2C2E405
:1012450033C4333354C04EFEA2C4E433FFC4333336
:101255003354804EFE75B0FF53B0CFE4F5C0121B7A
:1012650040E5B0540C4E2488602224C4602424FC3C
:10127500602624E4602824FC602A24F4602C24FCE5
:10128500602E2474702E785B76048028785B760552
:101295008022785B7608801C785B76098016785BFF
:1012A500760C8010785B760D800A785B761080046A
:1012B500785B76117F0022785CE6FE08E6FF4E60DB
:1012C5002AC3EF94E8EE9403500AE418F608F6787A
:1012D5005BE6FF22D3785DE6940218E69400400BA6
:0D12E500E4F608F6785BE6240AFF227F009D
:0112F20022D9
:10182D00E4FDEDC3940874809480503053A01FA83C
:10183D00057401088002C333D8FCF58090182BE4A1
:10184D009342A00053A01F74522DF8E6F580A3E437
:0C185D009342A0121B377580FF0D80C65F
:01186900225C
:101A9F0053A01FE520F4F580901829E49342A0533A
:031AAF00A01F2253
:101AC40053A01F85218090182AE49342A053A01F9D
:011AD40022EF
:0B1B2C00121AE6121A8C12196D80F8D4
:0300230002175D64
:10175D00C0E0C0D075D01030983AC2987849E6FFF5
:10176D002429F8A69974292FF8E6FFB43F02800FBB
:10177D00EFB40A11784906E62429F87600D21F78CD
:10178D00497600800F784906E6C3940F74809480E3
:10179D0040027600309924C299784AE62439F8E659
:1017AD006013F599784A06E6C3940F7480948040CF
:1017BD000A76008006784A7600C220D0D0D0E0327A
:03003B0002191592
:10191500C0E0C0D075D01830D814C2D8AFFAEFAD3A
:10192500EA7827F6ED08F6D21BC2DE53DAFE30DF81
:0F19350009C2DFD21AC2DE53DAFED0D0D0E032C0
:030063000215B2D1
:1015B200C0E0C0D075D0187826E61846600708E665
:1015C2001618700116784CE61846600908E61618D7
:1015D200700C168009784B76010876F4D21C784E8E
:1015E200E61846600908E61618700C168009784D50
:1015F20076030876E8D21D7851E61846600908E6B7
:101602001618700C168009785076010876F4D21EEE
:101612007860E61846600908E61618700C1680090C
:10162200785F76010876F4D219785DE61846601381
:101632000806E618700106861E4E7007785C76036F
:081642000876E8D0D0D0E032B8
:101A3000E4FEEEC3940874809480500FC297EF13B5
:0B1A400092A3EFC313FFD2970E80E7C4
:011A4B002278
:10002600C29300C29700D29300121A30AF05121A7B
:0400360030C293221F
:10186A00E4FDC29300C29700D29300121A30E4FF3B
:10187A00EFC39408748094805011C297EDC313FD8E
:10188A0030A3034480FDD2970F80E5C29300C2972C
:0C189A0000D29700C2A300D2A300AF054B
:0118A600221F
:041B1400D2A07F05D7
:081B180000AE071FEE70F92278
:0F1B0500D2A1121B14C2A17F05121B18C2A0226D
:0C1B2000C2A1121B14D2A17F05021B18E9
:101A4C00C2A0A21092A17F05121B18121B14C2A0D7
:071A5C00D2A17F05021B1857
:101AD500121B14A2A19210C2A07F05121B18A210FE
:011AE50022DE
:0218E000AD0752
:1018E200E4FCECC39408748094805024C2A07F0569
:1018F200121B18ED30E704D2A18002C2A17F0512AB
:101902001B18D2A0ED25E0FD7F05121B180C80D21A
:02191200C2A071
:0119140022B0
:101A0A00E4FCECC39408748094805017121B14ED04
:101A1A0025E0FD30A1034401FDC2A07F05121B1879
:051A2A000C80DFAF0598
:011A2F002294
:041A63007F057E007D
:101A67007C007D0C1205CDEF1FAC0670011E4C707B
:021A7700F62255
:02199500AB079E
:10199700E4FAEAC39408748094805012C294EB135B
:1019A7009294121A63D294EBC313FB0A80E47F0567
:0519B7007E00021A672A
:10003E00E4FAEAC39408748094805014C294EBC31B
:10004E0013FBD2943094034480FB121A630A80E2AD
:02005E00AF03EE
:01006000227D
:1019BC00C210D2947F0C7E00121A67C2947F507EA4
:1019CC0000121A67D294121A63A29492107F0A7EA4
:0619DC0000121A67A210C0
:0119E20022E2
:10006600EC4D6011E8497017ED33EC3304600DE494
:10007600FCFFFEFD22E933E8330470F80202B612F3
:10008600028158046009E4CC2481500628500902F4
:1000960002C02840030202BDC0E0EB4A7044B980AA
:1000A60006D0E0FB0202ACEF4E701CBD8008EBFFF1
:1000B600EAFEE9FD80EBE98DF0A4FEE5F002014FD2
:1000C600E9CDF9EAFEEBFFEF89F0A4FCE5F0CE8975
:1000D600F0A42EFFE435F0CD89F0A42DFEE435F032
:1000E6008067EF4E7005BD80D780C3EF8BF0A4AC60
:1000F600F0EE8BF0A42CFCE435F0F8EF8AF0A42C9B
:10010600E5F038FCE433CB8DF0A42CFCE5F03BF8AD
:10011600EE8AF0A42CFCE5F038F8E433CF89F0A49D
:100126002CFCE5F038CF3400CE89F0A42FFFE5F0A3
:100136003EFEE433C98DF0A42EFEE5F039CD8AF0FB
:10014600A42FFFE5F03EFEE43DFD33D0E0FB500773
:100156000BBB000F0202C0EC2CFCEF33FFEE33FEAC
:06016600ED33FD020298DA
:10016C000202C0EC5D046005E8590470030202B69B
:10017C00120281580460F6EC4860F2EC7004FDFE4B
:10018C00FF22C860DB2481C85009C3986002500666
:10019C000202BD9850CAF582E9294B4A7005AB8220
:1001AC000202AC75F0007C1A7880C3EF9BEE9AEDDE
:1001BC0099400DC3EF9BFFEE9AFEED99FDE842F0DE
:1001CC00DC23ACF0D0E0FFD0E0FED0E0FDAB822031
:1001DC00E7101BEB60BAEC2CFCEF33FFEE33FEEDBB
:1001EC0033FD020298E803F830E705C0F075F00023
:1001FC00EF2FFFEE33FEED33FD40B830E7C280AA9F
:10020C0075F020800E75F010800575F0087D007E6D
:10021C00007F003392D530D50312066AEC334010C0
:10022C00EF33FFEE33FEED33FDEC33FCD5F0ED2276
:0E023C00E5F0247EA2D513CC92E7CDCEFF22B2
:10024A00EDD2E7CD33EC3392D524814006E4FFFEAC
:10025A00FDFC22FCE4CFCECDCC24E0501174FF800B
:10026A00EDC3CC13CCCD13CDCE13CECF13CF0470A8
:07027A00F030D5DE02066A38
:10086500E5082403F582E43401F583E005082290C8
:100875000100301703900103E475F00112068402AC
:1008850005752010E97F2ED2108018EF540F2490A3
:10089500D43440D4FF30140BEF24BFB41A005003F6
:1008A5002461FFE50960021509050CE50C700205D8
:1008B5000B30170E900100E475F001120684EF026B
:1008C50005BB0219E37403D2178003E4C217F508C8
:1008D50090010012069BE4F509F50BF50CE509609E
:1008E500077F201208A880F5750AFFC211C210C241
:1008F50012C213C215C216C218120874FF700D3049
:1009050017057F001208B9AF0CAE0B22B4255FC2E4
:10091500D5C214120874FF24D0B40A00501A75F019
:100925000A780930D50508B6FF0106C6A426F620C3
:10093500D5047002D21380D924CFB41A00EF500425
:10094500C2E5D214020BABD21180C6D21080C0D240
:100955001280BCD2D580BAD21580B47F201208A8E7
:100965002012077401B5090040F1120865FF12084D
:10097500A80208E2D218D2168095120865FB120863
:1009850065FA120865F94A4B700679A97A0C7BFF5E
:1009950020122EE509602A7E008E827583001205DD
:1009A5008E60060EEE650A70F0C2D5EBC0E0EAC0B7
:1009B500E0E9C0E0EE120C0CD0E0F9D0E0FAD0E0AE
:1009C500FB120575FF60AAEBC0E0EAC0E0E9C0E0F4
:1009D5001208A8D0E02401F9D0E03400FAD0E0FBF9
:1009E500E50A0460DCD50AD98087D21280A2120BF1
:1009F500EE60F7E50A7001041202CBA90A600DE565
:100A05000A600914F50A120C96EF60F3EA30E70262
:100A1500F404C3995079EAF4250A0430E701E404A3
:100A2500F50A800D120BEE60C1EA050A250A1202CD
:100A3500CBEA90012FF030E701E4250A04D50A043A
:100A450020150114120C0CE4C0E0120C9690012F35
:100A5500E0601320E70714F0120890802204F0D01C
:100A6500E014C0E07F00120890E50A6007120887CD
:100A7500150A800B301503120887D0E00208E2D072
:100A8500E00480C4120BEE609EE50A041202CB90CE
:100A9500012FEAF0E50A2015026001042404120C76
:010AA5000C44
:100AA60074FF04C0E0120C96120890E50A201502A5
:100AB6006003120887D0E0B50AE87F4512089A90CD
:100AC600012FE07F2B30E7047F2DF404C0E01208ED
:100AD600A8D0E075F00A84C0F0120891D0E01208A0
:100AE600910208E2791080027908C216C2188008BD
:100AF600D2D5790A8004790AC2D5E50A047002F5CE
:100B06000AE4FAFDFEFF120865FC7B0820111312A9
:100B16000865FD7B1030100A120865FE120865FF95
:100B26007B20EC3382D592D55013C3E43010069F58
:100B3600FFE49EFEE42011039DFDE49CFCE4CBF85B
:100B4600C211EC700CCFCECDCCE824F8F870F3804F
:100B560017C3EF33FFEE33FEED33FDEC33FCEB331F
:100B6600FB994002FB0FD8E9EB301105F8D0E0C441
:100B760048B211C0E00AEC4D4E4F78207B0070C29F
:100B8600EAB50A0040BCC0E0120C0ED0F0D0E0205E
:100B96001104C4C0E0C4B211C0F0120891D0F0D55F
:100BA600F0EB0208E21206A4097F530AEA5809503C
:100BB6004C094C420AEE4F0AF6440AF649096543C7
:100BC6000AFC550A29460A894509F3470CC9500902
:100BD600542D09582E097B2B095C230979200CB268
:100BE6002A09144800000973E50AB4FF03750A06CA
:100BF600120865FC120865FD120865FE120865FFFD
:100C0600900128020308790AA2D520131430150989
:100C1600B910020404B9080104A2D5201602500135
:100C2600042012689212B509005034C0E07F2030CB
:100C360013197F30A21272167215500F120C65C26C
:100C460012C216C215C2187F30800F301503E9C0D4
:100C5600E01208A8301503D0E0F9D0E0B509CC3091
:100C660015177F30B9100C1208A87F583014077F6B
:100C7600788003B908031208A83012057F2D0208F0
:100C8600A87F202018F87F2B2016F322921280CFFF
:100C96007F00B40700500B2428F582E43401F58365
:100CA600E0FF22286E756C6C2900D211120865309F
:100CB60011F8C211780930D50108F60209142D5031
:100CC6004349581208652403B405004001E4900C1A
:100CD600C493120899743A120899D213750904023A
:020CE6000AEA18
:10028100E9D2E7C933E833F892D5EDD2E7CD33ECC3
:0702910033FC5002B2D5223C
:10029800EC30E7100FBF000C0EBE00080DBD0004C7
:1002A8000BEB6014A2D5EB13FCED92E7FD2274FF73
:1002B800FCFDFEFF22E480F8A2D574FF13FC7D80CC
:0302C800E480EFE0
:1002CB00F920E73624F950037907E4F42402FBE51F
:1002DB0082158270021583DBF6E024FB501BE9606C
:1002EB0014E4F0E582158270021583E004F0B40A81
:0D02FB0008E4F0D9EE7401F00A22C2D52209
:10030800ED33EC3392D5FA602AB4FF33EDC2E77BC4
:10031800FF60067A03792DE4227A03793620D50422
:100328007A037931224E614E002B494E46002D4901
:100338004E4600E47A08F0A3DAFC7B00740722C07A
:1003480083C082ECC0E0EDC0E0EEC0E0EFC0E0EAC0
:1003580075F010A4CAABF075F04DA42BFBE435F092
:10036800FCEA2410FAEB34C5FBEC34D9FCEDC2E707
:10037800FF75F056A4F42411C5F0F434C58FF0A429
:100388002AE5F03BE43CF020E714120535D0E0FF05
:10039800D0E0FED0E0FDD0E0FC12016F8014F40440
:1003A800120535D0E0FFD0E0FED0E0FDD0E0FC1231
:1003B8000066D082D083E0FAEDD2E7CD33EC332467
:1003C80082FBE4C3CF33CFCE33CECD33CD33DBF393
:1003D8007B0775F00A846004F0A31B0AE5F0F0A31C
:1003E8008FF0740AA4FFACF08EF0740AA42CFEAC53
:1003F800F050010C8DF0740AA42CFDE435F0F0A344
:05040800DBDE74072299
:10040D000202B6E86480F8E933E83360110460F065
:10041D00ED33EC337009E8FCE9FDEAFEEBFF220455
:10042D0060DED3EB9FEA9EE99DE8C2E78CF0C2F750
:10043D0095F0400CE8CCF8E9CDF9EACEFAEBCFFB1C
:10044D0012028185D0F05804700320D5B3E80470F2
:10045D00075002B2D50202C092D5EC0460F7E4CC8D
:10046D00C0E0C398F8603B94186008400DD0E0FBE5
:10047D00020298E4FBFAC9FC8028E830E406E4C9DE
:10048D00FBE4CAFCE830E305E4C9CACBFCE8540739
:10049D006010F8C3E913F9EA13FAEB13FBEC13FC44
:1004AD00D8F130F52FC3E49CFCEF9BFFEE9AFEEDE7
:1004BD0099FDD0E0FBEF4E4D4C701222DB03020292
:1004CD00BDEC2CFCEF33FFEE33FEED33FDED30E7ED
:1004DD00EB020298EF2BFFEE3AFEED39FDD0E0FB7B
:1004ED0050130BBB00030202C0ED13FDEE13FEEF24
:0804FD0013FFEC13FC0202984E
:100505003F8000004120000042C80000447A0000FE
:10051500461C400047C35000497424004B18968080
:100525004CBEBC205A0E1BCA6753C21C749DC5AE77
:10053500FB60065407601C2323120563EB543860E7
:100545000912054F12055E120066ECF8EDF9EEFA98
:10055500EFCB22EB12055E80F1543803241C900585
:1005650005FE93FC0EEE93FD0EEE930ECE93FF2249
:0300000002164A9B
:0C164A00787FE4F6D8FD758160021691EF
:10057500BB010689828A83E0225002E722BBFE0284
:09058500E32289828A83E49322B7
:10058E00BB010CE58229F582E5833AF583E0225022
:10059E0006E92582F8E622BBFE06E92582F8E2226C
:0D05AE00E58229F582E5833AF583E4932286
:1005BB00BB010689828A83F0225002F722BBFE011F
:0205CB00F32219
:1005CD00EF8DF0A4A8F0CF8CF0A428CE8DF0A42E42
:0205DD00FE22FC
:1005DF00BC000BBE0029EF8DF084FFADF022E4CC00
:1005EF00F875F008EF2FFFEE33FEEC33FCEE9DECC9
:1005FF00984005FCEE9DFE0FD5F0E9E4CEFD22ED0F
:10060F00F8F5F0EE8420D21CFEADF075F008EF2F58
:10061F00FFED33FD4007985006D5F0F222C398FD49
:05062F000FD5F0EA22E6
:10063400C2D5EC30E709B2D5E4C39DFDE49CFCEEE1
:1006440030E715B2D5E4C39FFFE49EFE1205DFC375
:10065400E49DFDE49CFC80031205DF30D507C3E470
:060664009FFFE49EFE2250
:0E066A00C3E49FFFE49EFEE49DFDE49CFC22A1
:0C067800ECF0A3EDF0A3EEF0A3EFF022F5
:10068400F8E0FBA3A3E0F925F0F0E58215827002FF
:070694001583E0FA38F022A3
:09069B00EBF0A3EAF0A3E9F02260
:1006A400D083D082F8E4937012740193700DA3A3E5
:1006B40093F8740193F5828883E4737402936860F9
:0606C400EFA3A3A380DFF9
:1019E300EFB40A07740D1219EE740A309811A8990E
:1019F300B8130CC2983098FDA899C298B811F63064
:071A030099FDC299F599223B
:1006CA00E3F5F009E208B5F06D606B80F3E3F5F04D
:1006DA0009E608B5F060605E80F387F009E608B5C0
:1006EA00F054605280F487F009E208B5F048604699
:1006FA0080F488828C8387F009E0A3B5F0386036ED
:10070A0080F488828C8387F009E493A3B5F027608C
:10071A002580F388828C83E3F5F009E0A3B5F0160F
:10072A00601480F388828C83E3F5F009E493A3B51F
:10073A00F004600280F20207F5808580E7808E80EF
:10074A00D2803C8015806C807E809B80B5808B80B7
:10075A00A1804F8070803A02080189828A83ECFA6C
:10076A00E493F5F0A3C8C582C8CCC583CCE493A3AF
:10077A00C8C582C8CCC583CCB5F070606E80E189EB
:10078A00828A83E493F5F0A3E208B5F05E605C80A8
:10079A00F289828A83E0F5F0A3E608B5F04D604B52
:1007AA0080F389828A83E0F5F0A3E208B5F03C6021
:1007BA003A80F389828A83E493F5F0A3E608B5F0D8
:1007CA002A602880F2805389828A83ECFAE493F5BE
:1007DA00F0A3C8C582C8CCC583CCE0A3C8C582C86B
:1007EA00CCC583CCB5F004600280E27FFFB5F0028D
:1007FA000F2240027F012289828A83ECFAE0F5F017
:10080A00A3C8C582C8CCC583CCE0A3C8C582C8CC5E
:10081A00C583CCB5F0D560D380E389828A83ECFAAC
:10082A00E0F5F0A3C8C582C8CCC583CCE493A3C8BD
:10083A00C582C8CCC583CCB5F0B160AF80E288F080
:10084A00ED2402B4040050A3F582EB2402B40400A0
:0B085A0050992323458223900743732D
:10165600021B2CE493A3F8E493A34003F68001F263
:1016660008DFF48029E493A3F85407240CC8C33395
:10167600C4540F4420C8834004F456800146F6DF64
:10168600E4800B01020408102040809016D6E47E08
:10169600019360BCA3FF543F30E509541FFEE49359
:1016A600A360010ECF54C025E060A840B8E493A320
:1016B600FAE493A3F8E493A3C8C582C8CAC583CA4B
:1016C600F0A3C8C582C8CAC583CADFE9DEE780BE03
:01175C00008C
:00000001FF
