:1018390074656D700D0A0074656D703A252E3266F7
:1018490027430D0A006C656E0D0A006C656E3A251A
:101859002E3166636D0D0A00766F6C0D0A00766F86
:101869006C3A252E3266560D0A00C0F9A4B0999239
:0818790082F8809080A0C0E01D
:10174600012000C114C115C116C111C112C113C1B6
:1017560018C117014C01084F0000000000000000EE
:101766001036696E69745F77656C6C0D0A0000004F
:10177600000010260000000000000000000000002D
:101786000000000001570001580001470001460013
:10179600024800FA024D007D024A00000259017714
:1017A60002240000420132000042013600144201C8
:1017B6003800FA42013000FA42013A000042013490
:0217C60000140D
:10193D00784CE614601014601314601C2403702896
:10194D00784F76C6800D784F76C78016784F76C162
:10195D000876FF0876FF800A784F76830876FF08B1
:09196D0076FF0876FF0876FF22E0
:101AD600438E0475D72075D6D143AF04D2AF438E5B
:021AE6001022CC
:101A7F0053A2CFE4F5D8F5E9F5F9F5EAF5FA75D9FA
:071A8F000175DA10D2AF224D
:101A4600759850438E40538EFE53890F758B8F7554
:0D1A56008DFDC2ABD2ACD2AFD28E021B19F7
:081B5A007F027E27DEFEDFFCA6
:011B62002260
:061B630000007F21DFFEFF
:011B69002259
:101AF90012193DC290D291121A7F121AD6021A46B1
:101B09001211787858A607120CFE1218C3021AC3CC
:100003003014031212A630160312146C30110312AB
:0F001300153D30150312101630170312139922E2
:100CFE007858E664046003020E27784C7601784F2C
:100D0E0076C70876FF0876FF900132E07002A3E006
:100D1E00701890187C93FF7852F608A60708A6075D
:100D2E00EF547F08F6E49308F622900132E0FCA31C
:100D3E00E0FDE41202117B7B7A14792E783E1200CC
:100D4E006612024A900136EEF0A3EFF0900136E003
:100D5E00FAA3E0FB7C277D10FFAE021205DF747351
:100D6E002FF58274183EF583E4937852F67C037D5A
:100D7E00E8AF03AE021205DF7C007D0A1205DF74B8
:100D8E00732DF58274183CF583E4937853F6900135
:100D9E0036E0FAA3E0FB7C007D64FFAE021205DFB5
:100DAE007C007D0A1205DF74732DF58274183CF5F4
:100DBE0083E4937854F67C007D0AAF03AE021205ED
:100DCE00DF7C007D0A1205DF74732DF58274183CEA
:100DDE00F583E493547F7855F6900136E0FEA3E058
:100DEE00FF7C007D0A1205DF74732DF58274183CAA
:100DFE00F583E4937856F69001017403F0900101A7
:100E0E00E0244FF8901873E4936660030210157691
:100E1E00FF900101E004F080E47858E66405600379
:100E2E00020F07784CF6784F76C60876FF0876FFE5
:100E3E000876FF900134E0FAA3E0FB7C037DE8FF27
:100E4E00AE021206347C007D0A12063474732DF540
:100E5E008274183CF583E4937853F67C007D64AF7E
:100E6E0003AE021206347C007D0A12063474732D12
:100E7E00F58274183CF583E493547F7854F6900110
:100E8E0034E0FAA3E0FB7C007D0AFFAE02120634CA
:100E9E007C007D0A12063474732DF58274183CF5AD
:100EAE0083E4937855F67C007D0AAF03AE021206FA
:100EBE003474732DF58274183CF583E4937856F6EA
:100ECE009001017403F0900101E0244FF890187323
:100EDE00E493FFE6B5070A76FF900101E004F08087
:100EEE00E5C3900134E064809480400302101590B5
:100EFE000101E0244DF876BF227858E664086003BD
:100F0E00020F8E784C7602784F76C10876FF0876FF
:100F1E00FF0876FF0876FF900138E0FAA3E0FB7C2D
:100F2E00007D64FFAE021205DF7C007D0A1205DF34
:100F3E0074732DF58274183CF583E493547F7854C2
:100F4E00F67C007D0AAF03AE021205DF7C007D0A3F
:100F5E001205DF74732DF58274183CF583E49378D3
:100F6E0055F6900138E0FEA3E0FF7C007D0A1205E5
:100F7E00DF74732DF58274183CF583E4937856F67E
:100F8E007858E664096003021015784C7603784FA2
:100F9E0076830876FF0876FF0876FF0876FF9001C5
:100FAE0030E0FAA3E0FB7C007D64FFAE021205DFA9
:100FBE007C007D0A1205DF74732DF58274183CF5E2
:100FCE0083E493547F7854F67C007D0AAF03AE021F
:100FDE001205DF7C007D0A1205DF74732DF5827415
:100FEE00183CF583E4937855F6900130E0FEA3E0CB
:100FFE00FF7C007D0A1205DF74732DF58274183C98
:07100E00F583E4937856F628
:0110150022B8
:1012A600D2001219D25005121B0980F67FCC1219F2
:1012B600AB7F441219AB1219D25005121B0980F6E6
:1012C6007FCC1219AB7FBE1219AB12003E90010003
:1012D600EFF012003EEFFE900100E0FDEDFFAC06E0
:1012E600EC120211E4FBFA79C87840120066120289
:1012F6004A900134EEF0A3EFF0784CE66003021357
:1013060094900134E0FAA3E0FB7C037DE8FFAE0293
:101316001206347C007D0A12063474732DF582742D
:10132600183CF583E4937853F67C007D64AF03AEF6
:10133600021206347C007D0A12063474732DF5827F
:1013460074183CF583E493547F7854F6900134E0A6
:10135600FAA3E0FB7C007D0AFFAE021206347C0095
:101366007D0A12063474732DF58274183CF583E4F5
:10137600937855F67C007D0AAF03AE0212063474EC
:10138600732DF58274183CF583E4937856F6C214EF
:02139600C20093
:011398002232
:101016009001007408F0D201900100E0FF14F0EF97
:10102600600CD290121B63C290121B6380EAD2DE60
:10103600C2D843DA01301308301205121B0980F5B5
:1010460030122E9001367403F0A374E7F0784CE664
:101056006401600302116F90187C93FF7852F608C2
:10106600A60708A607EF547F08F6E49308F60211D0
:101076006F900132E0FCA3E0FDE41202117B7B7A63
:1010860014792E783E12006612024A900136EEF06E
:10109600A3EFF0784CE66401600302116F9001360D
:1010A600E0FAA3E0FB7C277D10FFAE021205DF7499
:1010B600732FF58274183EF583E4937852F67C0319
:1010C6007DE8AF03AE021205DF7C007D0A1205DF64
:1010D60074732DF58274183CF583E4937853F69077
:1010E6000136E0FAA3E0FB7C007D64FFAE02120548
:1010F600DF7C007D0A1205DF74732DF58274183CBF
:10110600F583E4937854F67C007D0AAF03AE0212B1
:1011160005DF7C007D0A1205DF74732DF5827418D5
:101126003CF583E493547F7855F6900136E0FEA3B0
:10113600E0FF7C007D0A1205DF74732DF5827418BA
:101146003CF583E4937856F69001007403F0900121
:1011560000E0244FF8901873E493FFE6B5070A768B
:10116600FF900100E004F080E5C212C213C215C26E
:011176000177
:011177002255
:10146C00D202121B287F90121976121AE87F0312EF
:10147C001976121AE8121B287F91121976121AE8A3
:10148C00121A20C208121A96121A207E00900138E5
:10149C00EEF0A3EFF0FD7C00E4120211E4FBFA790C
:1014AC00FA7843120066E4FBFA797F784312016FF5
:1014BC0012024A900138EEF0A3EFF0121B43784C65
:1014CC00E664027069900138E0FAA3E0FB7C007DD1
:1014DC0064FFAE021205DF7C007D0A1205DF747317
:1014EC002DF58274183CF583E493547F7854F67C84
:1014FC00007D0AAF03AE021205DF7C007D0A1205E7
:10150C00DF74732DF58274183CF583E4937855F6EB
:10151C00900138E0FEA3E0FF7C007D0A1205DF7429
:10152C00732DF58274183CF583E4937856F6C20259
:01153C00228C
:10153D00D203121B287F90121976121AE87F01121E
:10154D001976121AE8121B287F91121976121AE8D1
:10155D00121A20C208121A96121A207E009001301B
:10156D00EEF0A3EFF0FD7C00E4120211E4FBFA793A
:10157D00FA7843120066E4FBFA797F784312016F23
:10158D0012024A900130EEF0A3EFF0121B43784C9B
:10159D00E664037069900130E0FAA3E0FB7C007D06
:1015AD0064FFAE021205DF7C007D0A1205DF747345
:1015BD002DF58274183CF583E493547F7854F67CB2
:1015CD00007D0AAF03AE021205DF7C007D0A120515
:1015DD00DF74732DF58274183CF583E4937855F61A
:1015ED00900130E0FEA3E0FF7C007D0A1205DF7460
:1015FD00732DF58274183CF583E4937856F6C20387
:01160D0022BA
:0F1B1900D218E47847F6E6062436F8E6F5992266
:10139900D204C21778267C007D007BFF7A18793940
:1013A90012085EEF3395E04F7021301805121B09C2
:1013B90080F890010374FFF0A37418F0A37440F04F
:1013C900900134E0FCA3E0FDEC807678267C007D7A
:1013D900007BFF7A18794E12085EEF3395E04F7063
:1013E9002B301805121B0980F890010374FFF0A334
:1013F9007418F0A37454F0900136E0FCA3E0FDE406
:10140900120211E4FBFA79207841803F78267C00AA
:101419007D007BFF7A18796112085EEF3395E04F02
:10142900703E301805121B0980F890010374FFF013
:10143900A37418F0A37467F0900138E0FCA3E0FDF1
:10144900E4120211E4FBFA79C8784212016F9001A3
:101459000612068E7B007A0079361208E0121B19F3
:03146900C2042298
:1011780075C0FF75B0FF53B0F320B5047F0180023E
:101188007F0020B4047E0180027E00EE4FFF20C263
:10119800047E0180027E00EE4FFF20C4047E0180A1
:1011A800027E00EE4F7003021279121B5A20B5041A
:1011B8007F0180027F0020B4047E0180027E00EE61
:1011C8004FFF20C2047E0180027E00EE4FFF20C444
:1011D800047E0180027E00EE4F70030212799001B6
:1011E8003AE07002A3E0600302127690013AF0A39D
:1011F80004F0E5B05430FEA2C2E433C4333354C023
:101208004EFEA2C4E433FFC433333354804EFE751C
:10121800B0FF53B0CFE4F5C0121B63E5B0540C4ED9
:101228002488602224C4602424FC602624E46028E6
:1012380024FC602A24F4602C24FC602E2474702E74
:10124800785776048028785776058022785776086C
:10125800801C7857760980167857760C8010785756
:10126800760D800A785776108004785776117F00BB
:101278002290013AE0FEA3E0FF4E601FC3EF94E81E
:10128800EE9403E490013A5008F0A3F07857E6FF93
:0D12980022F0A3F07857E6240AFF227F0021
:0112A5002226
:1018C300E4FDEDC3940874809480503053A01FA8A6
:1018D300057401088002C333D8FCF58090187FE4B7
:1018E3009342A00053A01F744F2DF8E6F580A3E4A4
:0C18F3009342A0121B5A7580FF0D80C6A6
:0118FF0022C6
:101AC30053A01FE520F4F58090187DE49342A053C2
:031AD300A01F222F
:0B1B4F00121AF9121B0912000380F8A3
:030023000217C9F8
:1017C900C0E0C0D075D01030983AC2987846E6FF8C
:1017D9002426F8A69974262FF8E6FFB43F02800F55
:1017E900EFB40A11784606E62426F87600D217786F
:1017F900467600800F784606E6C3940F748094807D
:1018090040027600309924C2997847E62436F8E6F2
:101819006013F599784706E6C3940F748094804065
:101829000A7600800678477600C218D0D0D0E03218
:03003B0002188127
:10188100C0E0C083C082C0D075D01830DF04C2DF91
:10189100D21230D824C2D8D213AFFAEFFFADEAED9D
:1018A100900132CFF0A3EFF053DAFEC2DE75E9000A
:1018B10075F90075EA0075FA00D0D0D082D083D0D6
:0218C100E03213
:0300630002160E74
:10160E00C0E0C0F0C083C082C0D075D0187825E687
:10161E001846600708E616187001167849E618464F
:10162E00600908E61618700C1680097848760108CD
:10163E0076F4D214784BE61846600908E616187050
:10164E000C168009784A76030876E8D215784EE6AD
:10165E001846600908E61618700C168009784D7643
:10166E00010876F4D216785AE61846600908E6168E
:10167E0018700C168009785976010876F4D21190FC
:10168E00013AE07002A3E0601890013AE475F001AF
:10169E0012066A45F0700A90013A7403F0A374E8DA
:0C16AE00F0D0D0D082D083D0F0D0E03259
:101A6300E4FEEEC3940874809480500FC297EF1382
:0B1A730092A3EFC313FFD2970E80E791
:011A7E002245
:10002600C29300C29700D29300121A63AF05121A48
:0400360063C29322EC
:10190000E4FDC29300C29700D29300121A63E4FF71
:10191000EFC39408748094805011C297EDC313FDF7
:1019200030A3034480FDD2970F80E5C29300C29795
:0C19300000D29700C2A300D2A300AF05B4
:01193C002288
:041B3700D2A07F05B4
:081B3B0000AE071FEE70F92255
:0F1B2800D2A1121B37C2A17F05121B3BC2A02204
:0C1B4300C2A1121B37D2A17F05021B3B80
:101A9600C2A0A20892A17F05121B3B121B37C2A04F
:071AA600D2A17F05021B3BEA
:101AE800121B37A2A19208C2A07F05121B3BA208B5
:011AF80022CB
:02197600AD07BB
:10197800E4FCECC39408748094805024C2A07F05D2
:10198800121B3BED30E704D2A18002C2A17F0512F1
:101998001B3BD2A0ED25E0FD7F05121B3B0C80D23E
:0219A800C2A0DB
:0119AA00221A
:101A2000E4FCECC39408748094805017121B37EDCB
:101A300025E0FD30A1034401FDC2A07F05121B3B40
:051A40000C80DFAF0582
:011A4500227E
:041AAD007F057E0033
:101AB1007C007D0C1205CDEF1FAC0670011E4C7031
:021AC100F6220B
:0219AB00AB0788
:1019AD00E4FAEAC39408748094805012C294EB1345
:1019BD009294121AADD294EBC313FB0A80E47F0507
:0519CD007E00021AB1CA
:10003E00E4FAEAC39408748094805014C294EBC31B
:10004E0013FBD2943094034480FB121AAD0A80E263
:02005E00AF03EE
:01006000227D
:1019D200C208D2947F0C7E00121AB1C2947F507E4C
:1019E20000121AB1D294121AADA29492087F0A7E02
:0619F20000121AB1A20868
:0119F80022CC
:10006600EC4D6011E8497017ED33EC3304600DE494
:10007600FCFFFEFD22E933E8330470F80202B612F3
:10008600028158046009E4CC2481500628500902F4
:1000960002C02840030202BDC0E0EB4A7044B980AA
:1000A60006D0E0FB0202ACEF4E701CBD8008EBFFF1
:1000B600EAFEE9FD80EBE98DF0A4FEE5F002014FD2
:1000C600E9CDF9EAFEEBFFEF89F0A4FCE5F0CE8975
:1000D600F0A42EFFE435F0CD89F0A42DFEE435F032
:1000E6008067EF4E7005BD80D780C3EF8BF0A4AC60
:1000F600F0EE8BF0A42CFCE435F0F8EF8AF0A42C9B
:10010600E5F038FCE433CB8DF0A42CFCE5F03BF8AD
:10011600EE8AF0A42CFCE5F038F8E433CF89F0A49D
:100126002CFCE5F038CF3400CE89F0A42FFFE5F0A3
:100136003EFEE433C98DF0A42EFEE5F039CD8AF0FB
:10014600A42FFFE5F03EFEE43DFD33D0E0FB500773
:100156000BBB000F0202C0EC2CFCEF33FFEE33FEAC
:06016600ED33FD020298DA
:10016C000202C0EC5D046005E8590470030202B69B
:10017C00120281580460F6EC4860F2EC7004FDFE4B
:10018C00FF22C860DB2481C85009C3986002500666
:10019C000202BD9850CAF582E9294B4A7005AB8220
:1001AC000202AC75F0007C1A7880C3EF9BEE9AEDDE
:1001BC0099400DC3EF9BFFEE9AFEED99FDE842F0DE
:1001CC00DC23ACF0D0E0FFD0E0FED0E0FDAB822031
:1001DC00E7101BEB60BAEC2CFCEF33FFEE33FEEDBB
:1001EC0033FD020298E803F830E705C0F075F00023
:1001FC00EF2FFFEE33FEED33FD40B830E7C280AA9F
:10020C0075F020800E75F010800575F0087D007E6D
:10021C00007F003392D530D503120680EC334010AA
:10022C00EF33FFEE33FEED33FDEC33FCD5F0ED2276
:0E023C00E5F0247EA2D513CC92E7CDCEFF22B2
:10024A00EDD2E7CD33EC3392D524814006E4FFFEAC
:10025A00FDFC22FCE4CFCECDCC24E0501174FF800B
:10026A00EDC3CC13CCCD13CDCE13CECF13CF0470A8
:07027A00F030D5DE02068022
:10087B00E5082403F582E43401F583E005082290B2
:10088B000100300F03900103E475F00112069A0288
:10089B0005752008E97F2ED2088018EF540F24909D
:1008AB00D43440D4FF300C0BEF24BFB41A005003E8
:1008BB002461FFE50960021509050CE50C700205C2
:1008CB000B300F0E900100E475F00112069AEF0247
:1008DB0005BB0219F97403D20F8003E4C20FF508AC
:1008EB009001001206B1E4F509F50BF50CE5096072
:1008FB00077F201208BE80F5750AFFC209C208C225
:10090B000AC20BC20DC20EC21012088AFF700D3044
:10091B000F057F001208CFAF0CAE0B22B4255FC2C0
:10092B00D5C20C12088AFF24D0B40A00501A75F0F5
:10093B000A780930D50508B6FF0106C6A426F620AD
:10094B00D5047002D20B80D924CFB41A00EF500417
:10095B00C2E5D20C020BC1D20980C6D20880C0D22C
:10096B000A80BCD2D580BAD20D80B47F201208BECB
:10097B00200A077401B5090040F112087BFF120829
:10098B00BE0208F8D210D20E809512087BFB12081B
:10099B007BFA12087BF94A4B700679BF7A0C7BFF06
:1009AB00200A2EE509602A7E008E827583001205CF
:1009BB008E60060EEE650A70F0C2D5EBC0E0EAC0A1
:1009CB00E0E9C0E0EE120C22D0E0F9D0E0FAD0E082
:1009DB00FB120575FF60AAEBC0E0EAC0E0E9C0E0DE
:1009EB001208BED0E02401F9D0E03400FAD0E0FBCD
:1009FB00E50A0460DCD50AD98087D20A80A2120CE2
:100A0B000460F7E50A7001041202CBA90A600DE538
:100A1B000A600914F50A120CACEF60F3EA30E70236
:100A2B00F404C3995079EAF4250A0430E701E4048D
:100A3B00F50A800D120C0460C1EA050A250A1202A0
:100A4B00CBEA90012FF030E701E4250A04D50A0424
:100A5B00200D0114120C22E4C0E0120CAC90012FFB
:100A6B00E0601320E70714F01208A6802204F0D0F0
:100A7B00E014C0E07F001208A6E50A600712089D8B
:100A8B00150A800B300D0312089DD0E00208F8D038
:100A9B00E00480C4120C04609EE50A041202CB90A1
:100AAB00012FEAF0E50A200D026001042404120C68
:010ABB002218
:100ABC0074FF04C0E0120CAC1208A6E50A200D026B
:100ACC00600312089DD0E0B50AE87F451208B0908B
:100ADC00012FE07F2B30E7047F2DF404C0E01208D7
:100AEC00BED0E075F00A84C0F01208A7D0E012085E
:100AFC00A70208F8791080027908C20EC21080088B
:100B0C00D2D5790A8004790AC2D5E50A047002F5B7
:100B1C000AE4FAFDFEFF12087BFC7B082009131285
:100B2C00087BFD7B1030080A12087BFE12087BFF45
:100B3C007B20EC3382D592D55013C3E43008069F4A
:100B4C00FFE49EFEE42009039DFDE49CFCE4CBF84D
:100B5C00C209EC700CCFCECDCCE824F8F870F38041
:100B6C0017C3EF33FFEE33FEED33FDEC33FCEB3309
:100B7C00FB994002FB0FD8E9EB300905F8D0E0C433
:100B8C0048B209C0E00AEC4D4E4F78207B0070C291
:100B9C00EAB50A0040BCC0E0120C24D0F0D0E02032
:100BAC000904C4C0E0C4B209C0F01208A7D0F0D543
:100BBC00F0EB0208F81206BA0995530B00580966B7
:100BCC004C0962420B044F0B0C440B0C49097B4340
:100BDC000B12550A3F460A9F450A09470CDF50097C
:100BEC006A2D096E2E09912B097223098F200CC8CE
:100BFC002A092A4800000989E50AB4FF03750A0688
:100C0C0012087BFC12087BFD12087BFE12087BFF8E
:100C1C00900128020308790AA2D5200B14300D0983
:100C2C00B910020404B9080104A2D5200E02500127
:100C3C0004200A68920AB509005034C0E07F2030C5
:100C4C000B197F30A20A720E720D500F120C7BC260
:100C5C000AC20EC20DC2107F30800F300D03E9C0E6
:100C6C00E01208BE300D03D0E0F9D0E0B509CC306D
:100C7C000D177F30B9100C1208BE7F58300C077F4F
:100C8C00788003B908031208BE300A057F2D0208CC
:100C9C00BE7F202010F87F2B200EF322920A80CFEB
:100CAC007F00B40700500B2428F582E43401F5834F
:100CBC00E0FF22286E756C6C2900D20912087B307B
:100CCC0009F8C209780930D50108F602092A2D5015
:100CDC0043495812087B2403B405004001E4900CEE
:100CEC00DA931208AF743A1208AFD20B75090402EA
:020CFC000B00EB
:10028100E9D2E7C933E833F892D5EDD2E7CD33ECC3
:0702910033FC5002B2D5223C
:10029800EC30E7100FBF000C0EBE00080DBD0004C7
:1002A8000BEB6014A2D5EB13FCED92E7FD2274FF73
:1002B800FCFDFEFF22E480F8A2D574FF13FC7D80CC
:0302C800E480EFE0
:1002CB00F920E73624F950037907E4F42402FBE51F
:1002DB0082158270021583DBF6E024FB501BE9606C
:1002EB0014E4F0E582158270021583E004F0B40A81
:0D02FB0008E4F0D9EE7401F00A22C2D52209
:10030800ED33EC3392D5FA602AB4FF33EDC2E77BC4
:10031800FF60067A03792DE4227A03793620D50422
:100328007A037931224E614E002B494E46002D4901
:100338004E4600E47A08F0A3DAFC7B00740722C07A
:1003480083C082ECC0E0EDC0E0EEC0E0EFC0E0EAC0
:1003580075F010A4CAABF075F04DA42BFBE435F092
:10036800FCEA2410FAEB34C5FBEC34D9FCEDC2E707
:10037800FF75F056A4F42411C5F0F434C58FF0A429
:100388002AE5F03BE43CF020E714120535D0E0FF05
:10039800D0E0FED0E0FDD0E0FC12016F8014F40440
:1003A800120535D0E0FFD0E0FED0E0FDD0E0FC1231
:1003B8000066D082D083E0FAEDD2E7CD33EC332467
:1003C80082FBE4C3CF33CFCE33CECD33CD33DBF393
:1003D8007B0775F00A846004F0A31B0AE5F0F0A31C
:1003E8008FF0740AA4FFACF08EF0740AA42CFEAC53
:1003F800F050010C8DF0740AA42CFDE435F0F0A344
:05040800DBDE74072299
:10040D000202B6E86480F8E933E83360110460F065
:10041D00ED33EC337009E8FCE9FDEAFEEBFF220455
:10042D0060DED3EB9FEA9EE99DE8C2E78CF0C2F750
:10043D0095F0400CE8CCF8E9CDF9EACEFAEBCFFB1C
:10044D0012028185D0F05804700320D5B3E80470F2
:10045D00075002B2D50202C092D5EC0460F7E4CC8D
:10046D00C0E0C398F8603B94186008400DD0E0FBE5
:10047D00020298E4FBFAC9FC8028E830E406E4C9DE
:10048D00FBE4CAFCE830E305E4C9CACBFCE8540739
:10049D006010F8C3E913F9EA13FAEB13FBEC13FC44
:1004AD00D8F130F52FC3E49CFCEF9BFFEE9AFEEDE7
:1004BD0099FDD0E0FBEF4E4D4C701222DB03020292
:1004CD00BDEC2CFCEF33FFEE33FEED33FDED30E7ED
:1004DD00EB020298EF2BFFEE3AFEED39FDD0E0FB7B
:1004ED0050130BBB00030202C0ED13FDEE13FEEF24
:0804FD0013FFEC13FC0202984E
:100505003F8000004120000042C80000447A0000FE
:10051500461C400047C35000497424004B18968080
:100525004CBEBC205A0E1BCA6753C21C749DC5AE77
:10053500FB60065407601C2323120563EB543860E7
:100545000912054F12055E120066ECF8EDF9EEFA98
:10055500EFCB22EB12055E80F1543803241C900585
:1005650005FE93FC0EEE93FD0EEE930ECE93FF2249
:030000000216BA2B
:0C16BA00787FE4F6D8FD75815A02170114
:10057500BB010689828A83E0225002E722BBFE0284
:09058500E32289828A83E49322B7
:10058E00BB010CE58229F582E5833AF583E0225022
:10059E0006E92582F8E622BBFE06E92582F8E2226C
:0D05AE00E58229F582E5833AF583E4932286
:1005BB00BB010689828A83F0225002F722BBFE011F
:0205CB00F32219
:1005CD00EF8DF0A4A8F0CF8CF0A428CE8DF0A42E42
:0205DD00FE22FC
:1005DF00BC000BBE0029EF8DF084FFADF022E4CC00
:1005EF00F875F008EF2FFFEE33FEEC33FCEE9DECC9
:1005FF00984005FCEE9DFE0FD5F0E9E4CEFD22ED0F
:10060F00F8F5F0EE8420D21CFEADF075F008EF2F58
:10061F00FFED33FD4007985006D5F0F222C398FD49
:05062F000FD5F0EA22E6
:10063400C2D5EC30E709B2D5E4C39DFDE49CFCEEE1
:1006440030E715B2D5E4C39FFFE49EFE1205DFC375
:10065400E49DFDE49CFC80031205DF30D507C3E470
:060664009FFFE49EFE2250
:10066A00C5F0F8A3E028F0C5F0F8E582158270021B
:06067A001583E038F022B8
:0E068000C3E49FFFE49EFEE49DFDE49CFC228B
:0C068E00ECF0A3EDF0A3EEF0A3EFF022DF
:10069A00F8E0FBA3A3E0F925F0F0E58215827002E9
:0706AA001583E0FA38F0228D
:0906B100EBF0A3EAF0A3E9F0224A
:1006BA00D083D082F8E4937012740193700DA3A3CF
:1006CA0093F8740193F5828883E4737402936860E3
:0606DA00EFA3A3A380DFE3
:1019F900EFB40A07740D121A04740A309811A899E1
:101A0900B8130CC2983098FDA899C298B811F6304D
:071A190099FDC299F5992225
:1006E000E3F5F009E208B5F06D606B80F3E3F5F037
:1006F00009E608B5F060605E80F387F009E608B5AA
:10070000F054605280F487F009E208B5F048604682
:1007100080F488828C8387F009E0A3B5F0386036D6
:1007200080F488828C8387F009E493A3B5F0276076
:100730002580F388828C83E3F5F009E0A3B5F016F9
:10074000601480F388828C83E3F5F009E493A3B509
:10075000F004600280F202080B808580E7808E80C2
:10076000D2803C8015806C807E809B80B5808B80A1
:10077000A1804F8070803A02081789828A83ECFA40
:10078000E493F5F0A3C8C582C8CCC583CCE493A399
:10079000C8C582C8CCC583CCB5F070606E80E189D5
:1007A000828A83E493F5F0A3E208B5F05E605C8092
:1007B000F289828A83E0F5F0A3E608B5F04D604B3C
:1007C00080F389828A83E0F5F0A3E208B5F03C600B
:1007D0003A80F389828A83E493F5F0A3E608B5F0C2
:1007E0002A602880F2805389828A83ECFAE493F5A8
:1007F000F0A3C8C582C8CCC583CCE0A3C8C582C855
:10080000CCC583CCB5F004600280E27FFFB5F00276
:100810000F2240027F012289828A83ECFAE0F5F000
:10082000A3C8C582C8CCC583CCE0A3C8C582C8CC48
:10083000C583CCB5F0D560D380E389828A83ECFA96
:10084000E0F5F0A3C8C582C8CCC583CCE493A3C8A7
:10085000C582C8CCC583CCB5F0B160AF80E288F06A
:10086000ED2402B4040050A3F582EB2402B404008A
:0B087000509923234582239007597301
:1016C600021B4FE493A3F8E493A34003F68001F2D0
:1016D60008DFF48029E493A3F85407240CC8C33325
:1016E600C4540F4420C8834004F456800146F6DFF4
:1016F600E4800B0102040810204080901746E47E27
:10170600019360BCA3FF543F30E509541FFEE493E8
:10171600A360010ECF54C025E060A840B8E493A3AF
:10172600FAE493A3F8E493A3C8C582C8CAC583CADA
:10173600F0A3C8C582C8CAC583CADFE9DEE780BE92
:0117C8000020
:00000001FF
