:101B330074656D700D0A0074656D703A252E3266FA
:101B430027430D0A006C656E0D0A006C656E3A251D
:101B53002E3166636D0D0A00766F6C0D0A00766F89
:101B63006C3A252E3266560D0A00627269676874F4
:101B73000D0A006272696768743A252E3266560D43
:101B83000A00C0F9A4B0999282F8809080A0C0E0C6
:1018CA00012000012100C11CC11DC11EC119C11A7C
:1018DA00C11BC120C11F0854000000000000000005
:1018EA001037696E69745F77656C6C0D0A000000C9
:1018FA0000001027000000000000000000000000A7
:10190A0000000000015E00016100014B00014A0075
:10191A00015D00014E00015C000149000151000215
:10192A005F0000024C00FA0252007D024F000002E2
:10193A0062017702250000024701F442013C0001DE
:10194A004201400001420132000042013AF83042AD
:0E195A00013E001442014200FA42013000FA40
:0F0CD400900140E0FFA3E090013CCFF0A3EFF0D0
:100CE30090013CE0FEA3E0FFEE6003021144EF1429
:100CF3007003020F0514700302101D147003021019
:100D0300B424036003021144785476C60876FF08BE
:100D130076FF0876FF90013AE0FEA3E0FFC3EE946E
:100D2300805003020E14E49FFBE49EFA7C277D109F
:100D3300AF03FE1206017C007D0A12060174852DA5
:100D4300F582741B3CF583E4937857F67C037DE8C6
:100D5300AF03AE021206017C007D0A120601748500
:100D63002DF582741B3CF583E4937858F690013A91
:100D7300E0FEA3E0FFC3E49FFBE49EFA7C007D64F6
:100D8300AF03FE1206017C007D0A12060174852D55
:100D9300F582741B3CF583E493547F7859F67C0009
:100DA3007D0AAF03AE021206017C007D0A12060122
:100DB30074852DF582741B3CF583E493785AF69081
:100DC300013AE0FEA3E0FFC3E49FFFE49EFE7C0044
:100DD3007D0A12060174852DF582741B3CF583E4AC
:100DE30093785BF69001017403F0900101E02454C1
:100DF300F8901B85E493FFE6B5070A76FF9001019F
:100E0300E004F080E5900101E02453F876BF020E80
:100E1300E790013AE0FAA3E0FB7C277D10FFAE02E6
:100E23001206017C007D0A12060174852DF5827479
:100E33001B3CF583E4937857F67C037DE8AF03AE60
:100E4300021206017C007D0A12060174852DF582CB
:100E5300741B3CF583E4937858F690013AE0FAA3C7
:100E6300E0FB7C007D64FFAE021206017C007D0A7C
:100E730012060174852DF582741B3CF583E49354AB
:100E83007F7859F67C007D0AAF03AE021206017C1F
:100E9300007D0A12060174852DF582741B3CF583CF
:100EA300E493785AF690013AE0FEA3E0FF7C007DDC
:100EB3000A12060174852DF582741B3CF583E493B5
:100EC300785BF69001017403F0900101E02454F87B
:100ED300901B85E493FFE6B5070A76FF900101E0D6
:100EE30004F080E5784EE66003021144785CE66026
:100EF3000302114490013704F0A37401F0A3743A80
:100F0300F022785476C70876FF0876FF900132E026
:100F13007002A3E0701A901B8E93FF7857F608A611
:100F23000708A607EF547F08F6E49308F6020FFFBD
:100F330090013EE0FAA3E0FB7C277D10FFAE021296
:100F4300060174852FF582741B3EF583E49378576D
:100F5300F67C037DE8AF03AE021206017C007D0A36
:100F630012060174852DF582741B3CF583E4937896
:100F730058F690013EE0FAA3E0FB7C007D64FFAEEF
:100F8300021206017C007D0A12060174852DF5828A
:100F9300741B3CF583E4937859F67C007D0AAF0318
:100FA300AE021206017C007D0A12060174852DF53E
:100FB30082741B3CF583E493547F785AF690013E88
:100FC300E0FEA3E0FF7C007D0A12060174852DF587
:100FD30082741B3CF583E493785BF6900101740300
:100FE300F0900101E02454F8901B85E493FFE6B5EB
:100FF300070A76FF900101E004F080E5784EE66091
:1010030003021144785CE660030211449001370443
:10101300F0A37401F0A3743EF022785476C10876ED
:10102300FF0876FF0876FF0876FF900142E0FAA3F7
:10103300E0FB7C007D64FFAE021206017C007D0AAA
:1010430012060174852DF582741B3CF583E49354D9
:101053007F7859F67C007D0AAF03AE021206017C4D
:10106300007D0A12060174852DF582741B3CF583FD
:10107300E493785AF6900142E0FEA3E0FF7C007D02
:101083000A12060174852DF582741B3CF583E493E3
:10109300785BF6784EE66003021144785CE6600301
:1010A30002114490013704F0A37401F0A37442F0D9
:1010B30022785476830876FF0876FF0876FF087651
:1010C300FF900130E0FAA3E0FB7C007D64FFAE02F9
:1010D3001206017C007D0A12060174852DF58274C7
:1010E3001B3CF583E493547F7859F67C007D0AAF6B
:1010F30003AE021206017C007D0A12060174852DDF
:10110300F582741B3CF583E493785AF6900130E042
:10111300FEA3E0FF7C007D0A12060174852DF58293
:10112300741B3CF583E493785BF6784EE670127893
:101133005CE6700D90013704F0A37401F0A37430E2
:01114300F0BB
:011144002288
:101DE800438E0475D72075D6D143AF04D2AF438E46
:021DF8001022B7
:101DC20053A2CFE4F5D8F5E9F5F975D90175DA1121
:031DD200D2AF226B
:10000300759850438E40538EFE53890F758B8F75B1
:0D0013008DFDC2ABD2ACD2AFD28E021E3B2F
:081E7C007F027E27DEFEDFFC81
:011E8400223B
:061E850000007F21DFFEDA
:011E8B002234
:101E1C00120CE3C290D291121DC2121DE8020003F3
:0F1E2C00121470121745121B93121DD5021DFAC6
:101C4800301C0312137A301E031215653019031263
:101C58001655301D03121CB5201B03301A03121130
:101C680045785CE66003121A657851E66003121A3B
:081C7800D0301F0312126B2291
:101745007861E6FF7E006404700A90013CF0A30412
:10175500F002180AEF64054E700990013CF0A3F001
:1017650002180AEF64084E700B90013CF0A3740256
:10177500F002180AEF64094E700B90013CF0A37457
:1017850003F002180AEF640D4E70417849E6702C9B
:10179500900137E0F9A3E0FAA3E0900134C9F0A382
:1017A500EAF0A3E9F090013CE0FFA3E0900140CF0F
:1017B500F0A3EFF0784E760AD20580497849E6160F
:1017C5007851F67849E6703D760A80397861E664A5
:1017D5001770327849E67018120CD490013CE4F089
:1017E500A37404F0D206784976097851760A8015F3
:1017F500C206900140E0FFA3E090013CCFF0A3EFCB
:0C180500F0E47849F6E47861F6020CE3A8
:10137A00D200C21C121D055005121E2C80F67FCC0D
:10138A00121CDE7F44121CDE121D055005121E2C93
:10139A0080F67FCC121CDE7FBE121CDE12003E904D
:1013AA000100EFF012003EEFFE900100E0FDEDFFBC
:1013BA00AC06EC120211E4FBFA79C8784012006616
:1013CA0012024A90013AEEF0A3EFF0A3E07002A3F2
:1013DA00E0600302146D90013AE0FAA3E0FB7C039B
:1013EA007DE8FFAE021206017C007D0A1206017436
:1013FA00852DF582741B3CF583E4937858F67C00BE
:10140A007D64AF03AE021206017C007D0A1206015A
:10141A0074852DF582741B3CF583E493547F7859C7
:10142A00F690013AE0FAA3E0FB7C007D0AFFAE02E7
:10143A001206017C007D0A12060174852DF582745C
:10144A001B3CF583E493785AF67C007D0AAF03AE21
:10145A000212060174852DF582741B3CF583E49310
:05146A00785BF6C200F2
:01146F00225A
:101CB5007E08C21AC21BC21DAF061EEF600CD29071
:101CC500121E85C290121E8580EEE4F5E9F5F9C273
:081CD500D8C2DFD2DE43DA01C0
:011CDD0022E4
:10114500201B0302123A900132E0FCA3E0FDE412F9
:1011550002117B7B7A14792E783E12006612024AC0
:1011650090013EEEF0A3EFF090013CE07004A3E0A7
:101175006401600302126A90013EE0FAA3E0FB7C81
:10118500277D10FFAE0212060174852FF582741BB0
:101195003EF583E4937857F67C037DE8AF03AE0212
:1011A5001206017C007D0A12060174852DF58274F4
:1011B5001B3CF583E4937858F690013EE0FAA3E0F2
:1011C500FB7C007D64FFAE021206017C007D0A12E5
:1011D500060174852DF582741B3CF583E4937859DB
:1011E500F67C007D0AAF03AE021206017C007D0A83
:1011F50012060174852DF582741B3CF583E4935426
:101205007F785AF690013EE0FEA3E0FF7C007D0A60
:1012150012060174852DF582741B3CF583E49378E1
:101225005BF67F0374542FF8901B85E49366703545
:1012350076FF0F80EF301A2D90013E7427F0A374CE
:101245000FF090013CE07004A3E064017017901B5F
:101255008E93FF7857F608A60708A607EF547F0870
:05126500F6E49308F619
:01126A002261
:10156500D202C21E121E4A7F90121C80121E0B7FD1
:1015750003121C80121E0B121E4A7F91121C801230
:101585001E0B121D53C210121D95121D53900142C0
:10159500E4F0A3EFF0900142E0FCA3E0FDE41202C9
:1015A50011E4FBFA79FA7843120066E4FBFA797FD5
:1015B500784312016F12024A900142EEF0A3EFF058
:1015C500121E6590013CE07004A3E064027069900E
:1015D5000142E0FAA3E0FB7C007D64FFAE02120647
:1015E500017C007D0A12060174852DF582741B3C71
:1015F500F583E493547F7859F67C007D0AAF03AEFA
:10160500021206017C007D0A12060174852DF58201
:10161500741B3CF583E493785AF6900142E0FEA3EF
:10162500E0FF7C007D0A12060174852DF582741B8E
:101635003CF583E493785BF6D3900143E0942C90DA
:101645000142E094014004D20E8002C20EC2022281
:10165500D203C219121E4A7F90121C80121E0B7FE4
:1016650001121C80121E0B121E4A7F91121C801241
:101675001E0B121D53C210121D95121D53900130E1
:10168500E4F0A3EFF0900130E0FCA3E0FDE41202EA
:1016950011E4FBFA79FA7843120066E4FBFA797FE4
:1016A500784312016F12024A900130EEF0A3EFF079
:1016B500121E6590013CE07004A3E064037069901C
:1016C5000130E0FAA3E0FB7C007D64FFAE02120668
:1016D500017C007D0A12060174852DF582741B3C80
:1016E500F583E493547F7859F67C007D0AAF03AE09
:1016F500021206017C007D0A12060174852DF58211
:10170500741B3CF583E493785AF6900130E0FEA310
:10171500E0FF7C007D0A12060174852DF582741B9D
:101725003CF583E493785BF6D3900131E0942C90FB
:101735000130E094014004D20C8002C20CC20322A5
:0F1E3B00D220E4784BF6E6062437F8E6F5992234
:101A6500121E4A7FA0121C80121E0B785CE61425FC
:101A7500E0FF121C80121E0B900137E0FBA3E0FA79
:101A8500A3E0F9120575FF121C80121E0B90013799
:101A9500E0FBA3E0FAA3E0F990000112058EFF1226
:101AA5001C80121E0B121E65E4785CF6784EE670FB
:101AB50019C20590013CE0FEA3E0FF900140E06EF5
:0B1AC5007003A3E06F6003120CE3222B
:101AD000121E4A7FA0121C80121E0B7851E614259C
:101AE000E0FF121C80121E0B121E4A7FA1121C80E6
:101AF000121E0B121D53900134E0FBA3E0FAA3E089
:101B0000F9EF1205BBC210121D95121D539001343E
:101B1000E0FBA3E0FAA3E0F9900001EF1205CD127B
:101B20001E65120CD490013CE4F0A37404F0E47838
:031B300051F62249
:10126B00D204C21F78277C007D007BFF7A1B793369
:10127B00120834EF3395E04F701B302005121E2CF3
:10128B0080F890010374FFF0A3741BF0A3743AF081
:10129B0090013A807178277C007D007BFF7A1B7967
:1012AB0048120834EF3395E04F702C302005121E96
:1012BB002C80F890010374FFF0A3741BF0A3744E01
:1012CB00F090013EE0FCA3E0FDE4120211E4FBFA16
:1012DB007920784102136278277C007D007BFF7AAE
:1012EB001B795B120834EF3395E04F702B302005E0
:1012FB00121E2C80F890010374FFF0A3741BF0A353
:10130B007461F0900142E0FCA3E0FDE4120211E4F1
:10131B00FBFA79C87842803F78277C007D007BFF01
:10132B007A1B796D120834EF3395E04F703E302005
:10133B0005121E2C80F890010374FFF0A3741BF0B0
:10134B00A37476F0900130E0FCA3E0FDE4120211EF
:10135B00E4FBFA79C8784212016F90010612066419
:0F136B007B007A0079371208B6121E3BC20422AB
:1014700075C0FF75B0FF53B0F320B5047F01800243
:101480007F0020B4047E0180027E00EE4FFF20C268
:10149000047E0180027E00EE4FFF20C4047E0180A6
:1014A000027E00EE4F700302152E7860E61846604B
:1014B00003021564F6087601E5B05430FEA2C2E4DA
:1014C00033C4333354C04EFEA2C4E433FFC43333B9
:1014D0003354804EFE75B0FF53B0CFE4F5C0121EFA
:1014E00085E5B0540C4E2488602124C4602224FC7D
:1014F000602324E4602424FC602524F4602624FC7A
:1015000060272474705E785E760422785E76052209
:10151000785E760822785E760922785E760C2278EC
:101520005E760D22785E761022785E761122785FE4
:10153000E6FE08E6FFD394E8EE9403400EE418F6C6
:1015400008F6785EE6240A7961F722D3EF9402EE7A
:101550009400E4785F400AF608F6785EE67861F673
:0415600022F608F671
:011564002264
:101B9300E4FDEDC3940874809480503053A01FA8D3
:101BA300057401088002C333D8FCF580901B91E4CF
:101BB3009342A00053A01F74542DF8E6F580A3E4CC
:0C1BC3009342A0121E7C7580FF0D80C6AE
:011BCF0022F3
:101DD50053A01FE520F4F580901B8FE49342A05398
:031DE500A01F221A
:101DFA0053A01F852180901B90E49342A053A01FFB
:011E0A0022B5
:0B1E7100121E1C121E2C121C4880F8D0
:030023000219F5CA
:1019F500C0E0C0D075D01030983AC298784AE6FF5A
:101A05002427F8A69974272FF8E6FFB43F02800F24
:101A1500EFB40A11784A06E62427F87600D21F7833
:101A25004A7600800F784A06E6C3940F7480948046
:101A350040027600309924C299784BE62437F8E6BF
:101A45006013F599784B06E6C3940F748094804033
:101A55000A76008006784B7600C220D0D0D0E032DE
:03003B00021C0D97
:101C0D00C0E0C083C082C0D075D01830D818C2D8FB
:101C1D00AFFAEFFFADEAED900132CFF0A3EFF0D2C6
:101C2D001BC2DE53DAFE30DF09C2DFD21AC2DE5329
:0B1C3D00DAFED0D0D082D083D0E0329D
:030063000218116F
:10181100C0E0C0D075D0187826E61846600708E603
:101821001618700116784DE61846600908E6161874
:10183100700C168009784C76010876F4D21C785029
:10184100E61846600908E61618700C168009784FEC
:1018510076030876E8D21D7853E61846600908E653
:101861001618700C168009785276010876F4D21E8B
:101871007863E61846600908E61618700C168009A8
:10188100786276010876F4D2197848E6184660093C
:1018910008E616187014168011784776030876E862
:1018A100784EE66005E616785CF67860E6184660E4
:1018B100130806E618700106861E4E7007785F76DB
:0918C100030876E9D0D0D0E03232
:101D7900E4FEEEC3940874809480500FC297EF1369
:0B1D890092A3EFC313FFD2970E80E778
:011D9400222C
:10002600C29300C29700D29300121D79AF05121D2C
:0400360079C29322D6
:101BD000E4FDC29300C29700D29300121D79E4FF86
:101BE000EFC39408748094805011C297EDC313FD25
:101BF00030A3034480FDD2970F80E5C29300C297C3
:0C1C000000D29700C2A300D2A300AF05E1
:011C0C0022B5
:041E5900D2A07F058F
:081E5D0000AE071FEE70F92230
:0F1E4A00D2A1121E59C2A17F05121E5DC2A02295
:0C1E6500C2A1121E59D2A17F05021E5D11
:101D9500C2A0A21092A17F05121E5D121E59C2A0FB
:071DA500D2A17F05021E5DC3
:101E0B00121E59A2A19210C2A07F05121E5DA21034
:011E1B0022A4
:021C8000AD07AE
:101C8200E4FCECC39408748094805024C2A07F05C5
:101C9200121E5DED30E704D2A18002C2A17F0512BF
:101CA2001E5DD2A0ED25E0FD7F05121E5D0C80D2E7
:021CB200C2A0CE
:011CB400220D
:101D5300E4FCECC39408748094805017121E59ED70
:101D630025E0FD30A1034401FDC2A07F05121E5DE5
:051D73000C80DFAF054C
:011D78002248
:041DAC007F057E0031
:101DB0007C007D0C1205EFEF1FAC0670011E4C700D
:021DC000F62209
:021CDE00AB0752
:101CE000E4FAEAC39408748094805012C294EB130F
:101CF0009294121DACD294EBC313FB0A80E47F05CF
:051D00007E00021DB091
:10003E00E4FAEAC39408748094805014C294EBC31B
:10004E0013FBD2943094034480FB121DAC0A80E261
:02005E00AF03EE
:01006000227D
:101D0500C210D2947F0C7E00121DB0C2947F507E0B
:101D150000121DB0D294121DACA29492107F0A7EBF
:061D250000121DB0A21027
:011D2B002295
:10006600EC4D6011E8497017ED33EC3304600DE494
:10007600FCFFFEFD22E933E8330470F80202B612F3
:10008600028158046009E4CC2481500628500902F4
:1000960002C02840030202BDC0E0EB4A7044B980AA
:1000A60006D0E0FB0202ACEF4E701CBD8008EBFFF1
:1000B600EAFEE9FD80EBE98DF0A4FEE5F002014FD2
:1000C600E9CDF9EAFEEBFFEF89F0A4FCE5F0CE8975
:1000D600F0A42EFFE435F0CD89F0A42DFEE435F032
:1000E6008067EF4E7005BD80D780C3EF8BF0A4AC60
:1000F600F0EE8BF0A42CFCE435F0F8EF8AF0A42C9B
:10010600E5F038FCE433CB8DF0A42CFCE5F03BF8AD
:10011600EE8AF0A42CFCE5F038F8E433CF89F0A49D
:100126002CFCE5F038CF3400CE89F0A42FFFE5F0A3
:100136003EFEE433C98DF0A42EFEE5F039CD8AF0FB
:10014600A42FFFE5F03EFEE43DFD33D0E0FB500773
:100156000BBB000F0202C0EC2CFCEF33FFEE33FEAC
:06016600ED33FD020298DA
:10016C000202C0EC5D046005E8590470030202B69B
:10017C00120281580460F6EC4860F2EC7004FDFE4B
:10018C00FF22C860DB2481C85009C3986002500666
:10019C000202BD9850CAF582E9294B4A7005AB8220
:1001AC000202AC75F0007C1A7880C3EF9BEE9AEDDE
:1001BC0099400DC3EF9BFFEE9AFEED99FDE842F0DE
:1001CC00DC23ACF0D0E0FFD0E0FED0E0FDAB822031
:1001DC00E7101BEB60BAEC2CFCEF33FFEE33FEEDBB
:1001EC0033FD020298E803F830E705C0F075F00023
:1001FC00EF2FFFEE33FEED33FD40B830E7C280AA9F
:10020C0075F020800E75F010800575F0087D007E6D
:10021C00007F003392D530D503120656EC334010D4
:10022C00EF33FFEE33FEED33FDEC33FCD5F0ED2276
:0E023C00E5F0247EA2D513CC92E7CDCEFF22B2
:10024A00EDD2E7CD33EC3392D524814006E4FFFEAC
:10025A00FDFC22FCE4CFCECDCC24E0501174FF800B
:10026A00EDC3CC13CCCD13CDCE13CECF13CF0470A8
:07027A00F030D5DE0206564C
:10085100E5082403F582E43401F583E005082290DC
:100861000100301703900103E475F00112067002D4
:1008710005752010E97F2ED2108018EF540F2490B7
:10088100D43440D4FF30140BEF24BFB41A0050030A
:100891002461FFE50960021509050CE50C700205EC
:1008A1000B30170E900100E475F001120670EF0293
:1008B10005BB021D2C7403D2178003E4C217F5088F
:1008C100900100120687E4F509F50BF50CE50960C6
:1008D100077F2012089480F5750AFFC211C210C269
:1008E10012C213C215C216C218120860FF700D3071
:1008F10017057F001208A5AF0CAE0B22B4255FC20D
:10090100D5C214120860FF24D0B40A00501A75F041
:100911000A780930D50508B6FF0106C6A426F620D7
:10092100D5047002D21380D924CFB41A00EF500439
:10093100C2E5D214020B97D21180C6D21080C0D268
:100941001280BCD2D580BAD21580B47F201208940F
:100951002012077401B5090040F1120851FF120875
:10096100940208CED218D2168095120851FB1208B3
:1009710051FA120851F94A4B700679957A0C7BFFAE
:1009810020122EE509602A7E008E827583001205F1
:100991008E60060EEE650A70F0C2D5EBC0E0EAC0CB
:1009A100E0E9C0E0EE120BF8D0E0F9D0E0FAD0E0D7
:1009B100FB120575FF60AAEBC0E0EAC0E0E9C0E008
:1009C100120894D0E02401F9D0E03400FAD0E0FB21
:1009D100E50A0460DCD50AD98087D21280A2120B05
:1009E100DA60F7E50A7001041202CBA90A600DE58D
:1009F1000A600914F50A120C82EF60F3EA30E7028B
:100A0100F404C3995079EAF4250A0430E701E404B7
:100A1100F50A800D120BDA60C1EA050A250A1202F5
:100A2100CBEA90012FF030E701E4250A04D50A044E
:100A310020150114120BF8E4C0E0120C8290012F72
:100A4100E0601320E70714F012087C802204F0D044
:100A5100E014C0E07F0012087CE50A600712087309
:100A6100150A800B301503120873D0E00208CED0AE
:100A7100E00480C4120BDA609EE50A041202CB90F6
:100A8100012FEAF0E50A2015026001042404120B8B
:010A9100F86C
:100A920074FF04C0E0120C8212087CE50A201502E1
:100AA2006003120873D0E0B50AE87F451208869009
:100AB200012FE07F2B30E7047F2DF404C0E0120801
:100AC20094D0E075F00A84C0F012087DD0E01208DC
:100AD2007D0208CE791080027908C216C2188008F9
:100AE200D2D5790A8004790AC2D5E50A047002F5E2
:100AF2000AE4FAFDFEFF120851FC7B0820111312D2
:100B02000851FD7B1030100A120851FE120851FFE5
:100B12007B20EC3382D592D55013C3E43010069F6C
:100B2200FFE49EFEE42011039DFDE49CFCE4CBF86F
:100B3200C211EC700CCFCECDCCE824F8F870F38063
:100B420017C3EF33FFEE33FEED33FDEC33FCEB3333
:100B5200FB994002FB0FD8E9EB301105F8D0E0C455
:100B620048B211C0E00AEC4D4E4F78207B0070C2B3
:100B7200EAB50A0040BCC0E0120BFAD0F0D0E02087
:100B82001104C4C0E0C4B211C0F012087DD0F0D587
:100B9200F0EB0208CE120690096B530AD658093CB4
:100BA2004C0938420ADA4F0AE2440AE2490951433F
:100BB2000AE8550A15460A754509DF470CB550097A
:100BC200402D09442E09672B0948230965200C9EF4
:100BD2002A0900480000095FE50AB4FF03750A0606
:100BE200120851FC120851FD120851FE120851FF61
:100BF200900128020308790AA2D52013143015099E
:100C0200B910020404B9080104A2D5201602500149
:100C1200042012689212B509005034C0E07F2030DF
:100C220013197F30A21272167215500F120C51C294
:100C320012C216C215C2187F30800F301503E9C0E8
:100C4200E0120894301503D0E0F9D0E0B509CC30B9
:100C520015177F30B9100C1208947F583014077F93
:100C6200788003B908031208943012057F2D020818
:100C7200947F202018F87F2B2016F322921280CF27
:100C82007F00B40700500B2428F582E43401F58379
:100C9200E0FF22286E756C6C2900D21112085130C7
:100CA20011F8C211780930D50108F60209002D5059
:100CB2004349581208512403B405004001E4900C42
:100CC200B093120885743A120885D213750904028A
:020CD2000AD640
:10028100E9D2E7C933E833F892D5EDD2E7CD33ECC3
:0702910033FC5002B2D5223C
:10029800EC30E7100FBF000C0EBE00080DBD0004C7
:1002A8000BEB6014A2D5EB13FCED92E7FD2274FF73
:1002B800FCFDFEFF22E480F8A2D574FF13FC7D80CC
:0302C800E480EFE0
:1002CB00F920E73624F950037907E4F42402FBE51F
:1002DB0082158270021583DBF6E024FB501BE9606C
:1002EB0014E4F0E582158270021583E004F0B40A81
:0D02FB0008E4F0D9EE7401F00A22C2D52209
:10030800ED33EC3392D5FA602AB4FF33EDC2E77BC4
:10031800FF60067A03792DE4227A03793620D50422
:100328007A037931224E614E002B494E46002D4901
:100338004E4600E47A08F0A3DAFC7B00740722C07A
:1003480083C082ECC0E0EDC0E0EEC0E0EFC0E0EAC0
:1003580075F010A4CAABF075F04DA42BFBE435F092
:10036800FCEA2410FAEB34C5FBEC34D9FCEDC2E707
:10037800FF75F056A4F42411C5F0F434C58FF0A429
:100388002AE5F03BE43CF020E714120535D0E0FF05
:10039800D0E0FED0E0FDD0E0FC12016F8014F40440
:1003A800120535D0E0FFD0E0FED0E0FDD0E0FC1231
:1003B8000066D082D083E0FAEDD2E7CD33EC332467
:1003C80082FBE4C3CF33CFCE33CECD33CD33DBF393
:1003D8007B0775F00A846004F0A31B0AE5F0F0A31C
:1003E8008FF0740AA4FFACF08EF0740AA42CFEAC53
:1003F800F050010C8DF0740AA42CFDE435F0F0A344
:05040800DBDE74072299
:10040D000202B6E86480F8E933E83360110460F065
:10041D00ED33EC337009E8FCE9FDEAFEEBFF220455
:10042D0060DED3EB9FEA9EE99DE8C2E78CF0C2F750
:10043D0095F0400CE8CCF8E9CDF9EACEFAEBCFFB1C
:10044D0012028185D0F05804700320D5B3E80470F2
:10045D00075002B2D50202C092D5EC0460F7E4CC8D
:10046D00C0E0C398F8603B94186008400DD0E0FBE5
:10047D00020298E4FBFAC9FC8028E830E406E4C9DE
:10048D00FBE4CAFCE830E305E4C9CACBFCE8540739
:10049D006010F8C3E913F9EA13FAEB13FBEC13FC44
:1004AD00D8F130F52FC3E49CFCEF9BFFEE9AFEEDE7
:1004BD0099FDD0E0FBEF4E4D4C701222DB03020292
:1004CD00BDEC2CFCEF33FFEE33FEED33FDED30E7ED
:1004DD00EB020298EF2BFFEE3AFEED39FDD0E0FB7B
:1004ED0050130BBB00030202C0ED13FDEE13FEEF24
:0804FD0013FFEC13FC0202984E
:100505003F8000004120000042C80000447A0000FE
:10051500461C400047C35000497424004B18968080
:100525004CBEBC205A0E1BCA6753C21C749DC5AE77
:10053500FB60065407601C2323120563EB543860E7
:100545000912054F12055E120066ECF8EDF9EEFA98
:10055500EFCB22EB12055E80F1543803241C900585
:1005650005FE93FC0EEE93FD0EEE930ECE93FF2249
:0300000002196979
:0C196900787FE4F6D8FD7581630219B0A8
:10057500BB010689828A83E0225002E722BBFE0284
:09058500E32289828A83E49322B7
:10058E00BB010CE58229F582E5833AF583E0225022
:10059E0006E92582F8E622BBFE06E92582F8E2226C
:0D05AE00E58229F582E5833AF583E4932286
:1005BB00BB010689828A83F0225002F722BBFE011F
:0205CB00F32219
:1005CD00F8BB010DE58229F582E5833AF583E8F064
:1005DD00225006E92582C8F622BBFE05E92582C810
:0205ED00F222F8
:1005EF00EF8DF0A4A8F0CF8CF0A428CE8DF0A42E20
:0205FF00FE22DA
:10060100BC000BBE0029EF8DF084FFADF022E4CCDD
:10061100F875F008EF2FFFEE33FEEC33FCEE9DECA6
:10062100984005FCEE9DFE0FD5F0E9E4CEFD22EDEC
:10063100F8F5F0EE8420D21CFEADF075F008EF2F36
:10064100FFED33FD4007985006D5F0F222C398FD27
:050651000FD5F0EA22C4
:0E065600C3E49FFFE49EFEE49DFDE49CFC22B5
:0C066400ECF0A3EDF0A3EEF0A3EFF02209
:10067000F8E0FBA3A3E0F925F0F0E5821582700213
:070680001583E0FA38F022B7
:09068700EBF0A3EAF0A3E9F02274
:10069000D083D082F8E4937012740193700DA3A3F9
:1006A00093F8740193F5828883E47374029368600D
:0606B000EFA3A3A380DF0D
:101D2C00EFB40A07740D121D37740A309811A89974
:101D3C00B8130CC2983098FDA899C298B811F63017
:071D4C0099FDC299F59922EF
:1006B600E3F5F009E208B5F06D606B80F3E3F5F061
:1006C60009E608B5F060605E80F387F009E608B5D4
:1006D600F054605280F487F009E208B5F0486046AD
:1006E60080F488828C8387F009E0A3B5F038603601
:1006F60080F488828C8387F009E493A3B5F02760A1
:100706002580F388828C83E3F5F009E0A3B5F01623
:10071600601480F388828C83E3F5F009E493A3B533
:10072600F004600280F20207E1808580E7808E8017
:10073600D2803C8015806C807E809B80B5808B80CB
:10074600A1804F8070803A0207ED89828A83ECFA95
:10075600E493F5F0A3C8C582C8CCC583CCE493A3C3
:10076600C8C582C8CCC583CCB5F070606E80E189FF
:10077600828A83E493F5F0A3E208B5F05E605C80BC
:10078600F289828A83E0F5F0A3E608B5F04D604B66
:1007960080F389828A83E0F5F0A3E208B5F03C6035
:1007A6003A80F389828A83E493F5F0A3E608B5F0EC
:1007B6002A602880F2805389828A83ECFAE493F5D2
:1007C600F0A3C8C582C8CCC583CCE0A3C8C582C87F
:1007D600CCC583CCB5F004600280E27FFFB5F002A1
:1007E6000F2240027F012289828A83ECFAE0F5F02B
:1007F600A3C8C582C8CCC583CCE0A3C8C582C8CC73
:10080600C583CCB5F0D560D380E389828A83ECFAC0
:10081600E0F5F0A3C8C582C8CCC583CCE493A3C8D1
:10082600C582C8CCC583CCB5F0B160AF80E288F094
:10083600ED2402B4040050A3F582EB2402B40400B4
:0B0846005099232345822390072F7355
:10197500021E71E493A3F8E493A34003F68001F2F9
:1019850008DFF48029E493A3F85407240CC8C33373
:10199500C4540F4420C8834004F456800146F6DF42
:1019A500E4800B01020408102040809018CAE47EF0
:1019B500019360BCA3FF543F30E509541FFEE49337
:1019C500A360010ECF54C025E060A840B8E493A3FE
:1019D500FAE493A3F8E493A3C8C582C8CAC583CA29
:1019E500F0A3C8C582C8CAC583CADFE9DEE780BEE1
:01196800007E
:00000001FF
