:1020F80074656D700D0A0074656D703A252E326630
:1021080027430D0A006C656E0D0A006C656E3A2552
:102118002E3166636D0D0A00766F6C0D0A00766FBE
:102128006C3A252E3266560D0A0062726967687429
:102138000D0A006272696768743A252E3266560D78
:102148000A00C0F9A4B0999282F8809080A0C0E0FB
:101E7900012000012100C11DC11CC11EC119C11AC7
:101E8900C11BC120C11F085B000000000000000049
:101E9900103C696E69745F77656C6C0D0A0000000F
:101EA9000000102C000000000000000000000000ED
:101EB90000000000016A0001680001650001690075
:101EC9000152000151000164000155000163000144
:101ED9004E0001580002660000025300FA02590040
:101EE9007D02560000026B0177022A0000024C01B4
:101EF900F4024F013842014000014201440001420D
:101F090001460000420132000042013EF830420120
:101F190042001442014800FA42013000FA44013AF1
:041F2900000003E8C9
:0F094C00900144E0FFA3E0900140CFF0A3EFF053
:10095B00900140E0FEA3E0FFEE6003020F5BEF149B
:10096B007003020B84147003020C9C147003020DB1
:10097B003324FE7003020DCA24056003020F5B785B
:10098B005B76C60876FF0876FF0876FF90013EE09F
:10099B00FEA3E0FFC3EE94805003020A93E49FFB97
:1009AB00E49EFA7C277D10AF03FE1206017C007DCE
:1009BB000A120601744A2DF58274213CF583E493E7
:1009CB00785EF67C037DE8AF03AE021206017C0075
:1009DB007D0A120601744A2DF58274213CF583E4DD
:1009EB0093785FF690013EE0FEA3E0FFC3E49FFB2C
:1009FB00E49EFA7C007D64AF03FE1206017C007D51
:100A0B000A120601744A2DF58274213CF583E49396
:100A1B00547F7860F67C007D0AAF03AE02120601AC
:100A2B007C007D0A120601744A2DF58274213CF577
:100A3B0083E4937861F690013EE0FEA3E0FFC3E40C
:100A4B009FFFE49EFE7C007D0A120601744A2DF581
:100A5B008274213CF583E4937862F690010274036F
:100A6B00F0900102E0245BF890214AE493FFE6B595
:100A7B00070A76FF900102E004F080E5900102E0A6
:100A8B00245AF876BF020B6690013EE0FAA3E0FB16
:100A9B007C277D10FFAE021206017C007D0A120638
:100AAB0001744A2DF58274213CF583E493785EF64C
:100ABB007C037DE8AF03AE021206017C007D0A12B7
:100ACB000601744A2DF58274213CF583E493785F1B
:100ADB00F690013EE0FAA3E0FB7C007D64FFAE02E2
:100AEB001206017C007D0A120601744A2DF58274F0
:100AFB00213CF583E493547F7860F67C007D0AAF4C
:100B0B0003AE021206017C007D0A120601744A2D07
:100B1B00F58274213CF583E4937861F690013EE015
:100B2B00FEA3E0FF7C007D0A120601744A2DF582BC
:100B3B0074213CF583E4937862F69001027403F020
:100B4B00900102E0245BF890214AE493FFE6B5079D
:100B5B000A76FF900102E004F080E57855E6600329
:100B6B00020F5B7863E66003020F5B90013704F0C2
:100B7B00A37401F0A3743EF022785B76C70876FF6E
:100B8B000876FF900132E07002A3E0701A902153B7
:100B9B0093FF785EF608A60708A607EF547F08F6C2
:100BAB00E49308F6020C7E900142E0FAA3E0FB7C92
:100BBB00277D10FFAE02120601744A2FF5827421B5
:100BCB003EF583E493785EF67C037DE8AF03AE02DB
:100BDB001206017C007D0A120601744A2DF58274FF
:100BEB00213CF583E493785FF6900142E0FAA3E0B1
:100BFB00FB7C007D64FFAE021206017C007D0A12B5
:100C0B000601744A2DF58274213CF583E4937860D8
:100C1B00F67C007D0AAF03AE021206017C007D0A52
:100C2B00120601744A2DF58274213CF583E493542A
:100C3B007F7861F6900142E0FEA3E0FF7C007D0A25
:100C4B00120601744A2DF58274213CF583E49378E6
:100C5B0062F69001027403F0900102E0245BF890BD
:100C6B00214AE493FFE6B5070A76FF900102E00400
:100C7B00F080E57855E66003020F5B7863E660036E
:100C8B00020F5B90013704F0A37401F0A37442F0E0
:100C9B0022785B76C10876FF0876FF0876FF087628
:100CAB00FF900148E0FAA3E0FB7C007D64FFAE02FD
:100CBB001206017C007D0A120601744A2DF582741E
:100CCB00213CF583E493547F7860F67C007D0AAF7A
:100CDB0003AE021206017C007D0A120601744A2D36
:100CEB00F58274213CF583E4937861F6900148E03A
:100CFB00FEA3E0FF7C007D0A120601744A2DF582EB
:100D0B0074213CF583E4937862F67855E660030230
:100D1B000F5B7863E66003020F5B90013704F0A36F
:100D2B007401F0A37448F022785B76830876FF0891
:100D3B0076FF0876FF0876FF900130E0FAA3E0FB20
:100D4B007C007D64FFAE021206017C007D0A120658
:100D5B0001744A2DF58274213CF583E493547F781A
:100D6B0060F67C007D0AAF03AE021206017C007DAB
:100D7B000A120601744A2DF58274213CF583E49323
:100D8B007861F6900130E0FEA3E0FF7C007D0A1253
:100D9B000601744A2DF58274213CF583E493786245
:100DAB00F67855E66003020F5B7863E66003020F8B
:100DBB005B90013704F0A37401F0A37430F0227838
:100DCB005B768E7B407A42790F780090013AE0FC9B
:100DDB00A3E0FDA3E0FEA3E0FF120692E47B0AFA78
:100DEB00F9F8120692744A2BF58274213AF583E4D2
:100DFB0093785CF67BA07A867901780090013AE0D3
:100E0B00FCA3E0FDA3E0FEA3E0FF120692E47B0A45
:100E1B00FAF9F8120692744A2BF58274213AF5838B
:100E2B00E493785DF6E47B107A27F9F890013AE0C9
:100E3B00FCA3E0FDA3E0FEA3E0FF120692E47B0A15
:100E4B00FAF9F8120692744A2BF58274213AF5835B
:100E5B00E493785EF6E47BE87A03F9F890013AE0E4
:100E6B00FCA3E0FDA3E0FEA3E0FF120692E47B0AE5
:100E7B00FAF9F8120692744A2BF58274213AF5832B
:100E8B00E493785FF6E47B64FAF9F890013AE0FCBE
:100E9B00A3E0FDA3E0FEA3E0FF120692E47B0AFAB7
:100EAB00F9F8120692744A2BF58274213AF583E411
:100EBB00937860F6E47B0AFAF9F890013AE0FCA328
:100ECB00E0FDA3E0FEA3E0FF120692E47B0AFAF931
:100EDB00F8120692744A2BF58274213AF583E49347
:100EEB007861F6E47B0AFAF9F890013AE0FCA3E0AA
:100EFB00FDA3E0FEA3E0FF120692744A2BF5827469
:100F0B00213AF583E4937862F69001027401F09034
:100F1B000102E0FF245BF890214AE493FEE6B5065C
:100F2B0018C3EF940874809480500E900102E02453
:100F3B005BF876FFE004F080D67855E670127863A4
:100F4B00E6700D90013704F0A37401F0A3743AF02E
:010F5B002273
:1023EA00438E0475D72075D6D143AF04D2AF438E3E
:0223FA001022AF
:1023B10053A2CFE4F5D8F5E9F5F975D90175DA112C
:0323C100D2AF2276
:10234B00759850438E40538EFE53890F758B8F7546
:0D235B008DFDC2ABD2ACD2AFD28E02242DCC
:10000E00538E7F438907E4F58AF58CC28DD2A9D22F
:04001E00AFD28C22AF
:08247B007F027E27DEFEDFFC7C
:012483002236
:0600030000007F21DFFE7A
:0100090022D4
:1023C40012095BC290D2911223B11223EA12000EB9
:0323D40002234B96
:0F241E00121DA3121CB612219D1223D70223FCFC
:10215800301D031213DF301E03121AD63019031272
:102168001BC6301C03122287201B03301A031217C8
:10217800AB7863E6600312202A7858E660031220E1
:1021880095900146E07002A3E06003121617301F15
:05219800031218D12222
:101CB600784EE66003021D687869E6640470089051
:101CC6000140F0A304806F7869E66405700790010F
:101CD60040F0A380617869E664087009900140F0DD
:101CE600A3740280517869E664097009900140F096
:101CF600A3740380417869E6640D702C900137E087
:101D0600F9A3E0FAA3E0900134C9F0A3EAF0A3E94D
:101D1600F0900140E0FFA3E0900144CFF0A3EFF084
:101D26007855760AD205806D7869E6640C700A905B
:101D36000140F0A37405F0805C7869E6641770587A
:101D46007855E670537863E6704E12094C90014060
:101D5600E4F0A37404F0D206784E76097858760A31
:101D660080367869E6640D7010784EE6167858F677
:101D7600784EE67002760A801C7869E66417701859
:101D8600C206900144E0FFA3E0900140CFF0A3EF2C
:0D1D9600F0E4784EF612095BE47869F6225D
:1013DF00D2001222D7500512241E80F67FCC122283
:1013EF00B07F441222B01222D7500512241E80F66D
:1013FF007FCC1222B07FBE1222B012003E900100AD
:10140F00EFF012003EEFFE900100E0FDEDFFAC06A5
:10141F00EC120211E4FBFA79C8784012006612024E
:10142F004A90013EEEF0A3EFF0A3E07002A3E0605C
:10143F000302161290013EE0FEA3E0FFC3EE94807C
:10144F00500302153FE49FFBE49EFA7C277D10AF0B
:10145F0003FE1206017C007D0A120601744A2DF567
:10146F008274213CF583E493785EF67C037DE8AFCC
:10147F0003AE021206017C007D0A120601744A2D8A
:10148F00F58274213CF583E493785FF690013EE09A
:10149F00FEA3E0FFC3E49FFBE49EFA7C007D64AFF4
:1014AF0003FE1206017C007D0A120601744A2DF517
:1014BF008274213CF583E493547F7860F67C007D41
:1014CF000AAF03AE021206017C007D0A12060174F8
:1014DF004A2DF58274213CF583E4937861F69001EF
:1014EF003EE0FEA3E0FFC3E49FFFE49EFE7C007D91
:1014FF000A120601744A2DF58274213CF583E49398
:10150F007862F69001017403F0900101E0245BF81A
:10151F0090214AE493FFE6B5070A76FF900101E0B8
:10152F0004F080E5900101E0245AF876BF0216120C
:10153F0090013EE0FAA3E0FB7C277D10FFAE021284
:10154F0006017C007D0A120601744A2DF582742172
:10155F003CF583E493785EF67C037DE8AF03AE023F
:10156F001206017C007D0A120601744A2DF5827461
:10157F00213CF583E493785FF690013EE0FAA3E017
:10158F00FB7C007D64FFAE021206017C007D0A1217
:10159F000601744A2DF58274213CF583E493547F40
:1015AF007860F67C007D0AAF03AE021206017C0064
:1015BF007D0A120601744A2DF58274213CF583E4ED
:1015CF00937861F690013EE0FEA3E0FF7C007D0A78
:1015DF00120601744A2DF58274213CF583E4937849
:1015EF0062F69001017403F0900101E0245BF89022
:1015FF00214AE493FFE6B5070A76FF900101E00464
:07160F00F080E5C21DC200DE
:0116160022B1
:102287007E08C21AC21BC21CAF061EEF600CD2909A
:10229700120003C29012000380EEE4F5E9F5F9C2DB
:0822A700D8C2DFD2DE43DA01E8
:0122AF00220C
:1017AB00201B030218A0900132E0FCA3E0FDE41221
:1017BB0002117B7B7A14792E783E12006612024A54
:1017CB00900142EEF0A3EFF0900140E07004A3E033
:1017DB00640160030218D0900142E0FAA3E0FB7CA5
:1017EB00277D10FFAE02120601744A2FF582742179
:1017FB003EF583E493785EF67C037DE8AF03AE029F
:10180B001206017C007D0A120601744A2DF58274C2
:10181B00213CF583E493785FF6900142E0FAA3E074
:10182B00FB7C007D64FFAE021206017C007D0A1278
:10183B000601744A2DF58274213CF583E49378609C
:10184B00F67C007D0AAF03AE021206017C007D0A16
:10185B00120601744A2DF58274213CF583E49354EE
:10186B007F7861F6900142E0FEA3E0FF7C007D0AE9
:10187B00120601744A2DF58274213CF583E49378AA
:10188B0062F67F03745B2FF890214AE49366703500
:10189B0076FF0F80EF301A2D9001427427F0A3745E
:1018AB000FF0900140E07004A3E0640170179021E9
:1018BB005393FF785EF608A60708A607EF547F0838
:0518CB00F6E49308F6AD
:0118D00022F5
:101AD600D202C21E12243C7F9012225212240D7F83
:101AE6000312225212240D12243C7F91122252120A
:101AF600240D122325C21012238412232590014897
:101B0600E4F0A3EFF0900148E0FCA3E0FDE412024C
:101B160011E4FBFA79FA7843120066E4FBFA797F5E
:101B2600784312016F12024A900148EEF0A3EFF0DB
:101B3600122464900140E07004A3E064027069908E
:101B46000148E0FAA3E0FB7C007D64FFAE021206CA
:101B5600017C007D0A120601744A2DF58274213C2F
:101B6600F583E493547F7860F67C007D0AAF03AE7C
:101B7600021206017C007D0A120601744A2DF582C6
:101B860074213CF583E4937861F6900148E0FEA366
:101B9600E0FF7C007D0A120601744A2DF58274214D
:101BA6003CF583E4937862F6D3900149E0942C9057
:101BB6000148E094014004D20E8002C20EC2022205
:101BC600D203C21912243C7F9012225212240D7F96
:101BD6000112225212240D12243C7F91122252121B
:101BE600240D122325C210122384122325900130BE
:101BF600E4F0A3EFF0900130E0FCA3E0FDE4120274
:101C060011E4FBFA79FA7843120066E4FBFA797F6D
:101C1600784312016F12024A900130EEF0A3EFF002
:101C2600122464900140E07004A3E064037069909C
:101C36000130E0FAA3E0FB7C007D64FFAE021206F1
:101C4600017C007D0A120601744A2DF58274213C3E
:101C5600F583E493547F7860F67C007D0AAF03AE8B
:101C6600021206017C007D0A120601744A2DF582D5
:101C760074213CF583E4937861F6900130E0FEA38D
:101C8600E0FF7C007D0A120601744A2DF58274215C
:101C96003CF583E4937862F6D3900131E0942C907E
:101CA6000130E094014004D20C8002C20CC203222F
:0F242D00D220E47852F6E606243CF8E6F5992230
:10202A0012243C7FA012225212240D7863E6142552
:10203A00E0FF12225212240D900137E0FBA3E0FACE
:10204A00A3E0F9120575FF12225212240D900137EE
:10205A00E0FBA3E0FAA3E0F990000112058EFF125B
:10206A00225212240D122464E47863F67855E6703D
:10207A0019C205900140E0FEA3E0FF900144E06E22
:0B208A007003A3E06F600312095B22EB
:1020950012243C7FA012225212240D7858E61425F2
:1020A500E0FF12225212240D12243C7FA11222526B
:1020B50012240D122325900134E0FBA3E0FAA3E0DE
:1020C500F9EF1205BBC210122384122325900134A7
:1020D500E0FBA3E0FAA3E0F9900001EF1205CD12B1
:1020E500246412094C900140E4F0A37404F0E478F0
:0320F50058F62278
:10161700900146E0FEA3E0FF7C007D08120784905E
:10162700013A120732900140E07004A3E0640560BC
:10163700030217A37B407A42790FF890013AE0FC46
:10164700A3E0FDA3E0FEA3E0FF120692E47B0AFA03
:10165700F9F8120692744A2BF58274213AF583E45D
:1016670093785CF67BA07A867901780090013AE05E
:10167700FCA3E0FDA3E0FEA3E0FF120692E47B0AD1
:10168700FAF9F8120692744A2BF58274213AF58317
:10169700E493785DF6E47B107A27F9F890013AE055
:1016A700FCA3E0FDA3E0FEA3E0FF120692E47B0AA1
:1016B700FAF9F8120692744A2BF58274213AF583E7
:1016C700E493785EF6E47BE87A03F9F890013AE070
:1016D700FCA3E0FDA3E0FEA3E0FF120692E47B0A71
:1016E700FAF9F8120692744A2BF58274213AF583B7
:1016F700E493785FF6E47B64FAF9F890013AE0FC4A
:10170700A3E0FDA3E0FEA3E0FF120692E47B0AFA42
:10171700F9F8120692744A2BF58274213AF583E49C
:10172700937860F6E47B0AFAF9F890013AE0FCA3B3
:10173700E0FDA3E0FEA3E0FF120692E47B0AFAF9BC
:10174700F8120692744A2BF58274213AF583E493D2
:101757007861F6E47B0AFAF9F890013AE0FCA3E035
:10176700FDA3E0FEA3E0FF120692744A2BF58274F4
:10177700213AF583E4937862F67F01745B2FF89042
:10178700214AE493FEE6B50613EFC39408748094E8
:10179700805009745B2FF876FF0F80DFE4900146D5
:0317A700F0A3F0BC
:0117AA00221C
:1018D100D204C21F782C7C007D007BFF7A2079F82E
:1018E10012092FEF3395E04F701B30200512241E93
:1018F10080F890010374FFF0A37420F0A374FFF04B
:1019010090013E8071782C7C007D007BFF7A2179EB
:101911000D12092FEF3395E04F702C302005122462
:101921001E80F890010374FFF0A37421F0A37413D7
:10193100F0900142E0FCA3E0FDE4120211E4FBFAA5
:10194100792078410219C8782C7C007D007BFF7AD0
:1019510021792012092FEF3395E04F702B302005AC
:1019610012241E80F890010374FFF0A37421F0A3E8
:101971007426F0900148E0FCA3E0FDE4120211E4BA
:10198100FBFA79C87842803F782C7C007D007BFF90
:101991007A21793212092FEF3395E04F703E3020D2
:1019A1000512241E80F890010374FFF0A37421F046
:1019B100A3743BF0900130E0FCA3E0FDE4120211BE
:1019C100E4FBFA79C8784212016F900106120732DE
:0F19D1007B007A00793C120FC112242DC2042230
:101DA30075C0FF75B0FF53B0F320C2047F018002FA
:101DB3007F0020B5047E0180027E00EE4FFF20C429
:101DC300047E0180027E00EE4F60747867E6184659
:101DD3006003021E78F6087601A2B533C43354E0DB
:101DE300FEA2C2E433C4333354C04EFEA2C4E43370
:101DF300FFC433333354804EFE75B0FFC2B5E4F5F0
:101E0300C0120003E5B0540C4E2498601924C4603A
:101E13001A24FC601B24E4601C24FC601D246470F1
:101E230054786576042278657605227865760822EB
:101E330078657609227865760C227865760D2278A6
:101E430066E6FE08E6FFD394E8EE9403400EE4183A
:101E5300F608F67865E6240A7969F722D3EF940247
:101E6300EE9400E47866400AF608F67865E6786949
:051E7300F622F608F65E
:011E78002247
:10219D00E4FDEDC3940874809480503053A01FA8C3
:1021AD00057401088002C333D8FCF580902156E4F4
:1021BD009342A00053A01F745B2DF8E6F580A3E4B5
:0C21CD009342A012247B7580FF0D80C699
:0121D90022E3
:1023D70053A01FE520F4F580902154E49342A053C5
:0323E700A01F2212
:1023FC0053A01F852180902155E49342A053A01F28
:01240C0022AD
:0B2470001223C412241E12215880F811
:03000B0002244B81
:0D244B00C0D075D008786A06C28DD0D0329E
:03002300021FBAFF
:101FBA00C0E0C0D075D01030983AC2987851E6FF88
:101FCA00242CF8A699742C2FF8E6FFB43F02800F50
:101FDA00EFB40A11785106E6242CF87600D21F785D
:101FEA00517600800F785106E6C3940F748094806E
:101FFA0040027600309924C2997852E6243CF8E6E9
:10200A006013F599785206E6C3940F748094804061
:10201A000A7600800678527600C220D0D0D0E0320C
:03003B0002221787
:10221700C0E0C083C082C0D075D01830D818C2D8EB
:10222700AFFAEFFFADEAED900132CFF0A3EFF0D2B6
:102237001BC2DE53DAFE30DF09C2DFD21AC2DE5319
:0B224700DAFED0D0D082D083D0E0328D
:030063000219E09F
:1019E000C0E0C083C082C0D075D018782BE61846FE
:1019F000600708E616187001167854E61846600964
:101A000008E61618700C168009785376010876F4EB
:101A1000D21D7857E61846600908E61618700C16AD
:101A20008009785676030876E8D21C785AE618467C
:101A3000600908E61618700C1680097859760108B6
:101A400076F4D21E786CE61846600908E61618701F
:101A50000C168009786B76010876F4D219784DE679
:101A60001846600908E616187014168011784C762E
:101A7000030876E87855E66005E6167863F6785050
:101A8000E61846600908E616187028168025784F73
:101A9000760008767DC28C900146E58AF0A3E58C3D
:101AA000F0786AE67868F6786A7600758C00758A50
:101AB00000D28C7867E6184660130806E6187001B5
:101AC00006861E4E7007786676030876E9D0D0D079
:061AD00082D083D0E03259
:10236800E4FEEEC3940874809480500FC297EF1374
:0B23780092A3EFC313FFD2970E80E783
:012383002237
:10002600C29300C29700D29300122368AF05122331
:0400360068C29322E7
:1021DA00E4FDC29300C29700D29300122368E4FF81
:1021EA00EFC39408748094805011C297EDC313FD15
:1021FA0030A3034480FDD2970F80E5C29300C297B3
:0C220A0000D29700C2A300D2A300AF05D1
:0122160022A5
:04245800D2A07F058A
:08245C0000AE071FEE70F9222B
:0F243C00D2A1122458C2A17F0512245CC2A02293
:0C246400C2A1122458D2A17F0502245C02
:10238400C2A0A21092A17F0512245C122458C2A0FC
:07239400D2A17F0502245CC9
:10240D00122458A2A19210C2A07F0512245CA21022
:01241D00229C
:02225200AD07D6
:10225400E4FCECC39408748094805024C2A07F05ED
:1022640012245CED30E704D2A18002C2A17F0512E2
:10227400245CD2A0ED25E0FD7F0512245C0C80D205
:02228400C2A0F6
:012286002235
:10232500E4FCECC39408748094805017122458ED93
:1023350025E0FD30A1034401FDC2A07F0512245C08
:052345000C80DFAF0574
:01234A002270
:04239B007F057E003C
:10239F007C007D0C1205EFEF1FAC0670011E4C7018
:0223AF00F62214
:0222B000AB077A
:1022B200E4FAEAC39408748094805012C294EB1337
:1022C200929412239BD294EBC313FB0A80E47F0502
:0522D2007E0002239FC5
:10003E00E4FAEAC39408748094805014C294EBC31B
:10004E0013FBD2943094034480FB12239B0A80E26C
:02005E00AF03EE
:01006000227D
:1022D700C210D2947F0C7E0012239FC2947F507E3F
:1022E7000012239FD29412239BA29492107F0A7EFE
:0622F7000012239FA2105B
:0122FD0022BE
:10006600EC4D6011E8497017ED33EC3304600DE494
:10007600FCFFFEFD22E933E8330470F80202B612F3
:10008600028158046009E4CC2481500628500902F4
:1000960002C02840030202BDC0E0EB4A7044B980AA
:1000A60006D0E0FB0202ACEF4E701CBD8008EBFFF1
:1000B600EAFEE9FD80EBE98DF0A4FEE5F002014FD2
:1000C600E9CDF9EAFEEBFFEF89F0A4FCE5F0CE8975
:1000D600F0A42EFFE435F0CD89F0A42DFEE435F032
:1000E6008067EF4E7005BD80D780C3EF8BF0A4AC60
:1000F600F0EE8BF0A42CFCE435F0F8EF8AF0A42C9B
:10010600E5F038FCE433CB8DF0A42CFCE5F03BF8AD
:10011600EE8AF0A42CFCE5F038F8E433CF89F0A49D
:100126002CFCE5F038CF3400CE89F0A42FFFE5F0A3
:100136003EFEE433C98DF0A42EFEE5F039CD8AF0FB
:10014600A42FFFE5F03EFEE43DFD33D0E0FB500773
:100156000BBB000F0202C0EC2CFCEF33FFEE33FEAC
:06016600ED33FD020298DA
:10016C000202C0EC5D046005E8590470030202B69B
:10017C00120281580460F6EC4860F2EC7004FDFE4B
:10018C00FF22C860DB2481C85009C3986002500666
:10019C000202BD9850CAF582E9294B4A7005AB8220
:1001AC000202AC75F0007C1A7880C3EF9BEE9AEDDE
:1001BC0099400DC3EF9BFFEE9AFEED99FDE842F0DE
:1001CC00DC23ACF0D0E0FFD0E0FED0E0FDAB822031
:1001DC00E7101BEB60BAEC2CFCEF33FFEE33FEEDBB
:1001EC0033FD020298E803F830E705C0F075F00023
:1001FC00EF2FFFEE33FEED33FD40B830E7C280AA9F
:10020C0075F020800E75F010800575F0087D007E6D
:10021C00007F003392D530D503120724EC33401005
:10022C00EF33FFEE33FEED33FDEC33FCD5F0ED2276
:0E023C00E5F0247EA2D513CC92E7CDCEFF22B2
:10024A00EDD2E7CD33EC3392D524814006E4FFFEAC
:10025A00FDFC22FCE4CFCECDCC24E0501174FF800B
:10026A00EDC3CC13CCCD13CDCE13CECF13CF0470A8
:07027A00F030D5DE0207247D
:100F5C00E5252403F582E43401F583E00525229090
:100F6C000100301703900103E475F00112073E02F3
:100F7C0005752010E97F2ED2108018EF540F2490A5
:100F8C00D43440D4FF30140BEF24BFB41A005003F8
:100F9C002461FFE526600215260529E52970020566
:100FAC002830170E900100E475F00112073EEF0295
:100FBC0005BB0222FE7403D2178003E4C217F52589
:100FCC00900100120755E4F526F528F529E5266071
:100FDC00077F20120F9F80F57527FFC211C210C228
:100FEC0012C213C215C216C218120F6BFF700D304D
:100FFC0017057F00120FB0AF29AE2822B4255FC2AF
:10100C00D5C214120F6BFF24D0B40A00501A75F01D
:10101C000A782630D50508B6FF0106C6A426F620A8
:10102C00D5047002D21380D924CFB41A00EF500427
:10103C00C2E5D2140212A2D21180C6D21080C0D244
:10104C001280BCD2D580BAD21580B47F20120F9FEB
:10105C002012077401B5260040F1120F5CFF120F2D
:10106C009F020FD9D218D2168095120F5CFB120F6B
:10107C005CFA120F5CF94A4B700679A07A137BFF6D
:10108C0020122EE526602A7E008E827583001205C2
:10109C008E60060EEE652770F0C2D5EBC0E0EAC09C
:1010AC00E0E9C0E0EE121303D0E0F9D0E0FAD0E0B2
:1010BC00FB120575FF60AAEBC0E0EAC0E0E9C0E0F6
:1010CC00120F9FD0E02401F9D0E03400FAD0E0FBFD
:1010DC00E5270460DCD527D98087D21280A21212B2
:1010EC00E560F7E5277001041202CBA927600DE536
:1010FC0027600914F52712138DEF60F3EA30E7022D
:10110C00F404C3995079EAF425270430E701E40488
:10111C00F527800D1212E560C1EA0527252712027A
:10112C00CBEA90012FF030E701E4252704D5270402
:10113C0020150114121303E4C0E012138D90012F3B
:10114C00E0601320E70714F0120F87802204F0D020
:10115C00E014C0E07F00120F87E5276007120F7EB6
:10116C001527800B301503120F7ED0E0020FD9D05B
:10117C00E00480C41212E5609EE527041202CB90B5
:10118C00012FEAF0E5272015026001042404121354
:01119C00034F
:10119D0074FF04C0E012138D120F87E5272015028E
:1011AD006003120F7ED0E0B527E87F45120F9190B6
:1011BD00012FE07F2B30E7047F2DF404C0E0120FE8
:1011CD009FD0E075F00A84C0F0120F88D0E0120FA6
:1011DD0088020FD9791080027908C216C2188008CA
:1011ED00D2D5790A8004790AC2D5E527047002F5B3
:1011FD0027E4FAFDFEFF120F5CFC7B082011131291
:10120D000F5CFD7B1030100A120F5CFE120F5CFF9D
:10121D007B20EC3382D592D55013C3E43010069F5A
:10122D00FFE49EFEE42011039DFDE49CFCE4CBF85D
:10123D00C211EC700CCFCECDCCE824F8F870F38051
:10124D0017C3EF33FFEE33FEED33FDEC33FCEB3321
:10125D00FB994002FB0FD8E9EB301105F8D0E0C443
:10126D0048B211C0E00AEC4D4E4F78207B0070C2A1
:10127D00EAB5270040BCC0E0121305D0F0D0E02045
:10128D001104C4C0E0C4B211C0F0120F88D0F0D563
:10129D00F0EB020FD912075E10765311E15810478B
:1012AD004C10434211E54F11ED4411ED49105C43D3
:1012BD0011F35511204611804510EA4713C0501007
:1012CD004B2D104F2E10722B10532310702013A97D
:1012DD002A100B480000106AE527B4FF0375270696
:1012ED00120F5CFC120F5CFD120F5CFE120F5CFF07
:1012FD00900128020308790AA2D52013143015098C
:10130D00B910020404B9080104A2D5201602500137
:10131D00042012689212B526005034C0E07F2030B0
:10132D0013197F30A21272167215500F12135CC270
:10133D0012C216C215C2187F30800F301503E9C0D6
:10134D00E0120F9F301503D0E0F9D0E0B526CC3078
:10135D0015177F30B9100C120F9F7F583014077F6F
:10136D00788003B90803120F9F3012057F2D020FED
:10137D009F7F202018F87F2B2016F322921280CF0A
:10138D007F00B40700500B2428F582E43401F58367
:10139D00E0FF22286E756C6C2900D211120F5C30A3
:1013AD0011F8C211782630D50108F602100B2D5018
:1013BD00434958120F5C2403B405004001E4901317
:1013CD00BB93120F90743A120F90D213752604022C
:0213DD0011E11C
:10028100E9D2E7C933E833F892D5EDD2E7CD33ECC3
:0702910033FC5002B2D5223C
:10029800EC30E7100FBF000C0EBE00080DBD0004C7
:1002A8000BEB6014A2D5EB13FCED92E7FD2274FF73
:1002B800FCFDFEFF22E480F8A2D574FF13FC7D80CC
:0302C800E480EFE0
:1002CB00F920E73624F950037907E4F42402FBE51F
:1002DB0082158270021583DBF6E024FB501BE9606C
:1002EB0014E4F0E582158270021583E004F0B40A81
:0D02FB0008E4F0D9EE7401F00A22C2D52209
:10030800ED33EC3392D5FA602AB4FF33EDC2E77BC4
:10031800FF60067A03792DE4227A03793620D50422
:100328007A037931224E614E002B494E46002D4901
:100338004E4600E47A08F0A3DAFC7B00740722C07A
:1003480083C082ECC0E0EDC0E0EEC0E0EFC0E0EAC0
:1003580075F010A4CAABF075F04DA42BFBE435F092
:10036800FCEA2410FAEB34C5FBEC34D9FCEDC2E707
:10037800FF75F056A4F42411C5F0F434C58FF0A429
:100388002AE5F03BE43CF020E714120535D0E0FF05
:10039800D0E0FED0E0FDD0E0FC12016F8014F40440
:1003A800120535D0E0FFD0E0FED0E0FDD0E0FC1231
:1003B8000066D082D083E0FAEDD2E7CD33EC332467
:1003C80082FBE4C3CF33CFCE33CECD33CD33DBF393
:1003D8007B0775F00A846004F0A31B0AE5F0F0A31C
:1003E8008FF0740AA4FFACF08EF0740AA42CFEAC53
:1003F800F050010C8DF0740AA42CFDE435F0F0A344
:05040800DBDE74072299
:10040D000202B6E86480F8E933E83360110460F065
:10041D00ED33EC337009E8FCE9FDEAFEEBFF220455
:10042D0060DED3EB9FEA9EE99DE8C2E78CF0C2F750
:10043D0095F0400CE8CCF8E9CDF9EACEFAEBCFFB1C
:10044D0012028185D0F05804700320D5B3E80470F2
:10045D00075002B2D50202C092D5EC0460F7E4CC8D
:10046D00C0E0C398F8603B94186008400DD0E0FBE5
:10047D00020298E4FBFAC9FC8028E830E406E4C9DE
:10048D00FBE4CAFCE830E305E4C9CACBFCE8540739
:10049D006010F8C3E913F9EA13FAEB13FBEC13FC44
:1004AD00D8F130F52FC3E49CFCEF9BFFEE9AFEEDE7
:1004BD0099FDD0E0FBEF4E4D4C701222DB03020292
:1004CD00BDEC2CFCEF33FFEE33FEED33FDED30E7ED
:1004DD00EB020298EF2BFFEE3AFEED39FDD0E0FB7B
:1004ED0050130BBB00030202C0ED13FDEE13FEEF24
:0804FD0013FFEC13FC0202984E
:100505003F8000004120000042C80000447A0000FE
:10051500461C400047C35000497424004B18968080
:100525004CBEBC205A0E1BCA6753C21C749DC5AE77
:10053500FB60065407601C2323120563EB543860E7
:100545000912054F12055E120066ECF8EDF9EEFA98
:10055500EFCB22EB12055E80F1543803241C900585
:1005650005FE93FC0EEE93FD0EEE930ECE93FF2249
:03000000021F2EAE
:0C1F2E00787FE4F6D8FD75816C021F7509
:10057500BB010689828A83E0225002E722BBFE0284
:09058500E32289828A83E49322B7
:10058E00BB010CE58229F582E5833AF583E0225022
:10059E0006E92582F8E622BBFE06E92582F8E2226C
:0D05AE00E58229F582E5833AF583E4932286
:1005BB00BB010689828A83F0225002F722BBFE011F
:0205CB00F32219
:1005CD00F8BB010DE58229F582E5833AF583E8F064
:1005DD00225006E92582C8F622BBFE05E92582C810
:0205ED00F222F8
:1005EF00EF8DF0A4A8F0CF8CF0A428CE8DF0A42E20
:0205FF00FE22DA
:10060100BC000BBE0029EF8DF084FFADF022E4CCDD
:10061100F875F008EF2FFFEE33FEEC33FCEE9DECA6
:10062100984005FCEE9DFE0FD5F0E9E4CEFD22EDEC
:10063100F8F5F0EE8420D21CFEADF075F008EF2F36
:10064100FFED33FD4007985006D5F0F222C398FD27
:050651000FD5F0EA22C4
:1006560075F008758200EF2FFFEE33FECD33CDCC5B
:1006660033CCC58233C5829BED9AEC99E5829840DE
:100676000CF582EE9BFEED9AFDEC99FC0FD5F0D6BB
:10068600E4CEFBE4CDFAE4CCF9A88222B800C1B9E5
:100696000059BA002DEC8BF084CFCECDFCE5F0CB23
:1006A600F97818EF2FFFEE33FEED33FDEC33FCEB5C
:1006B60033FB10D703994004EB99FB0FD8E5E4F917
:1006C600FA227818EF2FFFEE33FEED33FDEC33FC04
:1006D600C933C910D7059BE99A4007EC9BFCE99AF8
:1006E600F90FD8E0E4C9FAE4CCFB2275F010EF2F3D
:1006F600FFEE33FEED33FDCC33CCC833C810D7073D
:100706009BEC9AE899400AED9BFDEC9AFCE899F877
:0E0716000FD5F0DAE4CDFBE4CCFAE4C8F9220A
:0E072400C3E49FFFE49EFEE49DFDE49CFC22E6
:0C073200ECF0A3EDF0A3EEF0A3EFF0223A
:10073E00F8E0FBA3A3E0F925F0F0E5821582700244
:07074E001583E0FA38F022E8
:09075500EBF0A3EAF0A3E9F022A5
:10075E00D083D082F8E4937012740193700DA3A32A
:10076E0093F8740193F5828883E47374029368603E
:06077E00EFA3A3A380DF3E
:10078400EC8EF0A4CCC5F0CCCDF8EFA4CEC5F02D02
:10079400FDE43CFCE8A42EC8C5F03DFDE43CFCEFC0
:0D07A400A4FFE5F028FEE43DFDE43CFC224E
:1022FE00EFB40A07740D122309740A309811A899C5
:10230E00B8130CC2983098FDA899C298B811F6303F
:07231E0099FDC299F5992217
:1007B100E3F5F009E208B5F06D606B80F3E3F5F065
:1007C10009E608B5F060605E80F387F009E608B5D8
:1007D100F054605280F487F009E208B5F0486046B1
:1007E10080F488828C8387F009E0A3B5F038603605
:1007F10080F488828C8387F009E493A3B5F02760A5
:100801002580F388828C83E3F5F009E0A3B5F01627
:10081100601480F388828C83E3F5F009E493A3B537
:10082100F004600280F20208DC808580E7808E801F
:10083100D2803C8015806C807E809B80B5808B80CF
:10084100A1804F8070803A0208E889828A83ECFA9D
:10085100E493F5F0A3C8C582C8CCC583CCE493A3C7
:10086100C8C582C8CCC583CCB5F070606E80E18903
:10087100828A83E493F5F0A3E208B5F05E605C80C0
:10088100F289828A83E0F5F0A3E608B5F04D604B6A
:1008910080F389828A83E0F5F0A3E208B5F03C6039
:1008A1003A80F389828A83E493F5F0A3E608B5F0F0
:1008B1002A602880F2805389828A83ECFAE493F5D6
:1008C100F0A3C8C582C8CCC583CCE0A3C8C582C883
:1008D100CCC583CCB5F004600280E27FFFB5F002A5
:1008E1000F2240027F012289828A83ECFAE0F5F02F
:1008F100A3C8C582C8CCC583CCE0A3C8C582C8CC77
:10090100C583CCB5F0D560D380E389828A83ECFAC4
:10091100E0F5F0A3C8C582C8CCC583CCE493A3C8D5
:10092100C582C8CCC583CCB5F0B160AF80E288F098
:10093100ED2402B4040050A3F582EB2402B40400B8
:0B0941005099232345822390082A735D
:101F3A00022470E493A3F8E493A34003F68001F229
:101F4A0008DFF48029E493A3F85407240CC8C333A8
:101F5A00C4540F4420C8834004F456800146F6DF77
:101F6A00E4800B0102040810204080901E79E47E70
:101F7A00019360BCA3FF543F30E509541FFEE4936C
:101F8A00A360010ECF54C025E060A840B8E493A333
:101F9A00FAE493A3F8E493A3C8C582C8CAC583CA5E
:101FAA00F0A3C8C582C8CAC583CADFE9DEE780BE16
:011F2D0000B3
:00000001FF
