:1019050074656D700D0A0074656D703A252E32662A
:1019150027430D0A006C656E0D0A006C656E3A254D
:101925002E3166636D0D0A00766F6C0D0A00766FB9
:101935006C3A252E3266560D0A0062726967687424
:101945000D0A006272696768743A252E3266560D73
:101955000A00C0F9A4B0999282F8809080A0C0E0F6
:10177400012000012100C11CC11DC11EC119C11AD3
:10178400C11BC120C11F01500101530108540000B5
:101794000000000000001037696E69745F77656CA3
:1017A4006C0D0A000000000010270000000000007B
:1017B40000000000000000000000015E0001610064
:1017C400014A00014900015D00014D00015C000275
:1017D4005F0000024B00FA0251007D024E0000023D
:1017E40062017702250000024701F4420132000041
:1017F400420137F830420139001442013B00FA42F9
:04180400013000FAB5
:100CB2007850E6147003020EB9147003020FC214C6
:100CC200700302104A240360030210D1785476C6DE
:100CD2000876FF0876FF0876FF900137E0FEA3E072
:100CE200FFC3EE94805003020DD7E49FFBE49EFA0B
:100CF2007C277D10AF03FE1205DF7C007D0A120502
:100D0200DF74572DF58274193CF583E4937857F616
:100D12007C037DE8AF03AE021205DF7C007D0A1280
:100D220005DF74572DF58274193CF583E4937858E6
:100D3200F6900137E0FEA3E0FFC3E49FFBE49EFAD6
:100D42007C007D64AF03FE1205DF7C007D0A120584
:100D5200DF74572DF58274193CF583E493547F7840
:100D620059F67C007D0AAF03AE021205DF7C007DDE
:100D72000A1205DF74572DF58274193CF583E4934A
:100D8200785AF6900137E0FEA3E0FFC3E49FFFE448
:100D92009EFE7C007D0A1205DF74572DF5827419C0
:100DA2003CF583E493785BF69001017403F09001C3
:100DB20001E02454F8901957E493FFE6B5070A7648
:100DC200FF900101E004F080E5900101E02453F876
:100DD20076BF020EAA900137E0FAA3E0FB7C277DE2
:100DE20010FFAE021205DF7C007D0A1205DF745788
:100DF2002DF58274193CF583E4937857F67C037DD4
:100E0200E8AF03AE021205DF7C007D0A1205DF7433
:100E1200572DF58274193CF583E4937858F69001C6
:100E220037E0FAA3E0FB7C007D64FFAE021205DF2F
:100E32007C007D0A1205DF74572DF58274193CF58A
:100E420083E493547F7859F67C007D0AAF03AE02A7
:100E52001205DF7C007D0A1205DF74572DF58274BE
:100E6200193CF583E493785AF6900137E0FEA3E04B
:100E7200FF7C007D0A1205DF74572DF58274193C40
:100E8200F583E493785BF69001017403F09001011D
:100E9200E02454F8901957E493FFE6B5070A76FF69
:100EA200900101E004F080E59001347401F0A37434
:100EB20001F0A37437F022785476C70876FF0876DB
:100EC200FF900132E07002A3E0701A90196093FF64
:100ED2007857F608A60708A607EF547F08F6E493AA
:100EE20008F6020FB3900139E0FAA3E0FB7C277DFC
:100EF20010FFAE021205DF74572FF58274193EF50A
:100F020083E4937857F67C037DE8AF03AE021205C3
:100F1200DF7C007D0A1205DF74572DF58274193CBF
:100F2200F583E4937858F6900139E0FAA3E0FB7C6C
:100F3200007D64FFAE021205DF7C007D0A1205DF30
:100F420074572DF58274193CF583E4937859F67C35
:100F5200007D0AAF03AE021205DF7C007D0A120596
:100F6200DF74572DF58274193CF583E493547F782E
:100F72005AF6900139E0FEA3E0FF7C007D0A1205DB
:100F8200DF74572DF58274193CF583E493785BF690
:100F92009001017403F0900101E02454F890195774
:100FA200E493FFE6B5070A76FF900101E004F080C2
:100FB200E59001347401F0A37401F0A37439F022B6
:100FC200785476C10876FF0876FF0876FF0876FF28
:100FD20090013BE0FAA3E0FB7C007D64FFAE0212CD
:100FE20005DF7C007D0A1205DF74572DF582741926
:100FF2003CF583E493547F7859F67C007D0AAF0375
:10100200AE021205DF7C007D0A1205DF74572DF552
:101012008274193CF583E493785AF690013BE0FE22
:10102200A3E0FF7C007D0A1205DF74572DF5827460
:10103200193CF583E493785BF69001347401F0A3D4
:101042007401F0A3743BF022785476830876FF088B
:1010520076FF0876FF0876FF900130E0FAA3E0FB06
:101062007C007D64FFAE021205DF7C007D0A120562
:10107200DF74572DF58274193CF583E493547F781D
:1010820059F67C007D0AAF03AE021205DF7C007DBB
:101092000A1205DF74572DF58274193CF583E49327
:1010A200785AF6900130E0FEA3E0FF7C007D0A1240
:1010B20005DF74572DF58274193CF583E493785B50
:0F10C200F69001347401F0A37401F0A37430F0C0
:0110D10022FC
:101C5200438E0475D72075D6D143AF04D2AF438EDD
:021C620010224E
:101C2C0053A2CFE4F5D8F5E9F5F975D90175DA11B8
:031C3C00D2AF2202
:10000300759850438E40538EFE53890F758B8F75B1
:0D0013008DFDC2ABD2ACD2AFD28E021CA5C7
:081CE6007F027E27DEFEDFFC19
:011CEE0022D3
:061CEF0000007F21DFFE72
:011CF50022CC
:101C8600120CB2C290D291121C2C121C52020003EA
:0F1C96001212FD1219B9121A05121C3F021C641A
:101AEF00301C031213F2301E031214E530190312C7
:101AFF0015D0301D03121B1F201B03301A031210A9
:101B0F00D2785CE66003121965301F031211EE22C2
:1019B9007861E6FF7E006404700678507601803510
:1019C900EF64054E70057850F6802AEF64084E7072
:1019D9000678507602801EEF64094E7006785076BC
:1019E900038012EF640D4E700C7850E67853F67848
:0C19F9004D760AD205E47861F6020CB2CB
:1013F200D200C21C121B6F5005121C9680F67FCCC5
:10140200121B487F44121B48121B6F5005121C9678
:1014120080F67FCC121B487FBE121B4812003E9002
:101422000100EFF012003EEFFE900100E0FDEDFF43
:10143200AC06EC120211E4FBFA79C878401200669D
:1014420012024A900137EEF0A3EFF07850E6600303
:101452000214E2900137E0FAA3E0FB7C037DE8FF8F
:10146200AE021205DF7C007D0A1205DF74572DF5EE
:101472008274193CF583E4937858F67C007D64AF5E
:1014820003AE021205DF7C007D0A1205DF74572DC0
:10149200F58274193CF583E493547F7859F69001F0
:1014A20037E0FAA3E0FB7C007D0AFFAE021205DF03
:1014B2007C007D0A1205DF74572DF58274193CF504
:1014C20083E493785AF67C007D0AAF03AE021205DC
:1014D200DF74572DF58274193CF583E493785BF63B
:0214E200C20046
:0114E40022E5
:101B1F007E08C21AC21BC21DAF061EEF600CD29008
:101B2F00121CEFC290121CEF80EEE4F5E9F5F9C23A
:081B3F00D8C2DFD2DE43DA0157
:011B4700227B
:1010D200201B030211C2900132E0FCA3E0FDE412E6
:1010E20002117B7B7A14792E783E12006612024A34
:1010F200900139EEF0A3EFF07850E664016003024C
:1011020011ED900139E0FAA3E0FB7C277D10FFAEE0
:10111200021205DF74572FF58274193EF583E493AA
:101122007857F67C037DE8AF03AE021205DF7C0040
:101132007D0A1205DF74572DF58274193CF583E49C
:10114200937858F6900139E0FAA3E0FB7C007D64C5
:10115200FFAE021205DF7C007D0A1205DF74572DF7
:10116200F58274193CF583E4937859F67C007D0A84
:10117200AF03AE021205DF7C007D0A1205DF745751
:101182002DF58274193CF583E493547F785AF690D6
:101192000139E0FEA3E0FF7C007D0A1205DF7457EF
:1011A2002DF58274193CF583E493785BF67F037422
:1011B200542FF8901957E49366703076FF0F80EF42
:1011C200301A289001397427F0A3740FF07850E692
:1011D2006401701790196093FF7857F608A6070804
:0B11E200A607EF547F08F6E49308F620
:0111ED0022DF
:1014E500D202C21E121CB47F90121ABA121C757F4A
:1014F50003121ABA121C75121CB47F91121ABA1271
:101505001C75121BBDC210121BFF121BBD90013BA7
:10151500E4F0A3EFF090013BE0FCA3E0FDE4120250
:1015250011E4FBFA79FA7843120066E4FBFA797F55
:10153500784312016F12024A90013BEEF0A3EFF0DF
:10154500121CCF7850E66402706990013BE0FAA363
:10155500E0FB7C007D64FFAE021205DF7C007D0AA6
:101565001205DF74572DF58274193CF583E4935405
:101575007F7859F67C007D0AAF03AE021205DF7C49
:10158500007D0A1205DF74572DF58274193CF58329
:10159500E493785AF690013BE0FEA3E0FF7C007DE2
:1015A5000A1205DF74572DF58274193CF583E4930F
:1015B500785BF6D390013CE0942C90013BE09401DC
:0B15C5004004D20E8002C20EC20222BF
:1015D000D203C219121CB47F90121ABA121C757F62
:1015E00001121ABA121C75121CB47F91121ABA1287
:1015F0001C75121BBDC210121BFF121BBD900130C7
:10160000E4F0A3EFF0900130E0FCA3E0FDE412026F
:1016100011E4FBFA79FA7843120066E4FBFA797F69
:10162000784312016F12024A900130EEF0A3EFF0FE
:10163000121CCF7850E664037069900130E0FAA381
:10164000E0FB7C007D64FFAE021205DF7C007D0ABA
:101650001205DF74572DF58274193CF583E4935419
:101660007F7859F67C007D0AAF03AE021205DF7C5D
:10167000007D0A1205DF74572DF58274193CF5833D
:10168000E493785AF6900130E0FEA3E0FF7C007D01
:101690000A1205DF74572DF58274193CF583E49323
:1016A000785BF6D3900131E0942C900130E0940106
:0B16B0004004D20C8002C20CC20322D6
:0F1CA500D220E4784AF6E6062437F8E6F59922CD
:10196500121CB47FA0121ABA121C75785CE61425F5
:10197500E0FF121ABA121C75900134E0FBA3E0FADD
:10198500A3E0F9120575FF121ABA121C75900134FD
:10199500E0FBA3E0FAA3E0F990000112058EFF1227
:1019A5001ABA121C75121CCFE4785CF6784DE670F5
:0419B50002C2052243
:0100200022BD
:1011EE00D204C21F78277C007D007BFF7A19790517
:1011FE00120812EF3395E04F701B302005121C962B
:10120E0080F890010374FFF0A37419F0A3740CF02E
:10121E00900137807178277C007D007BFF7A1979E9
:10122E001A120812EF3395E04F702C302005121C65
:10123E009680F890010374FFF0A37419F0A3742044
:10124E00F0900139E0FCA3E0FDE4120211E4FBFA98
:10125E00792078410212E578277C007D007BFF7AA9
:10126E0019792D120812EF3395E04F702B302005AF
:10127E00121C9680F890010374FFF0A37419F0A36A
:10128E007433F090013BE0FCA3E0FDE4120211E4A4
:10129E00FBFA79C87842803F78277C007D007BFF7F
:1012AE007A19793F120812EF3395E04F703E3020D5
:1012BE0005121C9680F890010374FFF0A37419F0C8
:1012CE00A37448F0900130E0FCA3E0FDE41202119B
:1012DE00E4FBFA79C8784212016F900106120642B9
:0F12EE007B007A007937120894121CA5C20422E3
:1012FD0075C0FF75B0FF53B0F320B5047F018002B8
:10130D007F0020B4047E0180027E00EE4FFF20C2DC
:10131D00047E0180027E00EE4FFF20C4047E01801A
:10132D00027E00EE4F70030213BB7860E618466034
:10133D00030213F1F6087601E5B05430FEA2C2E4C3
:10134D0033C4333354C04EFEA2C4E433FFC433332D
:10135D003354804EFE75B0FF53B0CFE4F5C0121C70
:10136D00EFE5B0540C4E2488602124C4602224FC87
:10137D00602324E4602424FC602524F4602624FCEE
:10138D0060272474705E785E760422785E7605227E
:10139D00785E760822785E760922785E760C227861
:1013AD005E760D22785E761022785E761122785F59
:1013BD00E6FE08E6FFD394E8EE9403400EE418F63B
:1013CD0008F6785EE6240A7961F722D3EF9402EEEF
:1013DD009400E4785F400AF608F6785EE67861F6E8
:0413ED0022F608F6E6
:0113F10022D9
:101A0500E4FDEDC3940874809480503053A01FA862
:101A1500057401088002C333D8FCF580901963E48E
:101A25009342A00053A01F74542DF8E6F580A3E45B
:0C1A35009342A0121CE67580FF0D80C6D5
:011A41002282
:101C3F0053A01FE520F4F580901961E49342A0535F
:031C4F00A01F22B1
:101C640053A01F852180901962E49342A053A01FC2
:011C7400224D
:0B1CDB00121C86121C96121AEF80F8F3
:030023000218952B
:10189500C0E0C0D075D01030983AC2987849E6FFBC
:1018A5002427F8A69974272FF8E6FFB43F02800F86
:1018B500EFB40A11784906E62427F87600D21F7896
:1018C500497600800F784906E6C3940F74809480AA
:1018D50040027600309924C299784AE62437F8E622
:1018E5006013F599784A06E6C3940F748094804096
:1018F5000A76008006784A7600C220D0D0D0E03241
:03003B00021A7F27
:101A7F00C0E0C083C082C0D075D01830D818C2D88B
:101A8F00AFFAEFFFADEAED900132CFF0A3EFF0D256
:101A9F001BC2DE53DAFE30DF09C2DFD21AC2DE53B9
:0B1AAF00DAFED0D0D082D083D0E0322D
:030063000216BBC7
:1016BB00C0E0C0D075D0187826E61846600708E65B
:1016CB001618700116784CE61846600908E61618CD
:1016DB00700C168009784B76010876F4D21C784F83
:1016EB00E61846600908E61618700C168009784E45
:1016FB0076030876E8D21D7852E61846600908E6AC
:10170B001618700C168009785176010876F4D21EE3
:10171B007863E61846600908E61618700C168009FF
:10172B00786276010876F4D2197848E61846600993
:10173B0008E616187014168011784776030876E8B9
:10174B00784DE66005E616785CF67860E61846603C
:10175B00130806E618700106861E4E7007785F7632
:09176B00030876E9D0D0D0E03289
:101BE300E4FEEEC3940874809480500FC297EF1301
:0B1BF30092A3EFC313FFD2970E80E710
:011BFE0022C4
:10002600C29300C29700D29300121BE3AF05121BC6
:04003600E3C293226C
:101A4200E4FDC29300C29700D29300121BE3E4FFAD
:101A5200EFC39408748094805011C297EDC313FDB4
:101A620030A3034480FDD2970F80E5C29300C29752
:0C1A720000D29700C2A300D2A300AF0571
:011A7E002245
:041CC300D2A07F0527
:081CC70000AE071FEE70F922C8
:0F1CB400D2A1121CC3C2A17F05121CC7C2A0225D
:0C1CCF00C2A1121CC3D2A17F05021CC7D9
:101BFF00C2A0A21092A17F05121CC7121CC3C2A0C3
:071C0F00D2A17F05021CC7F2
:101C7500121CC3A2A19210C2A07F05121CC7A210FC
:011C8500223C
:021ABA00AD0776
:101ABC00E4FCECC39408748094805024C2A07F058D
:101ACC00121CC7ED30E704D2A18002C2A17F05121F
:101ADC001CC7D2A0ED25E0FD7F05121CC70C80D2DF
:021AEC00C2A096
:011AEE0022D5
:101BBD00E4FCECC39408748094805017121CC3EDA0
:101BCD0025E0FD30A1034401FDC2A07F05121CC715
:051BDD000C80DFAF05E4
:011BE20022E0
:041C16007F057E00C8
:101C1A007C007D0C1205CDEF1FAC0670011E4C70C6
:021C2A00F622A0
:021B4800AB07E9
:101B4A00E4FAEAC39408748094805012C294EB13A6
:101B5A009294121C16D294EBC313FB0A80E47F05FD
:051B6A007E00021C1AC0
:10003E00E4FAEAC39408748094805014C294EBC31B
:10004E0013FBD2943094034480FB121C160A80E2F8
:02005E00AF03EE
:01006000227D
:101B6F00C210D2947F0C7E00121C1AC2947F507E3A
:101B7F0000121C1AD294121C16A29492107F0A7E85
:061B8F0000121C1AA21056
:011B9500222D
:10006600EC4D6011E8497017ED33EC3304600DE494
:10007600FCFFFEFD22E933E8330470F80202B612F3
:10008600028158046009E4CC2481500628500902F4
:1000960002C02840030202BDC0E0EB4A7044B980AA
:1000A60006D0E0FB0202ACEF4E701CBD8008EBFFF1
:1000B600EAFEE9FD80EBE98DF0A4FEE5F002014FD2
:1000C600E9CDF9EAFEEBFFEF89F0A4FCE5F0CE8975
:1000D600F0A42EFFE435F0CD89F0A42DFEE435F032
:1000E6008067EF4E7005BD80D780C3EF8BF0A4AC60
:1000F600F0EE8BF0A42CFCE435F0F8EF8AF0A42C9B
:10010600E5F038FCE433CB8DF0A42CFCE5F03BF8AD
:10011600EE8AF0A42CFCE5F038F8E433CF89F0A49D
:100126002CFCE5F038CF3400CE89F0A42FFFE5F0A3
:100136003EFEE433C98DF0A42EFEE5F039CD8AF0FB
:10014600A42FFFE5F03EFEE43DFD33D0E0FB500773
:100156000BBB000F0202C0EC2CFCEF33FFEE33FEAC
:06016600ED33FD020298DA
:10016C000202C0EC5D046005E8590470030202B69B
:10017C00120281580460F6EC4860F2EC7004FDFE4B
:10018C00FF22C860DB2481C85009C3986002500666
:10019C000202BD9850CAF582E9294B4A7005AB8220
:1001AC000202AC75F0007C1A7880C3EF9BEE9AEDDE
:1001BC0099400DC3EF9BFFEE9AFEED99FDE842F0DE
:1001CC00DC23ACF0D0E0FFD0E0FED0E0FDAB822031
:1001DC00E7101BEB60BAEC2CFCEF33FFEE33FEEDBB
:1001EC0033FD020298E803F830E705C0F075F00023
:1001FC00EF2FFFEE33FEED33FD40B830E7C280AA9F
:10020C0075F020800E75F010800575F0087D007E6D
:10021C00007F003392D530D503120634EC334010F6
:10022C00EF33FFEE33FEED33FDEC33FCD5F0ED2276
:0E023C00E5F0247EA2D513CC92E7CDCEFF22B2
:10024A00EDD2E7CD33EC3392D524814006E4FFFEAC
:10025A00FDFC22FCE4CFCECDCC24E0501174FF800B
:10026A00EDC3CC13CCCD13CDCE13CECF13CF0470A8
:07027A00F030D5DE0206346E
:10082F00E5082403F582E43401F583E005082290FE
:10083F000100301703900103E475F00112064E0218
:10084F0005752010E97F2ED2108018EF540F2490D9
:10085F00D43440D4FF30140BEF24BFB41A0050032C
:10086F002461FFE50960021509050CE50C7002050E
:10087F000B30170E900100E475F00112064EEF02D7
:10088F0005BB021B967403D2178003E4C217F50849
:10089F00900100120665E4F509F50BF50CE509600A
:1008AF00077F2012087280F5750AFFC211C210C2AD
:1008BF0012C213C215C216C21812083EFF700D30B5
:1008CF0017057F00120883AF0CAE0B22B4255FC251
:1008DF00D5C21412083EFF24D0B40A00501A75F086
:1008EF000A780930D50508B6FF0106C6A426F620FA
:1008FF00D5047002D21380D924CFB41A00EF50045C
:10090F00C2E5D214020B75D21180C6D21080C0D2AC
:10091F001280BCD2D580BAD21580B47F2012087253
:10092F002012077401B5090040F112082FFF1208B9
:10093F00720208ACD218D216809512082FFB12083B
:10094F002FFA12082FF94A4B700679737A0C7BFF36
:10095F0020122EE509602A7E008E82758300120513
:10096F008E60060EEE650A70F0C2D5EBC0E0EAC0ED
:10097F00E0E9C0E0EE120BD6D0E0F9D0E0FAD0E01B
:10098F00FB120575FF60AAEBC0E0EAC0E0E9C0E02A
:10099F00120872D0E02401F9D0E03400FAD0E0FB65
:1009AF00E50A0460DCD50AD98087D21280A2120B27
:1009BF00B860F7E50A7001041202CBA90A600DE5D1
:1009CF000A600914F50A120C60EF60F3EA30E702CF
:1009DF00F404C3995079EAF4250A0430E701E404DA
:1009EF00F50A800D120BB860C1EA050A250A12023A
:1009FF00CBEA90012FF030E701E4250A04D50A0471
:100A0F0020150114120BD6E4C0E0120C6090012FD8
:100A1F00E0601320E70714F012085A802204F0D088
:100A2F00E014C0E07F0012085AE50A60071208516F
:100A3F00150A800B301503120851D0E00208ACD014
:100A4F00E00480C4120BB8609EE50A041202CB903A
:100A5F00012FEAF0E50A2015026001042404120BAD
:010A6F00D6B0
:100A700074FF04C0E0120C6012085AE50A20150247
:100A80006003120851D0E0B50AE87F45120864906F
:100A9000012FE07F2B30E7047F2DF404C0E0120823
:100AA00072D0E075F00A84C0F012085BD0E0120842
:100AB0005B0208AC791080027908C216C21880085F
:100AC000D2D5790A8004790AC2D5E50A047002F504
:100AD0000AE4FAFDFEFF12082FFC7B082011131216
:100AE000082FFD7B1030100A12082FFE12082FFF6E
:100AF0007B20EC3382D592D55013C3E43010069F8F
:100B0000FFE49EFEE42011039DFDE49CFCE4CBF891
:100B1000C211EC700CCFCECDCCE824F8F870F38085
:100B200017C3EF33FFEE33FEED33FDEC33FCEB3355
:100B3000FB994002FB0FD8E9EB301105F8D0E0C477
:100B400048B211C0E00AEC4D4E4F78207B0070C2D5
:100B5000EAB50A0040BCC0E0120BD8D0F0D0E020CB
:100B60001104C4C0E0C4B211C0F012085BD0F0D5CB
:100B7000F0EB0208AC12066E0949530AB458091A80
:100B80004C0916420AB84F0AC0440AC049092F430B
:100B90000AC65509F3460A534509BD470C93500947
:100BA0001E2D09222E09452B0926230943200C7CE2
:100BB0002A08DE480000093DE50AB4FF03750A066D
:100BC00012082FFC12082FFD12082FFE12082FFF0B
:100BD000900128020308790AA2D5201314301509C0
:100BE000B910020404B9080104A2D520160250016C
:100BF000042012689212B509005034C0E07F203002
:100C000013197F30A21272167215500F120C2FC2D8
:100C100012C216C215C2187F30800F301503E9C00A
:100C2000E0120872301503D0E0F9D0E0B509CC30FD
:100C300015177F30B9100C1208727F583014077FD7
:100C4000788003B908031208723012057F2D02085C
:100C5000727F202018F87F2B2016F322921280CF6B
:100C60007F00B40700500B2428F582E43401F5839B
:100C7000E0FF22286E756C6C2900D21112082F300B
:100C800011F8C211780930D50108F60208DE2D509E
:100C900043495812082F2403B405004001E4900C86
:100CA0008E93120863743A120863D2137509040212
:020CB0000AB484
:10028100E9D2E7C933E833F892D5EDD2E7CD33ECC3
:0702910033FC5002B2D5223C
:10029800EC30E7100FBF000C0EBE00080DBD0004C7
:1002A8000BEB6014A2D5EB13FCED92E7FD2274FF73
:1002B800FCFDFEFF22E480F8A2D574FF13FC7D80CC
:0302C800E480EFE0
:1002CB00F920E73624F950037907E4F42402FBE51F
:1002DB0082158270021583DBF6E024FB501BE9606C
:1002EB0014E4F0E582158270021583E004F0B40A81
:0D02FB0008E4F0D9EE7401F00A22C2D52209
:10030800ED33EC3392D5FA602AB4FF33EDC2E77BC4
:10031800FF60067A03792DE4227A03793620D50422
:100328007A037931224E614E002B494E46002D4901
:100338004E4600E47A08F0A3DAFC7B00740722C07A
:1003480083C082ECC0E0EDC0E0EEC0E0EFC0E0EAC0
:1003580075F010A4CAABF075F04DA42BFBE435F092
:10036800FCEA2410FAEB34C5FBEC34D9FCEDC2E707
:10037800FF75F056A4F42411C5F0F434C58FF0A429
:100388002AE5F03BE43CF020E714120535D0E0FF05
:10039800D0E0FED0E0FDD0E0FC12016F8014F40440
:1003A800120535D0E0FFD0E0FED0E0FDD0E0FC1231
:1003B8000066D082D083E0FAEDD2E7CD33EC332467
:1003C80082FBE4C3CF33CFCE33CECD33CD33DBF393
:1003D8007B0775F00A846004F0A31B0AE5F0F0A31C
:1003E8008FF0740AA4FFACF08EF0740AA42CFEAC53
:1003F800F050010C8DF0740AA42CFDE435F0F0A344
:05040800DBDE74072299
:10040D000202B6E86480F8E933E83360110460F065
:10041D00ED33EC337009E8FCE9FDEAFEEBFF220455
:10042D0060DED3EB9FEA9EE99DE8C2E78CF0C2F750
:10043D0095F0400CE8CCF8E9CDF9EACEFAEBCFFB1C
:10044D0012028185D0F05804700320D5B3E80470F2
:10045D00075002B2D50202C092D5EC0460F7E4CC8D
:10046D00C0E0C398F8603B94186008400DD0E0FBE5
:10047D00020298E4FBFAC9FC8028E830E406E4C9DE
:10048D00FBE4CAFCE830E305E4C9CACBFCE8540739
:10049D006010F8C3E913F9EA13FAEB13FBEC13FC44
:1004AD00D8F130F52FC3E49CFCEF9BFFEE9AFEEDE7
:1004BD0099FDD0E0FBEF4E4D4C701222DB03020292
:1004CD00BDEC2CFCEF33FFEE33FEED33FDED30E7ED
:1004DD00EB020298EF2BFFEE3AFEED39FDD0E0FB7B
:1004ED0050130BBB00030202C0ED13FDEE13FEEF24
:0804FD0013FFEC13FC0202984E
:100505003F8000004120000042C80000447A0000FE
:10051500461C400047C35000497424004B18968080
:100525004CBEBC205A0E1BCA6753C21C749DC5AE77
:10053500FB60065407601C2323120563EB543860E7
:100545000912054F12055E120066ECF8EDF9EEFA98
:10055500EFCB22EB12055E80F1543803241C900585
:1005650005FE93FC0EEE93FD0EEE930ECE93FF2249
:03000000021809DA
:0C180900787FE4F6D8FD7581630218506A
:10057500BB010689828A83E0225002E722BBFE0284
:09058500E32289828A83E49322B7
:10058E00BB010CE58229F582E5833AF583E0225022
:10059E0006E92582F8E622BBFE06E92582F8E2226C
:0D05AE00E58229F582E5833AF583E4932286
:1005BB00BB010689828A83F0225002F722BBFE011F
:0205CB00F32219
:1005CD00EF8DF0A4A8F0CF8CF0A428CE8DF0A42E42
:0205DD00FE22FC
:1005DF00BC000BBE0029EF8DF084FFADF022E4CC00
:1005EF00F875F008EF2FFFEE33FEEC33FCEE9DECC9
:1005FF00984005FCEE9DFE0FD5F0E9E4CEFD22ED0F
:10060F00F8F5F0EE8420D21CFEADF075F008EF2F58
:10061F00FFED33FD4007985006D5F0F222C398FD49
:05062F000FD5F0EA22E6
:0E063400C3E49FFFE49EFEE49DFDE49CFC22D7
:0C064200ECF0A3EDF0A3EEF0A3EFF0222B
:10064E00F8E0FBA3A3E0F925F0F0E5821582700235
:07065E001583E0FA38F022D9
:09066500EBF0A3EAF0A3E9F02296
:10066E00D083D082F8E4937012740193700DA3A31B
:10067E0093F8740193F5828883E47374029368602F
:06068E00EFA3A3A380DF2F
:101B9600EFB40A07740D121BA1740A309811A899A4
:101BA600B8130CC2983098FDA899C298B811F630AF
:071BB60099FDC299F5992287
:10069400E3F5F009E208B5F06D606B80F3E3F5F083
:1006A40009E608B5F060605E80F387F009E608B5F6
:1006B400F054605280F487F009E208B5F0486046CF
:1006C40080F488828C8387F009E0A3B5F038603623
:1006D40080F488828C8387F009E493A3B5F02760C3
:1006E4002580F388828C83E3F5F009E0A3B5F01646
:1006F400601480F388828C83E3F5F009E493A3B556
:10070400F004600280F20207BF808580E7808E805B
:10071400D2803C8015806C807E809B80B5808B80ED
:10072400A1804F8070803A0207CB89828A83ECFAD9
:10073400E493F5F0A3C8C582C8CCC583CCE493A3E5
:10074400C8C582C8CCC583CCB5F070606E80E18921
:10075400828A83E493F5F0A3E208B5F05E605C80DE
:10076400F289828A83E0F5F0A3E608B5F04D604B88
:1007740080F389828A83E0F5F0A3E208B5F03C6057
:100784003A80F389828A83E493F5F0A3E608B5F00E
:100794002A602880F2805389828A83ECFAE493F5F4
:1007A400F0A3C8C582C8CCC583CCE0A3C8C582C8A1
:1007B400CCC583CCB5F004600280E27FFFB5F002C3
:1007C4000F2240027F012289828A83ECFAE0F5F04D
:1007D400A3C8C582C8CCC583CCE0A3C8C582C8CC95
:1007E400C583CCB5F0D560D380E389828A83ECFAE3
:1007F400E0F5F0A3C8C582C8CCC583CCE493A3C8F4
:10080400C582C8CCC583CCB5F0B160AF80E288F0B6
:10081400ED2402B4040050A3F582EB2402B40400D6
:0B0824005099232345822390070D7399
:10181500021CDBE493A3F8E493A34003F68001F2F2
:1018250008DFF48029E493A3F85407240CC8C333D4
:10183500C4540F4420C8834004F456800146F6DFA3
:10184500E4800B0102040810204080901774E47EA8
:10185500019360BCA3FF543F30E509541FFEE49398
:10186500A360010ECF54C025E060A840B8E493A35F
:10187500FAE493A3F8E493A3C8C582C8CAC583CA8A
:10188500F0A3C8C582C8CAC583CADFE9DEE780BE42
:0118080000DF
:00000001FF
